:020000040000fa
:080000000001040000000000f3
:020000040000fa
:10000800da010000aa010000b0010000b6010000fa
:10001800bc010000da010000da010000da0100008a
:10002800da010000da010000da0100000413000020
:10003800da010000da010000f8140000da0100001b
:10004800da010000da010000da010000da0100003c
:10005800da010000da010000da010000da0100002c
:10006800da010000da010000da010000da0100001c
:10007800da010000da010000da010000da0100000c
:10008800da010000da010000da010000da010000fc
:10009800da010000da010000da010000da010000ec
:1000a800da010000da010000da010000da010000dc
:1000b800da010000da010000da010000da010000cc
:1000c800da010000da010000da010000da010000bc
:1000d800da010000da010000da010000da010000ac
:1000e800da010000da010000da010000da0100009c
:0800f800da010000da0100004a
:020000040000fa
:10010800da010000c2010000c8010000ce010000b1
:10011800d4010000da010000da010000da01000071
:10012800da010000da010000da01000032130000f1
:10013800da010000da010000fe140000da01000014
:10014800da010000da010000da010000da0100003b
:10015800da010000da010000da010000da0100002b
:10016800da010000da010000da010000da0100001b
:10017800da010000da010000da010000da0100000b
:10018800da010000da010000da010000da010000fb
:10019800da010000da010000da010000da010000eb
:1001a800da010000da010000da010000da010000db
:1001b800da010000da010000da010000da010000cb
:1001c800da010000da010000da010000da010000bb
:1001d800da010000da010000da010000da010000ab
:1001e800da010000da010000da010000da0100009b
:0801f800da010000da01000049
:020000040000fa
:100200004fc220000e7f22000e0188000000000077
:10021000000020000000e000020032000001200089
:10022000200288000c000700e0512100010020009e
:1002300011000700000020000000e0000200320072
:100240000000020000000000761302000000000021
:100250000040da000000fe004440a9000000200039
:100260000000e0000300320000002000a001880030
:100270004440a8000000060091018800800078003a
:100280000000eb0015003700e280400032a0b4000f
:100290009101ba00e280400032a0b4009102ba009d
:1002a000e280400032a0b4000002eb00472bde00e9
:1002b000f507b200602ce10004003a000059eb00a1
:1002c0008301e900fdff3e00040037006128e100e2
:1002d000010032000082eb00040007001101ba00a7
:1002e0000200e000e8ff3a00000006003159ba00c1
:1002f0008301e9000c0032002159ba008301e900b2
:10030000080032000400e00003003a00e2804000f0
:1003100032a0b400f5ff370011d9ba008301e9001b
:10032000faff3a008100e800e180400032a0b4000a
:1003300000000600f6090400000000005e1504003d
:1003400000000000ac13040000000000d013040003
:10035000000000000000fa008020a900ffff370025
:100360000000fa008060a900ffff37000000fa00db
:100370008040a900ffff37000000fa008080a9003c
:10038000ffff37000000fa008020a900ffff3700c0
:100390000000fa008060a900ffff37000000fa00ab
:1003a0008040a900ffff37000000fa008080a9000c
:1003b000ffff37000000fa00ffff3700889fbe00f4
:1003c0008004780010418000e00f500004003a00e3
:1003d0000e0007000084eb00e00f5000080035001d
:1003e00018418000e08f54000500320009004400ed
:1003f00006000700e00f500001003d000084eb0004
:10040000080078004f04be0000000600e00f500016
:1004100004003a0044822000144188000002780061
:10042000060037000082eb0045c22000850f500017
:1004300002003e00104188000002eb00040078003a
:100440000000060024812000e487470095408000da
:10045000889fbe008a9fbe008c9fbe008e1f7800c2
:10046000e08f52000b003a0024029800e4024200a0
:10047000f44088009540880005418800a44290001f
:100480000504a00025429800e44290000504a00065
:100490006542980067044000448220002500200047
:1004a0004244de0049c220004244dd0084845400fe
:1004b00005074400110009008504d8007cc2200013
:1004c000f24080000406560080bf9f000e074700e0
:1004d0000003eb00e4054400080646000200370074
:1004e000160020000d017800224290006102620097
:1004f000020032000a0037001509780092027800e5
:100500002542900061026200fbff320008024100b8
:10051000848f520002003900e00f54003f003d007c
:10052000920678000d00a100828f5600edff3e007c
:10053000e10f5300eaff3a000fba9700840f54000e
:1005400002003600890f540010003900614ab900da
:10055000b0ff2f00010020006143b80004025000ea
:1005600085825800840f5300858f5b0002003500a0
:100570000b05780006003700110009000986d80035
:100580000982b90004057800010037000e057800e3
:100590000a00780089ff0700e10f400005003a00db
:1005a0000b0578000b00780084ff0700e10f400086
:1005b0002b00320004418000000a780004418000d2
:1005c00064034200a4429000860f500002003200f3
:1005d0000504a000010037000504a1002542980091
:1005e00064055500248120000a0540000a087800af
:1005f0000a418800040d7800054180000003eb00eb
:10060000254290000404a000a442980020429000db
:100610000404a10024409800b2ff3700f440880091
:10062000848f5200070036001403be008042eb00a6
:10063000d6408800e7408800120a7800f440800025
:100640002542980022429000f74080000404a00058
:100650000709780024419800640041000100370038
:100660000000eb004f0778004f06be004f05be00ac
:100670004f04be004f00b10000000600e00f500024
:100680000800320064005000f4408000840f5000e5
:1006900001003100f0408800204290000404a100d5
:1006a0002440980000000600889fbe0000047800e7
:1006b0008a9fbe0081047800e08f540005003a0054
:1006c000e00f54003200320008007800ebff070012
:1006d00030003700e00f540004003a0009007800b1
:1006e00058ff0700800478002a0037006402540095
:1006f0009405780068fa97006102620002003200f7
:1007000008007800ddff0700090078004dff0700b2
:1007100080047800e08f54001e003200888f54005f
:100720001b00320069bd97008885550009055500fa
:10073000c2ddde0042d5de000a0178008b0f5500d5
:10074000010036000b0178004211dd0088007800be
:100750000900780013000700888f54000d00310055
:100760004255dd000a854400880f55000900360017
:1007700008045500d4408000e540800042c4de00fb
:100780004244dd0008844400048cbe0001003700b0
:1007900088047800090078004f05be004f04be00b1
:1007a000000006000002780002003700315a78008d
:1007b0000201e900e00f5100fcff3a0000000600d2
:020000040000fa
:1007c0000200fa000700370004408000040f7800a0
:1007d00004408000140a9000044088001e00780045
:1007e0003d01070004408000e00f5200f6ff3a0090
:1007f0000700370024408000040f78002440800068
:10080000140a9000244088001e007800320107007e
:1008100024408000e00f5200f6ff3a000002eb0097
:10082000144088004001200006ff07000002780005
:100830000440880004408000e00f52002200320093
:10084000044080006802420004007800a20807000b
:10085000044080008002eb00750298000640800092
:1008600005408000044080008e0078000f00780072
:100870000701800021039800900298003702980039
:10088000044080008082eb00550298000440800004
:100890008002eb00050a9800044080008002eb0013
:1008a000150a9800044080008002eb00050a7800d9
:1008b000044080008002eb00650298000440800044
:1008c0001440880001003700000000000080fa009a
:1008d000000006000400fa000002eb00040f78009c
:1008e0000440800014079800040037001e0fe80041
:1008f0001e029000940a9000150798001e029000b6
:10090000e00f5200f9ff3a002440800014079800dd
:10091000040037001e0fe8001e029000940a9000a9
:10092000150798001e029000e00f5200f9ff3a00f0
:100930001e027800040078000080fa000000060023
:100940000400fa00000f780011079800744080003e
:100950009e027800840a78000402e800744088004f
:100960001e029000e00f520002003a00840c2000aa
:10097000140798009e027800688242000400780004
:10098000550807001e009000aefe07000002780028
:10099000840278001e027800750298001e0278001a
:1009a00074029000e00f520002003a000042eb0097
:1009b000130037001e027800740290008402780051
:1009c0001e027800150298001e0278009402900022
:1009d0001e027800250298001e0278009402900002
:1009e0001e029000848242001e02780035029800a8
:1009f0001e0278008002eb006502980014c0b3006c
:100a0000044078000080fa00000006000400fa00ac
:100a100010079800400120008afe070000027800bd
:100a2000040f78001e027800e00f520002003a0026
:100a30000042eb003b0037001e0278008000eb0014
:100a400004007800beff0700004278000404a20002
:100a5000e04f5200040032001e00780007ff07003c
:100a60000042eb002f0037001e027800f50f200037
:100a7000550298001e027800e5ab2b004502980055
:100a80001e0278008002eb00050a98001e02780022
:100a90008002eb00150a98001e027800a402900064
:100aa0001e027800140390001e027800b403900028
:100ab0001e029000881f7800891f78008a1f780026
:100ac0000e0478008f0478000a0180000507780082
:100ad0008607780007018800841f78000000200046
:100ae000801f78000e0378008f02780008077800d6
:100af000890778000a0188004f057800cf04780044
:100b00004f0478001e027800260298001e0278002a
:100b100015029800018020001e0078007b0107006c
:100b200014c0b300044078000080fa000000060002
:100b30000400fa00100798001e029000e00f520017
:100b40002400320014408000940278001e029000bd
:100b5000848f520002003a00210007001e00370077
:100b6000018020001e0090001c0107000002780098
:100b7000040f78001e027800e00f520006003200d9
:100b80001e027800d5ea2d00450298001e0078006c
:100b90005100070010003700418020001e00900027
:100ba0000e01070000027800040f78001e02780092
:100bb000e00f5200080032001e027800d5ea2d0036
:100bc000450298001e007800430007000000000066
:100bd00001003700000000000080fa00000006005d
:100be0000400fa001440800014027800e00f520064
:100bf0002600320014408000d5ea2d0045029800fe
:100c000014408000140278000400780015060700e4
:100c100014408000040a9000e00f52000a003a00dd
:100c200014408000040f7800030037001e02780093
:100c3000940a9000050f78001e027800e00f520021
:100c4000faff3a000300370014408000840a900045
:100c5000050f780014408000140278000180200005
:100c600004007800dd0007000002780014079800f7
:100c7000618020001e009000240107001e02780001
:100c800014408800950607000100370000000000ae
:100c90000080fa00000006000400fa0034408000e2
:100ca000040f7800070037009e02780015079800af
:100cb0001e027800940a9000050f78001e00900034
:100cc000050007001e027800e00f5200f6ff3a0010
:100cd0000080fa00000006000200fa00000f780011
:100ce000920107001e007800e30307001e0278004f
:100cf000740290000400780060fe07001e02780075
:100d00008002eb00750298001e0078005bfe070071
:100d10008a0107000080fa00000006000000fa00c7
:100d200014408000e00f5200280032004200f8001a
:100d3000801f7800811f7800821f7800831f780051
:100d4000841f7800851f7800861f7800871f780031
:100d5000881f7800891f78008a1f78008b1f780011
:100d60008c1f78008d1f78008e1f78002200f800fd
:100d70002800f8003200f8003400f8003600f800cf
:100d80003800f8003c00f8003a00f8004000f80095
:100d90003e00f8004400f8000080fe004200f80029
:100da000801f7800811f7800821f7800831f7800e1
:100db00015408000144080008e0378000f037800f7
:100dc000a7029800160298000100370000000000fa
:100dd0000080fa00000006000600fa00000f78000c
:100de0001107980022079800801878000100780009
:100df0000080fa00be1878000f70e100fdff35009a
:100e00000007780081077800020188008e1f7800b3
:100e10000f077800801f7800811f7800821f7800fc
:100e20000080fa00000006000200fa00000f7800bf
:100e3000baff07001e027800340390001e027800fb
:100e4000940290001e0278002402900006017800af
:100e50008500780004007800dfff07001440800060
:100e600055552500450298001e027800c4029000e6
:100e7000e4ab2b00848f520008003a00d70507002e
:100e80001e0278008082eb00450298001e02780066
:100e9000144088000080fa00004006001e0278001e
:100ea0008082eb00450298001e0278001440880002
:100eb0000080fa00cf0178004f017800cf00780061
:100ec0004f0078004200f90000a0fe004400f90045
:100ed0003e00f9004000f9003a00f9003c00f9003a
:100ee0003800f9003600f9003400f9003200f9004a
:100ef0002800f9002200f9004f077800cf0678009b
:100f00004f067800cf0578004f057800cf047800b1
:100f10004f047800cf0378004f037800cf027800a9
:100f20004f027800cf0178004f017800cf007800a1
:100f30004f0078004200f9000080fa000080fa00bb
:100f4000000006000080fa00000006000400fa001d
:100f50001007980004408000040f78000b00370051
:100f60001e027800940278001e029000848f5200c6
:100f700003003a001e007800abff070006003700b0
:100f80001e027800940a9000050f78001e02780077
:100f9000e00f5200f2ff3a000080fa000000060065
:100fa0000000fa0014408000140a9000e00f520084
:100fb00004003a0004408000040078009aff070013
:100fc0000400370014408000140a900004007800e8
:100fd00095ff07000080fa00000006000800fa00f4
:100fe00020079800310798003e0290001402780014
:100ff000e00f520002003a000002eb004000370010
:101000003e02900014027800940278002e029000b4
:10101000848f520015003a00c40007003e02900081
:1010200094027800150798001e029000940a900020
:101030003e029000050a78003e02900014027800fb
:101040008002eb00050a98001e0290008002eb006f
:10105000050a98001e0290008002eb00150a980015
:10106000b60007001e029000250037003e029000e7
:1010700014027800940a9000050f78001c003700d5
:101080001e027800940278002e029000848f520095
:1010900014003a00a50007001e027800040a900020
:1010a0009e027800950a9000150a98001e027800aa
:1010b000140a90009e027800850a9000050a9800a4
:1010c0001e0278008002eb00050a98001e027800dc
:1010d0008002eb00150a9800980007001e027800b5
:1010e000070037001e027800940a9000050f780070
:1010f0001e027800e00f5200e1ff3a000002eb0010
:10110000040078000080fa00000006000600fa00e3
:1011100010079800210798001e029000e00f52006f
:10112000590032001e0290008002eb00050a980070
:101130001e0290008002eb00150a98002e0290001b
:1011400014027800e00f520004003a002e029000d2
:101150009e029000050a78004c0037002e02900095
:1011600014027800940278001e02900014027800a5
:10117000848f5200110036006c0007002e02900090
:10118000940278001e029000150a98001e0290003a
:101190008002eb00050a98002e02900014027800ed
:1011a0009e029000050a98002e0290009e02900078
:1011b000050a780061000700340037002e02900015
:1011c000140f78001f0037001e027800140a9000e8
:1011d000940278001e02900014027800848f52005e
:1011e00015003600510007001e027800940a900096
:1011f0001e029000150a98001e029000140a90002a
:10120000e00f5200040032001e029000140a900009
:101210009e029000050a98001e0290009e0278002f
:10122000050a98001e0278009e029000150a980098
:1012300042000700150037001e027800940a900053
:10124000050f78001e027800140a9000e00f52008b
:10125000ddff3a00350007001e0290008002eb001f
:10126000150a98001e0278009e029000150a980048
:101270001e0290009e027800050a98002f000700c9
:101280000000000001003700000000000080fa00ac
:10129000000006000400fa001007980004408000d7
:1012a000040f78000a0037001e02780094027800cc
:1012b0001e029000848f520002003a001e02780045
:1012c000170037001e027800940a9000050f78007e
:1012d0001e027800e00f5200f3ff3a002440800025
:1012e000040f78000a0037001e027800940278008c
:1012f0001e029000848f520002003a001e02780005
:10130000070037001e027800940a9000050f78004d
:101310001e027800e00f5200f3ff3a000002eb00db
:10132000040078000080fa00000006000000fa00c7
:10133000e10407000080fa00000006000000fa0047
:10134000e20407000080fa00000006000800fa002e
:101350001007980021079800320798000440800089
:10136000e00f52001c00320004408000140a90007c
:10137000e00f52001a003200ecff0700018020004d
:101380001e00900015ff070000027800040f78008f
:10139000418020001e0078005cff07002e009000b6
:1013a000ba020700be019000629f20009e009000dc
:1013b0002e009000ed020700144080009402780097
:1013c0001e029000848f520001003a00c3040700ff
:1013d000daff0700030037000000000001003700bb
:1013e000000000000080fa00000006000c00fa0077
:1013f0003007980041079800520798002440800069
:10140000e00f520002003a0014c0b3002b00370076
:10141000c6ff0700418020003e009000effe07005d
:101420000002780024079800018020002e00900020
:1014300036ff0700c1ff07002e0290006c02420039
:1014400004017800619f20004e0090009a0107007f
:101450000042eb00044f78002e029000e40290005e
:10146000150798000a0037001e02900094027800c9
:101470004e029000848f520002003a0014c0b30064
:10148000044f78001e029000c402900015079800d7
:101490001e029000e00f5200f3ff3a001e42780057
:1014a0000404a200e04f520003003200be0090008e
:1014b0004e0090004803070014c0b30004407800b9
:1014c0000080fa00000006000e00fa0030079800c5
:1014d0004107980052079800630798005e02900049
:1014e000e00f520002003a0014c0b3003d00370084
:1014f0003e00900067ff0700000278001407980084
:101500001e029000e00f520002003a000042eb0081
:1015100034003700a0002000cafb0700000278005a
:10152000240798002e029000e00f520002003a00bb
:101530000042eb002b0037002e029000ce029000fc
:10154000050a78002e029000de0290001502980035
:101550002e029000ee029000250298002e029000cc
:101560008002eb00450298002e0290008002eb0002
:10157000350298001e02900064029000e00f5200b5
:10158000140032001e029000e4029000050f780063
:10159000070037001e02780044029000e00f52005e
:1015a000070032001e027800c4029000050f780088
:1015b0001e027800e00f5200f6ff3a0001003700eb
:1015c000000000001e027800ae0290004502980064
:1015d000030037001e029000ae02900065029800e2
:1015e00014c0b300044078000080fa000000060038
:1015f0000600fa0010079800210798001e029000cc
:10160000040f78000a0037001e0278009402780068
:101610002e029000848f520002003a001e027800d1
:10162000070037001e027800c4029000050f780002
:101630001e029000e00f5200f3ff3a000002eb00a0
:10164000040078000080fa00000006001400fa0090
:101650006007980071079800020f9800130f980018
:101660006e0090000bff070000027800440798000e
:101670004e029000e00f5200920032004440800081
:10168000e00f52000d003a0028ff07004000200044
:101690006cfb070000027800444088004440800052
:1016a000e00f52008900320044408000fe029000aa
:1016b000050a780021ff070023003700444080001e
:1016c000040f78001e027800940278007e029000d9
:1016d000848f52001b0032001e027800140290001a
:1016e000e00f520010003a0010ff070040002000f9
:1016f00054fb070000027800840278001e02780084
:10170000150298001e02780014029000e00f5200ab
:10171000700032001e02780014029000fe02900059
:10172000050a7800080037001e0278009402900035
:10173000050f78001e027800e00f5200e1ff3a002a
:1017400001003700000000004e029000e40290000b
:1017500015079800520037000042eb0044479800fc
:101760001e02900024029000e00f52000700320099
:101770001e029000240290000e0890000400010058
:1017800000427800444798000200370014c0b300bc
:10179000444798004e429000e04f52004000320013
:1017a0006000200027fb0700000278005407980023
:1017b0005e029000e00f5200480032001e0a9000c6
:1017c000e00f5200140032001e0890001dfb0700bd
:1017d00000027800840278005e029000050a78001a
:1017e0005e02900014027800e00f520003003a00fd
:1017f0005e009000a1fb0700390037005e029000f8
:10180000140278001e0990008e08900004007800f1
:10181000e4fb0700030037005e0290008002eb004b
:10182000050a78005e0290009e0a9000150298005a
:101830005e0290008002eb00250298001e029000dc
:1018400034029000e00f520004003a001e029000a3
:10185000de029000350298000e0037001e02900054
:10186000b402900035079800030037003e02900054
:10187000a4029000350798003e02900024029000d8
:10188000e00f5200f9ff3a003e029000de029000a5
:10189000250298001e029000c402900015079800cf
:1018a000fe0090001e00900051ff0700000278002b
:1018b000140798001e029000e00f5200a6ff3a00a5
:1018c000070037000000000005003700000000009e
:1018d0000300370000000000010037000000000096
:1018e0000080fa00000006000800fa0020079800b7
:1018f000310798003e029000040f78002000370066
:101900001e027800e40290001507980016003700c8
:101910001e029000940278002e029000848f5200e4
:101920000e003a001e02900014029000e00f5200d8
:101930000a0032001e029000140390001e02900064
:10194000b40290001e0278001402780005017800ad
:10195000ae00900004007800060001001e02900016
:10196000c4029000150798001e029000e00f52007c
:10197000e7ff3a001e027800940a9000050f7800f5
:101980001e027800e00f5200ddff3a000080fa00ee
:10199000000006000400fa0044408000040f7800b4
:1019a0000002eb004440880013003700054080002f
:1019b0001e02780014027800850078000400780088
:1019c000c9ff0700254080001e027800140278003d
:1019d0008500780004007800c3ff07009e027800ad
:1019e000150798001e02780094029000050f7800f9
:1019f0001e00900021fb07001e027800e00f52003d
:101a0000eaff3a000080fa00000006000000fa0039
:101a1000e0ff0700f70207000080fa000000060060
:101a20000400fa001007980004408000040f7800ba
:101a3000090037009e0278006c82420004017800a1
:101a4000e1ff2f001e0090001b0007001e0278001f
:101a5000940a9000050f78001e027800e00f5200f3
:101a6000f4ff3a000080fa00000006000800fa00c7
:101a70001007980021079800320798001e00900078
:101a800004fe070000027800040f78001e027800b0
:101a9000e00f5200060032009e0278006c82420085
:101aa00004017800be0090002e00900002000700a4
:101ab0000080fa00000006000e00fa0040079800bf
:101ac00051079800620798006e029000e00f5200e4
:101ad000040032006e02900014027800e00f520001
:101ae00002003a000002eb00480037006e0290004e
:101af00094027800250798002e0290009402780046
:101b00004e029000848f520017003a005e0290004f
:101b1000e20f4200050032002e0290009402900075
:101b20005e029000848f52000f003a002e02900057
:101b3000c4029000350798002e029000c402900065
:101b40006e029000050a78002e02900066024200a4
:101b500004007800300007002e009000c7fa07004c
:101b60003e029000290037002e029000040f7800fa
:101b70002e029000c4029000150798001e029000eb
:101b8000940278004e029000848f520016003a00b2
:101b90005e029000e20f4200050032002e0290002b
:101ba000940290005e029000848f52000e003a0072
:101bb0001e029000c40290001e02780045029800a8
:101bc0001e02900066024200040078001200070026
:101bd0001e009000a9fa07001e027800c4029000bf
:101be00015079800050037001e029000040f7800ca
:101bf0001e029000c4029000150798001e0290007b
:101c0000e00f5200ddff32002e0290000400780049
:101c10000080fa00000006000600fa002007980085
:101c20002e029000140f78002e0290008002eb002c
:101c3000050a78000b0037001e0278001407980090
:101c40001e02900014027800040078008bfa07004e
:101c50001e00900089fa07001e027800a40290007e
:101c6000050f78001e027800e00f5200f2ff3a00e4
:101c70000080fa00000006000600fa002007980025
:101c80002e029000e4029000050f78002e029000d2
:101c90001402780004007800f20107000b003700fe
:101ca0001e027800140798001e027800c4029000fb
:101cb000050f78001e0290006602420004007800c2
:101cc000d5ff07001e0090006cfa07001e02780086
:101cd000e00f5200f2ff3a002e0290008002eb006b
:101ce000650298000080fa00000006000a00fa0071
:101cf00030079800410798001440800014027800d3
:101d00004e019000be009000040078008ffd070097
:101d100014408000e4029000050f78001e02780055
:101d200014079800250037001e02780094027800fe
:101d30003e029000848f52001b003a001e02780081
:101d4000a40290004e029000848f520016003a00c8
:101d50001e027800b4029000250798001e02900031
:101d60009e0f520005003a00144080009e02780049
:101d7000c502900065029800040037001e0278003a
:101d8000c40290001e029000450298001e027800d6
:101d90008002eb00450298001e00780037fa070029
:101da0002e029000090037001e02780014079800e8
:101db0001e027800c4029000050f78001e02780011
:101dc000e00f5200d8ff3a000002eb000400780058
:101dd0000080fa00000006000200fa00000f780000
:101de0008000eb001e007800c0ff070000027800b2
:101df000040078000080fa00000006000a00fa00e3
:101e0000200798003107980042079800ed0107006d
:101e10002e00900067010700000278001407980068
:101e20001e029000e00f520002003a000042eb0058
:101e3000130037001e02900094029000050f7800f6
:101e40000a0037001e02780014027800ce019000cc
:101e50003e019000ae00900004007800fbfd0700fa
:101e60001e02780094029000050f78001e02780090
:101e7000e00f5200f3ff3a00d801070014c0b3008e
:101e8000044078000080fa00000006000800fa0014
:101e90003007980084408000040f7800854080005f
:101ea000150798000002eb00240798000c0037008b
:101eb0001e027800940278003e029000848f520047
:101ec00002003a000042eb00250037001e0290009d
:101ed000040f78001e027800a402900015079800f5
:101ee0001e029000e00f5200f1ff3a006000200057
:101ef00054f9070000027800240798002e02900091
:101f0000e00f520002003a000042eb0014003700dc
:101f10002e029000be029000050a78002e0290006a
:101f20008002eb00150298002e0290008002eb0068
:101f30002502980084408000e00f520004003a001f
:101f40002e0290008440880014c0b30004003700c3
:101f50001e027800ae0290002502980014c0b30063
:101f6000044078000080fa00000006000e00fa002d
:101f700030079800410798005207980063079800bf
:101f800084408000040f7800450037001e0278006e
:101f9000940278003e029000848f52003d003a0087
:101fa000ee0190005e019000be0090004e00900097
:101fb00045fd0700004278000404a200e04f5200f3
:101fc000020032000042eb00390037001e027800a8
:101fd00094029000150798000a0037001e02900036
:101fe000940278004e029000848f520002003a0062
:101ff00014c0b3002e0037001e029000940290001f
:10200000150798001e029000e00f520004003200f5
:102010001e02900014029000e00f5200efff3a0001
:102020004000200007f9070000027800240798000c
:102030002e029000e00f520002003a000042eb0036
:102040001b0037002e029000ce029000050a780097
:102050002e0290008002eb00150298001e0278000c
:1020600014029000e00f520005003a001e027800b2
:10207000ae0290001502980014c0b3000c003700a7
:102080001e029000ae0290001502980014c0b3002a
:10209000070037001e027800a4029000050f7800a8
:1020a0001e027800e00f5200b8ff3a000042eb0039
:1020b000044078000080fa00000006000e00fa00dc
:1020c0006007980084408000040f780085408000fd
:1020d0001507980084408000e00f52003b0032005a
:1020e0001e027800940278006e029000848f5200e5
:1020f00032003a001e0278002402900084408800da
:102100001e0278009402900025079800070037000f
:102110002e029000440798002e0290009402900036
:10212000250798004e00900054f907002e029000f9
:10213000e00f5200f6ff3a006e00900038fe0700f4
:10214000230037001e029000940278006e02900077
:10215000848f520014003a001e027800940290000e
:1021600035079800070037003e029000540798009a
:102170003e02900094029000350798005e009000a7
:102180003ef907003e029000e00f5200f6ff3a00d1
:102190006e00900022fe07001e029000a402900034
:1021a000050f78000a0037001e029000040f780027
:1021b0001e029000a4029000150798001e029000d5
:1021c000e00f5200dfff3a0001003700000000007e
:1021d0000080fa00000006000a00fa0030079800ac
:1021e000410798003e00900072000700000278004e
:1021f000240798002e02900094029000050f7800aa
:102200002e02900014029000940278004e0290007a
:10221000848f52000c003a002e02900014029000ad
:10222000940290002e029000150298001e00780083
:1022300012f907000001eb00be0090004e00900074
:102240000afe07001d0037002e02900014029000c5
:102250009402900015079800150037001e029000a8
:10226000940278004e029000848f52000b003a00d6
:102270001e029000940290001e0278001502980041
:102280001e009000fdf807000001eb00be0090006a
:102290004e009000f5fd0700080037001e02900078
:1022a000040f78001e029000940290001507980019
:1022b0001e029000e00f5200e8ff3a000080fa0092
:1022c000000006000c00fa00300798004107980053
:1022d000520798003e009000360007000002780088
:1022e000240798002e02900094029000050f7800b9
:1022f0002e02900014029000940278005e0290007a
:10230000848f52000c003a002e02900014029000bc
:10231000940290002e029000150298001e00780092
:10232000d6f807004e019000be0090005e009000bd
:10233000cefd07001d0037002e0290001402900011
:102340009402900015079800150037001e029000b7
:10235000940278005e029000848f52000b003a00d5
:102360001e029000940290001e0278001502980050
:102370001e009000c1f807004e019000be009000c2
:102380005e009000b9fd0700080037001e029000b3
:10239000040f78001e029000940290001507980028
:1023a0001e029000e00f5200e8ff3a000080fa00a1
:1023b000000006000400fa00100798008440800026
:1023c000040f78000a0037001e027800940278009b
:1023d0001e029000848f520002003a001e02780014
:1023e000070037001e027800a4029000050f780055
:1023f0001e027800e00f5200f3ff3a000002eb00eb
:10240000040078000080fa00000006000400fa00d2
:102410001007980084408000040f78000a003700fd
:102420001e027800940278001e029000848f5200f1
:1024300002003a0014c0b300070037001e02780003
:10244000a4029000050f78001e027800e00f5200f1
:10245000f3ff3a000042eb00044078000080fa00ed
:10246000000006000800fa00300798008440800051
:1024700024079800350037002e0290009402900047
:10248000050f78002e02900014029000940278004c
:102490003e029000848f52000e003a002e029000ff
:1024a00014029000940290002e02900015029800f1
:1024b0001e00780071f807002e02900014027800c8
:1024c0000001eb00840078003e00900067fd0700eb
:1024d0001e0037001e027800940290001507980035
:1024e000170037001e029000940278003e02900010
:1024f000848f52000d003a001e029000940290005a
:102500001e027800150298001e0090005bf807007c
:102510002e029000140278000001eb008400780085
:102520003e00900051fd0700080037001e02900099
:10253000040f78001e029000940290001507980086
:102540001e029000e00f5200e6ff3a002e029000bb
:10255000e00f5200c8ff3a000080fa0000000600b9
:102560000200fa00000f78001e0278005440880034
:102570000002eb000408880004802400140888008e
:102580000002eb0024088800240880000440a0001a
:102590000450a100240888000080fa000000060012
:1025a0000000fa00a5048000040025000502720066
:1025b000a40488000900070005e1a8000080fa00d3
:1025c000000006000000fa008460a9008c60a900e9
:1025d00005e1a9000080fa00000006000000fa00f2
:1025e0008460a9008c60a80005e1a8000080fa00c2
:1025f000000006000000fa000002eb00040888005a
:102600000080fa00000006003600f800809fbe003f
:10261000829fbe00849fbe00869fbe000000fa001d
:10262000e8ff07009cf9070054408000e00f5200cb
:10263000020032005440800004000100d5fc070075
:10264000ecff0700e5ff07000080fa004f03be0023
:102650004f02be004f01be004f00be003600f90021
:10266000004006003600f800809fbe00829fbe003a
:10267000849fbe00869fbe000000fa00d1ff0700c5
:1026800054408000e00f52000200320054408000ad
:1026900004000100d7ff0700d0ff07000080fa0008
:1026a0004f03be004f02be004f01be004f00be00f0
:1026b0003600f900004006000000fa008460a9001e
:1026c0008c60a9000080fa00000006000000fa00fb
:1026d0008c60a8000080fa00000006000000fa00ec
:1026e0008460a8000080fa00000006000400fa00e0
:1026f00003010700c43a210004007800c3f8070072
:10270000043d210004007800c0f80700080107001c
:102710000b01070010002000affd07000002780049
:10272000140798000e82e800040078003afd0700c4
:102730000002eb00040f78001e0fe8009e027800f4
:1027400044062000110009008402d800010278002c
:10275000040f7800f8ff37000400fa000042eb0095
:10276000044f78000042eb00244798000042eb0041
:10277000144798001e4fe9001e4290000442e800f2
:10278000144798001e4278009e4290008582fb000c
:1027900004aab9000402780024479800f5ff370026
:1027a0000400fa000042eb00044f78000042eb0006
:1027b000244798000042eb00144798000042eb00c9
:1027c0003447980001003700000000001e4fe90068
:1027d0001e4290000442e800144798001e42780010
:1027e0001e4378008682fb0004aab9000402780028
:1027f000244798002e4290001e4378008682fb00fa
:1028000004aab90004027800144798003e429000e0
:10281000e04f5200ecff32000001eb008000eb00c3
:102820001000200075fd0700e8ff37000000fa00e7
:10283000c4c2a800c4e2a900c522a900c582a9009b
:10284000c542a900c5a2a900c5c2a900c5e2a90048
:10285000c0c2a900c0e2a900c122a900c182a9008a
:10286000c142a900c1a2a900c1c2a900c1e2a90038
:10287000d022a900cc22a900d042a900cc42a900b4
:10288000e2e2a900e302a900e802a900e822a90007
:10289000dee2a900df02a900e402a900e422a90007
:1028a000e202a900de02a900d602a900d622a900f0
:1028b000d642a900d662a900d682a900d6a2a90054
:1028c000d6c2a900d6e2a900d202a900d222a9004c
:1028d000d242a900d262a900d282a900d2a2a90044
:1028e000d2c2a900d2e2a900d1a2a900cda2a9001a
:1028f000e842a900e862a900e442a900e462a90054
:10290000de22a800dec2a800e4c2a800e4e2a8001b
:10291000e502a800e522a800d302a800d322a8005f
:10292000d342a800d362a800d382a800d3a2a800f3
:10293000d3c2a800d3e2a8000080fa00000006007d
:102940000000fa000080fa00000006000000fa0013
:102950000080fa00000006000000fa000002eb0010
:102960000408880004802400140888000002eb009a
:1029700024088800240880000440a0000450a1001e
:10298000240888000080fa00000006000000fa0019
:10299000a50480000400250005027200a40488003c
:1029a00005e1a8000080fa00000006000000fa001f
:1029b0008460a9008c60a90005e1a9000080fa00ec
:1029c000000006000000fa008460a9008c60a800e6
:1029d00005e1a8000080fa00000006000000fa00ef
:1029e0000002eb00040888000080fa0000000600e6
:1029f0000000fa000080fa00004006000000fa0023
:102a00000080fa00004006000000fa008460a9007f
:102a10008c60a9000080fa00000006000000fa00a7
:102a20008c60a8000080fa00000006000000fa0098
:0c2a30008460a8000080fa00000006008e
:020000040000fa
:102a3c000a08000002000000000000000c08000062
:102a4c000200000000000000000800000a00000066
:102a5c00000000000e080000020000000200000050
:102a6c00010000001008000002000000000000003f
:102a7c001208000008000000000000001e08000002
:102a8c00020000000000000020080000020000000e
:102a9c00000000001a080000040000000000000004
:102aac0022080000020000000000000000000000ee
:020000040000fa
:102abc000000fa00644080000402e80064408800d2
:102acc0034f907000080fa00000006000200fa004a
:102adc00000f78001e0278001500200015029800e7
:102aec001e02780055552500050a78000080fa0072
:102afc00000006000000fa0049ff0700e055210025
:102b0c0094fe07002bf7070010002000dcfc0700e8
:102b1c000080fa00000006000000fa000080fa00b5
:102b2c00000006000000fa009afe07000080fa0080
:102b3c00000006000000fa000080fa000000060009
:020000040000fa
:0200000401f009
:04000000e6bf000057
:020000040000fa
:0200000401f009
:04000400ff7f00007a
:020000040000fa
:0200000401f009
:040008007fff000076
:020000040000fa
:0200000401f009
:04001400ffff0000ea
:00000001FF
