:020000040000fa
:080000000001040000000000f3
:020000040000fa
:10000800d6010000a6010000ac010000b20100000a
:10001800b8010000d6010000d6010000d60100009a
:10002800d6010000d6010000d60100005c0d0000da
:10003800d6010000d6010000d6010000d60100005c
:10004800d6010000d6010000d6010000d60100004c
:10005800d6010000d6010000d6010000d60100003c
:10006800d6010000d6010000d6010000d60100002c
:10007800d6010000d6010000d6010000d60100001c
:10008800d6010000d6010000d6010000d60100000c
:10009800d6010000d6010000d6010000d6010000fc
:1000a800d6010000d6010000d6010000d6010000ec
:1000b800d6010000d6010000d6010000d6010000dc
:1000c800d6010000d6010000d6010000d6010000cc
:1000d800d6010000d6010000d6010000d6010000bc
:1000e800d6010000d6010000d6010000d6010000ac
:0800f800d6010000d601000052
:020000040000fa
:10010800d6010000be010000c4010000ca010000c1
:10011800d0010000d6010000d6010000d601000081
:10012800d6010000d6010000d6010000840d0000b1
:10013800d6010000d6010000d6010000d60100005b
:10014800d6010000d6010000d6010000d60100004b
:10015800d6010000d6010000d6010000d60100003b
:10016800d6010000d6010000d6010000d60100002b
:10017800d6010000d6010000d6010000d60100001b
:10018800d6010000d6010000d6010000d60100000b
:10019800d6010000d6010000d6010000d6010000fb
:1001a800d6010000d6010000d6010000d6010000eb
:1001b800d6010000d6010000d6010000d6010000db
:1001c800d6010000d6010000d6010000d6010000cb
:1001d800d6010000d6010000d6010000d6010000bb
:1001e800d6010000d6010000d6010000d6010000ab
:0801f800d6010000d601000051
:020000040000fa
:100200000fc220000e7f22000e01880000000000b7
:10021000000020000000e000020032000001200089
:10022000200288000c000700c0ea20000100200026
:1002300011000700000020000000e0000200320072
:100240000000020000000000340e02000000000068
:100250000040da000000fe004440a9000000200039
:100260000000e0000300320000002000a001880030
:100270004440a8000000060091018800800078003a
:100280000000eb0015003700e280400032a0b4000f
:100290009101ba00e280400032a0b4009102ba009d
:1002a000e280400032a0b4000002eb00472bde00e9
:1002b000f507b200602ce10004003a000059eb00a1
:1002c0008301e900fdff3e00040037006128e100e2
:1002d000010032000082eb00040007001101ba00a7
:1002e0000200e000e8ff3a00000006003159ba00c1
:1002f0008301e9000c0032002159ba008301e900b2
:10030000080032000400e00003003a00e2804000f0
:1003100032a0b400f5ff370011d9ba008301e9001b
:10032000faff3a008100e800e180400032a0b4000a
:1003300000000600ec0e040000000000580e04004f
:10034000000000007c0e0400000000000000fa0025
:100350008020a900ffff37000000fa008060a9009c
:10036000ffff37000000fa008040a900ffff3700c0
:100370000000fa008080a900ffff37000000fa00ab
:100380008020a900ffff37000000fa008060a9006c
:10039000ffff37000000fa008040a900ffff370090
:1003a0000000fa008080a900ffff37000000fa007b
:1003b000ffff3700889fbe0080047800f040800077
:1003c000e00f500004003a000e0007000084eb002c
:1003d000e00f500008003500f8408000e08f540026
:1003e000050032000900440006000700e00f50003d
:1003f00001003d000084eb00080078004f04be00bf
:1004000000000600e00f500004003a0004822000c3
:10041000f440880000027800060037000082eb00fc
:1004200005c22000850f500002003e00f040880009
:100430000002eb000400780000000600e4802000c9
:10044000e487470075408000889fbe008a9fbe00f9
:100450008c9fbe008e1f7800e08f52000b003a0088
:1004600024029800e4024200d440880075408800cd
:10047000e5408800a44290000504a00025429800b1
:10048000e44290000504a000654298006704400023
:1004900004822000250020004244de0009c2200022
:1004a0004244dd0084845400050744001100090023
:1004b0008504d8003cc22000d240800004065600cb
:1004c00080bf9f000e0747000003eb00e4054400d7
:1004d0000806460002003700160020000d017800d3
:1004e0002242900061026200020032000a003700de
:1004f000150978009202780025429000610262009e
:10050000fbff320008024100848f520002003900d4
:10051000e00f54003f003d00920678000d00a1005e
:10052000828f5600edff3e00e10f5300eaff3a00d4
:100530000fba9700840f540002003600890f540050
:1005400010003900614ab900b0ff2f0001002000ff
:100550006143b8000402500085825800840f5300a4
:10056000858f5b00020035000b0578000600370020
:10057000110009000986d8000982b9000405780035
:10058000010037000e0578000a00780089ff070097
:10059000e10f400005003a000b0578000b007800e1
:1005a00084ff0700e10f40002b003200e440800090
:1005b000000a7800e440800064034200a4429000f6
:1005c000860f5000020032000504a0000100370031
:1005d0000504a1002542980064055500e480200030
:1005e0000a0540000a087800ea408800040d7800f7
:1005f000e54080000003eb00254290000404a000c9
:10060000a4429800204290000404a10024409800d5
:10061000b2ff3700d4408800848f520007003600b4
:100620001403be008042eb00b6408800c74088003b
:10063000120a7800d440800025429800224290009f
:10064000d74080000404a0000709780024419800e6
:1006500064004100010037000000eb004f07780004
:100660004f06be004f05be004f04be004f00b10054
:1006700000000600e00f5000080032006400500047
:10068000d4408000840f500001003100d040880029
:10069000204290000404a1002440980000000600bd
:1006a000889fbe00000478008a9fbe008104780005
:1006b000e08f540005003a00e00f54003200320091
:1006c00008007800ebff070030003700e00f54000f
:1006d00004003a000900780058ff07008004780001
:1006e0002a003700640254009405780068fa9700e5
:1006f000610262000200320008007800ddff07009e
:10070000090078004dff070080047800e08f540056
:100710001e003200888f54001b00320069bd970014
:100720008885550009055500c2ddde0042d5de0092
:100730000a0178008b0f5500010036000b0178008c
:100740004211dd00880078000900780013000700de
:10075000888f54000d0031004255dd000a854400a9
:10076000880f55000900360008045500b440800089
:10077000c540800042c4de004244dd0008844400dd
:10078000048cbe000100370088047800090078005e
:100790004f05be004f04be000000060000027800b6
:1007a00002003700315a78000201e900e00f5100e1
:0807b000fcff3a000000060006
:020000040000fa
:1007b8000200fa000700370004408000040f7800a8
:1007c80004408000040a9000044088001e0078005d
:1007d8007c00070004408000e00f5200f6ff3a005a
:1007e8002001200013ff0700000278000440880061
:1007f80004408000e00f52001c00320004408000da
:100808006802420004007800780507000440800070
:100818008002eb00750298000640800005408000c9
:10082800044080008e0078000f00780007018000e7
:100838002103980090029800370298000440800035
:100848008082eb0055029800044080008002eb0093
:10085800050a9800044080008002eb00050a780031
:1008680004408000144088000100370000000000a8
:100878000080fa00000006000000fa001440800022
:10088800e00f5200280032004200f800801f780074
:10089800811f7800821f7800831f7800841f7800ea
:1008a800851f7800861f7800871f7800881f7800ca
:1008b800891f78008a1f78008b1f78008c1f7800aa
:1008c8008d1f78008e1f78002200f8002800f8009d
:1008d8003200f8003400f8003600f8003800f8005c
:1008e8003c00f8003a00f8004000f8003e00f8002c
:1008f8004400f8000080fe004200f800801f7800e5
:10090800811f7800821f7800831f780015408000bf
:10091800144080008e0378000f037800a702980027
:100928001602980001003700000000000080fa005d
:10093800000006000400fa00100798000440800038
:10094800040f78000b0037001e027800940278002c
:100958001e029000848f520003003a001e007800a7
:10096800d3020700060037001e027800840a9000b0
:10097800050f78001e027800e00f5200f2ff3a00df
:100988000080fa00000006000000fa001440800011
:10099800040a9000e00f520004003a00044080006e
:1009a80004007800c20207000400370014408000e9
:1009b800040a900004007800bd0207000080fa00d5
:1009c800000006000200fa00000f78001e027800fe
:1009d800740290000400780024ff07001e007800cd
:1009e80022ff07000080fa00000006000600fa0057
:1009f800100798002107980004408000040f780031
:100a0800544080009e029000840a78000402e800a6
:100a1800544088002e029000e00f520002003a0075
:100a2800840c2000240798001e02900068024200ef
:100a380004007800ed0407002e0090007dfe0700fa
:100a480000027800840278001e0290007502980067
:100a58001e02900074029000e00f520002003a005b
:100a68000042eb00130037001e0290007402900051
:100a7800840278001e029000150298001e02900061
:100a8800940290001e029000250298001e02900019
:100a9800940290002e029000848242001e02900070
:100aa800350298001e0290008002eb006502980053
:100ab80014c0b300044078000080fa00000006006b
:100ac8000600fa00200798002001200059fe0700c0
:100ad80000027800140798001e029000e00f5200f0
:100ae80002003a000042eb004e0037001e02900060
:100af8008000eb0004007800bcff0700004278008b
:100b08000404a200e04f5200040032001e009000ce
:100b1800d6fe07000042eb00420037001e0290009c
:100b2800f50f2000550298001e029000e5ab2b003f
:100b3800450298001e0290008002eb00050a98000a
:100b48001e029000a40290001e0290001403900060
:100b58001e029000b40390002e029000881f7800b7
:100b6800891f78008a1f78000e0478008f047800a7
:100b78000a018000050778008607780007018800c9
:100b8800841f780000002000801f78000e03780082
:100b98008f02780008077800890778000a01880022
:100ba8004f057800cf0478004f0478001e029000ab
:100bb800260298001e02900015029800044080004a
:100bc800e00f520004003a001e0290000440880022
:100bd80014c0b3001300370005408000050f7800eb
:100be8000c0037001e027800040a9000e00f520043
:100bf80005003a001e0278009e029000050a98003f
:100c080014c0b300070037001e027800840a900061
:100c1800050f78001e027800e00f5200f1ff3a003d
:100c280000003700044078000080fa000000060049
:100c38000a00fa004007980004408000840a9000e7
:100c4800050f780004408000140798004e029000b9
:100c5800e00f52001c003a00580037001e027800ce
:100c6800940278004e029000848f520011003a00de
:100c78001e027800d5ea2d00450298001e02780071
:100c8800840a90001e029000050a98001e0278004f
:100c98008002eb00050a98001e027800740290009a
:100ca8000400780071fe07001e0078006ffe070040
:100cb800420037009e027800150798001e0278004f
:100cc800840a9000050f78001e027800e00f520099
:100cd800e2ff3a0024408000e00f52003400320066
:100ce80024408000b402900025079800244080002a
:100cf8003407980024408000e00f52002e00320094
:100d080024408000b4029000250798002440800009
:100d180034079800220037002e0290002402900029
:100d2800940278004e029000848f520017003a0017
:100d38002e02900024029000d5ea2d00450298006a
:100d48002e029000b40290003e02900035029800f6
:100d58002e0290008002eb00350298002e029000cf
:100d68002402900074029000040078003ffe0700ff
:100d78002e02900024029000040078003bfe070039
:100d88002e00900039fe07000c003700ae029000dc
:100d9800350798002e029000b402900025079800ad
:100da8002e029000e00f5200dbff3a0003003700ec
:100db8000000000001003700000000000080fa0079
:100dc800000006000600fa000002eb00040f78009d
:100dd8000440800014079800040037001e0fe80044
:100de8001e029000840a9000150798001e029000c9
:100df800e00f5200f9ff3a002440800024079800d1
:100e0800040037001e0fe8002e029000b402900084
:100e1800250798002e029000e00f5200f9ff3a00d3
:100e28001e027800040078000080fa000000060026
:100e38000600fa00000f78001107980022079800b2
:100e480080187800010078000080fa00be18780049
:100e58000f70e100fdff350000077800810778007a
:100e6800020188008e1f78000f077800801f780025
:100e7800811f7800821f78000080fa0000000600b9
:100e88001200fa006007980071079800020f980096
:100e980004408000040f78003f0037001e027800ed
:100ea800940278006e029000848f520037003a0056
:100eb800800020005ffd07000002780044079800ca
:100ec8004e029000e00f520002003a000042eb0090
:100ed8007e0037004e029000fe029000050a78005e
:100ee8004e0290008e0a9000150298004e02900063
:100ef8008002eb00350298004e0290008002eb0061
:100f0800250298001e02780064029000e00f52004b
:100f180005003a001e027800ce0290006502980093
:100f280014c0b300690037001e027800e402900084
:100f3800150798000c0037001e02900094027800f4
:100f48007e029000848f520004003a004e00900008
:100f5800c6fd07000042eb005c0037001e0290004f
:100f6800b4029000150798001e0290003402900009
:100f7800e00f5200f0ff3a001e029000ce029000ef
:100f88003502980014c0b300500037001e027800e4
:100f9800840a9000050f78001e027800e00f5200c6
:100fa800beff3a0024408000240798004300370021
:100fb8002e02900024029000940278006e029000a5
:100fc800848f52003a003a008000200019fd070083
:100fd80000027800540798005e029000e00f52006b
:100fe80002003a000042eb00380037005e02900031
:100ff800fe029000050a78005e0290008e0a9000ba
:10100800150298005e0290008002eb0035029800fd
:101018005e0290008002eb00250298002e029000ec
:101028002402900064029000e00f520006003a008b
:101038002e02900024029000de02900065029800c3
:1010480014c0b300210037002e0290002402900043
:10105800e4029000350798000c0037003e0290002b
:10106800940278007e029000848f520004003a00b7
:101078005e0090007dfd07000042eb001300370082
:101088003e029000b4029000350798003e0290009e
:1010980034029000e00f5200f0ff3a003e02900048
:1010a800de0290003502980014c0b3000700370034
:1010b8002e029000b4029000250798002e0290009e
:1010c800e00f5200baff3a000042eb0004407800fb
:1010d8000080fa00000006001000fa00400798009f
:1010e8005107980062079800730798004e00900017
:1010f8009e00070000027800140798001e02900066
:10110800e00f5200420032001e029000640290007c
:10111800de00900004007800bc00070000027800a0
:10112800240798002e029000e00f52003a00320087
:1011380060002000bffc0700000278003407980018
:101148003e029000e00f5200350032007e00900011
:10115800b8fc070000027800840278003e02900084
:10116800050a78003e02900014027800e00f520051
:1011780003003a003e0090003cfd070029003700bc
:101188003e029000140278007e01900084007800ee
:101198006e0090007ffd07003e029000fe02900066
:1011a800150298003e0290008002eb00250298008c
:1011b8002e02900024029000e00f520004003a0032
:1011c8002e029000be0290002502980015003700fc
:1011d8002e029000a4029000050f7800030037004b
:1011e8001e027800a4029000050f78001e02780005
:1011f80024029000e00f5200f9ff3a001e02780026
:10120800be0290002502980000000000050037008b
:101218000000000003003700000000000100370054
:10122800000000000080fa00000006000c00fa0030
:1012380040079800510798005e029000e00f5200a6
:1012480002003a000002eb00310037005e02900015
:10125800240798002e029000940278004e02900015
:10126800848f52000b003a002e029000b4029000c6
:10127800350798002e0290002402900004007800a0
:10128800fafc07002e009000f8fc07003e029000d0
:101298001f0037005e029000040f78005e02900085
:1012a800b4029000150798001e029000940278007e
:1012b8004e029000848f52000c003a001e029000eb
:1012c800b40290001e027800350298001e029000b9
:1012d8002402900004007800e4fc07001e0090003f
:1012e800e2fc07002e029000090037001e02900061
:1012f800040f78001e029000b402900015079800b1
:101308001e029000e00f5200e7ff32002e0290000c
:10131800040078000080fa00000006000600fa00c9
:1013280010079800210798001e0090000f00070082
:1013380000027800040f78001e027800e00f5200c7
:10134800080032001e0278006402900084007800d1
:101358002e009000b5ff0700000278009e0278007a
:10136800e40298000080fa00000006000600fa0077
:101378002007980004408000040f78000a00370016
:101388001e027800940278002e029000848f52008a
:1013980002003a001e027800190037001e02780089
:1013a800840a9000050f78001e027800e00f5200b2
:1013b800f3ff3a0024408000140798000c0037001f
:1013c8001e02900024029000940278002e029000e1
:1013d800848f520003003a001e02900024029000fd
:1013e800070037001e029000b4029000150798000d
:1013f8001e029000e00f5200f1ff3a000002eb00dd
:10140800040078000080fa00000006000600fa00d8
:1014180010079800210798001e029000040f78001a
:101428000a0037001e027800940278002e0290000d
:10143800848f520002003a001e027800070037002d
:101448001e027800b4029000050f78001e0290007a
:10145800e00f5200f3ff3a000002eb0004007800ae
:101468000080fa00000006000400fa001007980047
:1014780004408000040f7800080037001e0278003e
:1014880064029000840078001e00900067ff070047
:101498001e027800840a9000050f78001e0278006a
:1014a800e00f5200f5ff3a000080fa000000060045
:1014b8000200fa00000f7800effc07001e02780017
:1014c800340390001e027800940290001e027800f7
:1014d8002402900006017800850078000400780056
:1014e80053fe07001440800055552500450298001a
:1014f8001e027800c4029000e4ab2b00848f5200d7
:1015080008003a00650107001e0278008082eb009f
:10151800450298001e027800144088000080fa00f6
:10152800004006001e0278008082eb004502980009
:101538001e027800144088000080fa00cf0178006d
:101548004f017800cf0078004f0078004200f90082
:1015580000a0fe004400f9003e00f9004000f90038
:101568003a00f9003c00f9003800f9003600f900ab
:101578003400f9003200f9002800f9002200f900cf
:101588004f077800cf0678004f067800cf0578001f
:101598004f057800cf0478004f047800cf03780017
:1015a8004f037800cf0278004f027800cf0178000f
:1015b8004f017800cf0078004f0078004200f90012
:1015c8000080fa000080fa00000006000080fa009f
:1015d800000006000600fa00000f780011079800c6
:1015e8002207980014c0b300044078000080fa0075
:1015f800000006000800fa003007980064408000e8
:10160800040f7800654080001507980060002000ee
:1016180088fb070000027800240798002e0290003b
:10162800e00f520002003a000042eb001c003700b5
:101638002e029000be029000050a78002e0290004b
:101648008002eb00150298002e0290008002eb0049
:101658002502980064408000e00f520009003a001b
:101668002e0290006440880014c0b3000c003700bc
:101678009e029000050f78001e027800a4029000d8
:10168800150798001e029000e00f5200f8ff3a007c
:101698001e027800ae0290002502980014c0b30024
:1016a800044078000080fa00000006000c00fa00f0
:1016b800300798004107980052079800644080005e
:1016c800040f78003a0037001e0278009402780070
:1016d8003e029000848f520032003a005e01900072
:1016e800be0090004e009000e5fd07000042780023
:1016f8000404a200e04f5200020032000042eb0056
:101708002f003700400020004afb07000002780045
:10171800240798002e029000e00f520002003a00c1
:101728000042eb00260037002e029000ce02900007
:10173800050a78002e0290008002eb00150298003e
:101748001e02780014029000e00f520005003a00d3
:101758001e027800ae0290001502980014c0b30073
:10176800170037001e0278009402900015079800b1
:10177800030037001e02900094029000150798009d
:101788001e02900014029000e00f5200f9ff3a0088
:101798001e029000ae0290001502980014c0b3001b
:1017a800070037001e027800a4029000050f780099
:1017b8001e027800e00f5200c3ff3a000042eb001f
:1017c800044078000080fa00000006000e00fa00cd
:1017d8006007980064408000040f7800654080002e
:1017e8001507980064408000e00f52003b0032006b
:1017f8001e027800940278006e029000848f5200d6
:1018080032003a001e0278002402900064408800ea
:101818001e02780094029000250798000700370000
:101828002e029000440798002e0290009402900027
:10183800250798004e0090008cfb07002e029000b0
:10184800e00f5200f6ff3a006e00900006ff070016
:10185800230037001e029000940278006e02900068
:10186800848f520014003a001e02780094029000ff
:1018780035079800070037003e029000540798008b
:101888003e02900094029000350798005e00900098
:1018980076fb07003e029000e00f5200f6ff3a0088
:1018a8006e009000f0fe07001e029000a402900057
:1018b800050f78000a0037001e029000040f780018
:1018c8001e029000a4029000150798001e029000c6
:1018d800e00f5200dfff3a0001003700000000006f
:1018e8000080fa00000006000a00fa00300798009d
:1018f800410798003e00900034000700000278007d
:10190800240798002e02900094029000050f78009a
:101918002e02900014029000940278004e0290006b
:10192800848f52000b003a002e029000140290009f
:10193800940290002e029000150298001e00780074
:101948004afb0700be0090004e00900073fe07009f
:101958001c0037002e0290001402900094029000a0
:1019680015079800140037001e02900094027800b2
:101978004e029000848f52000a003a001e02900026
:10198800940290001e027800150298001e00900034
:1019980036fb0700be0090004e0090005ffe070077
:1019a800080037001e029000040f78001e02900005
:1019b80094029000150798001e029000e00f520054
:1019c800e9ff3a000080fa00000006000400fa006f
:1019d8001007980064408000040f78000a00370060
:1019e8001e027800940278001e029000848f520034
:1019f80002003a001e027800070037001e02780035
:101a0800a4029000050f78001e027800e00f520033
:101a1800f3ff3a000002eb00040078000080fa00af
:101a2800000006000200fa00000f78001e0278008d
:101a3800344088000002eb00040888000480240079
:101a4800140888000002eb0024088800240880009d
:101a58000440a0000450a100240888000080fa0077
:101a6800000006000000fa00a5048000040025001c
:101a780005027200a40488000800070005e1a80018
:101a88000080fa00000006000000fa008460a90047
:101a98008c60a9000080fa00000006000000fa002f
:101aa8008460a9008c60a8000080fa00000006008d
:101ab8003600f800809fbe00829fbe00849fbe0053
:101ac800869fbe000000fa00efff07003440800048
:101ad800e00f520002003200344080000400010090
:101ae800eeff07000080fa004f03be004f02be0061
:101af8004f01be004f00be003600f900004006004e
:101b08003600f800809fbe00829fbe00849fbe0002
:101b1800869fbe000000fa008460a900344080005f
:101b2800e00f52000200320034408000040001003f
:101b38000080fa004f03be004f02be004f01be00f6
:101b48004f00be003600f900004006000000fa0011
:101b5800c4c2a800c4e2a900c522a900c582a90080
:101b6800c542a900c5a2a900c5c2a900c5e2a9002d
:101b7800c0c2a900c0e2a900c122a900c182a9006f
:101b8800c142a900c1a2a900c1c2a900c1e2a9001d
:101b9800d022a900cc22a900d042a900cc42a90099
:101ba800e2e2a900e302a900e802a900e822a900ec
:101bb800dee2a900df02a900e402a900e422a900ec
:101bc800e202a900de02a900d602a900d622a900d5
:101bd800d642a900d662a900d682a900d6a2a90039
:101be800d6c2a900d6e2a900d202a900d222a90031
:101bf800d242a900d262a900d282a900d2a2a90029
:101c0800d2c2a900d2e2a900d1a2a900cda2a900fe
:101c1800e842a900e862a900e442a900e462a90038
:101c2800de22a800dec2a800e4c2a800e4e2a80000
:101c3800e502a800e522a800d302a800d322a80044
:101c4800d342a800d362a800d382a800d3a2a800d8
:101c5800d3c2a800d3e2a8000080fa000000060062
:101c68000200fa006b00070080e5200094fb0700e3
:101c7800c0e7200092fb0700700007007300070010
:101c88000002eb00040f78001e0fe8009e027800a7
:101c980044062000110009008402d80001027800df
:101ca800040f7800f8ff37000400fa000042eb0048
:101cb800044f78000042eb00244798000042eb00f4
:101cc800144798001e4fe9001e4290000442e800a5
:101cd800144798001e4278009e4290008582fb00bf
:101ce80004aab9000402780024479800f5ff3700d9
:101cf8000400fa000042eb00044f78000042eb00b9
:101d0800244798000042eb00144798001e4fe90052
:101d18001e4290000442e800144798001e427800d2
:101d28001e4378008682fb0004aab90004027800ea
:101d3800244798002e4290001e4378008682fb00bc
:101d480004aab9000402780014479800efff37008e
:020000040000fa
:101d5800060800000200000000000000080800005b
:101d6800020000000000000000080000060000005b
:101d7800000000000a080000020000000200000045
:101d8800010000000c080000020000000000000034
:101d98000e08000008000000000000001a080000fb
:101da80002000000000000001c0800000200000003
:101db80000000000160800000400000000000000f9
:101dc8001e080000020000000000000000000000e3
:020000040000fa
:101dd8000000fa00444080000402e8004440880003
:101de800e9fa07000080fa00000006000200fa0085
:101df800000f78001e0278001500200015029800d8
:101e08001e02780055552500050a78000080fa0062
:101e1800000006000000fa004cff0700c0ee20009a
:101e280000ff070062fa07000080fa0000000600c1
:101e38000000fa000080fa00000006000000fa0026
:101e480008ff07000080fa00000006000000fa0002
:081e58000080fa000000060002
:020000040000fa
:0200000401f009
:04000000e6bf000057
:020000040000fa
:0200000401f009
:04000400ff7f00007a
:020000040000fa
:0200000401f009
:040008007fff000076
:020000040000fa
:0200000401f009
:04001400ffff0000ea
:00000001FF
