:020000040000fa
:080000000001040000000000f3
:020000040000fa
:1000080090080000be0100003c020000d40200007d
:100018008603000090080000900800009008000087
:10002800900800009008000090080000b619000031
:10003800900800009008000032310000c02d000038
:1000480090080000621e0000ae1e0000900800002c
:100058009008000090080000da27000090080000cf
:100068009008000090080000900800009008000028
:1000780090080000fe190000461a000090080000d1
:10008800fa1e0000461f00009008000090080000bb
:1000980090080000900800009008000090080000f8
:1000a80090080000900800009008000090080000e8
:1000b80090080000900800009008000090080000d8
:1000c80090080000900800009008000090080000c8
:1000d80090080000900800009008000090080000b8
:1000e80090080000900800009008000090080000a8
:0800f8009008000090080000d0
:020000040000fa
:1001080090080000520400003e050000420600006e
:100118005e070000900800009008000090080000aa
:10012800900800009008000090080000da1900000c
:1001380090080000900800004e310000de2d0000fd
:1001480090080000881e0000d41e000090080000df
:100158009008000090080000da27000090080000ce
:100168009008000090080000900800009008000027
:1001780090080000221a00006a1a00009008000087
:10018800201f00006c1f000090080000900800006d
:1001980090080000900800009008000090080000f7
:1001a80090080000900800009008000090080000e7
:1001b80090080000900800009008000090080000d7
:1001c80090080000900800009008000090080000c7
:1001d80090080000900800009008000090080000b7
:1001e80090080000900800009008000090080000a7
:0801f8009008000090080000cf
:020000040000fa
:10020000ef0521000e7f22000e0188000000000093
:10021000000020000000e000020032000001200089
:10022000200288000c000700e020230001002000cd
:1002300011000700000020000000e0000200320072
:100240000000020000000000ee2e0200000000008e
:100250000040da000000fe004440a90080002000b9
:100260000000e0000300320000002000a001880030
:100270004440a8000000060091018800800078003a
:100280000000eb0015003700e280400032a0b4000f
:100290009101ba00e280400032a0b4009102ba009d
:1002a000e280400032a0b4000002eb00472bde00e9
:1002b000f507b200602ce10004003a000059eb00a1
:1002c0008301e900fdff3e00040037006128e100e2
:1002d000010032000082eb00040007001101ba00a7
:1002e0000200e000e8ff3a00000006003159ba00c1
:1002f0008301e9000c0032002159ba008301e900b2
:10030000080032000400e00003003a00e2804000f0
:1003100032a0b400f5ff370011d9ba008301e9001b
:10032000faff3a008100e800e180400032a0b4000a
:1003300000000600e8110400000000004033040043
:1003400000000000d02f0400000000003a2f04003d
:10035000000000005e2b040000000000122c0400ce
:1003600000000000c62c040000000000de2c040089
:1003700000000000e61b040000000000849fbe0097
:10038000861f78000200fa00d022a800d042a80000
:10039000c4c2a800c4e2a900c522a900c582a90060
:1003a000c542a900c5a2a900c5c2a900c5e2a9000d
:1003b0008020a9000002eb00040f78000002eb008f
:1003c000040f780028003700841680000402d10052
:1003d0006142620004c2ea00614262000482fb00e2
:1003e000610262000402420086168000d5ff2f00e1
:1003f000850263000502720084168800841680005e
:100400004222de006142620004c2ea0061426200f0
:100410000482fb00610262004222dd008616800039
:10042000b5ff2f0085026300050272008416880064
:10043000241680004622de006142620004c2ea0007
:10044000614262000482fb00610262004622dd001c
:1004500026168000f5fb2f0085026300050272005e
:10046000241688001e0fe8001e027800e10f4200eb
:10047000d5ff3a00cfff3700849fbe00861f78006b
:100480000200fa00d022a800d042a800c4c2a800ee
:10049000c4e2a800c522a900c582a900c542a900de
:1004a000c5a2a900c5c2a900c5e2a9008060a90033
:1004b0000002eb00040f78000002eb00040f78004c
:1004c00035003700841680000402d10061426200ca
:1004d00004c2ea00614262000482fb006102620021
:1004e0000402420086168000d5ff2f0085026300bb
:1004f0000502720084168800841680004222de0005
:100500006142620004c2ea00614262000482fb00b0
:10051000610262004222dd0086168000b5ff2f00d6
:10052000850263000502720084168800241680008c
:100530004622de006142620004c2ea0061426200bb
:100540000482fb00610262004622dd002616800064
:10055000f5fb2f0085026300050272002416880057
:10056000241680004722de006142620004c2ea00d5
:10057000614262000482fb00610262004722dd00ea
:1005800026168000f5f72f00850263000502720031
:10059000241688001e0fe8001e027800e10f4200ba
:1005a000c8ff3a00c2ff3700849fbe00861f780054
:1005b0000200fa00d022a800d042a800c4c2a800bd
:1005c000c4e2a800c522a800c582a900c542a900ae
:1005d000c5a2a900c5c2a900c5e2a9008040a90022
:1005e0000002eb00040f78000002eb00040f78001b
:1005f00042003700841680000402d100614262008c
:1006000004c2ea00614262000482fb0061026200ef
:100610000402420086168000d5ff2f008502630089
:100620000502720084168800841680004222de00d3
:100630006142620004c2ea00614262000482fb007f
:10064000610262004222dd0086168000b5ff2f00a5
:10065000850263000502720084168800241680005b
:100660004622de006142620004c2ea00614262008a
:100670000482fb00610262004622dd002616800033
:10068000f5fb2f0085026300050272002416880026
:10069000241680004722de006142620004c2ea00a4
:1006a000614262000482fb00610262004722dd00b9
:1006b00026168000f5f72f00850263000502720000
:1006c00024168800241680004922de006142620060
:1006d00004c2ea00614262000482fb00610262001f
:1006e0004922dd0026168000f5df2f008502630019
:1006f00005027200241688001e0fe8001e02780012
:10070000e10f4200bbff3a00b5ff3700849fbe00f7
:10071000861f78000200fa00d022a800d042a8006c
:10072000c4c2a800c4e2a800c522a800c582a800cf
:10073000c542a900c5a2a900c5c2a900c5e2a90079
:100740008080a9000002eb00040f78000002eb009b
:10075000040f78004f003700841680000402d10097
:100760006142620004c2ea00614262000482fb004e
:10077000610262000402420086168000d5ff2f004d
:1007800085026300050272008416880084168000ca
:100790004222de006142620004c2ea00614262005d
:1007a0000482fb00610262004222dd0086168000a6
:1007b000b5ff2f00850263000502720084168800d1
:1007c000241680004622de006142620004c2ea0074
:1007d000614262000482fb00610262004622dd0089
:1007e00026168000f5fb2f008502630005027200cb
:1007f00024168800241680004722de006142620031
:1008000004c2ea00614262000482fb0061026200ed
:100810004722dd0026168000f5f72f0085026300d1
:100820000502720024168800241680004922de008a
:100830006142620004c2ea00614262000482fb007d
:10084000610262004922dd0026168000f5df2f00dc
:1008500085026300050272002416880024168000b9
:100860004c22de006142620004c2ea006142620082
:100870000482fb00610262004c22dd00261680002b
:10088000f5ff2e0085026300050272002416880021
:100890001e0fe8001e027800e10f4200aeff3a0092
:1008a000a8ff3700849fbe00861f78000200fa0070
:1008b000d022a800d042a800c4c2a800c4e2a80068
:1008c000c522a800c582a800c542a800c5a2a900eb
:1008d000c5c2a900c5e2a9008020a9000002eb0062
:1008e000040f78000002eb00040f78005f0037006f
:1008f000841680000402d1006142620004c2ea0052
:10090000614262000482fb00610262000402420054
:1009100086168000d5ff2f00850263000502720055
:1009200084168800841680004222de006142620044
:1009300004c2ea00614262000482fb0061026200bc
:100940004222dd0086168000b5ff2f00850263007d
:100950000502720084168800241680004622de00fc
:100960006142620004c2ea00614262000482fb004c
:10097000610262004622dd0026168000f5fb2f0092
:100980008502630005027200241688002416800088
:100990004722de006142620004c2ea006142620056
:1009a0000482fb00610262004722dd0026168000ff
:1009b000f5f72f00850263000502720024168800f7
:1009c000241680004922de006142620004c2ea006f
:1009d000614262000482fb00610262004922dd0084
:1009e00026168000f5df2f008502630005027200e5
:1009f00024168800241680004c22de00614262002a
:100a000004c2ea00614262000482fb0061026200eb
:100a10004c22dd0026168000f5ff2e0085026300c3
:100a20000502720024168800241680004a22de0087
:100a30006142620004c2ea00614262000482fb007b
:100a4000610262004a22dd0026168000f5bf2f00f9
:100a5000850263000502720024168800c5a2a90061
:100a6000c5c2a900c5e2a9001e0fe8001e02780059
:100a7000e10f42009eff3a0098ff3700849fbe00be
:100a8000861f78000200fa00d022a800d042a800f9
:100a9000c4c2a800c4e2a800c522a800c582a8005c
:100aa000c542a800c5a2a800c5c2a900c5e2a90008
:100ab0008060a9000002eb00040f78000002eb0048
:100ac000040f78006b003700841680000402d10008
:100ad0006142620004c2ea00614262000482fb00db
:100ae000610262000402420086168000d5ff2f00da
:100af0008502630005027200841688008416800057
:100b00004222de006142620004c2ea0061426200e9
:100b10000482fb00610262004222dd008616800032
:100b2000b5ff2f008502630005027200841688005d
:100b3000241680004622de006142620004c2ea0000
:100b4000614262000482fb00610262004622dd0015
:100b500026168000f5fb2f00850263000502720057
:100b600024168800241680004722de0061426200bd
:100b700004c2ea00614262000482fb00610262007a
:100b80004722dd0026168000f5f72f00850263005e
:100b90000502720024168800241680004922de0017
:100ba0006142620004c2ea00614262000482fb000a
:100bb000610262004922dd0026168000f5df2f0069
:100bc0008502630005027200241688002416800046
:100bd0004c22de006142620004c2ea00614262000f
:100be0000482fb00610262004c22dd0026168000b8
:100bf000f5ff2e00850263000502720024168800ae
:100c0000241680004a22de006142620004c2ea002b
:100c1000614262000482fb00610262004a22dd0040
:100c200026168000f5bf2f008502630005027200c2
:100c300024168800241680004d22de0061426200e6
:100c400004c2ea00614262000482fb0061026200a9
:100c50004d22dd0026168000f5ff2d008502630081
:100c60000502720024168800c5c2a900c5e2a900c9
:100c70001e0fe8001e027800e10f420092ff3a00ca
:100c80008cff3700849fbe00861f78000200fa00a8
:100c9000d022a800d042a800c4c2a800c4e2a80084
:100ca000c522a800c582a800c542a800c5a2a80008
:100cb000c5c2a800c5e2a9008040a9000002eb005f
:100cc000040f78000002eb00040f78007700370073
:100cd000841680000402d1006142620004c2ea006e
:100ce000614262000482fb00610262000402420071
:100cf00086168000d5ff2f00850263000502720072
:100d000084168800841680004222de006142620060
:100d100004c2ea00614262000482fb0061026200d8
:100d20004222dd0086168000b5ff2f008502630099
:100d30000502720084168800241680004622de0018
:100d40006142620004c2ea00614262000482fb0068
:100d5000610262004622dd0026168000f5fb2f00ae
:100d600085026300050272002416880024168000a4
:100d70004722de006142620004c2ea006142620072
:100d80000482fb00610262004722dd00261680001b
:100d9000f5f72f0085026300050272002416880013
:100da000241680004922de006142620004c2ea008b
:100db000614262000482fb00610262004922dd00a0
:100dc00026168000f5df2f00850263000502720001
:100dd00024168800241680004c22de006142620046
:100de00004c2ea00614262000482fb006102620008
:100df0004c22dd0026168000f5ff2e0085026300e0
:100e00000502720024168800241680004a22de00a3
:100e10006142620004c2ea00614262000482fb0097
:100e2000610262004a22dd0026168000f5bf2f0015
:100e300085026300050272002416880024168000d3
:100e40004d22de006142620004c2ea00614262009b
:100e50000482fb00610262004d22dd002616800044
:100e6000f5ff2d008502630005027200241688003c
:100e7000241680004e22de006142620004c2ea00b5
:100e8000614262000482fb00610262004e22dd00ca
:100e900026168000f5ff2b00850263000502720014
:100ea00024168800c5e2a9001e0fe8001e02780083
:100eb000e10f420086ff3a0080ff3700849fbe00aa
:100ec000861f78000200fa00d022a800d042a800b5
:100ed000c4c2a800c4e2a800c522a800c582a80018
:100ee000c542a800c5a2a800c5c2a800c5e2a800c6
:100ef0008080a9000002eb00040f78000002eb00e4
:100f0000040f780082003700841680000402d100ac
:100f10006142620004c2ea00614262000482fb0096
:100f2000610262000402420086168000d5ff2f0095
:100f30008502630005027200841688008416800012
:100f40004222de006142620004c2ea0061426200a5
:100f50000482fb00610262004222dd0086168000ee
:100f6000b5ff2f0085026300050272008416880019
:100f7000241680004622de006142620004c2ea00bc
:100f8000614262000482fb00610262004622dd00d1
:100f900026168000f5fb2f00850263000502720013
:100fa00024168800241680004722de006142620079
:100fb00004c2ea00614262000482fb006102620036
:100fc0004722dd0026168000f5f72f00850263001a
:100fd0000502720024168800241680004922de00d3
:100fe0006142620004c2ea00614262000482fb00c6
:100ff000610262004922dd0026168000f5df2f0025
:101000008502630005027200241688002416800001
:101010004c22de006142620004c2ea0061426200ca
:101020000482fb00610262004c22dd002616800073
:10103000f5ff2e0085026300050272002416880069
:10104000241680004a22de006142620004c2ea00e7
:10105000614262000482fb00610262004a22dd00fc
:1010600026168000f5bf2f0085026300050272007e
:1010700024168800241680004d22de0061426200a2
:1010800004c2ea00614262000482fb006102620065
:101090004d22dd0026168000f5ff2d00850263003d
:1010a0000502720024168800241680004e22de00fd
:1010b0006142620004c2ea00614262000482fb00f5
:1010c000610262004e22dd0026168000f5ff2b0033
:1010d0008502630005027200241688002416800031
:1010e0004f22de000442780004c2ea00614262003e
:1010f0000482fb004f22dd0026168000f5ff27004a
:101100008502630005027200241688001e0fe800a5
:101110001e027800e10f42007bff3a0075ff3700a6
:10112000849fbe00861f78000200fa00d022a8002b
:10113000d042a800c4c2a900c4e2a800c522a900e8
:10114000c582a800c542a900c5a2a800c5c2a900c1
:10115000c5e2a8000002eb00040f78000002eb00db
:10116000040f780082003700841680000402d1004a
:101170006142620004c2ea00614262000482fb0034
:10118000610262000402420086168000d5ff2f0033
:1011900085026300050272008416880084168000b0
:1011a0004222de006142620004c2ea006142620043
:1011b0000482fb00610262004222dd00861680008c
:1011c000b5ff2f00850263000502720084168800b7
:1011d000241680004622de006142620004c2ea005a
:1011e000614262000482fb00610262004622dd006f
:1011f00026168000f5fb2f008502630005027200b1
:1012000024168800241680004722de006142620016
:1012100004c2ea00614262000482fb0061026200d3
:101220004722dd0026168000f5f72f0085026300b7
:101230000502720024168800241680004922de0070
:101240006142620004c2ea00614262000482fb0063
:10125000610262004922dd0026168000f5df2f00c2
:10126000850263000502720024168800241680009f
:101270004c22de006142620004c2ea006142620068
:101280000482fb00610262004c22dd002616800011
:10129000f5ff2e0085026300050272002416880007
:1012a000241680004a22de006142620004c2ea0085
:1012b000614262000482fb00610262004a22dd009a
:1012c00026168000f5bf2f0085026300050272001c
:1012d00024168800241680004d22de006142620040
:1012e00004c2ea00614262000482fb006102620003
:1012f0004d22dd0026168000f5ff2d0085026300db
:101300000502720024168800241680004e22de009a
:101310006142620004c2ea00614262000482fb0092
:10132000610262004e22dd0026168000f5ff2b00d0
:1013300085026300050272002416880024168000ce
:101340004f22de000442780004c2ea0061426200db
:101350000482fb004f22dd0026168000f5ff2700e7
:101360008502630005027200241688001e0fe80043
:101370001e027800e10f42007bff3a0075ff370044
:10138000889fbe0080047800e0428000e00f50009b
:1013900004003a000e0007000084eb00e00f50004c
:1013a00008003500e8428000e08f5400050032005c
:1013b0000900440006000700e00f500001003d0056
:1013c0000084eb00080078004f04be000000060017
:1013d000e00f500004003a00e4852000e442880059
:1013e00000027800060037000082eb00e5052100ce
:1013f000850f500002003e00e04288000002eb0032
:101400000400780000000600c4842000e487470040
:1014100065428000889fbe008a9fbe008c9fbe00f0
:101420008e1f7800e08f52000b003a0024029800d3
:10143000e4024200c442880065428800d542880028
:10144000a44290000504a00025429800e4429000c8
:101450000504a0006542980067044000e485200070
:10146000250020004244de00e90521004244dd0061
:101470008484540005074400110009008504d80045
:101480001c062100c24280000406560080bf9f0057
:101490000e0747000003eb00e40544000806460081
:1014a00002003700160020000d0178002242900053
:1014b00061026200020032000a003700150978005c
:1014c000920278002542900061026200fbff320028
:1014d00008024100848f520002003900e00f5400de
:1014e0003f003d00920678000d00a100828f56005b
:1014f000edff3e00e10f5300eaff3a000fba9700fc
:10150000840f540002003600890f54001000390087
:10151000614ab900b0ff2f00010020006143b8000c
:101520000402500085825800840f5300858f5b00b1
:10153000020035000b057800060037001100090095
:101540000986d8000982b900040578000100370037
:101550000e0578000a00780089ff0700e10f4000bf
:1015600005003a000b0578000b00780084ff0700a7
:10157000e10f40002b003200d4428000000a7800c6
:10158000d442800064034200a4429000860f5000c1
:10159000020032000504a000010037000504a1008c
:1015a0002542980064055500c48420000a054000c7
:1015b0000a087800da428800040d7800d5428000dd
:1015c0000003eb00254290000404a000a442980010
:1015d000204290000404a10024409800b2ff37008c
:1015e000c4428800848f5200070036001403be00f6
:1015f0008042eb00a6428800b7428800120a7800b9
:10160000c44280002542980022429000c7428000d8
:101610000404a000070978002441980064004100f8
:10162000010037000000eb004f0778004f06be00b6
:101630004f05be004f04be004f00b1000000060081
:10164000e00f50000800320064005000c4428000e7
:10165000840f500001003100c042880020429000f9
:101660000404a1002440980000000600889fbe00ea
:10167000000478008a9fbe0081047800e08f540047
:1016800005003a00e00f54003200320008007800f4
:10169000ebff070030003700e00f540004003a0071
:1016a0000900780058ff0700800478002a003700fe
:1016b000640254009405780068fa970061026200a1
:1016c0000200320008007800ddff07000900780002
:1016d0004dff070080047800e08f54001e003200a8
:1016e000888f54001b00320069bd97008885550023
:1016f00009055500c2ddde0042d5de000a01780092
:101700008b0f5500010036000b0178004211dd00ff
:10171000880078000900780013000700888f5400c3
:101720000d0031004255dd000a854400880f550048
:101730000900360008045500a4428000b54280002c
:1017400042c4de004244dd0008844400048cbe0034
:101750000100370088047800090078004f05be00ba
:101760004f04be00000006000002780002003700af
:10177000315a78000201e900e00f5100fcff3a0005
:04178000000006005f
:020000040000fa
:10178400004e000000390000005700000042000035
:020000040000fa
:101794000200fa000700370034418000040f78008b
:1017a40034418000140a9000344188001e007800ff
:1017b4003d01070034418000e00f5200f6ff3a007b
:1017c4000700370054418000040f78005441800022
:1017d400140a9000544188001e007800320107006a
:1017e40054418000e00f5200f6ff3a000002eb0083
:1017f40044418800400120004013070000027800a3
:101804003441880034418000e00f5200220032004d
:101814003441800068024200040078009e130700ef
:10182400344180008002eb0075029800364180004c
:1018340035418000344180008e0078000f0078002c
:101844000701800021039800900298003702980055
:10185400344180008082eb005502980034418000be
:101864008002eb00050a9800344180008002eb00fe
:10187400150a9800344180008002eb00050a7800c4
:10188400344180008002eb006502980034418000fe
:101894004441880001003700000000000080fa0085
:1018a400000006000400fa000002eb00040f7800b8
:1018b4003441800014079800040037001e0fe8002c
:1018c4001e029000940a9000150798001e029000d2
:1018d400e00f5200f9ff3a005441800014079800c9
:1018e400040037001e0fe8001e029000940a9000c6
:1018f400150798001e029000e00f5200f9ff3a000d
:101904001e027800040078000080fa00000006003f
:101914000400fa00000f78001107980014428000b8
:101924009e027800840a78000402e80014428800c9
:101934001e029000e00f520002003a00840c2000c6
:10194400140798009e027800688242000400780020
:10195400511307001e009000e812070000027800ef
:10196400840278001e027800750298001e02780036
:1019740074029000e00f520002003a000042eb00b3
:10198400130037001e02780074029000840278006d
:101994001e027800150298001e027800940290003e
:1019a4001e027800250298001e027800940290001e
:1019b4001e029000848242001e02780035029800c4
:1019c4001e0278008002eb006502980014c0b30088
:1019d400044078000080fa00000006000400fa00c9
:1019e4001007980040012000c4120700000278008c
:1019f400040f78001e027800e00f520002003a0043
:101a04000042eb003b0037001e0278008000eb0030
:101a140004007800beff0700004278000404a2001e
:101a2400e04f5200040032001e007800c11207008b
:101a34000042eb002f0037001e027800f50f200053
:101a4400550298001e027800e5ab2b004502980071
:101a54001e0278008002eb00050a98001e0278003e
:101a64008002eb00150a98001e027800a402900080
:101a74001e027800140390001e027800b403900044
:101a84001e029000881f7800891f78008a1f780042
:101a94000e0478008f0478000a018000050778009e
:101aa4008607780007018800841f78000000200062
:101ab400801f78000e0378008f02780008077800f2
:101ac400890778000a0188004f057800cf04780060
:101ad4004f0478001e027800260298001e02780047
:101ae40015029800618220001e0078007f01070023
:101af40014c0b300044078000080fa00000006001f
:101b04000400fa00100798001e029000e00f520033
:101b14002400320044418000940278001e029000a8
:101b2400848f520002003a00210007001e00370093
:101b3400618220001e00900020010700000278004e
:101b4400040f78001e027800e00f520006003200f5
:101b54001e027800d5ea2d00450298001e00780088
:101b64005100070010003700a18220001e009000e1
:101b74001201070000027800040f78001e027800aa
:101b8400e00f5200080032001e027800d5ea2d0052
:101b9400450298001e007800430007000000000082
:101ba40001003700000000000080fa000000060079
:101bb4000400fa004441800014027800e00f52004f
:101bc4002600320044418000d5ea2d0045029800e9
:101bd4004441800014027800040078000c0b0700d4
:101be40044418000040a9000e00f52000a003a00c9
:101bf40044418000040f7800030037001e0278007f
:101c0400940a9000050f78001e027800e00f52003d
:101c1400faff3a000300370044418000840a900030
:101c2400050f78004441800014027800618220008e
:101c340004007800e100070000027800140798000f
:101c4400c18220001e009000280107001e027800b7
:101c540044418800a711070001003700000000007c
:101c64000080fa00000006000400fa0064418000cd
:101c7400040f7800070037009e02780015079800cb
:101c84001e027800940a9000050f78001e00900050
:101c9400050007001e027800e00f5200f6ff3a002c
:101ca4000080fa00000006000200fa00000f78002d
:101cb400960107001e007800e80307001e02780062
:101cc40074029000040078001a1207001e027800c3
:101cd4008002eb00750298001e00780015120700c0
:101ce4008e0107000080fa00000006000000fa00e0
:101cf40044418000e00f5200290032002d120700f9
:101d04004200f800801f7800811f7800821f78004d
:101d1400831f7800841f7800851f7800861f780051
:101d2400871f7800881f7800891f78008a1f780031
:101d34008b1f78008c1f78008d1f78002200f8001c
:101d44002800f8003200f8003400f8003600f800eb
:101d54003800f8003c00f8003a00f8004000f800b1
:101d64003e00f8004400f8000080fe004200f80045
:101d7400801f7800811f7800821f7800831f7800fd
:101d840045418000444180008e0378000f037800b1
:101d9400a7029800160298001412070001003700e9
:101da400000000000080fa00000006000600fa00af
:101db400000f78001107980022079800fd11070012
:101dc40080187800010078000080fa00be187800be
:101dd4000f70e100fdff35000007780081077800ef
:101de400020188008e1f78000f077800801f78009a
:101df400811f7800821f7800fc1107000080fa0020
:101e0400000006000200fa00000f7800b7ff070088
:101e14001e027800340390001e02780094029000a1
:101e24001e027800240290000601780085007800e4
:101e340004007800ddff070044418000555525006b
:101e4400450298001e027800c4029000e4ab2b0007
:101e5400848f520008003a00e91007001e0278003f
:101e64008082eb00450298001e02780044418800fd
:101e74000080fa00004006001e0278008082eb0019
:101e8400450298001e02780044418800c9110700e9
:101e94000080fa00cf0178004f017800cf0078006d
:101ea4004f0078004200f90000a0fe004400f90051
:101eb4003e00f9004000f9003a00f9003c00f90046
:101ec4003800f9003600f9003400f9003200f90056
:101ed4002800f9002200f900cf0678004f067800a8
:101ee400cf0578004f057800cf0478004f047800c0
:101ef400cf0378004f037800cf0278004f027800b8
:101f0400cf0178004f017800cf0078004f007800af
:101f14004200f900b51107000080fa000080fa00c1
:101f2400000006000080fa00000006000400fa0029
:101f34001007980034418000040f78000b0037002c
:101f44001e027800940278001e029000848f5200d2
:101f540003003a001e007800aaff070006003700bd
:101f64001e027800940a9000050f78001e02780083
:101f7400e00f5200f2ff3a000080fa000000060071
:101f84000000fa0044418000140a9000e00f52005f
:101f940004003a00344180000400780099ff0700ef
:101fa4000400370044418000140a900004007800c3
:101fb40094ff07000080fa00000006000800fa0001
:101fc40020079800310798003e0290001402780020
:101fd400e00f520002003a000002eb00400037001c
:101fe4003e02900014027800940278002e029000c1
:101ff400848f520015003a00c40007003e0290008e
:1020040094027800150798001e029000940a90002c
:102014003e029000050a78003e0290001402780007
:102024008002eb00050a98001e0290008002eb007b
:10203400050a98001e0290008002eb00150a980021
:10204400b60007001e029000250037003e029000f3
:1020540014027800940a9000050f78001c003700e1
:102064001e027800940278002e029000848f5200a1
:1020740014003a00a50007001e027800040a90002c
:102084009e027800950a9000150a98001e027800b6
:10209400140a90009e027800850a9000050a9800b0
:1020a4001e0278008002eb00050a98001e027800e8
:1020b4008002eb00150a9800980007001e027800c1
:1020c400070037001e027800940a9000050f78007c
:1020d4001e027800e00f5200e1ff3a000002eb001c
:1020e400040078000080fa00000006000600fa00f0
:1020f40010079800210798001e029000e00f52007c
:10210400590032001e0290008002eb00050a98007c
:102114001e0290008002eb00150a98002e02900027
:1021240014027800e00f520004003a002e029000de
:102134009e029000050a78004c0037002e029000a1
:1021440014027800940278001e02900014027800b1
:10215400848f5200110036006c0007002e0290009c
:10216400940278001e029000150a98001e02900046
:102174008002eb00050a98002e02900014027800f9
:102184009e029000050a98002e0290009e02900084
:10219400050a780061000700340037002e02900021
:1021a400140f78001f0037001e027800140a9000f4
:1021b400940278001e02900014027800848f52006a
:1021c40015003600510007001e027800940a9000a2
:1021d4001e029000150a98001e029000140a900036
:1021e400e00f5200040032001e029000140a900016
:1021f4009e029000050a98001e0290009e0278003c
:10220400050a98001e0278009e029000150a9800a4
:1022140042000700150037001e027800940a90005f
:10222400050f78001e027800140a9000e00f520097
:10223400ddff3a00350007001e0290008002eb002b
:10224400150a98001e0278009e029000150a980054
:102254001e0290009e027800050a98002f000700d5
:102264000000000001003700000000000080fa00b8
:10227400000006000400fa001007980034418000b2
:10228400040f78000a0037001e02780094027800d8
:102294001e029000848f520002003a001e02780051
:1022a400170037001e027800940a9000050f78008a
:1022b4001e027800e00f5200f3ff3a005441800000
:1022c400040f78000a0037001e0278009402780098
:1022d4001e029000848f520002003a001e02780011
:1022e400070037001e027800940a9000050f78005a
:1022f4001e027800e00f5200f3ff3a000002eb00e8
:10230400040078000080fa00000006000000fa00d3
:10231400ef0f07000080fa00000006000000fa003a
:10232400f00f07000080fa00000006000800fa0021
:102334001007980021079800320798003441800064
:10234400e00f52001c00320034418000140a900057
:10235400e00f52001a003200ecff070061822000f7
:102364001e00900015ff070000027800040f78009b
:10237400a18220001e0078005cff07002e00900060
:10238400ad070700be019000821e21009e00900050
:102394002e009000e007070044418000940278007a
:1023a4001e029000848f520001003a00d10f0700f2
:1023b400daff0700030037000000000001003700c7
:1023c400000000000080fa00000006000c00fa0083
:1023d4003007980041079800520798005441800044
:1023e400e00f520002003a0014c0b3002b00370083
:1023f400c6ff0700a18220003e009000effe070008
:102404000002780024079800618220002e009000ca
:1024140036ff0700c1ff07002e0290006c02420045
:1024240004017800811e21004e0090009b010700ea
:102434000042eb00044f78002e029000e40290006a
:10244400150798000a0037001e02900094027800d5
:102454004e029000848f520002003a0014c0b30070
:10246400044f78001e029000c402900015079800e3
:102474001e029000e00f5200f3ff3a001e42780063
:102484000404a200e04f520003003200be0090009a
:102494004e0090003b08070014c0b30004407800cd
:1024a4000080fa00000006000e00fa0030079800d1
:1024b4004107980052079800630798005e02900055
:1024c400e00f520002003a0014c0b3003d00370090
:1024d4003e00900067ff0700000278001407980090
:1024e4001e029000e00f520002003a000042eb008e
:1024f40034003700a000200000100700000278001c
:10250400240798002e029000e00f520002003a00c7
:102514000042eb002b0037002e029000ce02900008
:10252400050a78002e029000de0290001502980041
:102534002e029000ee029000250298002e029000d8
:102544008002eb00450298002e0290008002eb000e
:10255400350298001e02900064029000e00f5200c1
:10256400140032001e029000e4029000050f78006f
:10257400070037001e02780044029000e00f52006a
:10258400070032001e027800c4029000050f780094
:102594001e027800e00f5200f6ff3a0001003700f7
:1025a400000000001e027800ae0290004502980070
:1025b400030037001e029000ae02900065029800ee
:1025c40014c0b300044078000080fa000000060044
:1025d4000600fa0010079800210798001e029000d8
:1025e400040f78000a0037001e0278009402780075
:1025f4002e029000848f520002003a001e027800de
:10260400070037001e027800c4029000050f78000e
:102614001e029000e00f5200f3ff3a000002eb00ac
:10262400040078000080fa00000006001400fa009c
:102634006007980071079800020f9800130f980024
:102644006e0090000bff070000027800440798001a
:102654004e029000e00f520093003200744180005b
:10266400e00f52000d003a0028ff07004000200050
:10267400a20f0700000278007441880074418000b2
:10268400e00f52008a00320074418000fe02900084
:10269400050a780021ff07002300370074418000f9
:1026a400040f78001e027800940278007e029000e5
:1026b400848f52001b0032001e0278001402900026
:1026c400e00f520010003a0010ff07004000200005
:1026d4008a0f070000027800840278001e02780046
:1026e400150298001e02780014029000e00f5200b8
:1026f400710032001e02780014029000fe02900065
:10270400050a7800080037001e0278009402900041
:10271400050f78001e027800e00f5200e1ff3a0036
:1027240001003700000000004e029000e402900017
:1027340015079800530037000042eb004447980007
:102744001e02900024029000e00f520007003200a5
:102754001e029000240290000e0890000400010064
:1027640000427800444798000200370014c0b300c8
:10277400444798004e429000e04f5200410032001e
:10278400600020005d0f07000002780054079800e5
:102794005e029000e00f5200490032001e0a9000d1
:1027a400e00f5200150032001e089000530f07007e
:1027b40000027800de029000840a78005e02900035
:1027c40014027800e00f520003003a005e0090000b
:1027d400580f07003b0037005e0290001402780097
:1027e400840278000e0a90001e099000850078008b
:1027f40004007800570f0700030037005e029000c2
:102804008002eb00050a78005e0290009e0a9000a8
:10281400150298005e0290008002eb0025029800e9
:102824001e02900034029000e00f520004003a00af
:102834001e029000de029000350298000e00370060
:102844001e029000b4029000350798000300370080
:102854003e029000a4029000350798003e029000ca
:1028640024029000e00f5200f9ff3a003e0290006b
:10287400de029000250298001e029000c40290001f
:1028840015079800fe0090001e00900050ff0700fe
:1028940000027800140798001e029000e00f520016
:1028a400a5ff3a00070037000000000005003700cc
:1028b40000000000030037000000000001003700a2
:1028c400000000000080fa00000006000800fa0082
:1028d40020079800310798003e029000040f78000a
:1028e400200037001e027800e402900015079800cb
:1028f400160037001e029000940278002e02900009
:10290400848f52000e003a001e02900014029000c0
:10291400e00f52000a0032001e02900014039000df
:102924001e029000b40290001e0278001402780087
:1029340005017800ae009000040078000600010054
:102944001e029000c4029000150798001e02900019
:10295400e00f5200e7ff3a001e027800940a90004c
:10296400050f78001e027800e00f5200ddff3a00e8
:102974000080fa00000006000400fa0074418000a0
:10298400040f78000002eb00744188001300370044
:10299400354180001e02780014027800850078001a
:1029a40004007800c9ff0700554180001e0278002a
:1029b400140278008500780004007800c3ff070043
:1029c4009e027800150798001e0278009402900079
:1029d400050f78001e009000d60e07001e02780036
:1029e400e00f5200eaff3a000080fa0000000600ff
:1029f4000000fa00e0ff0700070e07000080fa005d
:102a0400000006000400fa0010079800344180001a
:102a1400040f7800090037009e0278006c8242009f
:102a240004017800e1ff2f001e0090001b00070046
:102a34001e027800940a9000050f78001e027800a8
:102a4400e00f5200f4ff3a000080fa000000060094
:102a54000800fa0010079800210798003207980030
:102a64001e00900003fe070000027800040f7800a7
:102a74001e027800e00f5200060032009e02780029
:102a84006c82420004017800be0090002e00900089
:102a9400020007000080fa00000006000e00fa00a1
:102aa4004007980051079800620798006e02900052
:102ab400e00f5200040032006e029000140278000d
:102ac400e00f520002003a000002eb004800370019
:102ad4006e02900094027800250798002e02900060
:102ae400940278004e029000848f520017003a003e
:102af4005e029000e20f4200050032002e029000b8
:102b0400940290005e029000848f52000f003a00fd
:102b14002e029000c4029000350798002e02900007
:102b2400c40290006e029000050a78002e02900004
:102b34006602420004007800300007002e00900076
:102b44007c0e07003e029000290037002e02900000
:102b5400040f78002e029000c4029000150798001c
:102b64001e029000940278004e029000848f52005e
:102b740016003a005e029000e20f420005003200a7
:102b84002e029000940290005e029000848f520006
:102b94000e003a001e029000c40290001e0278004b
:102ba400450298001e02900066024200040078006c
:102bb400120007001e0090005e0e07001e0278003f
:102bc400c402900015079800050037001e0290000b
:102bd400040f78001e029000c402900015079800ac
:102be4001e029000e00f5200ddff32002e02900022
:102bf400040078000080fa00000006000600fa00d5
:102c0400200798002e029000140f78002e029000e6
:102c14008002eb00050a78000b0037001e027800e2
:102c2400140798001e029000140278000400780033
:102c3400400e07001e0090003e0e07001e027800a2
:102c4400a4029000050f78001e027800e00f5200e5
:102c5400f2ff3a000080fa00000006000600fa00c5
:102c6400200798002e029000e4029000050f7800df
:102c74002e0290001402780004007800e406070095
:102c84000b0037001e027800140798001e0278001b
:102c9400c4029000050f78001e02900066024200f4
:102ca40004007800d5ff07001e009000210e0700e5
:102cb4001e027800e00f5200f2ff3a002e0290004c
:102cc4008002eb00650298000080fa000000060014
:102cd4000a00fa0030079800410798004441800038
:102ce400140278004e019000be00900004007800a9
:102cf4008efd070044418000e4029000050f780037
:102d04001e02780014079800250037001e02780080
:102d1400940278003e029000848f52001b003a0017
:102d24001e027800a40290004e029000848f52008c
:102d340016003a001e027800b4029000250798009d
:102d44001e0290009e0f520005003a00444180008c
:102d54009e027800c50290006502980004003700c6
:102d64001e027800c40290001e02900045029800e2
:102d74001e0278008002eb00450298001e007800d5
:102d8400ec0d07002e029000090037001e027800a7
:102d9400140798001e027800c4029000050f780002
:102da4001e027800e00f5200d8ff3a000002eb0048
:102db400040078000080fa00000006000200fa0017
:102dc400000f78008000eb001e007800c0ff0700b1
:102dd40000027800040078000080fa000000060079
:102de4000800fa002047980021079800320798004d
:102df4003e0290000402e80004007800bf0d0700c2
:102e040000027800040f78001e027800ae429000a1
:102e1400054a78001e02e8003e0190008400780014
:102e24002e009000cb0d07003e0290000402e80043
:102e3400040178009e007800c00d20005a090700a4
:102e44000080fa00000006001200fa00881f7800d3
:102e54000d0b070060be21008f0b070000427800b5
:102e64000404a200e04f520026013a004000200072
:102e7400f1040700004278000404a200e04f52006d
:102e840022013a00d042a800cc82a800cc62a8005b
:102e9400cdc2a800520c0700d1a2a9000042eb0049
:102ea400044f780014408000e00f520012003200fa
:102eb4000042eb00044f7800090037001540800001
:102ec4001e4378000682fb00040242000482420092
:102ed4001402780004007800960d07001e4fe800e5
:102ee4001e427800e94f5200f4ff3600144080007f
:102ef400040078008f0d0700400120007f0d0700bb
:102f0400000278001440880014408000e00f520052
:102f1400000132000042eb00044f78002900370022
:102f2400154080001e4378000682fb000402420024
:102f340004844200e0012000700d070000027800c4
:102f4400040c7800154080001e4378000682fb00c4
:102f5400040242000482420014027800e00f52008e
:102f640017003a000042eb00144798000042eb00bf
:102f7400144798000b003700154080001e42900053
:102f84000482fb000402420004824200140278001e
:102f940004007800670d07001e4290000442e80018
:102fa400144798001e4290009e4f5200f2ff3900d1
:102fb40014408000040078005e0d0700d80037003c
:102fc4001e4fe8001e427800e94f5200d4ff36003d
:102fd400d1a2a8001440800034408800244080001e
:102fe400e00f5200120032000042eb00044f780060
:102ff40009003700254080001e4378000682fb004c
:1030040004024200048242001402780004007800a2
:10301400480d07001e4fe8001e427800e94f520099
:10302400f4ff36002440800004007800410d0700be
:1030340040012000310d0700000278002440880080
:1030440024408000e00f5200b40032000042eb0044
:10305400044f780029003700254080001e43780083
:103064000682fb000402420004844200e0012000c6
:10307400220d070000027800040c7800254080002f
:103084001e4378000682fb000402420004824200d0
:1030940014027800e00f520017003a000042eb00df
:1030a400244798000042eb00244798000b003700a7
:1030b400254080002e4290000482fb00040242005e
:1030c400048242001402780004007800190d0700fd
:1030d4002e4290000442e800244798002e429000bb
:1030e4009e4f5200f2ff3900244080000400780013
:1030f400100d07008a0037001e4fe8001e427800ba
:10310400e94f5200d4ff360014c0b300344798008e
:1031140063024700120020008400780030c0b3002e
:103124002fff070084c0b3003447980063024700b0
:10313400120020008400780080c3b30028ff070039
:1031440074c0b300344798006302470012002000a3
:103154008400780080c6b30021ff070064024700a2
:1031640025bc280007000900355a7800640247008e
:10317400820020008400780000c5b30018ff070017
:1031840014c0b300344798006302470012002000c3
:103194008400780020c8b30011ff070004c8b300fe
:1031a400444f980004c8b300544f98006c02470081
:1031b400220020008400780000c8b30008ff070044
:1031c4000042eb00644f9800b4c6b300744f9800fb
:1031d4006e024700220020008400780080c4b300ff
:1031e400fffe07000042eb000457980064c4b300dc
:1031f40014579800700247002200200084007800d1
:1032040090c2b300f6fe07000042eb00344798007a
:1032140063024700120020008400780030c0b3002d
:10322400effe07008c60a9008ea0a9008ec0a90043
:103234008460a90086a0a90086c0a900a404800017
:1032440004c0a00004d0a10004e0a000a4048800ed
:10325400f40480000440a1000450a0000460a00015
:10326400f4048800f40480000480a0000490a0000a
:1032740004a0a000f40488000002eb000408880005
:103284001400200014088800240880000440a100d1
:103294000450a1002408880004c1a9000421a80046
:1032a4000441a80005e1a9000002eb00a40888007d
:1032b40014002000d4088800f40880000440a10011
:1032c4000450a100f40888001ec1a9001e21a80012
:1032d4001fe1a9000002eb00c408880014002000cc
:1032e400e4088800040980000440a1000450a100ff
:1032f4000409880020c1a9002021a80021e1a80018
:10330400070037000000000005003700000000003f
:103314000300370000000000010037000000000037
:103324004f0478000080fa00000006000000fa0054
:103334008460a90086a0a90086c0a9008c60a800aa
:103344008ea0a8008ec0a8000080fa00000006002d
:103354000200fa00000f78001e0278000440880082
:103364000080fa00000006003600f800809fbe00ce
:10337400829fbe00849fbe00869fbe003400f8007a
:1033840000002000a00188000000fa007800070077
:103394000080fa003400f9004f03be004f02be0063
:1033a4004f01be004f00be003600f9000040060089
:1033b4003600f800809fbe00829fbe00849fbe003e
:1033c400869fbe003400f80000002000a0018800a1
:1033d4000000fa00660007000080fa003400f900db
:1033e4004f03be004f02be004f01be004f00be009f
:1033f4003600f900004006003600f800809fbe0049
:10340400829fbe00849fbe00869fbe003400f800e9
:1034140000002000a00188000000fa00c500070099
:103424000080fa003400f9004f03be004f02be00d2
:103434004f01be004f00be003600f90000400600f8
:103444003600f800809fbe00829fbe00849fbe00ad
:10345400869fbe003400f80000002000a001880010
:103464000000fa00b30007000080fa003400f900fd
:103474004f03be004f02be004f01be004f00be000e
:103484003600f900004006003600f800809fbe00b8
:10349400829fbe00849fbe00869fbe003400f80059
:1034a40000002000a00188000000fa00ac00070022
:1034b4000080fa003400f9004f03be004f02be0042
:1034c4004f01be004f00be003600f9000040060068
:1034d4003600f800809fbe00829fbe00849fbe001d
:1034e400869fbe003400f80000002000a001880080
:1034f4000000fa009a0007000080fa003400f90086
:103504004f03be004f02be004f01be004f00be007d
:103514003600f900004006000000fa001fe1a9008f
:1035240005e1a9003540800014408000848f5200da
:1035340003003a0024408000344088000200370031
:1035440014408000344088000002eb0044408800ae
:103554000002eb005440880014c0b3000443780018
:10356400c5802000864a78000080fa00000006002a
:103574000000fa00c4e2a800741680007002620021
:10358400e00f520002003a00e3ff07006700370033
:103594007416800068026200e00f520007003a00cf
:1035a40005e1a900444080000402e800444088008a
:1035b4000002eb00544088005c003700d4802000f7
:1035c40014427800e04f520025003a00a41680000f
:1035d4000442780004437800d5802000864a7800ad
:1035e40035408000444080000402420004824200ce
:1035f40014037800544080006322b9000402780068
:1036040004024300d5802000954278008582fb00a7
:10361400c32ade0085427800054a780035408000e0
:1036240044408000040242000482420014037800f3
:10363400544080006322b90004027800040243006d
:10364400d5802000954278008582fb00c32add00e6
:10365400854278008543b200154298003300370054
:10366400a41680000442780004437800d58020002a
:10367400864a7800354080004440800004024200bd
:103684000482420014037800544080006322b9008d
:103694000402780004034300354080004440800065
:1036a40004024200048242009403780054408000e3
:1036b4006322b9000402780004824300944290001b
:1036c400d4802000144278000482fb004522de00ee
:1036d4000442780004c2720014439800354080000c
:1036e4004440800004024200048242001403780033
:1036f400544080006322b9000402780004024300ad
:10370400d580200095427800ffc2620025429800cf
:103714000042eb0004437800d5802000864a7800fc
:10372400544080000402e800544088000080fa00fd
:10373400000006000000fa00c522a80074168000ec
:1037440070026200e00f520002003a0072ff0700ac
:103754000100370005e1a8000080fa00000006001f
:103764000000fa00c582a8001fe1a8000080fa004a
:10377400000006000000fa000042eb000443780059
:10378400c5802000864a78003540800014408000bf
:10379400848f520002003200244080000100370070
:1037a40014408000040078000080fa000000060045
:1037b4000000fa00c480200014427800044078001d
:1037c4000080fa00000006000e00fa00f8ff07006f
:1037d400004278000404a200e04f520067003a005f
:1037e4000002eb00040f78000002eb0014079800bd
:1037f400e0ff070000027800540798000002eb0085
:10380400240798000002eb00340798000002eb0044
:10381400440798000002eb001407980037003700b3
:103824000002eb00040f78002e0037001e02900007
:1038340004024200de029000048242001403780075
:103844001e0278006322b9000402780004024300d7
:1038540014427800ee4f5200030036002e0290000e
:103864000402e800240798001e02900004024200ab
:10387400de02900004824200140378001e027800e5
:103884006322b90004027800040243001442900049
:10389400fe4f5200030036003e0290000402e8008e
:1038a400340798001e02900004024200de029000d9
:1038b40004824200140378001e0278006322b900d7
:1038c400040278000402430024429000ee4f5200a8
:1038d400030036004e0290000402e80044079800fa
:1038e4001e0fe8001e027800e90f5200cfff3600d9
:1038f4001e0290000402e800140798001e029000c3
:10390400e90f5200c6ff36000042eb00444f980016
:10391400ae02900024032000848f5200030036007e
:103924004e4a90000424a000444f9800be02900028
:1039340024032000848f5200030036004e4a900076
:103944000414a000444f9800ce02900024032000e9
:10395400848f5200030036004e4a90000404a000f5
:10396400444f98006c024700120020008400780045
:10397400400020000c020700010037000000000096
:103984000080fa00000006000000fa00de42a800f1
:10399400de62a900c40480000440a1000450a10018
:1039a4000460a000c4048800c40480000480a10052
:1039b4000490a10004a0a000c40488008520a900ec
:1039c4008d20a8008540a9008d40a8000002eb00ce
:1039d400641088000002eb0074108800740020005a
:1039e400a41088000de2a8000f42a8000080fa008d
:1039f400000006000000fa00de82a800dea2a90092
:103a040074002000f4108800b41080000410a10099
:103a14000420a100b41088001602a90018a2a9006d
:103a2400040580000400a1000410a1000420a000eb
:103a340004058800040580000440a1000450a1008e
:103a44000460a0000405880019e2a8001942a80037
:103a5400c41080000460a1000470a100c410880098
:103a64000080fa00000006000000fa000fe2a9003e
:103a74000f42a800741080000460a1000470a1002b
:103a8400741088000de2a8000080fa00000006000f
:103a94000000fa0019e2a9001942a800c41080002d
:103aa4000460a1000470a100c410880017e2a800fb
:103ab4000080fa00000006000200fa00000f7800ff
:103ac4001e027800d44088000080fa00000006003e
:103ad4000200fa00000f78001e027800e44088001b
:103ae4000080fa00000006000800fa002007980091
:103af4003107980060002000800a07000002780067
:103b0400140798001e029000e00f52002e003200ad
:103b14003e009000790a07000002780084027800d1
:103b24001e029000050a78001e029000140278001c
:103b3400e00f520003003a001e0090007d0a0700c7
:103b4400220037001e029000140278003e0190000b
:103b5400840078002e0090007e0a07001e02900068
:103b6400be029000150298001e0290008002eb0035
:103b740025029800f4408000e00f520004003a004f
:103b84001e029000f4408800fc0007000f0037007c
:103b9400f5408000050f7800030037001e0278000e
:103ba400a4029000050f78001e0278002402900001
:103bb400e00f5200f9ff3a001e0278009e029000c6
:103bc4002502980001003700000000000080fa0080
:103bd400000006000800fa0020079800310798004a
:103be40060002000450a07000002780014079800ce
:103bf4001e029000e00f52002e0032003e009000a2
:103c04003e0a070000027800840278001e02900039
:103c1400050a78001e02900014027800e00f52009a
:103c240003003a001e009000420a070022003700f9
:103c34001e029000140278003e0190008400780077
:103c44002e009000430a07001e029000be0290005e
:103c5400150298001e0290008002eb0025029800d5
:103c640004418000e00f520004003a001e0290005c
:103c7400044188001b0107000f0037000541800044
:103c8400050f7800030037001e027800a40290009c
:103c9400050f78001e02780024029000e00f520005
:103ca400f9ff3a001e0278009e0290002502980057
:103cb40001003700000000000080fa000000060048
:103cc4003600f800809fbe00829fbe00849fbe0025
:103cd400869fbe003400f80000002000a001880088
:103ce4000000fa008e0007008520a9000080fa0079
:103cf4003400f9004f03be004f02be004f01be0066
:103d04004f00be003600f900004006003600f800ff
:103d1400809fbe00829fbe00849fbe00869fbe001f
:103d24003400f80000002000a00188000000fa0020
:103d34007b0007008520a9000080fa003400f90008
:103d44004f03be004f02be004f01be004f00be0035
:103d54003600f900004006003600f800809fbe00df
:103d6400829fbe00849fbe00869fbe003400f80080
:103d740000002000a00188000000fa007f00070076
:103d84008540a9000080fa003400f9004f03be000a
:103d94004f02be004f01be004f00be003600f900c6
:103da400004006003600f800809fbe00829fbe00df
:103db400849fbe00869fbe003400f80000002000ef
:103dc400a00188000000fa006c0007008540a900eb
:103dd4000080fa003400f9004f03be004f02be0019
:103de4004f01be004f00be003600f900004006003f
:103df4003600f800809fbe00829fbe00849fbe00f4
:103e0400869fbe003400f80000002000a001880056
:103e14000000fa00900007008700a9000080fa0063
:103e24003400f9004f03be004f02be004f01be0034
:103e34004f00be003600f900004006003600f800ce
:103e4400809fbe00829fbe00849fbe00869fbe00ee
:103e54003400f80000002000a00188000000fa00ef
:103e64007d0007008700a9000080fa003400f900f3
:103e74004f03be004f02be004f01be004f00be0004
:103e84003600f900004006003600f800809fbe00ae
:103e9400829fbe00849fbe00869fbe003400f8004f
:103ea40000002000a00188000000fa008d00070037
:103eb4008720a9000080fa003400f9004f03be00f7
:103ec4004f02be004f01be004f00be003600f90095
:103ed400004006003600f800809fbe00829fbe00ae
:103ee400849fbe00869fbe003400f80000002000be
:103ef400a00188000000fa007a0007008720a900ca
:103f04000080fa003400f9004f03be004f02be00e7
:103f14004f01be004f00be003600f900004006000d
:103f24000200fa007410800062026200e00f520086
:103f34000b0032000e22a9000a0037009410800002
:103f4400044f7800d4408000e00f52000500320096
:103f5400d44080001e4078000400010001003700b6
:103f6400000000007410800061026200e00f520043
:103f7400f2ff3a000080fa00000006000200fa0096
:103f8400f4408000e00f520029003a000002eb00e8
:103f9400144188002e003700f44080009402900001
:103fa40014418000848f52000b003600f4408000de
:103fb4009402780014418000048242001442780084
:103fc4000482fb0084108800144180000402e8008d
:103fd4001441880017003700760907000002eb003f
:103fe40014418800f4408000040f7800f4408000fd
:103ff40024029000f44088001e0278008002eb0046
:10400400250298001e02780014027800040078004b
:10401400480907001e0078004609070073090700d5
:10402400f4408000e00f5200080032000100370025
:10403400000000007510800004202000048262004b
:10404400e00f5200d4ff32000100370000000000ee
:104054000080fa00000006000200fa002416800026
:104064004f22de000442780004c2ea00614262008a
:104074000482fb004f22dd0026168000f5ff270096
:10408400850263000502720024168800c4108000b3
:1040940062026200e00f52000b0032001822a900f5
:1040a4000a003700e4108000044f7800e4408000e8
:1040b400e00f520005003200e44080001e4078000a
:1040c400040001000100370000000000c41080005b
:1040d40061026200e00f5200f2ff3a000080fa0031
:1040e400000006000200fa002800370004418000a6
:1040f400e00f520003003a000002eb002441880064
:10410400270037000441800094029000244180007d
:10411400848f52000b003600044180009402780022
:104124002441800004824200144278000482fb008f
:1041340084108800244180000402e800244188009f
:10414400120037001b0907000002eb00244188001d
:1041540004418000040f7800044180002402900090
:10416400044188001e0278008002eb0025029800ba
:104174001e0278001402780004007800ed0807009d
:104184001e007800eb08070018090700c51080001e
:104194000420200004826200e00f5200d3ff3200aa
:1041a4000080fa00000006000a00fa0020079800c8
:1041b40031079800420798000b0807002e00900072
:1041c4006701070000027800140798001e0290009f
:1041d400e00f520002003a000042eb0013003700e7
:1041e4001e02900094029000050f78000a00370028
:1041f4001e02780014027800ce0190003e01900067
:10420400ae0090000400780008f907001e02780050
:1042140094029000050f78001e027800e00f52000f
:10422400f3ff3a00f607070014c0b3000440780017
:104234000080fa00000006000800fa003007980029
:1042440034428000040f780035428000150798003e
:104254000002eb00240798000c0037001e027800cf
:10426400940278003e029000848f520002003a00cb
:104274000042eb00250037001e029000040f780076
:104284001e027800a4029000150798001e029000f8
:10429400e00f5200f1ff3a00600020009708070089
:1042a40000027800240798002e029000e00f5200cc
:1042b40002003a000042eb00140037002e02900086
:1042c400be029000050a78002e0290008002eb00e6
:1042d400150298002e0290008002eb00250298003f
:1042e40034428000e00f520004003a002e02900095
:1042f4003442880014c0b300040037001e02780062
:10430400ae0290002502980014c0b3000440780067
:104314000080fa00000006000e00fa003007980042
:1043240041079800520798006307980034428000c0
:10433400040f7800450037001e02780094027800cc
:104344003e029000848f52003d003a00ee0190003e
:104354005e019000be0090004e00900052f80700ed
:10436400004278000404a200e04f52000200320030
:104374000042eb00390037001e02780094029000de
:10438400150798000a0037001e0290009402780076
:104394004e029000848f520002003a0014c0b30011
:1043a4002e0037001e02900094029000150798001a
:1043b4001e029000e00f5200040032001e02900022
:1043c40014029000e00f5200efff3a00400020007a
:1043d4004a08070000027800240798002e02900083
:1043e400e00f520002003a000042eb001b003700cd
:1043f4002e029000ce029000050a78002e02900052
:104404008002eb00150298001e027800140290004e
:10441400e00f520005003a001e027800ae02900040
:104424001502980014c0b3000c0037001e0290005f
:10443400ae0290001502980014c0b30007003700c4
:104444001e027800a4029000050f78001e02780076
:10445400e00f5200b8ff3a000042eb00044078003d
:104464000080fa00000006000e00fa0060079800c1
:1044740034428000040f780035428000150798000c
:1044840034428000e00f52003b0032001e027800ec
:10449400940278006e029000848f520032003a0039
:1044a4001e02780024029000344288001e02780024
:1044b4009402900025079800070037002e02900010
:1044c400440798002e02900094029000250798005b
:1044d4004e009000170807002e029000e00f5200d3
:1044e400f6ff3a006e00900046f9070023003700fb
:1044f4001e029000940278006e029000848f520095
:1045040014003a001e0278009402900035079800c7
:10451400070037003e029000540798003e029000c6
:1045240094029000350798005e009000010807008f
:104534003e029000e00f5200f6ff3a006e00900039
:1045440030f907001e029000a4029000050f7800c5
:104554000a0037001e029000040f78001e0290002b
:10456400a4029000150798001e029000e00f52006c
:10457400dfff3a0001003700000000000080fa006d
:10458400000006000a00fa0030079800410798006e
:104594003e00900072000700000278002407980093
:1045a4002e02900094029000050f78002e029000d5
:1045b40014029000940278004e029000848f5200fe
:1045c4000c003a002e029000140290009402900015
:1045d4002e029000150298001e007800d5070700ef
:1045e4000001eb00be0090004e00900018f9070097
:1045f4001d0037002e0290001402900094029000d7
:1046040015079800150037001e02900094027800e8
:104614004e029000848f52000b003a001e0290005c
:10462400940290001e027800150298001e0090006b
:10463400c00707000001eb00be0090004e00900090
:1046440003f90700080037001e029000040f7800e9
:104654001e02900094029000150798001e0290001c
:10466400e00f5200e8ff3a000080fa000000060064
:104674000c00fa0030079800410798005207980090
:104684003e009000360007000002780024079800de
:104694002e02900094029000050f78002e029000e4
:1046a40014029000940278005e029000848f5200fd
:1046b4000c003a002e029000140290009402900024
:1046c4002e029000150298001e007800990707003a
:1046d4004e019000be0090005e009000dcf80700e0
:1046e4001d0037002e0290001402900094029000e6
:1046f40015079800150037001e02900094027800f8
:104704005e029000848f52000b003a001e0290005b
:10471400940290001e027800150298001e0090007a
:10472400840707004e019000be0090005e009000d8
:10473400c7f80700080037001e029000040f780035
:104744001e02900094029000150798001e0290002b
:10475400e00f5200e8ff3a000080fa000000060073
:104764000400fa001007980034428000040f780017
:104774000a0037001e027800940278001e0290009e
:10478400848f520002003a001e02780007003700ae
:104794001e027800a4029000050f78001e02780023
:1047a400e00f5200f3ff3a000002eb00040078002f
:1047b4000080fa00000006000400fa0010079800c8
:1047c40034428000040f78000a0037001e0278008b
:1047d400940278001e029000848f520002003a0076
:1047e40014c0b300070037001e027800a402900032
:1047f400050f78001e027800e00f5200f3ff3a0024
:104804000042eb00044078000080fa00000006003b
:104814000800fa003007980034428000240798000a
:10482400350037002e02900094029000050f7800a6
:104834002e02900014029000940278003e02900030
:10484400848f52000e003a002e0290001402900051
:10485400940290002e029000150298001e00780029
:10486400340707002e029000140278000001eb00c8
:10487400840078003e00900075f807001e003700a1
:104884001e02780094029000150798001700370064
:104894001e029000940278003e029000848f520021
:1048a4000d003a001e029000940290001e0278004f
:1048b400150298001e0090001e0707002e029000ab
:1048c400140278000001eb00840078003e009000a0
:1048d4005ff80700080037001e029000040f7800fc
:1048e4001e02900094029000150798001e0290008a
:1048f400e00f5200e6ff3a002e029000e00f520053
:10490400c8ff3a000080fa00000006000000fa0028
:10491400000000003410800061026200e00f5200c9
:10492400fcff3a003410800064026200e00f520081
:10493400f8ff3a003410800068026200e00f520071
:10494400f4ff3a003410800070026200e00f52005d
:10495400f0ff3a0045108000040024000482620045
:10496400e00f5200ebff3a000080fa00000006005e
:104974000400fa00640920002410880007e2a9005a
:1049840007e2a80085c0a90085a0a900d40480007e
:104994000480a0000490a10004a0a000d404880016
:1049a4008da0a9000471220005002000048fbe0020
:1049b400040037000082eb008082eb001e0f4200ef
:1049c4005e974a001e02be00e00f5200e08f5a00bc
:1049d400f8ff3a0014c0b300044078000080fa00e5
:1049e400000006000000fa0007e2a90085c0a90043
:1049f40085a0a9008dc0a9008da0a90014c0b30092
:104a0400044078000080fa00000006000400fa0068
:104a14006022b800048fbe0007e2a90085c0a90087
:104a240085a0a9008da0a9000002eb004410880015
:104a34000471220005002000048fbe00040037002a
:104a44000082eb008082eb001e0f42005e974a005a
:104a54001e02be00e00f5200e08f5a00f8ff3a0039
:104a6400c3ff0700100007000471220005002000a6
:104a7400048fbe00040037000082eb008082eb004c
:104a84001e0f42005e974a001e02be00e00f520055
:104a9400e08f5a00f8ff3a0014c0b30004407800d5
:104aa4000080fa00000006000000fa0085c0a9009a
:104ab4008dc0a80014c0b300044078000080fa0040
:104ac400000006000000fa0085c0a9008dc0a900fe
:104ad40014c0b300044078000080fa00000006000f
:104ae4000400fa0014c0b3000443780005832000d6
:104af400864a78004410800070026200e00f520081
:104b0400150032000602a8000471220005002000ee
:104b1400048fbe000a00370004832000144278008a
:104b2400e04f520002003a0014c0b3000b003700fb
:104b34000082eb008082eb001e0f42005e974a0069
:104b44001e02be00e00f5200e08f5a00f2ff3a004e
:104b54000042eb00010037000042eb000440780003
:104b64000080fa00000006000400fa0064c0b300ec
:104b74000443780005832000864a780044108000ae
:104b840068026200e00f5200150032000622a800fd
:104b94000471220005002000048fbe000a003700c3
:104ba4000483200014427800e04f520002003a00cf
:104bb40014c0b3000b0037000082eb008082eb00ce
:104bc4001e0f42005e974a001e02be00e00f520014
:104bd400e08f5a00f2ff3a000042eb000100370078
:104be4000042eb00044078000080fa000000060058
:104bf4000400fa0054c0b300044378000583200085
:104c0400864a78000642a8000471220005002000ac
:104c1400048fbe000a003700048320001442780089
:104c2400e04f520002003a0014c0b30009003700fc
:104c34000082eb008082eb001e0f42005e974a0068
:104c44001e02be00e00f5200e08f5a00f2ff3a004d
:104c54000042eb00044078000080fa0000000600e7
:104c64000400fa0034c0b300044378000583200034
:104c7400864a78003410800061026200e00f52001e
:104c840010003a003410800064026200e00f520009
:104c94000c003a003410800068026200e00f5200f9
:104ca40008003a003410800070026200e00f5200e5
:104cb40004003a003410800062026200e00f5200e7
:104cc400020032000042eb001500370006a2a900e2
:104cd4000682a8000471220005002000048fbe0093
:104ce4000a0037000483200014427800e04f520089
:104cf40002003a0014c0b300090037000082eb0040
:104d04008082eb001e0f42005e974a001e02be0026
:104d1400e00f5200e08f5a00f2ff3a000042eb002d
:104d2400044078000080fa00000006000400fa0045
:104d340034c0b3000443780005832000864a780019
:104d44003410800061026200e00f520010003a004b
:104d54003410800064026200e00f52000c003a003c
:104d64003410800068026200e00f520008003a002c
:104d74003410800070026200e00f520004003a0018
:104d84003410800062026200e00f52000200320020
:104d94000042eb001500370006a2a8000682a80016
:104da4000471220005002000048fbe000a003700b1
:104db4000483200014427800e04f520002003a00bd
:104dc40014c0b300090037000082eb008082eb00be
:104dd4001e0f42005e974a001e02be00e00f520002
:104de400e08f5a00f2ff3a000042eb0004407800e2
:104df4000080fa00000006000800fa00300798005e
:104e04000471220005002000048fbe000042eb0064
:104e14004447980044c0b30004437800058320004d
:104e2400864a78000471220005002000048fbe0029
:104e34001c0037003410800061026200e00f520051
:104e440014003a003410800064026200e00f520043
:104e540010003a003410800068026200e00f520033
:104e64000c003a003410800070026200e00f52001f
:104e740008003a0045108000040024000482620007
:104e8400e00f520003003a0014c0b30044479800f6
:104e9400080037000082eb008082eb001e0f420006
:104ea4005e974a001e02be00e00f5200e08f5a00d7
:104eb400e0ff3a004e429000e04f520002003a00f8
:104ec4000042eb00180037000662a800046a2800bc
:104ed40015002000048fbe000e003700048320005c
:104ee40014427800e04f520006003a00041080009b
:104ef400844278003e029000054a780014c0b30052
:104f0400090037000082eb008082eb001e0f420094
:104f14005e974a001e02be00e00f5200e08f5a0066
:104f2400eeff3a000042eb00044078000080fa00f3
:104f3400000006000600fa004047980024c0b300b1
:104f44000443780005832000864a78004e4290008e
:104f54000402fb00141088000471220005002000e4
:104f6400048fbe000a003700048320001442780036
:104f7400e04f520002003a0014c0b30009003700a9
:104f84000082eb008082eb001e0f42005e974a0015
:104f94001e02be00e00f5200e08f5a00f2ff3a00fa
:104fa4000042eb00044078000080fa000000060094
:104fb400849fbe00861f78003400f800040020009f
:104fc400a40188000000fa0085c0a9000042eb009b
:104fd4000443780005832000864a78000080fa00a4
:104fe4003400f9004f0378004f02be000040060071
:104ff4000000fa0007e2a90085c0a90085a0a90065
:105004008dc0a9008da0a900640920002410880087
:10501400d40480000480a0000490a10004a0a00097
:10502400d404880007e2a8000080fa00000006000b
:105034000000fa0085c0a9008dc0a80007e2a800fe
:105044000080fa00000006000000fa008dc0a900ec
:105054000080fa00000006000000fa008dc0a800dd
:105064000080fa00000006000000fa0085c0a900d4
:105074008dc0a90007e2a9000080fa000000060024
:105084000000fa004410800070026200e00f520039
:10509400010032000602a8000080fa0000000600a9
:1050a4000000fa004410800068026200e00f520021
:1050b400010032000622a8000080fa000000060069
:1050c4000000fa000642a8000080fa000000060072
:1050d4000000fa003410800061026200e00f520008
:1050e40013003a003410800064026200e00f5200a2
:1050f40011003a003410800068026200e00f520090
:105104000f003a003410800070026200e00f520079
:105114000d003a003410800062026200e00f520079
:105124000b003a0006a2a9000682a8000900370075
:1051340000000000070037000000000005003700f1
:1051440000000000030037000000000001003700e9
:10515400000000000080fa00000006000000fa00d1
:105164003410800061026200e00f520013003a0024
:105174003410800064026200e00f520011003a0013
:105184003410800068026200e00f52000f003a0001
:105194003410800070026200e00f52000d003a00eb
:1051a4003410800062026200e00f52000b003a00eb
:1051b40006a2a8000682a80009003700000000002b
:1051c4000700370000000000050037000000000061
:1051d4000300370000000000010037000000000059
:1051e4000080fa00000006000000fa00341080007d
:1051f40061026200e00f520013003a003410800094
:1052040064026200e00f520011003a003410800082
:1052140068026200e00f52000f003a003410800070
:1052240070026200e00f52000d003a004510800049
:105234000400240004826200e00f52000a003a00d5
:105244000662a800090037000000000007003700cc
:1052540000000000050037000000000003003700d4
:105264000000000001003700000000000080fa0088
:10527400000006000000fa000410800004427800d8
:10528400044078000080fa00000006000200fa00e2
:10529400004f78009e4278000582fb0014108800bd
:1052a4000080fa00000006000400fa0010079800cd
:1052b4001e029000140f78001e0290001402780061
:1052c400d40290001e029000050a78001e027800a5
:1052d4008002eb00550298001e00780002000700cf
:1052e4000080fa00000006000400fa00100798008d
:1052f4000002eb00040f78000f0037001e0290003c
:10530400040f78001e029000d40290001507980044
:105314001e02780014029000e00f520004003200d4
:105324001e02780014029000040078008104070033
:105334001e0078007f0407001e029000e00f520058
:10534400eeff3a000080fa00000006000400fa00b4
:1053540010079800e4418000e00f520003003a0077
:105364001e029000e44188000d003700e5418000f2
:10537400050f7800030037001e027800d402900065
:10538400050f78001e02780054029000e00f5200ce
:10539400f9ff3a001e0278009e0290005502980020
:1053a4000080fa00000006000800fa002047980078
:1053b4002107980032079800c00020004f0407001e
:1053c40000027800040f78001e027800e00f5200fb
:1053d400150032001e027800ae429000054a7800a3
:1053e4001e027800ae029000150298001e0278009a
:1053f400be029000250298001e0278008002eb0095
:10540400450298001e02780015c0b300654298005a
:105414001e0278008002eb00550298001e007800fe
:10542400caff070001003700000000000080fa00f6
:10543400000006000c00fa0040479800310798006d
:105444004207980053079800c00020002b0407006f
:1054540000027800040f78001e027800e00f52006a
:1054640003003a003e009000320407003200370087
:105474001e027800ce429000054a78001e02780091
:10548400be029000150298001e027800ce02900021
:10549400250298001e0278008002eb004502980065
:1054a4001e02780015c0b30065429800c0002000b9
:1054b4001204070000027800140798001e029000ee
:1054c400e00f520005003a003e0090001904070066
:1054d4001e00780017040700170037001e0278002a
:1054e4009e029000550298001e029000ce42900049
:1054f400054a78001e0290008002eb001502980015
:105504001e0290008002eb00250298001e0290000b
:10551400de029000450298001e0290008042eb00db
:10552400654298001e0290008002eb00550298002c
:105534001e00780085ff07000080fa0000000600c6
:105544000200fa000042eb00044f78004e0107000d
:105554000002eb00744088000002eb0084408800e5
:10556400e0b52200cc010700004278000404a20048
:10557400e04f52000200320014c0b300044f780020
:105584001e427800e04f520006003a0020c122007b
:10559400c1010700004278000404a200e04f520059
:1055a4000200320014c0b300044f78002000200031
:1055b40021fb0700004278000404a200e04f5200df
:1055c4000200320014c0b300044f78001e42780079
:1055d400e04f520006003a003000200016fb07009e
:1055e400004278000404a200e04f5200020032009e
:1055f40014c0b300044f78001e427800e04f5200fc
:1056040009003a008001eb0062cc22008000eb002c
:105614002000200040fb0700004278000404a200a0
:10562400e04f52000200320014c0b300044f78006f
:105634001e427800e04f520009003a008001eb005e
:10564400e2cd22008000eb003000200032fb070096
:10565400004278000404a200e04f5200020032002d
:1056640014c0b300044f78001e427800e04f52008b
:105674000f003200e0b52200b701070020c122006c
:10568400b50107002000200077fb07003000200050
:1056940075fb07008000eb0020002000b9fb070029
:1056a4008000eb0030002000b6fb07000000000083
:1056b4000080fa00000006000000fa007440800038
:1056c400e00f52005300320074408000e00f52009b
:1056d40015003d00b44080000402e900b440880095
:1056e400b4408000e00f520021003a008481200081
:1056f400144278000442e90084407800808120004c
:10570400014878007440800004f0a7000402ea0015
:1057140005502000110009008402d800000278001e
:10572400b440880012003700b44080000402e9004d
:10573400b4408800b4408000e00f52000c003a00ee
:1057440084812000144278000442e8000443780075
:1057540085812000864a780074408000055020002e
:10576400110009008402d80000027800b4408800c7
:10577400848120001442780063426200044378006c
:1057840085812000864a78008481200014427800b4
:105794000482fb00cfa2de003600200007002000b8
:1057a400860f5200878f5a001b003e0004600100e0
:1057b400120037000c0037000600370000003700e5
:1057c400d602a900d622a800d642a800d662a90013
:1057d40011003700d602a800d622a900d642a8009c
:1057e400d662a9000c003700d602a800d622a90070
:1057f400d642a900d662a80007003700d602a90045
:10580400d622a800d642a900d662a8000000000053
:1058140001003700000000000080fa0000000600cc
:105824000000fa0084408000e00f52005300320070
:1058340084408000e00f520015003d009440800039
:105844000402e9009440880094408000e00f520074
:1058540021003a0044812000144278000442e90007
:105864008440780040812000014878008440800012
:1058740004f0a7000402ea0005502000110009000a
:105884008402d80000027800944088001200370097
:10589400944080000402e900944088009440800011
:1058a400e00f52000c003a004481200014427800ba
:1058b4000442e8000443780045812000864a7800c9
:1058c4008440800005502000110009008402d800a3
:1058d400000278009440880044812000144278003b
:1058e400634262000443780045812000864a7800c0
:1058f40044812000144278000482fb00cfa2de0021
:105904003600200007002000860f5200878f5a00bf
:105914001b003e000460010003003700070037004d
:105924000b0037000f003700d682a900d6a2a800ca
:10593400d6c2a800d6e2a90011003700d682a8007a
:10594400d6a2a900d6c2a800d6e2a9000c0037004e
:10595400d682a800d6a2a900d6c2a900d6e2a80081
:1059640007003700d682a900d6a2a800d6c2a90093
:10597400d6e2a8000000000001003700000000008b
:105984000080fa00000006000800fa0010079800e2
:1059940021079800320798003e029000040f780017
:1059a4000002eb007440880014c0b3000440780087
:1059b4000080fa00000006000800fa0010079800b2
:1059c40021079800320798003e029000040f7800e7
:1059d4000002eb008440880014c0b3000440780047
:1059e4000080fa00000006000200fa00000f7800b0
:1059f400040820009e027800848f520003003400c3
:105a040004082000744088000900370004f82f00bf
:105a14009e027800848f520003003d0004f82f009a
:105a240074408800020037001e0278007440880029
:105a34000080fa00000006000200fa00000f78005f
:105a4400040820009e027800848f52000300340072
:105a540004082000844088000900370004f82f005f
:105a64009e027800848f520003003d0004f82f004a
:105a740084408800020037001e02780084408800b9
:105a84000080fa00000006000000fa00060007008b
:105a94000080fa00000006000000fa001000070071
:105aa4000080fa00000006000000fa001b00070056
:105ab4000002eb0054088800840b2000740888005e
