:020000040000fa
:080000000001040000000000f3
:020000040000fa
:10000800ee010000be010000c4010000ca010000aa
:10001800d0010000ee010000ee010000ee0100003a
:10002800ee010000ee010000ee010000ce1100001c
:10003800ee010000ee0100001a25000084230000f4
:10004800ee010000801e0000c81e0000ee01000046
:10005800ee010000ee01000020150000ee01000096
:10006800ee010000ee010000ee010000ee010000cc
:10007800ee010000161200005e120000ee01000002
:10008800101f0000581f0000ee010000ee010000e4
:10009800ee010000ee010000ee010000ee0100009c
:1000a800ee010000ee010000ee010000ee0100008c
:1000b800ee010000ee010000ee010000ee0100007c
:1000c800ee010000ee010000ee010000ee0100006c
:1000d800ee010000ee010000ee010000ee0100005c
:1000e800ee010000ee010000ee010000ee0100004c
:0800f800ee010000ee01000022
:020000040000fa
:10010800ee010000d6010000dc010000e201000061
:10011800e8010000ee010000ee010000ee01000021
:10012800ee010000ee010000ee010000f2110000f7
:10013800ee010000ee01000036250000a0230000bb
:10014800ee010000a41e0000ec1e0000ee010000fd
:10015800ee010000ee01000020150000ee01000095
:10016800ee010000ee010000ee010000ee010000cb
:10017800ee0100003a12000082120000ee010000b9
:10018800341f00007c1f0000ee010000ee0100009b
:10019800ee010000ee010000ee010000ee0100009b
:1001a800ee010000ee010000ee010000ee0100008b
:1001b800ee010000ee010000ee010000ee0100007b
:1001c800ee010000ee010000ee010000ee0100006b
:1001d800ee010000ee010000ee010000ee0100005b
:1001e800ee010000ee010000ee010000ee0100004b
:0801f800ee010000ee01000021
:020000040000fa
:100200004fc520000e7f22000e0188000000000074
:10021000000020000000e000020032000001200089
:10022000200288000c000700606922000100200005
:1002300011000700000020000000e0000200320072
:1002400000000200000000006c2502000000000019
:100250000040da000000fe004440a90080002000b9
:100260000000e0000300320000002000a001880030
:100270004440a8000000060091018800800078003a
:100280000000eb0015003700e280400032a0b4000f
:100290009101ba00e280400032a0b4009102ba009d
:1002a000e280400032a0b4000002eb00472bde00e9
:1002b000f507b200602ce10004003a000059eb00a1
:1002c0008301e900fdff3e00040037006128e100e2
:1002d000010032000082eb00040007001101ba00a7
:1002e0000200e000e8ff3a00000006003159ba00c1
:1002f0008301e9000c0032002159ba008301e900b2
:10030000080032000400e00003003a00e2804000f0
:1003100032a0b400f5ff370011d9ba008301e9001b
:10032000faff3a008100e800e180400032a0b4000a
:1003300000000600120a040000000000f426040079
:1003400000000000a225040000000000c6250400f3
:100350000000000084210400000000002a220400a4
:1003600000000000d022040000000000ee22040083
:1003700000000000f8130400000000000000fa0074
:100380008020a900ffff37000000fa008060a9006c
:10039000ffff37000000fa008040a900ffff370090
:1003a0000000fa008080a900ffff37000000fa007b
:1003b0008020a900ffff37000000fa008060a9003c
:1003c000ffff37000000fa008040a900ffff370060
:1003d0000000fa008080a900ffff37000000fa004b
:1003e000ffff3700889fbe008004780090428000a5
:1003f000e00f500004003a000e0007000084eb00fc
:10040000e00f50000800350098428000e08f540053
:10041000050032000900440006000700e00f50000c
:1004200001003d000084eb00080078004f04be008e
:1004300000000600e00f500004003a004485200050
:100440009442880000027800060037000082eb002a
:1004500045c52000850f500002003e0090428800f4
:100460000002eb0004007800000006002484200055
:10047000e487470015428000889fbe008a9fbe0027
:100480008c9fbe008e1f7800e08f52000b003a0058
:1004900024029800e4024200744288001542880059
:1004a00085428800a44290000504a00025429800df
:1004b000e44290000504a0006542980067044000f3
:1004c00044852000250020004244de0049c520006c
:1004d0004244dd00848454000507440011000900f3
:1004e0008504d8007cc520007242800004065600b6
:1004f00080bf9f000e0747000003eb00e4054400a7
:100500000806460002003700160020000d017800a2
:100510002242900061026200020032000a003700ad
:10052000150978009202780025429000610262006d
:10053000fbff320008024100848f520002003900a4
:10054000e00f54003f003d00920678000d00a1002e
:10055000828f5600edff3e00e10f5300eaff3a00a4
:100560000fba9700840f540002003600890f540020
:1005700010003900614ab900b0ff2f0001002000cf
:100580006143b8000402500085825800840f530074
:10059000858f5b00020035000b05780006003700f0
:1005a000110009000986d8000982b9000405780005
:1005b000010037000e0578000a00780089ff070067
:1005c000e10f400005003a000b0578000b007800b1
:1005d00084ff0700e10f40002b00320084428000be
:1005e000000a78008442800064034200a442900024
:1005f000860f5000020032000504a0000100370001
:100600000504a100254298006405550024842000bb
:100610000a0540000a0878008a428800040d780024
:10062000854280000003eb00254290000404a000f6
:10063000a4429800204290000404a10024409800a5
:10064000b2ff370074428800848f520007003600e2
:100650001403be008042eb005642880067428800c7
:10066000120a7800744280002542980022429000cd
:10067000774280000404a000070978002441980014
:1006800064004100010037000000eb004f077800d4
:100690004f06be004f05be004f04be004f00b10024
:1006a00000000600e00f5000080032006400500017
:1006b00074428000840f50000100310070428800b5
:1006c000204290000404a10024409800000006008d
:1006d000889fbe00000478008a9fbe0081047800d5
:1006e000e08f540005003a00e00f54003200320061
:1006f00008007800ebff070030003700e00f5400df
:1007000004003a000900780058ff070080047800d0
:100710002a003700640254009405780068fa9700b4
:10072000610262000200320008007800ddff07006d
:10073000090078004dff070080047800e08f540026
:100740001e003200888f54001b00320069bd9700e4
:100750008885550009055500c2ddde0042d5de0062
:100760000a0178008b0f5500010036000b0178005c
:100770004211dd00880078000900780013000700ae
:10078000888f54000d0031004255dd000a85440079
:10079000880f5500090036000804550054428000b7
:1007a0006542800042c4de004244dd00088444000b
:1007b000048cbe000100370088047800090078002e
:1007c0004f05be004f04be00000006000002780086
:1007d00002003700315a78000201e900e00f5100b1
:0807e000fcff3a0000000600d6
:020000040000fa
:1007e800004e0000003900000057000000420000e1
:020000040000fa
:1007f8000200fa000700370034418000040f780037
:1008080034418000140a9000344188001e007800aa
:100818003d01070034418000e00f5200f6ff3a0026
:100828000700370054418000040f780054418000cd
:10083800140a9000544188001e0078003201070015
:1008480054418000e00f5200f6ff3a000002eb002e
:10085800444188004001200002ff070000027800a0
:100868003441880034418000e00f520022003200f9
:100878003441800068024200040078005f110700dc
:10088800344180008002eb007502980036418000f8
:1008980035418000344180008e0078000f007800d8
:1008a8000701800021039800900298003702980001
:1008b800344180008082eb0055029800344180006a
:1008c8008002eb00050a9800344180008002eb00aa
:1008d800150a9800344180008002eb00050a780070
:1008e800344180008002eb006502980034418000aa
:1008f8004441880001003700000000000080fa0031
:10090800000006000400fa000002eb00040f780063
:100918003441800014079800040037001e0fe800d7
:100928001e029000940a9000150798001e0290007d
:10093800e00f5200f9ff3a00544180001407980074
:10094800040037001e0fe8001e029000940a900071
:10095800150798001e029000e00f5200f9ff3a00b8
:100968001e027800040078000080fa0000000600eb
:100978000400fa00000f780011079800e441800095
:100988009e027800840a78000402e800e4418800a6
:100998001e029000e00f520002003a00840c200072
:1009a800140798009e0278006882420004007800cc
:1009b800121107001e009000aafe0700000278002e
:1009c800840278001e027800750298001e027800e2
:1009d80074029000e00f520002003a000042eb005f
:1009e800130037001e027800740290008402780019
:1009f8001e027800150298001e02780094029000ea
:100a08001e027800250298001e02780094029000c9
:100a18001e029000848242001e027800350298006f
:100a28001e0278008002eb006502980014c0b30033
:100a3800044078000080fa00000006000400fa0074
:100a4800100798004001200086fe07000002780089
:100a5800040f78001e027800e00f520002003a00ee
:100a68000042eb003b0037001e0278008000eb00dc
:100a780004007800beff0700004278000404a200ca
:100a8800e04f5200040032001e00780003ff070008
:100a98000042eb002f0037001e027800f50f2000ff
:100aa800550298001e027800e5ab2b00450298001d
:100ab8001e0278008002eb00050a98001e027800ea
:100ac8008002eb00150a98001e027800a40290002c
:100ad8001e027800140390001e027800b4039000f0
:100ae8001e029000881f7800891f78008a1f7800ee
:100af8000e0478008f0478000a018000050778004a
:100b08008607780007018800841f7800000020000d
:100b1800801f78000e0378008f027800080778009d
:100b2800890778000a0188004f057800cf0478000b
:100b38004f0478001e027800260298001e027800f2
:100b480015029800618220001e0078007b010700d2
:100b580014c0b300044078000080fa0000000600ca
:100b68000400fa00100798001e029000e00f5200df
:100b78002400320044418000940278001e02900054
:100b8800848f520002003a00210007001e0037003f
:100b9800618220001e0090001c01070000027800fe
:100ba800040f78001e027800e00f520006003200a1
:100bb8001e027800d5ea2d00450298001e00780034
:100bc8005100070010003700a18220001e0090008d
:100bd8000e01070000027800040f78001e0278005a
:100be800e00f5200080032001e027800d5ea2d00fe
:100bf800450298001e00780043000700000000002e
:100c080001003700000000000080fa000000060024
:100c18000400fa004441800014027800e00f5200fa
:100c28002600320044418000d5ea2d004502980094
:100c38004441800014027800040078003d0b07004e
:100c480044418000040a9000e00f52000a003a0074
:100c580044418000040f7800030037001e0278002a
:100c6800940a9000050f78001e027800e00f5200e9
:100c7800faff3a000300370044418000840a9000dc
:100c8800050f78004441800014027800618220003a
:100c980004007800dd0007000002780014079800bf
:100ca800c18220001e009000240107001e02780067
:100cb80044418800820f070001003700000000004f
:100cc8000080fa00000006000400fa006441800079
:100cd800040f7800070037009e0278001507980077
:100ce8001e027800940a9000050f78001e009000fc
:100cf800050007001e027800e00f5200f6ff3a00d8
:100d08000080fa00000006000200fa00000f7800d8
:100d1800920107001e007800e30307001e02780016
:100d280074029000040078005cfe07001e02780040
:100d38008002eb00750298001e00780057fe07003d
:100d48008a0107000080fa00000006000000fa008f
:100d580044418000e00f5200280032004200f800b1
:100d6800801f7800811f7800821f7800831f780019
:100d7800841f7800851f7800861f7800871f7800f9
:100d8800881f7800891f78008a1f78008b1f7800d9
:100d98008c1f78008d1f78008e1f78002200f800c5
:100da8002800f8003200f8003400f8003600f80097
:100db8003800f8003c00f8003a00f8004000f8005d
:100dc8003e00f8004400f8000080fe004200f800f1
:100dd800801f7800811f7800821f7800831f7800a9
:100de80045418000444180008e0378000f0378005d
:100df800a7029800160298000100370000000000c2
:100e08000080fa00000006000600fa00000f7800d3
:100e180011079800220798008018780001007800d0
:100e28000080fa00be1878000f70e100fdff350061
:100e38000007780081077800020188008e1f78007b
:100e48000f077800801f7800811f7800821f7800c4
:100e58000080fa00000006000200fa00000f780087
:100e6800baff07001e027800340390001e027800c3
:100e7800940290001e027800240290000601780077
:100e88008500780004007800dfff070044418000f7
:100e980055552500450298001e027800c4029000ae
:100ea800e4ab2b00848f520008003a00c70e0700fd
:100eb8001e0278008082eb00450298001e0278002e
:100ec800444188000080fa00004006001e027800b5
:100ed8008082eb00450298001e0278004441880099
:100ee8000080fa00cf0178004f017800cf00780029
:100ef8004f0078004200f90000a0fe004400f9000d
:100f08003e00f9004000f9003a00f9003c00f90001
:100f18003800f9003600f9003400f9003200f90011
:100f28002800f9002200f9004f077800cf06780062
:100f38004f067800cf0578004f057800cf04780079
:100f48004f047800cf0378004f037800cf02780071
:100f58004f027800cf0178004f017800cf00780069
:100f68004f0078004200f9000080fa000080fa0083
:100f7800000006000080fa00000006000400fa00e5
:100f88001007980034418000040f78000b003700e8
:100f98001e027800940278001e029000848f52008e
:100fa80003003a001e007800abff07000600370078
:100fb8001e027800940a9000050f78001e0278003f
:100fc800e00f5200f2ff3a000080fa00000006002d
:100fd8000000fa0044418000140a9000e00f52001b
:100fe80004003a0034418000040078009aff0700aa
:100ff8000400370044418000140a9000040078007f
:1010080095ff07000080fa00000006000800fa00bb
:1010180020079800310798003e02900014027800db
:10102800e00f520002003a000002eb0040003700d7
:101038003e02900014027800940278002e0290007c
:10104800848f520015003a00c40007003e02900049
:1010580094027800150798001e029000940a9000e8
:101068003e029000050a78003e02900014027800c3
:101078008002eb00050a98001e0290008002eb0037
:10108800050a98001e0290008002eb00150a9800dd
:10109800b60007001e029000250037003e029000af
:1010a80014027800940a9000050f78001c0037009d
:1010b8001e027800940278002e029000848f52005d
:1010c80014003a00a50007001e027800040a9000e8
:1010d8009e027800950a9000150a98001e02780072
:1010e800140a90009e027800850a9000050a98006c
:1010f8001e0278008002eb00050a98001e027800a4
:101108008002eb00150a9800980007001e0278007c
:10111800070037001e027800940a9000050f780037
:101128001e027800e00f5200e1ff3a000002eb00d7
:10113800040078000080fa00000006000600fa00ab
:1011480010079800210798001e029000e00f520037
:10115800590032001e0290008002eb00050a980038
:101168001e0290008002eb00150a98002e029000e3
:1011780014027800e00f520004003a002e0290009a
:101188009e029000050a78004c0037002e0290005d
:1011980014027800940278001e029000140278006d
:1011a800848f5200110036006c0007002e02900058
:1011b800940278001e029000150a98001e02900002
:1011c8008002eb00050a98002e02900014027800b5
:1011d8009e029000050a98002e0290009e02900040
:1011e800050a780061000700340037002e029000dd
:1011f800140f78001f0037001e027800140a9000b0
:10120800940278001e02900014027800848f520025
:1012180015003600510007001e027800940a90005d
:101228001e029000150a98001e029000140a9000f1
:10123800e00f5200040032001e029000140a9000d1
:101248009e029000050a98001e0290009e027800f7
:10125800050a98001e0278009e029000150a980060
:1012680042000700150037001e027800940a90001b
:10127800050f78001e027800140a9000e00f520053
:10128800ddff3a00350007001e0290008002eb00e7
:10129800150a98001e0278009e029000150a980010
:1012a8001e0290009e027800050a98002f00070091
:1012b8000000000001003700000000000080fa0074
:1012c800000006000400fa0010079800344180006e
:1012d800040f78000a0037001e0278009402780094
:1012e8001e029000848f520002003a001e0278000d
:1012f800170037001e027800940a9000050f780046
:101308001e027800e00f5200f3ff3a0054418000bb
:10131800040f78000a0037001e0278009402780053
:101328001e029000848f520002003a001e027800cc
:10133800070037001e027800940a9000050f780015
:101348001e027800e00f5200f3ff3a000002eb00a3
:10135800040078000080fa00000006000000fa008f
:10136800ce0d07000080fa00000006000000fa0019
:10137800cf0d07000080fa00000006000800fa0000
:101388001007980021079800320798003441800020
:10139800e00f52001c00320034418000140a900013
:1013a800e00f52001a003200ecff070061822000b3
:1013b8001e00900015ff070000027800040f780057
:1013c800a18220001e0078005cff07002e0090001c
:1013d800e2070700be01900022a120009e009000b5
:1013e8002e00900015080700444180009402780000
:1013f8001e029000848f520001003a00b00d0700d1
:10140800daff070003003700000000000100370082
:10141800000000000080fa00000006000c00fa003e
:1014280030079800410798005207980054418000ff
:10143800e00f520002003a0014c0b3002b0037003e
:10144800c6ff0700a18220003e009000effe0700c3
:101458000002780024079800618220002e00900086
:1014680036ff0700c1ff07002e0290006c02420001
:101478000401780021a120004e0090009a01070085
:101488000042eb00044f78002e029000e402900026
:10149800150798000a0037001e0290009402780091
:1014a8004e029000848f520002003a0014c0b3002c
:1014b800044f78001e029000c4029000150798009f
:1014c8001e029000e00f5200f3ff3a001e4278001f
:1014d8000404a200e04f520003003200be00900056
:1014e8004e0090007008070014c0b3000440780054
:1014f8000080fa00000006000e00fa00300798008d
:101508004107980052079800630798005e02900010
:10151800e00f520002003a0014c0b3003d0037004b
:101528003e00900067ff070000027800140798004b
:101538001e029000e00f520002003a000042eb0049
:1015480034003700a0002000c6fb07000002780026
:10155800240798002e029000e00f520002003a0083
:101568000042eb002b0037002e029000ce029000c4
:10157800050a78002e029000de02900015029800fd
:101588002e029000ee029000250298002e02900094
:101598008002eb00450298002e0290008002eb00ca
:1015a800350298001e02900064029000e00f52007d
:1015b800140032001e029000e4029000050f78002b
:1015c800070037001e02780044029000e00f520026
:1015d800070032001e027800c4029000050f780050
:1015e8001e027800e00f5200f6ff3a0001003700b3
:1015f800000000001e027800ae029000450298002c
:10160800030037001e029000ae02900065029800a9
:1016180014c0b300044078000080fa0000000600ff
:101628000600fa0010079800210798001e02900093
:10163800040f78000a0037001e0278009402780030
:101648002e029000848f520002003a001e02780099
:10165800070037001e027800c4029000050f7800ca
:101668001e029000e00f5200f3ff3a000002eb0068
:10167800040078000080fa00000006001400fa0058
:101688006007980071079800020f9800130f9800e0
:101698006e0090000bff07000002780044079800d6
:1016a8004e029000e00f5200920032007441800018
:1016b800e00f52000d003a0028ff0700400020000c
:1016c80068fb0700000278007441880074418000bc
:1016d800e00f52008900320074418000fe02900041
:1016e800050a780021ff07002300370074418000b5
:1016f800040f78001e027800940278007e029000a1
:10170800848f52001b0032001e02780014029000e1
:10171800e00f520010003a0010ff070040002000c0
:1017280050fb070000027800840278001e0278004f
:10173800150298001e02780014029000e00f520073
:10174800700032001e02780014029000fe02900021
:10175800050a7800080037001e02780094029000fd
:10176800050f78001e027800e00f5200e1ff3a00f2
:1017780001003700000000004e029000e4029000d3
:1017880015079800520037000042eb0044479800c4
:101798001e02900024029000e00f52000700320061
:1017a8001e029000240290000e0890000400010020
:1017b80000427800444798000200370014c0b30084
:1017c800444798004e429000e04f520040003200db
:1017d8006000200023fb07000002780054079800ef
:1017e8005e029000e00f5200480032001e0a90008e
:1017f800e00f5200140032001e08900019fb070089
:1018080000027800840278005e029000050a7800e1
:101818005e02900014027800e00f520003003a00c4
:101828005e0090009dfb0700390037005e029000c3
:10183800140278001e0990008e08900004007800b9
:10184800e0fb0700030037005e0290008002eb0017
:10185800050a78005e0290009e0a90001502980022
:101868005e0290008002eb00250298001e029000a4
:1018780034029000e00f520004003a001e0290006b
:10188800de029000350298000e0037001e0290001c
:10189800b402900035079800030037003e0290001c
:1018a800a4029000350798003e02900024029000a0
:1018b800e00f5200f9ff3a003e029000de0290006d
:1018c800250298001e029000c40290001507980097
:1018d800fe0090001e00900051ff070000027800f3
:1018e800140798001e029000e00f5200a6ff3a006d
:1018f8000700370000000000050037000000000066
:10190800030037000000000001003700000000005d
:101918000080fa00000006000800fa00200798007e
:10192800310798003e029000040f7800200037002d
:101938001e027800e4029000150798001600370090
:101948001e029000940278002e029000848f5200ac
:101958000e003a001e02900014029000e00f5200a0
:101968000a0032001e029000140390001e0290002c
:10197800b40290001e027800140278000501780075
:10198800ae00900004007800060001001e029000de
:10199800c4029000150798001e029000e00f520044
:1019a800e7ff3a001e027800940a9000050f7800bd
:1019b8001e027800e00f5200ddff3a000080fa00b6
:1019c800000006000400fa0074418000040f78004b
:1019d8000002eb0074418800130037003541800095
:1019e8001e02780014027800850078000400780050
:1019f800c9ff0700554180001e02780014027800d4
:101a08008500780004007800c3ff07009e02780074
:101a1800150798001e02780094029000050f7800c0
:101a28001e0090001dfb07001e027800e00f520008
:101a3800eaff3a000080fa00000006000000fa0001
:101a4800e0ff0700e70b07000080fa00000006002f
:101a58000400fa001007980034418000040f780051
:101a6800090037009e0278006c8242000401780069
:101a7800e1ff2f001e0090001b0007001e027800e7
:101a8800940a9000050f78001e027800e00f5200bb
:101a9800f4ff3a000080fa00000006000800fa008f
:101aa8001007980021079800320798001e00900040
:101ab80004fe070000027800040f78001e02780078
:101ac800e00f5200060032009e0278006c8242004d
:101ad80004017800be0090002e009000020007006c
:101ae8000080fa00000006000e00fa004007980087
:101af80051079800620798006e029000e00f5200ac
:101b0800040032006e02900014027800e00f5200c8
:101b180002003a000002eb00480037006e02900015
:101b280094027800250798002e029000940278000d
:101b38004e029000848f520017003a005e02900017
:101b4800e20f4200050032002e029000940290003d
:101b58005e029000848f52000f003a002e0290001f
:101b6800c4029000350798002e029000c40290002d
:101b78006e029000050a78002e029000660242006c
:101b880004007800300007002e009000c3fa070018
:101b98003e029000290037002e029000040f7800c2
:101ba8002e029000c4029000150798001e029000b3
:101bb800940278004e029000848f520016003a007a
:101bc8005e029000e20f4200050032002e029000f3
:101bd800940290005e029000848f52000e003a003a
:101be8001e029000c40290001e0278004502980070
:101bf8001e029000660242000400780012000700ee
:101c08001e009000a5fa07001e027800c40290008a
:101c180015079800050037001e029000040f780091
:101c28001e029000c4029000150798001e02900042
:101c3800e00f5200ddff32002e0290000400780011
:101c48000080fa00000006000600fa00200798004d
:101c58002e029000140f78002e0290008002eb00f4
:101c6800050a78000b0037001e0278001407980058
:101c78001e029000140278000400780087fa07001a
:101c88001e00900085fa07001e027800a40290004a
:101c9800050f78001e027800e00f5200f2ff3a00ac
:101ca8000080fa00000006000600fa0020079800ed
:101cb8002e029000e4029000050f78002e0290009a
:101cc80014027800040078001a0707000b00370098
:101cd8001e027800140798001e027800c4029000c3
:101ce800050f78001e02900066024200040078008a
:101cf800d5ff07001e00900068fa07001e02780052
:101d0800e00f5200f2ff3a002e0290008002eb0032
:101d1800650298000080fa00000006000a00fa0038
:101d28003007980041079800444180001402780069
:101d38004e019000be009000040078008ffd07005f
:101d480044418000e4029000050f78001e027800ec
:101d580014079800250037001e02780094027800c6
:101d68003e029000848f52001b003a001e02780049
:101d7800a40290004e029000848f520016003a0090
:101d88001e027800b4029000250798001e029000f9
:101d98009e0f520005003a00444180009e027800e0
:101da800c502900065029800040037001e02780002
:101db800c40290001e029000450298001e0278009e
:101dc8008002eb00450298001e00780033fa0700f5
:101dd8002e029000090037001e02780014079800b0
:101de8001e027800c4029000050f78001e027800d9
:101df800e00f5200d8ff3a000002eb000400780020
:101e08000080fa00000006000200fa00000f7800c7
:101e18008000eb001e007800c0ff07000002780079
:101e2800040078000080fa00000006000800fa00ac
:101e38002047980021079800320798003e0290003a
:101e48000402e8000400780086f907000002780020
:101e5800040f78001e027800ae429000054a780010
:101e68001e02e8003e019000ae00900004007800d9
:101e780054fa07003e0290000402e80004017800ca
:101e88009e007800c0cdb300aa0407000080fa00c5
:101e9800000006001200fa00881f7800dc0907001d
:101ea800803f21005b0a0700004278000404a2007a
:101eb800e04f520024013a004000200027050700a7
:101ec800004278000404a200e04f520020013a00ca
:101ed800cc82a800cc62a800cdc2a800b20207003c
:101ee800c10207000042eb00044f78001440800054
:101ef800e00f5200120032000042eb00044f78005d
:101f080009003700154080001e4378000682fb0058
:101f1800040242000482420014027800040078009f
:101f2800def907001e4fe8001e427800e94f520014
:101f3800f4ff36001440800004007800d7f9070049
:101f48004001200047f9070000027800144088008b
:101f580014408000e00f5200ff0032000042eb0006
:101f6800044f780029003700154080001e43780090
:101f78000682fb000402420004844200e0012000c3
:101f880038f9070000027800040c7800154080003a
:101f98001e4378000682fb000402420004824200cd
:101fa80014027800e00f520017003a000042eb00dc
:101fb800144798000042eb00144798000b003700c4
:101fc800154080001e4290000482fb00040242007b
:101fd800048242001402780004007800aff9070078
:101fe8001e4290000442e800144798001e429000e8
:101ff8009e4f5200f2ff3900144080000400780020
:10200800a6f90700d70037001e4fe8001e427800e7
:10201800e94f5200d4ff3600144080003440880055
:1020280024408000e00f5200120032000042eb0012
:10203800044f780009003700254080001e437800cf
:102048000682fb0004024200048242001402780067
:102058000400780091f907001e4fe8001e4278003e
:10206800e94f5200f4ff3600244080000400780055
:102078008af9070040012000faf8070000027800fa
:102088002440880024408000e00f5200b400320051
:102098000042eb00044f78002900370025408000fb
:1020a8001e4378000682fb000402420004844200ba
:1020b800e0012000ebf8070000027800040c78002b
:1020c800254080001e4378000682fb00040242007f
:1020d8000482420014027800e00f520017003a0010
:1020e8000042eb00244798000042eb002447980088
:1020f8000b003700254080002e4290000482fb0030
:1021080004024200048242001402780004007800ad
:1021180062f907002e4290000442e8002447980024
:102128002e4290009e4f5200f2ff3900244080005a
:102138000400780059f907008a0037001e4fe800ac
:102148001e427800e94f5200d4ff360014c0b30095
:10215800344798006302470012002000840078008a
:1021680030c0b30031ff070084c0b3003447980083
:1021780063024700120020008400780080c3b30087
:102188002aff070074c0b300344798006302470071
:10219800120020008400780080c6b30023ff0700e7
:1021a80064024700453f280007000900355a7800b7
:1021b80064024700820020008400780000c5b30054
:1021c8001aff070014c0b3003447980063024700a1
:1021d800120020008400780020c8b30013ff070015
:1021e80004c8b300444f980004c8b300544f980083
:1021f8006c024700220020008400780000c8b30069
:102208000aff07000042eb00644f9800b4c6b30011
:10221800744f98006e024700220020008400780066
:1022280080c4b30001ff07000042eb000457980088
:1022380064c4b300145798007002470022002000bd
:102248008400780090c2b300f8fe07000042eb005b
:102258003447980063024700120020008400780089
:1022680030c0b300f1fe07008c60a8008ea0a80063
:102278008ec0a8008460a90086a0a90086c0a90015
:10228800a404800004c0a00004d0a10004e0a000c1
:10229800a4048800f40480000440a1000450a000b5
:1022a8000460a000f4048800f40480000480a00006
:1022b8000490a00004a0a000f40488000002eb0031
:1022c80004088800140020001408880024088000ee
:1022d8000440a1000450a1002408880004c1a900fa
:1022e8000421a8000441a80005e1a9000002eb00b0
:1022f800a408880014002000d4088800f40880008e
:102308000440a1000450a100f40888001ec1a900df
:102318001e21a8001fe1a9000002eb00c4088800e4
:1023280014002000e4088800040980000440a1008b
:102338000450a1000409880020c1a9002021a80098
:1023480021e1a80007003700000000000500370061
:102358000000000003003700000000000100370003
:10236800000000004f0478000080fa00000006001a
:102378000000fa000080fa00000006000200fa00df
:10238800000f78001e027800044088000080fa00e0
:10239800000006003600f800809fbe00829fbe0045
:1023a800849fbe00869fbe003400f8000000200015
:1023b800a00188000000fa00780007000080fa00f9
:1023c8003400f9004f03be004f02be004f01be00ab
:1023d8004f00be003600f900004006003600f80045
:1023e800809fbe00829fbe00849fbe00869fbe0065
:1023f8003400f80000002000a00188000000fa0066
:10240800660007000080fa003400f9004f03be00a0
:102418004f02be004f01be004f00be003600f9005b
:10242800004006003600f800809fbe00829fbe0074
:10243800849fbe00869fbe003400f8000000200084
:10244800a00188000000fa00c40007000080fa001c
:102458003400f9004f03be004f02be004f01be001a
:102468004f00be003600f900004006003600f800b4
:10247800809fbe00829fbe00849fbe00869fbe00d4
:102488003400f80000002000a00188000000fa00d5
:10249800b20007000080fa003400f9004f03be00c4
:1024a8004f02be004f01be004f00be003600f900cb
:1024b800004006003600f800809fbe00829fbe00e4
:1024c800849fbe00869fbe003400f80000002000f4
:1024d800a00188000000fa00aa0007000080fa00a6
:1024e8003400f9004f03be004f02be004f01be008a
:1024f8004f00be003600f900004006003600f80024
:10250800809fbe00829fbe00849fbe00869fbe0043
:102518003400f80000002000a00188000000fa0044
:10252800980007000080fa003400f9004f03be004d
:102538004f02be004f01be004f00be003600f9003a
:10254800004006000000fa001fe1a90005e1a9000b
:102558003540800014408000848f520003003a0008
:102568002440800034408800020037001440800076
:10257800344088000002eb00444088000002eb0071
:102588005440880014c0b30004437800c58020007c
:10259800864a78000080fa00000006000000fa0071
:1025a8007416800070026200e00f520002003a00c8
:1025b800e4ff0700670037007416800068026200b5
:1025c800e00f520007003a0005e1a90044408000ee
:1025d8000402e800444088000002eb0054408800f0
:1025e8005c003700d480200014427800e04f52008d
:1025f80025003a00a41680000442780004437800bd
:10260800d5802000864a780035408000444080000c
:1026180004024200048242001403780054408000ff
:102628006322b9000402780004024300d580200028
:10263800954278008582fb00c32ade008542780037
:10264800054a78003540800044408000040242007a
:102658000482420014037800544080006322b900c9
:102668000402780004024300d580200095427800d7
:102678008582fb00c32add00854278008543b200cd
:102688001542980033003700a416800004427800f1
:1026980004437800d5802000864a780035408000c1
:1026a800444080000402420004824200140378007f
:1026b800544080006322b9000402780004034300f8
:1026c80035408000444080000402420004824200f9
:1026d80094037800544080006322b9000402780013
:1026e8000482430094429000d48020001442780071
:1026f8000482fb004522de000442780004c2720016
:102708001443980035408000444080000402420091
:102718000482420014037800544080006322b90008
:102728000402780004024300d58020009542780016
:10273800ffc26200254298000042eb000443780083
:10274800d5802000864a7800544080000402e800c2
:10275800544088000080fa00000006000000fa00db
:102768007416800070026200e00f520002003a0006
:1027780074ff07000100370005e1a8000080fa0097
:10278800000006000000fa001fe1a8000080fa001f
:10279800000006000000fa000042eb000443780045
:1027a800c5802000864a78003540800014408000ab
:1027b800848f52000200320024408000010037005c
:1027c80014408000040078000080fa000000060031
:1027d8000000fa00c4802000144278000440780009
:1027e8000080fa00000006000e00fa00f8ff07005b
:1027f800004278000404a200e04f520067003a004b
:102808000002eb00040f78000002eb0014079800a8
:10281800e0ff070000027800540798000002eb0070
:10282800240798000002eb00340798000002eb0030
:10283800440798000002eb0014079800370037009f
:102848000002eb00040f78002e0037001e029000f3
:1028580004024200de029000048242001403780061
:102868001e0278006322b9000402780004024300c3
:1028780014427800ee4f5200030036002e029000fa
:102888000402e800240798001e0290000402420097
:10289800de02900004824200140378001e027800d1
:1028a8006322b90004027800040243001442900035
:1028b800fe4f5200030036003e0290000402e8007a
:1028c800340798001e02900004024200de029000c5
:1028d80004824200140378001e0278006322b900c3
:1028e800040278000402430024429000ee4f520094
:1028f800030036004e0290000402e80044079800e6
:102908001e0fe8001e027800e90f5200cfff3600c4
:102918001e0290000402e800140798001e029000ae
:10292800e90f5200c6ff36000042eb00444f980002
:10293800ae02900024032000848f5200030036006a
:102948004e4a90000424a000444f9800be02900014
:1029580024032000848f5200030036004e4a900062
:102968000414a000444f9800ce02900024032000d5
:10297800848f5200030036004e4a90000404a000e1
:10298800444f98006c024700120020008400780031
:10299800400020004d020700010037000000000041
:1029a8000080fa00000006000000fa0007e2a90013
:1029b80085c0a90085a0a9008dc0a9008da0a90087
:1029c8006409200024108800d40480000480a10039
:1029d8000490a00004a0a000d404880007e2a80086
:1029e8000080fa00000006000000fa0085c0a90077
:1029f8008dc0a80007e2a8000080fa0000000600c9
:102a08000000fa008dc0a9000080fa00000006004e
:102a18000000fa008dc0a8000080fa00000006003f
:102a28000000fa0085c0a9008dc0a90007e2a9002e
:102a38000080fa00000006003600f800809fbe0003
:102a4800829fbe00849fbe00869fbe003400f800af
:102a580000002000a00188000200fa0085c0a9003b
:102a68009441800005002000360020000700200067
:102a7800860f5200878f5a00ac003e0004600100a8
:102a88000300370014003700400037006e0037009d
:102a9800a4418000e00f520009003a004410800071
:102aa80070026200e00f5200030032000002eb00e7
:102ab80084418800cd003700e4000700cb003700d0
:102ac80014002000844188001400200094418800ec
:102ad800ce000700c500370044108000680262007d
:102ae800e00f52001e0032002400200084418800bc
:102af800a4418000e00f520004003a007400200056
:102b080084418800d1000700b8003700a441800044
:102b18001442780004424200044f7800a441800027
:102b280064429000e04f520005003200e4cfb30049
:102b38001e4f6200340020009441880003003700d3
:102b48001e04a000240020009441880044002000b6
:102b5800844188001e4078002f010700a300370039
:102b68004410800070026200e00f5200030032003f
:102b78000002eb00844188009c00370074002000ac
:102b880084418800b1000700980037008441800024
:102b9800e40f520009003a004510800004002800a4
:102ba80004826200e00f520004003200340020006a
:102bb80084418800ef0007008c00370084418000c2
:102bc800e30f520010003a004410800062026200d5
:102bd800e00f52000c00320064002000844188009d
:102be800070107000042780014479800a4418000bc
:102bf800440290001e409000040001004083200021
:102c08000c010700b800070084418000e60f52005d
:102c18004c003a00a4418000e00f520004003a0042
:102c28007400200084418800880007006f00370086
:102c3800140020009441880014002000844188007a
:102c48007a0007006900370084418000e40f5200d1
:102c58003e003a004510800004002800048262000b
:102c6800e00f52003b003a005400200084418800e5
:102c7800a4418000e00f520004003a0074002000d4
:102c8800844188007100070058003700a441800083
:102c980014029000e00f520004003a007400200073
:102ca800844188006900070050003700a441800073
:102cb800a4029000b4418000848f52000f003a00b3
:102cc80040832000db000700a4418000e00f520091
:102cd80004003a0074002000844188005b0007006b
:102ce800420037001400200094418800140020009e
:102cf800844188004d0007003c0037004400200054
:102d080084418800a441800094029000b44180006e
:102d180084824200954278000402e800b4418800a9
:102d280005407800bc000700300037007400200020
:102d38008441880044002000944188004300070033
:102d48000500370000000000030037000000000005
:102d5800010037000000000084418000e70f5200a6
:102d680009003a004410800070026200e00f52002f
:102d7800050032000002eb00844188000002eb00ed
:102d88009441880019003700451080000440200055
:102d980004826200e00f52000a003a0045108000e9
:102da8000404200004826200e00f520005003a008b
:102db800451080000408200004826200e00f5200e1
:102dc800060032007400200084418800440020007e
:102dd800944188001d00070004003700740020009b
:102de8008441880019000700000000000080fa00f4
:102df8003400f9004f03be004f02be004f01be0071
:102e08004f00be003600f900004006000000fa003e
:102e18004410800070026200e00f5200010032008e
:102e28000602a8000080fa00000006000000fa0070
:102e38004410800068026200e00f52000100320076
:102e48000622a8000080fa00000006000000fa0030
:102e58000642a8000080fa00000006000000fa0000
:102e68003410800061026200e00f520013003a0043
:102e78003410800064026200e00f520011003a0032
:102e88003410800068026200e00f52000f003a0020
:102e98003410800070026200e00f52000d003a000a
:102ea8003410800062026200e00f52000b003a000a
:102eb80006a2a9000682a800090037000000000049
:102ec8000700370000000000050037000000000080
:102ed8000300370000000000010037000000000078
:102ee8000080fa00000006000000fa00341080009c
:102ef80061026200e00f520013003a0034108000b3
:102f080064026200e00f520011003a0034108000a1
:102f180068026200e00f52000f003a00341080008f
:102f280070026200e00f52000d003a003410800079
:102f380062026200e00f52000b003a0006a2a800ed
:102f48000682a800090037000000000007003700cb
:102f580000000000050037000000000003003700f3
:102f68000000000001003700000000000080fa00a7
:102f7800000006000000fa003410800061026200c0
:102f8800e00f520013003a0034108000640262001f
:102f9800e00f520011003a0034108000680262000d
:102fa800e00f52000f003a003410800070026200f7
:102fb800e00f52000d003a00451080000400240084
:102fc80004826200e00f52000a003a000662a8007c
:102fd800090037000000000007003700000000006b
:102fe8000500370000000000030037000000000063
:102ff80001003700000000000080fa000000060011
:103008000000fa00041080000442780004407800b0
:103018000080fa00000006000200fa00004f780065
:103028009e4278000582fb00141088000080fa0098
:10303800000006000400fa00100798001e02900025
:10304800140f78001e02900014027800d402900039
:103058001e029000050a78001e0278008002eb002c
:10306800550298001e007800020007000080fa0050
:10307800000006000400fa00100798000002eb00a8
:10308800040f78000f0037001e029000040f78002c
:103098001e029000d4029000150798001e027800c6
:1030a80014029000e00f5200040032001e02780063
:1030b800140290000400780078f507001e007800dc
:1030c80076f507001e029000e00f5200eeff3a006e
:1030d8000080fa00000006000400fa0010079800bb
:1030e800a4418000e00f520003003a001e02900045
:1030f800a44188000d003700a5418000050f780025
:10310800030037001e027800d4029000050f7800f3
:103118001e02780054029000e00f5200f9ff3a00b6
:103128001e0278009e029000550298000080fa0066
:10313800000006000800fa002047980021079800c0
:1031480032079800c0002000c6f40700000278008b
:10315800040f78001e027800e00f520015003200bc
:103168001e027800ae429000054a78001e027800e0
:10317800ae029000150298001e027800be02900070
:10318800250298001e0278008002eb004502980094
:103198001e02780015c0b300654298001e02780030
:1031a8008002eb00550298001e007800caff070055
:1031b80001003700000000000080fa00000006004f
:1031c8000c00fa0040479800310798004207980021
:1031d80053079800c0002000a2f4070000027800fe
:1031e800040f78001e027800e00f520003003a0036
:1031f8003e00900029f50700320037001e027800d3
:10320800ce429000054a78001e027800be02900067
:10321800150298001e027800ce0290002502980040
:103228001e0278008002eb00450298001e0278001a
:1032380015c0b30065429800c000200089f407005b
:1032480000027800140798001e029000e00f520058
:1032580005003a003e00900010f507001e007800b7
:103268000ef50700170037001e0278009e02900036
:10327800550298001e029000ce429000054a780040
:103288001e0290008002eb00150298001e029000ba
:103298008002eb00250298001e029000de029000da
:1032a800450298001e0290008042eb00654298009b
:1032b8001e0290008002eb00550298001e00780064
:1032c80085ff07000080fa00000006000a00fa00e7
:1032d800200798003107980042079800b5050700b5
:1032e8002e0090006701070000027800140798007c
:1032f8001e029000e00f520002003a000042eb006c
:10330800130037001e02900094029000050f780009
:103318000a0037001e02780014027800ce019000df
:103328003e019000ae00900004007800d3f807003a
:103338001e02780094029000050f78001e027800a3
:10334800e00f5200f3ff3a00a005070014c0b300d5
:10335800044078000080fa00000006000800fa0027
:1033680030079800f4418000040f7800f541800090
:10337800150798000002eb00240798000c0037009e
:103388001e027800940278003e029000848f52005a
:1033980002003a000042eb00250037001e029000b0
:1033a800040f78001e027800a40290001507980008
:1033b8001e029000e00f5200f1ff3a00600020006a
:1033c80028f4070000027800240798002e029000d5
:1033d800e00f520002003a000042eb0014003700f0
:1033e8002e029000be029000050a78002e0290007e
:1033f8008002eb00150298002e0290008002eb007c
:1034080025029800f4418000e00f520004003a00c1
:103418002e029000f441880014c0b3000400370065
:103428001e027800ae0290002502980014c0b30076
:10343800044078000080fa00000006000e00fa0040
:1034480030079800410798005207980063079800d2
:10345800f4418000040f7800450037001e02780010
:10346800940278003e029000848f52003d003a009a
:10347800ee0190005e019000be0090004e009000aa
:103488001df80700004278000404a200e04f520033
:10349800020032000042eb00390037001e027800bb
:1034a80094029000150798000a0037001e02900049
:1034b800940278004e029000848f520002003a0075
:1034c80014c0b3002e0037001e0290009402900032
:1034d800150798001e029000e00f52000400320009
:1034e8001e02900014029000e00f5200efff3a0015
:1034f80040002000dbf30700000278002407980052
:103508002e029000e00f520002003a000042eb0049
:103518001b0037002e029000ce029000050a7800aa
:103528002e0290008002eb00150298001e0278001f
:1035380014029000e00f520005003a001e027800c5
:10354800ae0290001502980014c0b3000c003700ba
:103558001e029000ae0290001502980014c0b3003d
:10356800070037001e027800a4029000050f7800bb
:103578001e027800e00f5200b8ff3a000042eb004c
:10358800044078000080fa00000006000e00fa00ef
:1035980060079800f4418000040f7800f54180002e
:1035a80015079800f4418000e00f52003b003200fc
:1035b8001e027800940278006e029000848f5200f8
:1035c80032003a001e02780024029000f44188007c
:1035d8001e02780094029000250798000700370023
:1035e8002e029000440798002e029000940290004a
:1035f800250798004e00900028f407002e0290003e
:10360800e00f5200f6ff3a006e00900010f9070034
:10361800230037001e029000940278006e0290008a
:10362800848f520014003a001e0278009402900021
:1036380035079800070037003e02900054079800ad
:103648003e02900094029000350798005e009000ba
:1036580012f407003e029000e00f5200f6ff3a0015
:103668006e009000faf807001e029000a402900075
:10367800050f78000a0037001e029000040f78003a
:103688001e029000a4029000150798001e029000e8
:10369800e00f5200dfff3a00010037000000000091
:1036a8000080fa00000006000a00fa0030079800bf
:1036b800410798003e009000720007000002780061
:1036c800240798002e02900094029000050f7800bd
:1036d8002e02900014029000940278004e0290008e
:1036e800848f52000c003a002e02900014029000c1
:1036f800940290002e029000150298001e00780097
:10370800e6f307000001eb00be0090004e009000b9
:10371800e2f807001d0037002e0290001402900006
:103728009402900015079800150037001e029000bb
:10373800940278004e029000848f52000b003a00e9
:103748001e029000940290001e0278001502980054
:103758001e009000d1f307000001eb00be009000ae
:103768004e009000cdf80700080037001e029000b8
:10377800040f78001e02900094029000150798002c
:103788001e029000e00f5200e8ff3a000080fa00a5
:10379800000006000c00fa00300798004107980066
:1037a800520798003e00900036000700000278009b
:1037b800240798002e02900094029000050f7800cc
:1037c8002e02900014029000940278005e0290008d
:1037d800848f52000c003a002e02900014029000d0
:1037e800940290002e029000150298001e007800a6
:1037f800aaf307004e019000be0090005e00900002
:10380800a6f807001d0037002e0290001402900051
:103818009402900015079800150037001e029000ca
:10382800940278005e029000848f52000b003a00e8
:103838001e029000940290001e0278001502980063
:103848001e00900095f307004e019000be00900006
:103858005e00900091f80700080037001e029000f3
:10386800040f78001e02900094029000150798003b
:103878001e029000e00f5200e8ff3a000080fa00b4
:10388800000006000400fa0010079800f4418000c8
:10389800040f78000a0037001e02780094027800ae
:1038a8001e029000848f520002003a001e02780027
:1038b800070037001e027800a4029000050f780068
:1038c8001e027800e00f5200f3ff3a000002eb00fe
:1038d800040078000080fa00000006000400fa00e6
:1038e80010079800f4418000040f78000a003700a0
:1038f8001e027800940278001e029000848f520005
:1039080002003a0014c0b300070037001e02780016
:10391800a4029000050f78001e027800e00f520004
:10392800f3ff3a000042eb00044078000080fa0000
:10393800000006000800fa0030079800f4418000f3
:1039480024079800350037002e029000940290005a
:10395800050f78002e02900014029000940278005f
:103968003e029000848f52000e003a002e02900012
:1039780014029000940290002e0290001502980004
:103988001e00780045f307002e029000140278000c
:103998000001eb00840078003e0090003ff807002b
:1039a8001e0037001e027800940290001507980048
:1039b800170037001e029000940278003e02900023
:1039c800848f52000d003a001e029000940290006d
:1039d8001e027800150298001e0090002ff30700c1
:1039e8002e029000140278000001eb008400780099
:1039f8003e00900029f80700080037001e029000da
:103a0800040f78001e029000940290001507980099
:103a18001e029000e00f5200e6ff3a002e029000ce
:103a2800e00f5200c8ff3a000080fa0000000600cc
:103a38000000fa00de42a800de62a900740020003f
:103a4800a4108800641080000410a1000420a100c4
:103a5800641088000c02a900c40480000440a1007e
:103a68000450a1000460a000c4048800c4048000bd
:103a78000480a1000490a10004a0a000c404880050
:103a88000fe2a8000f42a800741080000460a10093
:103a98000470a100741088000ea2a9000080fa002a
:103aa800000006000000fa00de82a800dea2a900dd
:103ab80074002000f4108800b41080000410a100e5
:103ac8000420a100b41088001602a90018a2a900b9
:103ad800040580000400a1000410a1000420a00037
:103ae80004058800040580000440a1000450a100da
:103af8000460a0000405880019e2a8001942a80083
:103b0800c41080000460a1000470a100c4108800e3
:103b18000080fa00000006000000fa000fe2a90089
:103b28000f42a800741080000460a1000470a10076
:103b3800741088000de2a8000080fa00000006005a
:103b48000000fa0019e2a9001942a800c410800078
:103b58000460a1000470a100c410880017e2a80046
:103b68000080fa00000006000200fa00000f78004a
:103b78001e027800d44088000080fa000000060089
:103b88000200fa00000f78001e027800e440880066
:103b98000080fa00000006000800fa0020079800dc
:103ba80031079800600020002ef20700000278001c
:103bb800140798001e029000e00f520003003a001c
:103bc8002e009000b5f207001d0037001e0290007d
:103bd800ae029000050a78001e029000be02900016
:103be800150298001e0290008002eb002502980042
:103bf800f4408000e00f520004003a001e029000da
:103c0800f4408800e30007000d003700f54080000d
:103c1800050f7800030037001e027800a402900008
:103c2800050f78001e02780024029000e00f520071
:103c3800f9ff3a001e0278009e02900025029800c3
:103c48000080fa00000006000800fa00200798002b
:103c5800310798006000200002f207000002780097
:103c6800140798001e029000e00f520003003a006b
:103c78002e00900089f207001d0037001e029000f8
:103c8800ae029000050a78001e029000be02900065
:103c9800150298001e0290008002eb002502980091
:103ca80004418000e00f520004003a001e02900018
:103cb80004418800ff0007000d003700054180001f
:103cc800050f7800030037001e027800a402900058
:103cd800050f78001e02780024029000e00f5200c1
:103ce800f9ff3a001e0278009e0290002502980013
:103cf8000080fa00000006003600f800809fbe0031
:103d0800829fbe00849fbe00869fbe003400f800dc
:103d180000002000a00188000000fa0086000700cb
:103d28000080fa003400f9004f03be004f02be00c5
:103d38004f01be004f00be003600f90000400600eb
:103d48003600f800809fbe00829fbe00849fbe00a0
:103d5800869fbe003400f80000002000a001880003
:103d68000000fa00740007000080fa003400f9002f
:103d78004f03be004f02be004f01be004f00be0001
:103d88003600f900004006003600f800809fbe00ab
:103d9800829fbe00849fbe00869fbe003400f8004c
:103da80000002000a00188000000fa007900070048
:103db8000080fa003400f9004f03be004f02be0035
:103dc8004f01be004f00be003600f900004006005b
:103dd8003600f800809fbe00829fbe00849fbe0010
:103de800869fbe003400f80000002000a001880073
:103df8000000fa00670007000080fa003400f900ac
:103e08004f03be004f02be004f01be004f00be0070
:103e18003600f900004006003600f800809fbe001a
:103e2800829fbe00849fbe00869fbe003400f800bb
:103e380000002000a00188000000fa0086000700aa
:103e48000080fa003400f9004f03be004f02be00a4
:103e58004f01be004f00be003600f90000400600ca
:103e68003600f800809fbe00829fbe00849fbe007f
:103e7800869fbe003400f80000002000a0018800e2
:103e88000000fa00740007000080fa003400f9000e
:103e98004f03be004f02be004f01be004f00be00e0
:103ea8003600f900004006003600f800809fbe008a
:103eb800829fbe00849fbe00869fbe003400f8002b
:103ec80000002000a00188000000fa007900070027
:103ed8000080fa003400f9004f03be004f02be0014
:103ee8004f01be004f00be003600f900004006003a
:103ef8003600f800809fbe00829fbe00849fbe00ef
:103f0800869fbe003400f80000002000a001880051
:103f18000000fa00670007000080fa003400f9008a
:103f28004f03be004f02be004f01be004f00be004f
:103f38003600f900004006000200fa007410800004
:103f480062026200e00f52000b0032000e22a9004c
:103f58000a00370094108000044f7800d440800095
:103f6800e00f520005003200d44080001e40780067
:103f780004000100010037000000000074108000f8
:103f880061026200e00f5200f2ff3a000080fa007e
:103f9800000006000200fa00f4408000e00f520022
:103fa80023003a002a003700f44080009402900071
:103fb80024418000848f520013003a000002eb0075
:103fc80024418800f4408000040f7800f440800009
:103fd80024029000f44088001e0278008002eb0062
:103fe800250298001e027800140278000400780068
:103ff800aaf107001e007800a8f10700f44080002d
:10400800e00f520011003200f44080009402780062
:104018002441800084824200954278008582fb001a
:10402800851088000402e800244188000100370058
:104038000000000075108000042020000482620047
:10404800e00f5200d8ff32000100370000000000e6
:104058000080fa00000006000200fa00c410800088
:1040680062026200e00f52000b0032001822a90021
:104078000a003700e4108000044f7800e440800014
:10408800e00f520005003200e44080001e40780036
:10409800040001000100370000000000c410800087
:1040a80061026200e00f5200f2ff3a000080fa005d
:1040b800000006000200fa0004418000e00f5200f0
:1040c80023003a002a00370004418000940290003f
:1040d80014418000848f520013003a000002eb0064
:1040e8001441880004418000040f780004418000d6
:1040f80024029000044188001e0278008002eb0030
:10410800250298001e027800140278000400780046
:1041180062f107001e00780060f10700044180008a
:10412800e00f520011003200044180009402780030
:104138001441800084824200954278008582fb0009
:10414800d51088000402e8001441880001003700f7
:1041580000000000c51080000420200004826200d6
:10416800e00f5200d8ff32000100370000000000c5
:104178000080fa00000006000200fa000042eb008e
:10418800044f7800220107000002eb007440880009
:104198000002eb00844088004418220004007800e4
:1041a8009c010700004278000404a200e04f52007e
:1041b8000200320014c0b300044f78001e42780099
:1041c800e04f520007003a00a422220004007800c1
:1041d80090010700004278000404a200e04f52005a
:1041e8000200320014c0b300044f78002000200001
:1041f8005afc0700004278000404a200e04f520075
:104208000200320014c0b300044f78001e42780048
:10421800e04f520006003a00300020004ffc070033
:10422800004278000404a200e04f5200020032006d
:1042380014c0b300044f78001e427800e04f5200cb
:1042480009003a008001eb00022d22008000eb00fb
:104258002000200079fc0700004278000404a20036
:10426800e04f52000200320014c0b300044f78003f
:104278001e427800e04f520009003a008001eb002e
:10428800e22e22008000eb00300020006bfc0700cb
:10429800004278000404a200e04f520002003200fd
:1042a80014c0b300044f78001e427800e04f52005b
:1042b800110032004418220004007800830107002e
:1042c800a4222200040078008001070020002000ba
:1042d800aefc070030002000acfc07008000eb00bb
:1042e80020002000f0fc07008000eb0030002000d8
:1042f800edfc0700000000000080fa000000060046
:104308000000fa0074408000e00f520013003d00e6
:10431800b44080000402e900b4408800b440800042
:10432800e00f520025003a008481200014427800f2
:104338000442e90084407800808120000148780028
:104348007440800085502000110009008402d800c4
:1043580000027800b440880018003700b44080009c
:104368000402e900b4408800b4408000e00f520025
:1043780012003a0084812000144278000442e800c8
:104388000443780085812000864a780084812000d3
:1043980014427800634262008440780080812000e3
:1043a8000148780074408000855020001100090001
:1043b8008402d80000027800b4408800848120007c
:1043c800144278000482fb00cfa2de0036002000f1
:1043d80007002000860f5200878f5a0019003e0000
:1043e8000460010003003700070037000b003700a6
:1043f8000f003700d602a900d622a800d642a8008e
:10440800d662a9000f003700d602a800d622a9005c
:10441800d642a800d662a9000a003700d602a80032
:10442800d622a900d642a900d662a8000500370006
:10443800d602a900d622a800d642a900d662a800b2
:10444800000000000080fa00000006000000fa00ea
:1044580084408000e00f520013003d00944080002b
:104468000402e9009440880094408000e00f520064
:1044780025003a0044812000144278000442e900f3
:104488008440780040812000014878007440800012
:1044980085502000110009008402d800000278002d
:1044a8009440880018003700944080000402e90016
:1044b8009440880094408000e00f520012003a00b7
:1044c80044812000144278000442e8000443780044
:1044d80045812000864a78004481200014427800f3
:1044e80063426200844078004081200001487800df
:1044f8007440800085502000110009008402d80013
:10450800000278009440880044812000144278001a
:104518000482fb00cfa2de00360020000700200046
:10452800860f5200878f5a0019003e000460010070
:1045380003003700070037000b0037000f00370073
:10454800d682a900d6a2a800d6c2a800d6e2a900a1
:104558000f003700d682a800d6a2a900d6c2a800ac
:10456800d6e2a9000a003700d682a800d6a2a90080
:10457800d6c2a900d6e2a80005003700d682a90055
:10458800d6a2a800d6c2a900d6e2a8000000000062
:104598000080fa00000006000800fa0010079800e2
:1045a80021079800320798003e029000040f780017
:1045b8001e027800140278006922b900040278000b
:1045c8007440880014c0b300044078000080fa00ea
:1045d800000006000800fa0010079800210798005c
:1045e800320798003e029000040f78001e027800ff
:1045f800140278006922b900040278008440880017
:1046080014c0b300044078000080fa0000000600df
:104618000000fa00060007000080fa00000006000b
:104628000000fa000f0007000080fa0000000600f2
:104638000000fa000002eb00540888009499230057
:10464800740888000002eb00940888009408800031
:104658000440a0000450a100940888000080fa00db
:10466800000006000000fa00b404800004c0a000a6
:1046780004d0a00004e0a100b404880013e1a8005d
:104688000080fa00000006000000fa0084e0a9009b
:104698008ce0a90013e1a9000080fa0000000600e0
:1046a8000000fa00f8ff07000080fa00000006008a
:1046b8000000fa0084e0a9008ce0a80013e1a8003b
:1046c8000080fa00000006000000fa00f8ff07006a
:1046d8000080fa00000006000000fa0084e0a9004b
:1046e8000002eb00540888000080fa000000060071
:1046f8000000fa00f8ff07000080fa00000006003a
:104708003600f800809fbe00829fbe00849fbe00d6
:10471800869fbe000000fa002e0007000080fa0005
:104728004f03be004f02be004f01be004f00be0047
:104738003600f900004006003600f800809fbe00f1
:10474800829fbe00849fbe00869fbe000000fa00c4
:10475800200007000080fa004f03be004f02be0091
:104768004f01be004f00be003600f90000400600b1
:104778000000fa0084e0a9008ce0a9000080fa009b
:10478800000006000000fa00f9ff07000080fa00a8
:10479800000006000000fa008ce0a8000080fa0083
:1047a800000006000000fa00faff07000080fa0087
:1047b800000006000000fa0084e0a8000080fa006b
:1047c800000006000000fa00faff07000080fa0067
:1047d800000006000200fa0004428000040f78007e
:1047e800060037001e027800140278000400010059
:1047f8001e02780094029000050f78001e027800cf
:10480800e00f5200f7ff3a00b3ff07000080fa00fc
:10481800000006000600fa0020079800400020006b
:1048280010ef070000027800140798001e0290009d
:10483800e00f520002003a000042eb00200037006f
:104848001e029000ae029000050a78001e02900039
:104858008002eb001502980004428000e00f52002d
:1048680004003a001e0290000442880014c0b300fd
:104878001300370005428000050f78000c00370050
:104888001e02780014029000e00f520005003a0062
:104898001e0278009e0290001502980014c0b30012
:1048a800070037001e02780094029000050f780078
:1048b8001e027800e00f5200f1ff3a000042eb00c0
:1048c800044078000080fa00000006000600fa00a4
:1048d8002007980004428000040f780005428000f9
:1048e80015079800140037001e027800940278001b
:1048f8002e029000848f52000a003a001e027800af
:10490800940290001e029000150298001e02780082
:104918008002eb00150298001e0078005fef070088
:10492800080037001e027800140798001e0278005d
:1049380094029000050f78001e027800e00f5200e4
:10494800e9ff3a000080fa00000006000200fa00c1
:10495800000f78001e027800c44188000002eb00b6
:104968003408880004b42000640888000002eb00c2
:1049780084088800840880000440a0000450a00037
:10498800840888000080fa00000006000000fa0091
:10499800b40480000480a1000490a00004a0a10039
:1049a800b40488000900070011e1a8000080fa009b
:1049b800000006000000fa0084c0a9008cc0a9000d
:1049c80011e1a9000080fa00000006000000fa00ca
:1049d80084c0a9008cc0a80011e1a8000080fa00da
:1049e800000006000000fa000002eb00340888000e
:1049f8000080fa00000006000000fa00edff070042
:104a0800b1f00700c4418000e00f520002003200fc
:104a1800c441800004000100eaf30700f1ff070029
:104a2800eaff07000080fa00000006003600f800e0
:104a3800809fbe00829fbe00849fbe00869fbe00ee
:104a48000000fa00ecff07000080fa004f03be00e8
:104a58004f02be004f01be004f00be003600f900f5
:104a6800004006003600f800809fbe00829fbe000e
:104a7800849fbe00869fbe000000fa00deff07008c
:104a88000080fa004f03be004f02be004f01be0077
:104a98004f00be003600f900004006000000fa0092
:104aa80084c0a9008cc0a9000080fa00000006009c
:104ab8000000fa008cc0a8000080fa000000060080
:104ac8000000fa0084c0a8000080fa000000060078
:104ad8000400fa00d3000700245a220004007800da
:104ae800d6ef0700645c220004007800d3ef0700cb
:104af800d8000700db00070010002000c2f4070000
:104b080000027800140798000e82e800040078007c
:104b18004df407000002eb00040f78001e0fe800b8
:104b28009e02780044062000110009008402d80083
:104b380001027800040f7800f8ff37000400fa003b
:104b48000042eb00044f78000042eb002447980035
:104b58000042eb00144798001e4fe9001e429000e7
:104b68000442e800144798001e4278009e429000d4
:104b78008582fb0004aab900040278002447980043
:104b8800f5ff37000400fa000042eb00044f7800fc
:104b98000042eb00244798000042eb0014479800bd
:104ba8000042eb0034479800010037000000000085
:104bb8001e4fe9001e4290000442e8001447980086
:104bc8001e4278001e4378008682fb0004aab900c2
:104bd80004027800244798002e4290001e43780073
:104be8008682fb0004aab9000402780014479800e2
:104bf8003e429000e04f5200ecff32000001eb0013
:104c08008000eb0010002000b0f90700e8ff370033
:104c18000000fa00c4c2a800c4e2a900c522a90085
:104c2800c582a900c542a900c5a2a900c5c2a9009c
:104c3800c5e2a900c0c2a900c0e2a900c122a9001a
:104c4800c182a900c142a900c1a2a900c1c2a9008c
:104c5800c1e2a900d022a900cc22a900d042a90013
:104c6800cc42a900e2e2a900e302a900e802a900f7
:104c7800e822a900dee2a900df02a900e402a900f7
:104c8800e422a900e202a900de02a900d602a900d6
:104c9800d622a900d642a900d662a900d682a900c8
:104ca800d6a2a900d6c2a900d6e2a900d202a900bc
:104cb800d222a900d242a900d262a900d282a900b8
:104cc800d2a2a900d2c2a900d2e2a900d1a2a90009
:104cd800cda2a900e842a900e862a900e442a9001f
:104ce800e462a900de22a800dec2a800e4c2a8008f
:104cf800e4e2a800e502a800e522a800d302a80083
:104d0800d322a800d342a800d362a800d382a80067
:104d1800d3a2a800d3c2a800d3e2a8000080fa005a
:044d28000000060081
:020000040000fa
:104d2c003808000002000000000000003a080000f3
:104d3c000200000000000000260800000a0000002d
:104d4c00000000003c08000002000000020000000f
:104d5c00010000003e0800000200000000000000fe
:104d6c004008000002000000000000000e080000d7
:104d7c000c000000000000003008000008000000db
:104d8c00000000001a0800000c00000000000000e9
:104d9c00000800000e0000000000000042080000a7
:104dac0008000000000000004e0800000200000097
:104dbc00000000005008000002000000000000008d
:104dcc004a08000004000000000000005208000027
:0c4ddc00020000000000000000000000c9
:020000040000fa
:104de8000000fa00d44180000402e800d4418800a1
:104df80077f007000080fa00000006000200fa00c1
:104e0800000f78001e027800150020001502980097
:104e18001e02780055552500050a78000080fa0022
:104e2800000006000000fa0079ff0700406f22002a
:104e3800c6fe07006eee07001000200047f90700c5
:104e48000080fa00000006000000fa000080fa0066
:104e5800000006000000fa00ccfe07000080fa00ff
:104e6800000006000000fa000080fa0000000600ba
:020000040000fa
:0200000401f009
:04000000e6bf000057
:020000040000fa
:0200000401f009
:04000400ff7f00007a
:020000040000fa
:0200000401f009
:040008007fff000076
:020000040000fa
:0200000401f009
:04001400ffff0000ea
:00000001FF
