:020000040000fa
:080000000001040000000000f3
:020000040000fa
:100008008a020000ba010000d4010000ee010000dd
:10001800080200008a0200008a0200008a0200002a
:100028009c3e00008a0200008a0200008a0200004a
:100038008a0200008a020000664500009c40000019
:100048008a0200000a1c0000561c00008a020000f8
:100058008a0200008a0200003e2d00008a02000089
:100068008a0200008a0200008a0200008a02000058
:100078008a020000dc460000a20200008a0200009a
:10008800a21c0000ee1c00008a0200008a02000088
:100098008a0200008a0200008a0200008a02000028
:1000a8008a0200008a0200008a0200008a02000018
:1000b8008a0200008a0200008a0200008a02000008
:1000c8008a0200008a0200008a0200008a020000f8
:1000d8008a0200008a0200008a0200008a020000e8
:1000e8008a0200008a0200008a0200008a020000d8
:0800f8008a0200008a020000e8
:020000040000fa
:100108008a020000220200003c02000056020000a1
:10011800700200008a0200008a0200008a020000c1
:100128009c3e00008a0200008a0200008a02000049
:100138008a0200008a02000082450000ba400000de
:100148008a020000301c00007c1c00008a020000ab
:100158008a0200008a0200003e2d00008a02000088
:100168008a0200008a0200008a0200008a02000057
:100178008a020000dc460000a20200008a02000099
:10018800c81c0000141d00008a0200008a0200003a
:100198008a0200008a0200008a0200008a02000027
:1001a8008a0200008a0200008a0200008a02000017
:1001b8008a0200008a0200008a0200008a02000007
:1001c8008a0200008a0200008a0200008a020000f7
:1001d8008a0200008a0200008a0200008a020000e7
:1001e8008a0200008a0200008a0200008a020000d7
:0801f8008a0200008a020000e7
:020000040000fa
:100200008f3621000e7f22000e01880000000000c2
:10021000000020000000e000020032000001200089
:10022000200288000c00070040302400010020005c
:1002300011000700000020000000e0000200320072
:100240000000020000000000ca410200000000009f
:100250000040da000000fe004440a9000000200039
:100260000000e0000300320000002000a001880030
:100270004440a8000000060091018800800078003a
:100280000000eb0015003700e280400032a0b4000f
:100290009101ba00e280400032a0b4009102ba009d
:1002a000e280400032a0b4000002eb00472bde00e9
:1002b000f507b200602ce10004003a000059eb00a1
:1002c0008301e900fdff3e00040037006128e100e2
:1002d000010032000082eb00040007001101ba00a7
:1002e0000200e000e8ff3a00000006003159ba00c1
:1002f0008301e9000c0032002159ba008301e900b2
:10030000080032000400e00003003a00e2804000f0
:1003100032a0b400f5ff370011d9ba008301e9001b
:10032000faff3a008100e800e180400032a0b4000a
:10033000000006001e0c0400000000003847040006
:1003400000000000c230040000000000763104000c
:10035000000000002a3204000000000042320400c5
:1003600000000000a83d040000000000c63e04009c
:10037000000000000000fa00d022a800d042a8002f
:10038000c4c2a800c4e2a900c522a900c582a90070
:10039000c542a900c5a2a900c5c2a900c5e2a9001d
:1003a0008020a900ffff37000000fa00d022a8003b
:1003b000d042a800c4c2a800c4e2a800c522a90077
:1003c000c582a900c542a900c5a2a900c5c2a9004d
:1003d000c5e2a9008060a900ffff37000000fa0015
:1003e000d022a800d042a800c4c2a800c4e2a8003d
:1003f000c522a800c582a900c542a900c5a2a900be
:10040000c5c2a900c5e2a9008040a900ffff3700ce
:100410000000fa00d022a800d042a800c4c2a80060
:10042000c4e2a800c522a800c582a800c542a90050
:10043000c5a2a900c5c2a900c5e2a9008080a90083
:10044000ffff37000000fa00d022a800d042a80029
:10045000c4c2a800c4e2a800c522a800c582a800a2
:10046000c542a800c5a2a900c5c2a900c5e2a9004d
:100470008020a900ffff37000000fa00d022a8006a
:10048000d042a800c4c2a800c4e2a800c522a800a7
:10049000c582a800c542a800c5a2a800c5c2a9007f
:1004a000c5e2a9008060a900ffff37000000fa0044
:1004b000d022a800d042a800c4c2a800c4e2a8006c
:1004c000c522a800c582a800c542a800c5a2a800f0
:1004d000c5c2a800c5e2a9008040a900ffff3700ff
:1004e0000000fa00d022a800d042a800c4c2a80090
:1004f000c4e2a800c522a800c582a800c542a80081
:10050000c5a2a800c5c2a800c5e2a8008080a900b5
:10051000ffff37000000fa00d022a800d042a80058
:10052000c4c2a900c4e2a800c522a900c582a800cf
:10053000c542a900c5a2a800c5c2a900c5e2a8007d
:10054000ffff37003400f800881f78000800200003
:10055000a80188004f0478000000fa0086c0a900b6
:100560001fe1a80021e1a9000080fa003400f90091
:10057000004006000000fa00240020000409880062
:100580000002eb00c408880014002000e408880082
:1005900086c0a9008ec0a80021e1a8000080fa0052
:1005a000000006000000fa0024002000f408880083
:1005b00024408000a4088800244080000402e80051
:1005c000d408880086a0a9001fe1a9008ea0a80079
:1005d0000080fa00000006000200fa00000f780018
:1005e0000002eb00344088001e02780004408800be
:1005f0000002eb0014408800eaff0700ddff07005f
:100600000080fa00000006001000fa003007980091
:1006100041079800520798006307980074079800f4
:100620000002eb0014079800ce0290005e029000da
:1006300004aab900840278006e0290000402e80067
:1006400004aab900040278000402e80084027800d9
:10065000a4142000848f5200020036000082eb00b8
:10066000390037000002eb00040f78002800370043
:100670000002eb00240798000b0037009e02900058
:10068000a48020000482420015c0b300054a78000f
:100690001e0290000402e800140798002e02900049
:1006a0000402e80024079800ae0290005e02900069
:1006b000848f5200f1ff35000002eb002407980000
:1006c0000b0037009e029000a480200004824200ac
:1006d0008042eb00054a78001e0290000402e80008
:1006e000140798002e0290000402e80024079800e6
:1006f000ee0290005e02900004aab9008402780025
:100700002e029000848f5200eeff3c001e0fe80086
:100710004e0290009e027800848f5200d4ff350074
:100720009e029000a48020000482420025c0b300f5
:10073000054a78007e029000244088003e02900026
:10074000444088000002eb00040078000080fa00ba
:10075000000006000000fa00144080000400780049
:100760000080fa0000000600889fbe008004780028
:10077000305b8000e00f500004003a000e000700dc
:100780000084eb00e00f500008003500385b80006b
:10079000e08f540005003200090044000600070005
:1007a000e00f500001003d000084eb0008007800dd
:1007b0004f04be0000000600e00f500004003a00a5
:1007c00084b62000345b8800000278000600370001
:1007d0000082eb0085362100850f500002003e00ac
:1007e000305b88000002eb00040078000000060087
:1007f000839f68000100e00002003d0060001000df
:10080000e08018000300e00002003d0060011100dc
:10081000e0811900050007004f00e00002003b00e6
:1008200060001000e0801800000006006022b800a0
:10083000060220000000d0008180d2000482d20095
:100840008582d2000000a0000202520083825a007a
:10085000030031000202420083824a000000a1002e
:100860000603e900f3ff3a000000060064b520002b
:10087000e4874700b55a8000889fbe008a9fbe006b
:100880008c9fbe008e1f7800e08f52000b003a0054
:1008900024029800e4024200145b8800b55a8800e4
:1008a000255b8800a44290000504a0002542980022
:1008b000e44290000504a0006542980067044000ef
:1008c00084b62000250020004244de008936210045
:1008d0004244dd00848454000507440011000900ef
:1008e0008504d800bc362100125b80000406560047
:1008f00080bf9f000e0747000003eb00e4054400a3
:100900000806460002003700160020000d0178009e
:100910002242900061026200020032000a003700a9
:100920001509780092027800254290006102620069
:10093000fbff320008024100848f520002003900a0
:10094000e00f54003f003d00920678000d00a1002a
:10095000828f5600edff3e00e10f5300eaff3a00a0
:100960000fba9700840f540002003600890f54001c
:1009700010003900614ab900b0ff2f0001002000cb
:100980006143b8000402500085825800840f530070
:10099000858f5b00020035000b05780006003700ec
:1009a000110009000986d8000982b9000405780001
:1009b000010037000e0578000a0078006aff070082
:1009c000e10f400005003a000b0578000b007800ad
:1009d00065ff0700e10f40002b003200245b800020
:1009e000000a7800245b800064034200a442900067
:1009f000860f5000020032000504a00001003700fd
:100a00000504a100254298006405550064b5200046
:100a10000a0540000a0878002a5b8800040d780067
:100a2000255b80000003eb00254290000404a00039
:100a3000a4429800204290000404a10024409800a1
:100a4000b2ff3700145b8800848f52000700360025
:100a50001403be008042eb00f65a8800075b880052
:100a6000120a7800145b8000254298002242900010
:100a7000175b80000404a000070978002441980057
:100a800064004100010037000000eb004f077800d0
:100a90004f06be004f05be004f04be004f00b10020
:100aa00000000600e00f5000080032006400500013
:100ab000145b8000840f500001003100105b88003f
:100ac000204290000404a100244098000000060089
:100ad000889fbe00000478008a9fbe0081047800d1
:100ae000e08f540005003a00e00f5400320032005d
:100af00008007800ebff070030003700e00f5400db
:100b000004003a000900780058ff070080047800cc
:100b10002a003700640254009405780068fa9700b0
:100b2000610262000200320008007800ddff070069
:100b3000090078004dff070080047800e08f540022
:100b40001e003200888f54001b00320069bd9700e0
:100b50008885550009055500c2ddde0042d5de005e
:100b60000a0178008b0f5500010036000b01780058
:100b70004211dd00880078000900780013000700aa
:100b8000888f54000d0031004255dd000a85440075
:100b9000880f55000900360008045500f45a8000fb
:100ba000055b800042c4de004244dd00088444004e
:100bb000048cbe000100370088047800090078002a
:100bc0004f05be004f04be00000006000002780082
:100bd00002003700315a78000201e900e00f5100ad
:080be000fcff3a0000000600d2
:020000040000fa
:100be8000200fa000700370064598000040f7800fb
:100bf80064598000140a9000645988001e00780027
:100c08003d01070064598000e00f5200f6ff3a00ea
:100c18000700370084598000040f78008459800049
:100c2800140a9000845988001e00780032010700d9
:100c380084598000e00f5200f6ff3a000002eb00f2
:100c480074598800400120000f2007000002780036
:100c58006459880064598000e00f52002200320075
:100c6800645980006802420004007800852007006b
:100c7800645980008002eb00750298006659800074
:100c880065598000645980008e0078000f00780054
:100c9800070180002103980090029800370298000d
:100ca800645980008082eb005502980064598000e6
:100cb8008002eb00050a9800645980008002eb006e
:100cc800150a9800645980008002eb00050a780034
:100cd800645980008002eb00650298006459800026
:100ce8007459880001003700000000000080fa00f5
:100cf800000006000400fa000002eb00040f780070
:100d08006459800014079800040037001e0fe8009b
:100d18001e029000940a9000150798001e02900089
:100d2800e00f5200f9ff3a00845980001407980038
:100d3800040037001e0fe8001e029000940a90007d
:100d4800150798001e029000e00f5200f9ff3a00c4
:100d58001e027800040078000080fa0000000600f7
:100d68000400fa00000f780011079800445a800028
:100d78009e027800840a78000402e800445a880039
:100d88001e029000e00f520002003a00840c20007e
:100d9800140798009e0278006882420004007800d8
:100da800382007001e009000b71f070000027800d7
:100db800840278001e027800750298001e027800ee
:100dc80074029000e00f520002003a000042eb006b
:100dd800130037001e027800740290008402780025
:100de8001e027800150298001e02780094029000f6
:100df8001e027800250298001e02780094029000d6
:100e08001e029000848242001e027800350298007b
:100e18001e0278008002eb006502980014c0b3003f
:100e2800044078000080fa00000006000400fa0080
:100e38001007980040012000931f07000002780067
:100e4800040f78001e027800e00f520002003a00fa
:100e58000042eb003b0037001e0278008000eb00e8
:100e680004007800beff0700004278000404a200d6
:100e7800e04f5200040032001e007800901f070067
:100e88000042eb002f0037001e027800f50f20000b
:100e9800550298001e027800e5ab2b004502980029
:100ea8001e0278008002eb00050a98001e027800f6
:100eb8008002eb00150a98001e027800a402900038
:100ec8001e027800140390001e027800b4039000fc
:100ed8001e029000881f7800891f78008a1f7800fa
:100ee8000e0478008f0478000a0180000507780056
:100ef8008607780007018800841f7800000020001a
:100f0800801f78000e0378008f02780008077800a9
:100f1800890778000a0188004f057800cf04780017
:100f28004f0478001e027800260298001e027800fe
:100f380015029800c1b220001e0078008501070044
:100f480014c0b300044078000080fa0000000600d6
:100f58000400fa00100798001e029000e00f5200eb
:100f68002400320074598000940278001e02900018
:100f7800848f520002003a00210007001e0037004b
:100f8800c1b220001e009000260107000002780070
:100f9800040f78001e027800e00f520006003200ad
:100fa8001e027800d5ea2d00450298001e00780040
:100fb800510007001000370001b320001e00900008
:100fc8001801070000027800040f78001e0278005c
:100fd800e00f5200080032001e027800d5ea2d000a
:100fe800450298001e00780043000700000000003a
:100ff80001003700000000000080fa000000060031
:101008000400fa007459800014027800e00f5200be
:101018002600320074598000d5ea2d004502980058
:10102800745980001402780004007800a9100700a1
:1010380074598000040a9000e00f52000a003a0038
:1010480074598000040f7800030037001e027800ee
:10105800940a9000050f78001e027800e00f5200f5
:10106800faff3a000300370074598000840a9000a0
:10107800050f78007459800014027800c1b220006e
:1010880004007800e70007000002780014079800c1
:1010980021b320001e0090002e0107001e027800d8
:1010a80074598800ac1e07000100370000000000da
:1010b8000080fa00000006000400fa00945980003d
:1010c800040f7800070037009e0278001507980083
:1010d8001e027800940a9000050f78001e00900008
:1010e800050007001e027800e00f5200f6ff3a00e4
:1010f8000080fa00000006000200fa00000f7800e5
:101108009c0107001e007800ee0307001e0278000d
:101118007402900004007800e91e07001e0278009f
:101128008002eb00750298001e007800e41e07009c
:10113800940107000080fa00000006000000fa0091
:1011480074598000e00f520029003200fc1e07008d
:101158004200f800801f7800811f7800821f780005
:10116800831f7800841f7800851f7800861f780009
:10117800871f7800881f7800891f78008a1f7800e9
:101188008b1f78008c1f78008d1f78002200f800d4
:101198002800f8003200f8003400f8003600f800a3
:1011a8003800f8003c00f8003a00f8004000f80069
:1011b8003e00f8004400f8000080fe004200f800fd
:1011c800801f7800811f7800821f7800831f7800b5
:1011d80075598000745980008e0378000f037800d9
:1011e800a702980016029800e31e070001003700c6
:1011f800000000000080fa00000006000600fa0067
:10120800000f78001107980022079800cc1e0700ed
:1012180080187800010078000080fa00be18780075
:101228000f70e100fdff35000007780081077800a6
:10123800020188008e1f78000f077800801f780051
:10124800811f7800821f7800cb1e07000080fa00fb
:10125800000006000200fa00000f780074598000b0
:101268009e027800848f520047003200b3ff0700c7
:101278001e027800340390001e0278009402900049
:101288001e0278002402900006017800850078008c
:1012980004007800d9ff07007459800055552500cf
:1012a800450298001e027800c4029000e4ab2b00af
:1012b800848f520008003a00ea1d07001e027800d9
:1012c8008082eb00450298001e027800745988005d
:1012d8000080fa00004006001e0278008082eb00c1
:1012e800450298001e02780074598800941e070071
:1012f8000080fa00cf0178004f017800cf00780015
:101308004f0078004200f90000a0fe004400f900f8
:101318003e00f9004000f9003a00f9003c00f900ed
:101328003800f9003600f9003400f9003200f900fd
:101338002800f9002200f900cf0678004f0678004f
:10134800cf0578004f057800cf0478004f04780067
:10135800cf0378004f037800cf0278004f0278005f
:10136800cf0178004f017800cf0078004f00780057
:101378004200f900801e07000080fa000080fa0091
:101388000000060001003700000000000080fa009d
:10139800000006000400fa00100798006459800055
:1013a800040f78000b0037001e02780094027800c2
:1013b8001e029000848f520003003a001e0078003d
:1013c800a4ff0700060037001e027800940a900068
:1013d800050f78001e027800e00f5200f2ff3a0075
:1013e8000080fa00000006000000fa00745980002e
:1013f800140a9000e00f520004003a00645980007b
:101408000400780093ff0700040037007459800037
:10141800140a9000040078008eff07000080fa008c
:10142800000006000800fa0020079800310798001d
:101438003e02900014027800e00f520002003a00c9
:101448000002eb00400037003e02900014027800d2
:10145800940278002e029000848f520015003a0002
:10146800c40007003e029000940278001507980017
:101478001e029000940a90003e029000050a78002f
:101488003e029000140278008002eb00050a9800e2
:101498001e0290008002eb00050a98001e029000d0
:1014a8008002eb00150a9800b60007001e029000a3
:1014b800250037003e02900014027800940a90003c
:1014c800050f78001c0037001e027800940278008f
:1014d8002e029000848f520014003a00a5000700e5
:1014e8001e027800040a90009e027800950a900077
:1014f800150a98001e027800140a90009e027800cf
:10150800850a9000050a98001e0278008002eb0008
:10151800050a98001e0278008002eb00150a980060
:10152800980007001e027800070037001e027800a6
:10153800940a9000050f78001e027800e00f520010
:10154800e1ff3a000002eb00040078000080fa0096
:10155800000006000600fa0010079800210798000e
:101568001e029000e00f5200590032001e02900047
:101578008002eb00050a98001e0290008002eb0032
:10158800150a98002e02900014027800e00f52000d
:1015980004003a002e0290009e029000050a78008e
:1015a8004c0037002e029000140278009402780054
:1015b8001e02900014027800848f52001100360039
:1015c8006c0007002e029000940278001e02900022
:1015d800150a98001e0290008002eb00050a980088
:1015e8002e029000140278009e029000050a9800ce
:1015f8002e0290009e029000050a78006100070004
:10160800340037002e029000140f78001f003700b6
:101618001e027800140a9000940278001e029000be
:1016280014027800848f520015003600510007001c
:101638001e027800940a90001e029000150a980075
:101648001e029000140a9000e00f520004003200bd
:101658001e029000140a90009e029000050a98004d
:101668001e0290009e027800050a98001e0278006b
:101678009e029000150a98004200070015003700e6
:101688001e027800940a9000050f78001e02780068
:10169800140a9000e00f5200ddff3a003500070001
:1016a8001e0290008002eb00150a98001e027800c6
:1016b8009e029000150a98001e0290009e02780073
:1016c800050a98002f0007000000000001003700fd
:1016d800000000000080fa00000006000400fa0084
:1016e8001007980064598000040f78000a0037003a
:1016f8001e027800940278001e029000848f520027
:1017080002003a001e027800170037001e02780017
:10171800940a9000050f78001e027800e00f52002e
:10172800f3ff3a0084598000040f78000a0037005c
:101738001e027800940278001e029000848f5200e6
:1017480002003a001e027800070037001e027800e7
:10175800940a9000050f78001e027800e00f5200ee
:10176800f3ff3a000002eb00040078000080fa0062
:10177800000006000000fa00ee1c07000080fa00d6
:10178800000006000000fa00ef1c07000080fa00c5
:10179800000006000800fa001007980021079800ca
:1017a8003207980064598000e00f52001c00320094
:1017b80064598000140a9000e00f52001a003200a9
:1017c800ecff0700c1b220001e00900015ff0700c3
:1017d80000027800040f780001b320001e00780092
:1017e8005cff07002e009000440d0700be0190002a
:1017f800e2c120009e0090002e009000770d0700a7
:1018080074598000940278001e029000848f520060
:1018180001003a00d01c0700daff07000300370078
:101828000000000001003700000000000080fa00fe
:10183800000006000c00fa003007980041079800e5
:101848005207980084598000e00f520002003a00c5
:1018580014c0b3002b003700c6ff070001b32000f7
:101868003e009000effe0700000278002407980071
:10187800c1b220002e00900036ff0700c1ff07000c
:101888002e0290006c02420004017800e1c12000a1
:101898004e0090009b0107000042eb00044f7800c7
:1018a8002e029000e4029000150798000a00370005
:1018b8001e029000940278004e029000848f52001d
:1018c80002003a0014c0b300044f78001e029000d2
:1018d800c4029000150798001e029000e00f520005
:1018e800f3ff3a001e4278000404a200e04f5200c1
:1018f80003003200be0090004e009000d20d070099
:1019080014c0b300044078000080fa00000006000c
:101918000e00fa0030079800410798005207980017
:10192800630798005e029000e00f520002003a0040
:1019380014c0b3003d0037003e00900067ff070069
:1019480000027800140798001e029000e00f520071
:1019580002003a000042eb0034003700a0002000eb
:10196800c91c070000027800240798002e02900086
:10197800e00f520002003a000042eb002b00370053
:101988002e029000ce029000050a78002e029000e8
:10199800de029000150298002e029000ee029000e0
:1019a800250298002e0290008002eb004502980064
:1019b8002e0290008002eb00350298001e02900073
:1019c80064029000e00f5200140032001e029000e2
:1019d800e4029000050f7800070037001e02780027
:1019e80044029000e00f5200070032001e02780007
:1019f800c4029000050f78001e027800e00f520024
:101a0800f6ff3a0001003700000000001e027800cf
:101a1800ae02900045029800030037001e029000b5
:101a2800ae0290006502980014c0b300044078002c
:101a38000080fa00000006000600fa00100798006f
:101a4800210798001e029000040f78000a00370052
:101a58001e027800940278002e029000848f5200b3
:101a680002003a001e027800070037001e027800c4
:101a7800c4029000050f78001e029000e00f52008b
:101a8800f3ff3a000002eb00040078000080fa003f
:101a9800000006001400fa0060079800710798001b
:101aa800020f9800130f98006e0090000bff0700bc
:101ab80000027800440798004e029000e00f5200a0
:101ac80093003200a4598000e00f52000d003a0044
:101ad80028ff0700400020006b1c07000002780068
:101ae800a4598800a4598000e00f52008a003200ef
:101af800a4598000fe029000050a780021ff070023
:101b080023003700a4598000040f78001e027800d3
:101b1800940278007e029000848f52001b003200ed
:101b28001e02780014029000e00f520010003a00e4
:101b380010ff070040002000531c07000002780037
:101b4800840278001e027800150298001e027800b0
:101b580014029000e00f5200710032001e0278005b
:101b680014029000fe029000050a78000800370071
:101b78001e02780094029000050f78001e0278007b
:101b8800e00f5200e1ff3a000100370000000000ba
:101b98004e029000e40290001507980053003700a9
:101ba8000042eb00444798001e0290002402900077
:101bb800e00f5200070032001e029000240290003d
:101bc8000e08900004000100004278004447980085
:101bd8000200370014c0b300444798004e429000fa
:101be800e04f52004100320060002000261c070030
:101bf80000027800540798005e029000e00f52003f
:101c0800490032001e0a9000e00f52001500320011
:101c18001e0890001c1c070000027800de029000dd
:101c2800840a78005e02900014027800e00f5200e7
:101c380003003a005e009000211c07003b003700bb
:101c48005e02900014027800840278000e0a900068
:101c58001e0990008500780004007800201c070009
:101c6800030037005e0290008002eb00050a78004e
:101c78005e0290009e0a9000150298005e02900095
:101c88008002eb00250298001e02900034029000aa
:101c9800e00f520004003a001e029000de0290009d
:101ca800350298000e0037001e029000b402900022
:101cb80035079800030037003e029000a402900008
:101cc800350798003e02900024029000e00f520071
:101cd800f9ff3a003e029000de02900025029800cb
:101ce8001e029000c402900015079800fe009000a4
:101cf8001e00900050ff07000002780014079800ab
:101d08001e029000e00f5200a5ff3a0007003700be
:101d18000000000005003700000000000300370045
:101d28000000000001003700000000000080fa00f9
:101d3800000006000800fa00200798003107980004
:101d48003e029000040f7800200037001e02780041
:101d5800e402900015079800160037001e02900054
:101d6800940278002e029000848f52000e003a00f0
:101d78001e02900014029000e00f52000a00320088
:101d88001e029000140390001e029000b4029000fe
:101d98001e0278001402780005017800ae00900059
:101da80004007800060001001e029000c4029000a2
:101db800150798001e029000e00f5200e7ff3a0056
:101dc8001e027800940a9000050f78001e02780021
:101dd800e00f5200ddff3a000080fa000000060024
:101de8000400fa00a4598000040f78000002eb00f8
:101df800a459880013003700655980001e02780036
:101e0800140278008500780004007800c9ff0700f4
:101e1800855980001e027800140278008500780039
:101e280004007800c3ff07009e0278001507980099
:101e38001e02780094029000050f78001e009000a2
:101e48009f1b07001e027800e00f5200eaff3a00cd
:101e58000080fa00000006000000fa00e0ff07001a
:101e6800061b07000080fa00000006000400fa00c4
:101e78001007980064598000040f780009003700a3
:101e88009e0278006c82420004017800e1ff2f0076
:101e98001e0090001b0007001e027800940a9000a4
:101ea800050f78001e027800e00f5200f4ff3a0098
:101eb8000080fa00000006000800fa0010079800e9
:101ec80021079800320798001e00900003fe0700c3
:101ed80000027800040f78001e027800e00f52001c
:101ee800060032009e0278006c82420004017800ed
:101ef800be0090002e009000020007000080fa004b
:101f0800000006000e00fa004007980051079800ec
:101f1800620798006e029000e00f52000400320041
:101f28006e02900014027800e00f520002003a009e
:101f38000002eb00480037006e029000940278001f
:101f4800250798002e029000940278004e02900017
:101f5800848f520017003a005e029000e20f4200a0
:101f6800050032002e029000940290005e0290005c
:101f7800848f52000f003a002e029000c402900095
:101f8800350798002e029000c40290006e0290005f
:101f9800050a78002e0290006602420004007800cc
:101fa800300007002e009000451b07003e029000fd
:101fb800290037002e029000040f78002e029000ae
:101fc800c4029000150798001e0290009402780041
:101fd8004e029000848f520016003a005e02900074
:101fe800e20f4200050032002e0290009402900099
:101ff8005e029000848f52000e003a001e0290008c
:10200800c40290001e027800450298001e0290004b
:102018006602420004007800120007001e009000cb
:10202800271b07001e027800c402900015079800bd
:10203800050037001e029000040f78001e02900071
:10204800c4029000150798001e029000e00f52008d
:10205800ddff32002e029000040078000080fa00b4
:10206800000006000600fa00200798002e029000e3
:10207800140f78002e0290008002eb00050a780009
:102088000b0037001e027800140798001e0290000b
:102098001402780004007800091b07001e00900055
:1020a800071b07001e027800a4029000050f7800a5
:1020b8001e027800e00f5200f2ff3a000080fa009a
:1020c800000006000600fa00200798002e02900083
:1020d800e4029000050f78002e02900014027800a8
:1020e800040078007b0c07000b0037001e02780004
:1020f800140798001e027800c4029000050f7800ab
:102108001e0290006602420004007800d5ff070016
:102118001e009000ea1a07001e027800e00f520025
:10212800f2ff3a002e0290008002eb006502980050
:102138000080fa00000006000a00fa003007980044
:102148004107980074598000140278004e019000ed
:10215800be009000040078008efd070074598000ce
:10216800e4029000050f78001e027800140798001a
:10217800250037001e027800940278003e02900085
:10218800848f52001b003a001e027800a4029000bf
:102198004e029000848f520016003a001e0278000a
:1021a800b4029000250798001e0290009e0f52006e
:1021b80005003a00745980009e027800c50290001c
:1021c80065029800040037001e027800c4029000df
:1021d8001e029000450298001e0278008002eb0063
:1021e800450298001e007800b51a07002e029000dc
:1021f800090037001e027800140798001e027800b4
:10220800c4029000050f78001e027800e00f52000b
:10221800d8ff3a000002eb00040078000080fa00c2
:10222800000006000200fa00000f78008000eb00b2
:102238001e007800c0ff0700000278000400780044
:102248000080fa00000006000200fa008519070065
:102258000002eb00040f78000d0037009e02e80032
:10226800e4a22000048242001442780084427800ec
:10227800e4a220001e0242001442780005417800c2
:1022880084407800c0cdb300ae1907001e8fe80067
:102298009e027800740d2000848f5200efff3600f4
:1022a800741907000080fa00000006000200fa0016
:1022b800881f78006b1907000002eb00040f7800f4
:1022c8000d0037001e04e800e4a220001e024200b0
:1022d8001442780084407800c0cdb3006919070023
:1022e8000042780084427800e4a2200004024400fe
:1022f800054a78001e8fe8009e027800740d2000c1
:10230800848f5200efff36005a1907004f047800f7
:102318000080fa00000006000200fa00000f7800b2
:102328001e027800e10f520009003200e20f52004d
:102338000c003200e00f52000f003a00c4c0b30096
:102348000443780015a72000864a78000c0037005f
:1023580084c0b3000443780015a72000864a78009b
:102368000700370024c0b3000443780015a72000f5
:10237800864a7800020037000082eb00010037002f
:102388000002eb00040078000080fa00000006005c
:102398000200fa00000f7800440420009e02780032
:1023a800848f5200070032001e027800f10f52009d
:1023b80004003200340320009e027800848f52000b
:1023c80007003a001e0278000442780004437800af
:1023d80015a62000864a78000002eb0001003700ad
:1023e8000082eb00040078000080fa00000006007c
:1023f8000200fa00000f78001e027800e00f520079
:102408001b003200040220009e027800848f5200d4
:1024180017003200040320009e027800848f5200c7
:1024280013003200040420009e027800848f5200ba
:102438000f003200040520009e027800848f5200ad
:102448000b003200040620009e027800848f5200a0
:1024580007003200040620009e027800848f520094
:10246800030032001e027800f00f520007003a0005
:102478001e0278000442780004437800b5a52000c5
:10248800864a78000002eb00010037000082eb006a
:10249800040078000080fa00000006000800fa0036
:1024a8002007980031079800ae0290003e02900085
:1024b800848f5200020039000082eb0020003700b0
:1024c800be02900034382000848f5200020036008b
:1024d8000082eb001a0037002e0290000402e90087
:1024e800240798002e029000044f78002e029000d6
:1024f8004822de00144798003e02900024479800c6
:102508003e0290004822de00344798009e42900028
:1025180074a32000054a78009e42780094a3200006
:10252800054a7800be429000f4a32000054a7800ce
:10253800ae42900014a42000054a78000002eb0087
:10254800040078000080fa00000006000800fa0085
:102558002007980031079800ae0290003e029000d4
:10256800848f5200020039000082eb001d00370002
:10257800be029000341f2000848f520002003600f3
:102588000082eb00170037002e029000044f7800fd
:102598002e0290004822de00144798003e02900068
:1025a800244798003e0290004822de0034479800f5
:1025b8009e429000b4a32000054a78009e4278000d
:1025c800d4a32000054a7800be42900034a420001d
:1025d800054a7800ae42900054a42000054a7800cd
:1025e8000002eb00040078000080fa0000000600fa
:1025f8000c00fa003007980041079800520798002d
:10260800be0290004e029000848f520002003900f2
:102618000082eb002e003700ce029000341f20000d
:10262800848f5200020036000082eb002800370039
:10263800de02900034382000848f520002003600f9
:102648000082eb00220037003e029000044f780021
:102658003e0290004822de00144798004e02900087
:10266800244798004e0290004822de003447980024
:102678005e029000444798005e0290004822de0007
:10268800544798009e429000f4ab2000054a780019
:102698009e42780014ac2000054a7800be429000a3
:1026a80034ac2000054a7800ae42900054ac2000bb
:1026b800054a7800de42900074ac2000054a780094
:1026c800ce42900094ac2000054a78000002eb004e
:1026d800040078000080fa00000006000600fa00f6
:1026e80010079800210798001e029000e00f520082
:1026f800060032002e029000e00f52000300320064
:10270800a4ccb300044f78000e0037001e029000de
:10271800e00f520003003200a4c4b300044f780055
:10272800080037002e029000e00f5200030032002c
:10273800a4c8b300044f780002003700a4c0b30057
:10274800044f78001e42780004437800d5a5200085
:10275800864a78000080fa00000006000400fa00ab
:1027680020479800314798000002eb00040f7800da
:102778000e003700e4a220001e02420094427800b6
:102788002e42900084cf520007003a009e02e800d3
:10279800e4a2200004824200be429000054a78006c
:1027a8000002eb00060037001e8fe8009e0278004a
:1027b800740d2000848f5200eeff36000082eb007b
:1027c800040078000080fa00000006000600fa0005
:1027d80020479800210798000002eb00040f7800ba
:1027e8000f003700e4a220001e0242009442780045
:1027f8002e42900084cf520008003a009e02e80062
:10280800e4a2200004824200944278002e02900044
:10281800054a78000002eb00060037001e8fe8002a
:102828009e027800740d2000848f5200edff360060
:102838000082eb00040078000080fa000000060027
:102848000200fa00004f7800114798009e4290005d
:1028580074a42000054a78009e42780094a42000c1
:10286800054a78000080fa00000006000600fa0019
:10287800004f780011479800224798003347980086
:1028880044479800f4c4b3009e42780084cf5200b5
:10289800020036000082eb00100037009e427800ec
:1028a800b4a42000054a78009e429000d4a42000d9
:1028b800054a7800ae429000f4a42000054a78004a
:1028c800ce42900014a52000054a7800be42900030
:1028d80034a52000054a78000002eb0004007800c7
:1028e8000080fa00000006000400fa00008fbe0015
:1028f8001e02be004a2bdd004622de0004027300e1
:10290800c62ade00044278000443780075a520003a
:10291800864a78001e02be00422bdd004e22de00f1
:1029280004027300ce2ade000442780004437800d3
:1029380055a52000864a78000042eb000443780041
:1029480095a52000864a78000080fa00000006005d
:102958000200fa00004f78009e42780034a620005a
:10296800054a78000080fa00000006000200fa001c
:10297800000f78001e027800e00f520008003200b5
:1029880035a720009542780004c8b30004c272003d
:102998000443780035a72000864a780006003700ef
:1029a80034a72000144278000474a100044378007e
:1029b80035a72000864a78000080fa00000006004b
:1029c8000400fa00004f7800114798002247980049
:1029d8009e42780074a72000054a78009e42900025
:1029e80094a72000054a7800ae429000b4a72000c2
:1029f800054a78000080fa00000006000200fa008c
:102a0800004f7800114798009e4278007fc262000c
:102a18000445b00084427800d6a72000054b780012
:102a28001e429000f6a72000044b78000080fa00b0
:102a3800000006000600fa001007980041479800b9
:102a48004e429000e342620054002000842add00d8
:102a580004c8b30004c242000443780055b0200003
:102a6800864a78000002eb00040f78000c0037005b
:102a78001e027800040242003605200004034300c9
:102a88001e0278009e029000048242009442780060
:102a9800e4a2200004024300054a78001e0fe80063
:102aa8001e027800e10f5200f1ff36000080fa00a4
:102ab800000006000000fa006a17070054b0200062
:102ac800144278008442780044b020001442780010
:102ad8000541780084407800c0cdb30099170700fd
:102ae8006417070065a920009542780004a8200013
:102af80014427800854078000440780002000700fe
:102b08000080fa00000006000600fa00404798001e
:102b1800514798000002eb0014079800511707006e
:102b28000002eb00040f78001c003700e4a220002c
:102b38001e024200944278004e42900084cf520018
:102b480015003900e4a220001e02420094427800d9
:102b58005e42900084cf52000f003e009e02e800c3
:102b6800e4a22000048242001442780084427800e3
:102b7800e4a220001e0242001442780005417800b9
:102b880084407800c0cdb3006e1707001e02900085
:102b98000402e800140798001e8fe8009e027800df
:102ba800740d2000848f5200e0ff360031170700b3
:102bb8001e029000040078000080fa000000060061
:102bc8000400fa00100798000002eb00040f7800d8
:102bd8000c0037001e02780004024200b6062000ee
:102be800040343001e0278009e0290000482420003
:102bf80094427800e4a2200004024300054a7800c9
:102c08001e0fe8001e027800e10f5200f1ff3600a7
:102c18000080fa00000006000200fa00004f780069
:102c2800114798009e427800b4aa2000054a78000f
:102c38009e429000d4aa2000054a78000080fa003d
:102c4800000006000200fa00004f780011479800c3
:102c58009e427800f4aa2000054a78009e4290001f
:102c680014ab2000054a78000080fa000000060036
:102c78000200fa00004f7800114798009e42780041
:102c880034ab2000054a78009e42900054ab2000e7
:102c9800054a78000080fa00000006000200fa00e9
:102ca800004f78009e42780044002000042add008e
:102cb8006f42420004437800b5ac2000864a780091
:102cc8000080fa00000006000200fa00004f7800b9
:102cd800114798009e42780044002000842add00b5
:102ce8001e4290006f42620004c242000443780012
:102cf800d5ac2000864a78000080fa000000060063
:102d08000200fa00004f7800114798009e42900098
:102d180044002000842add001e4378006f426300cf
:102d280004c2420004437800f5ac2000864a7800cb
:102d38000080fa00000006000400fa00008fbe00c0
:102d48001e02be0040aade00cfa2de0004427800c8
:102d58000443780015ad2000864a78001e02be00a4
:102d6800482bdd004822de0004027300c8aade00fa
:102d7800044278000443780035ad2000864a780084
:102d88001e027800044278000443780055ad200004
:102d9800864a78000080fa00000006000200fa0067
:102da800004f78009e42780074ad2000054a7800f4
:102db8000080fa00000006000400fa00000f780006
:102dc800110798001e0278004822de0004427800ad
:102dd80004437800d5ad2000864a78001e027800aa
:102de8000442780004437800f5ad2000864a780054
:102df8001e0290004822de00044278000443780056
:102e080015ae2000864a78001e0290000442780021
:102e18000443780035ae2000864a78000080fa0026
:102e2800000006000600fa00004f780011479800dd
:102e38002247980033479800444798005547980020
:102e4800ae42900054ae2000054a7800be42900081
:102e580074ae2000054a78009e42780094ae2000a7
:102e6800054a78009e429000b4ae2000054a7800da
:102e7800ce429000d4ae2000054a7800de42900091
:102e8800f4ae2000054a78000080fa000000060031
:102e98000800fa00000f7800110798002207980030
:102ea80033079800240d20001e0f42001e029000d8
:102eb800240db000140798002e029000670242000b
:102ec800240798003e0290006702420034079800e9
:102ed8009e02900024352000848f520002003600a4
:102ee8000082eb004f003700be029000741e2000e5
:102ef800848f5200020036000082eb004900370040
:102f08001e0290009e027800848f52000400310057
:102f1800ae0290003e029000848f520002003900f9
:102f28000082eb003f003700541a20009e02780010
:102f3800848f52000c0036009e02900094272000d7
:102f4800848f520008003e00ae029000740a2000f0
:102f5800848f520004003600be02900064142000e2
:102f6800848f5200020036000082eb002d003700eb
:102f78001e0278004822de000442780004437800ec
:102f880015af2000864a78001e02780004427800b7
:102f98000443780035af2000864a78001e0290006e
:102fa8004822de00044278000443780055af200030
:102fb800864a78001e029000044278000443780094
:102fc80075af2000864a78002e0290004822de0065
:102fd800044278000443780095af2000864a7800c0
:102fe8002e0290000442780004437800b5af200018
:102ff800864a78003e0290004822de0004427800ab
:1030080004437800d5af2000864a78003e0290003d
:103018000442780004437800f5af2000864a78001f
:103028000002eb00040078000080fa0000000600af
:103038000600fa0010079800210798001e02900069
:10304800e00f5200060032002e029000e00f5200fe
:1030580003003200c4c3b300044f78000e003700e9
:103068001e029000e00f520003003200c4c2b300f9
:10307800044f7800080037002e029000e00f52003d
:1030880003003200c4c1b300044f780002003700c7
:10309800c4c0b300044f78001e427800044378008f
:1030a80015b02000864a78000080fa00000006006b
:1030b8000200fa00000f78001e027800e00f5200ac
:1030c8000700320054a62000144278000474a100be
:1030d8000443780055a62000864a78000700370088
:1030e80055a620009542780004c8b30004c27200b7
:1030f8000443780055a62000864a78000080fa002c
:10310800000006000400fa00000f7800110798007c
:103118001e027800e00f52000800320055a6200079
:1031280095427800f4cbb30004c2620004437800ef
:1031380055a62000864a78000700370055a62000cb
:103148009542780004c4b30004c2720004437800b6
:1031580055a62000864a78001e029000e00f520013
:103168000800320055a6200095427800f4cdb3003f
:1031780004c262000443780055a62000864a7800fd
:103188000700370055a620009542780004c2b30016
:1031980004c272000443780055a62000864a7800cd
:1031a8000080fa00000006000400fa00b4a5200020
:1031b800144278000482fb0005032000850f5200aa
:1031c8002800320005032000850f520008003c004b
:1031d800f00f52001b00320005022000850f52003c
:1031e8001c003200e00f520012003200310037009c
:1031f80005052000850f5200220032000505200039
:10320800850f520004003c0005042000850f520081
:10321800180032002700370005062000850f5200ed
:103228001c00320005072000850f52001d003200e7
:10323800200037000400280005072000048fbe0086
:103248001e0037000400200065092000048fbe001e
:103258001a0037000400240085032000048fbe00f4
:103268001600370004002200c5012000048fbe00ac
:103278001200370004002100e5002000048fbe0082
:103288000e0037000480200075002000048fbe0067
:103298000a0037000440280035002000048fbe00d3
:1032a8000600370004202c0015002000048fbe0003
:1032b800020037006022b8000900370014a7200078
:1032c80014427800ec4f520004003a001e02be007f
:1032d8000402420085824a00048fbe001e02be001e
:1032e8000400be000080fa00000006000e00fa008c
:1032f8002007980031079800420798005307980064
:10330800640798005e029000e00f52000300350049
:103318005e029000e30f5200020034000082eb00ce
:10332800690037006e029000e00f5200030035007c
:103338006e029000e30f5200020034000082eb009e
:103348006100370098ff07000002be00666a20008f
:1033580006abb900060378006020b9008003780046
:103368000703430084027800646a2000042ab80036
:1033780005034300860278002e039000cfb3de00d9
:103388000601be000400be0017f507000002be00db
:10339800040f780084ff07000002be00666a200060
:1033a80006abb900060378006020b90080037800f6
:1033b8000703430084027800646a2000042ab800e6
:1033c80005034300860278003e039000cfb3de0079
:1033d8000601be000400be0003f507000002be009f
:1033e800140798001e0278004822de000442780084
:1033f8000443780095a62000864a78001e027800cb
:103408000442780004437800b5a62000864a780074
:103418001e0290004822de0004427800044378002f
:10342800d5a62000864a78001e0290000442780043
:1034380004437800f5a62000864a78004e029000e2
:10344800e00f52000700320054a620001442780012
:103458000444a0000443780055a62000864a78005a
:103468000700370055a6200095427800f4ceb30037
:1034780004c262000443780055a62000864a7800fa
:103488006e02900004427800e34262005e029000ff
:103498000442780063436200240020000432dd0007
:1034a80084c2420056a620001643780004cfb30019
:1034b8000442630004c242000443780055a6200079
:1034c800864a78000002eb00040078000080fa00c9
:1034d800000006000000fa00de42a800de62a90033
:1034e800c40480000440a1000450a1000460a000ae
:1034f800c4048800c40480000480a1000490a100d2
:1035080004a0a000c40488008520a9008d20a8007c
:103518008540a9008d40a8000002eb0064108800d7
:103528000002eb007410880074002000a4108800ca
:103538000de2a8000f42a8000080fa000000060073
:103548000000fa00de82a800dea2a90074002000b4
:10355800f4108800b41080000410a1000420a10019
:10356800b41088001602a90018a2a900040580005a
:103578000400a1000410a1000420a0000405880094
:10358800040580000440a1000450a1000460a000cc
:103598000405880019e2a8001942a800c410800098
:1035a8000460a1000470a100c41088000080fa0023
:1035b800000006000000fa000fe2a9000f42a80070
:1035c800741080000460a1000470a10074108800c9
:1035d8000de2a8000080fa00000006000000fa00d2
:1035e80019e2a9001942a800c41080000460a100d3
:1035f8000470a100c410880017e2a8000080fa0037
:10360800000006000200fa00000f78001e02780091
:10361800045988000080fa00000006000200fa0041
:10362800000f78001e027800145988000080fa0004
:10363800000006000800fa002007980031079800eb
:103648006000200090150700000278001407980019
:103658001e029000e00f52002e0032003e00900043
:103668008915070000027800840278001e02900085
:10367800050a78001e02900014027800e00f52003c
:1036880003003a001e0090008d1507002200370045
:103698001e029000140278003e0190008400780019
:1036a8002e0090008e1507001e029000be029000aa
:1036b800150298001e0290008002eb002502980077
:1036c80024598000e00f520004003a001e029000c6
:1036d80024598800fc0007000f0037002559800096
:1036e800050f7800030037001e027800a40290003e
:1036f800050f78001e02780024029000e00f5200a7
:10370800f9ff3a001e0278009e02900025029800f8
:1037180001003700000000000080fa0000000600e9
:103728000800fa0020079800310798006000200080
:103738005515070000027800140798001e02900033
:10374800e00f52002e0032003e0090004e15070098
:1037580000027800840278001e029000050a7800b2
:103768001e02900014027800e00f520003003a0095
:103778001e00900052150700220037001e0290001c
:10378800140278003e019000840078002e0090001a
:10379800531507001e029000be0290001502980003
:1037a8001e0290008002eb00250298003459800028
:1037b800e00f520004003a001e02900034598800bd
:1037c8001b0107000f00370035598000050f7800ee
:1037d800030037001e027800a4029000050f78004d
:1037e8001e02780024029000e00f5200f9ff3a0010
:1037f8001e0278009e029000250298000100370002
:10380800000000000080fa00000006003600f80002
:10381800809fbe00829fbe00849fbe00869fbe0020
:103828003400f80000002000a00188000000fa0021
:103838008e0007008520a9000080fa003400f900f6
:103848004f03be004f02be004f01be004f00be0036
:103858003600f900004006003600f800809fbe00e0
:10386800829fbe00849fbe00869fbe003400f80081
:1038780000002000a00188000000fa007b0007007b
:103888008520a9000080fa003400f9004f03be002b
:103898004f02be004f01be004f00be003600f900c7
:1038a800004006003600f800809fbe00829fbe00e0
:1038b800849fbe00869fbe003400f80000002000f0
:1038c800a00188000000fa007f0007008540a900d9
:1038d8000080fa003400f9004f03be004f02be001a
:1038e8004f01be004f00be003600f9000040060040
:1038f8003600f800809fbe00829fbe00849fbe00f5
:10390800869fbe003400f80000002000a001880057
:103918000000fa006c0007008540a9000080fa004a
:103928003400f9004f03be004f02be004f01be0035
:103938004f00be003600f900004006003600f800cf
:10394800809fbe00829fbe00849fbe00869fbe00ef
:103958003400f80000002000a00188000000fa00f0
:10396800900007008700a9000080fa003400f900e1
:103978004f03be004f02be004f01be004f00be0005
:103988003600f900004006003600f800809fbe00af
:10399800829fbe00849fbe00869fbe003400f80050
:1039a80000002000a00188000000fa007d00070048
:1039b8008700a9000080fa003400f9004f03be0018
:1039c8004f02be004f01be004f00be003600f90096
:1039d800004006003600f800809fbe00829fbe00af
:1039e800849fbe00869fbe003400f80000002000bf
:1039f800a00188000000fa008d0007008720a900b8
:103a08000080fa003400f9004f03be004f02be00e8
:103a18004f01be004f00be003600f900004006000e
:103a28003600f800809fbe00829fbe00849fbe00c3
:103a3800869fbe003400f80000002000a001880026
:103a48000000fa007a0007008720a9000080fa0029
:103a58003400f9004f03be004f02be004f01be0004
:103a68004f00be003600f900004006000200fa00d0
:103a78007410800062026200e00f52000b003200f6
:103a88000e22a9000a00370094108000044f780025
:103a980004598000e00f52000500320004598000ec
:103aa8001e407800040001000100370000000000fb
:103ab8007410800061026200e00f5200f2ff3a00c9
:103ac8000080fa00000006000200fa002459800075
:103ad800e00f520029003a000002eb004459880028
:103ae8002e00370024598000940290004459800029
:103af800848f52000b00360024598000940278000d
:103b08004459800004824200144278000482fb0079
:103b180084108800445980000402e8004459880051
:103b280017003700861407000002eb00445988008c
:103b380024598000040f7800245980002402900042
:103b4800245988001e0278008002eb0025029800a4
:103b58001e02780014027800040078005814070048
:103b68001e007800561407008314070024598000ab
:103b7800e00f52000800320001003700000000008a
:103b8800751080000420200004826200e00f5200bb
:103b9800d4ff320001003700000000000080fa0066
:103ba800000006000200fa00241680004f22de0002
:103bb8000442780004c2ea00614262000482fb0009
:103bc8004f22dd0026168000f5ff270085026300de
:103bd8000502720024168800c41080006202620088
:103be800e00f52000b0032001822a9000a0037002b
:103bf800e4108000044f780014598000e00f520050
:103c080005003200145980001e40780004000100ad
:103c18000100370000000000c4108000610262004b
:103c2800e00f5200f2ff3a000080fa0000000600a0
:103c38000200fa002800370034598000e00f5200d3
:103c480003003a000002eb005459880027003700af
:103c5800345980009402900054598000848f520097
:103c68000b003600345980009402780054598000c3
:103c780004824200144278000482fb008410880009
:103c8800545980000402e800545988001200370093
:103c98002b1407000002eb005459880034598000a7
:103ca800040f7800345980002402900034598800a9
:103cb8001e0278008002eb00250298001e027800a0
:103cc8001402780004007800fd1307001e00780035
:103cd800fb13070028140700c510800004202000eb
:103ce80004826200e00f5200d3ff32000080fa0025
:103cf800000006000200fa00004f7800d912070001
:103d08001e4278000441780031c0b300c0cdb30032
:103d18000c130700d71207000080fa000000060005
:103d28000400fa00004f78001147980022479800d5
:103d38001e407800efff0700ca120700ae4290004d
:103d48001e4290000541780084407800c0cdb30041
:103d5800fc120700c71207000080fa0000000600e6
:103d68000400fa0020479800314798002e40900040
:103d7800e0ff0700bb1207003e4290008440780035
:103d8800c0cdb300bf12070000427800044f78008e
:103d9800b81207001e427800044078000080fa003c
:103da800000006000400fa00204798002e4090000a
:103db800d0ff0700ab12070031c0b300c0cdb3007d
:103dc800b012070000427800044f7800a9120700db
:103dd8009e4278000582fb00040078000080fa000b
:103de800000006000200fa000040eb00c1ff0700d7
:103df8009c120700b1c5b300c0cdb300a1120700e3
:103e080000427800044f78001e427800144798005a
:103e1800981207001e4290000474a10014479800ed
:103e28009e429000f4cbb30004c26200144798008d
:103e38009e42900074cfb30004c2620014479800f9
:103e4800881207001e42900004417800b1c5b300f3
:103e5800c0cdb300bb120700861207009e4278004f
:103e68000582fb00040078000080fa0000000600cc
:103e78000200fa000042eb00044f7800d9ff070067
:103e880000027800044f780080c2b3008801070060
:103e98009e4278000582fb00040078000080fa004a
:103ea800000006000200fa00004f78001e4178006a
:103eb800a1c6b3000040eb0099ff07000080fa009c
:103ec800000006000200fa00004f78001e4178004a
:103ed80071cbb30010c0b30091ff07000080fa0057
:103ee800000006000200fa00004f78009e427800a9
:103ef8000582fb0005042000850f520012003200e5
:103f080005082000850f52001b0032000502200022
:103f1800850f520024003a0010c0b300e9ff0700e3
:103f28001e41780031c9b30010c0b3007cff070000
:103f38001e41780041c9b30010c0b30078ff0700e4
:103f48000002eb001900370030c0b300ddff0700a6
:103f58001e41780031c9b30010c0b30070ff0700dc
:103f68001e41780041c9b30010c0b3006cff0700c0
:103f78000002eb000d00370070c0b300d1ff07004e
:103f88001e41780031c9b30010c0b30064ff0700b8
:103f98001e41780041c9b30010c0b30060ff07009c
:103fa8000002eb00010037000082eb0004007800fb
:103fb8000080fa00000006000200fa00004f7800b6
:103fc8009e4278000582fb0005042000850f520000
:103fd8001200320005082000850f52001b00320035
:103fe80005022000850f520024003a000040eb0033
:103ff800b4ff07001e41780031c9b30010c0b300f8
:1040080047ff07001e41780041c9b30010c0b30044
:1040180043ff07000002eb001900370010c0b3008f
:10402800a8ff07001e41780031c9b30010c0b300d3
:104038003bff07001e41780041c9b30010c0b30020
:1040480037ff07000002eb000d00370030c0b30057
:104058009cff07001e41780031c9b30010c0b300af
:104068002fff07001e41780041c9b30010c0b300fc
:104078002bff07000002eb00010037000082eb0075
:10408800040078000080fa00000006000200fa0030
:10409800004f7800114798009e4278000582fb0087
:1040a800e10f52000c003200e20f52001200320001
:1040b800e00f520018003a0032c4b300e1c4b30064
:1040c80010c0b30016ff07001e40900085ff0700d0
:1040d800000278001100370002c3b300e1c4b30046
:1040e80010c0b3000eff07001e409000b2ff07008b
:1040f800000278000900370022c0b300e1c4b30011
:1041080010c0b30006ff07001e409000aaff07007a
:1041180000027800010037000082eb0004007800fc
:104128000080fa00000006000800fa002007980046
:1041380031079800ae0290003e029000848f520032
:10414800020039000082eb001c003700be0290001c
:1041580074302000848f5200020036000082eb0089
:10416800160037002e0290000402e9002407980088
:104178002e029000044f78002e0290004822de00a4
:10418800144798003e029000244798003e02900091
:104198004822de00344798001e41780091c0b300e1
:1041a8000040eb00defe07001e41900081c0b30016
:1041b8000040eb00dafe07000002eb000400780084
:1041c8000080fa00000006000400fa00000f7800e2
:1041d800110798000002eb00040078000080fa0044
:1041e800000006000800fa00200798003107980030
:1041f800ae0290003e029000848f52000200390007
:104208000082eb0021003700be029000342020001d
:10421800848f5200020036000082eb001b0037003a
:104228002e029000044f78002e0290004822de00f3
:10423800144798003e029000244798003e029000e0
:104248004822de00344798001e41900001c1b300a7
:104258000040eb00b2fe07001e41780011c1b30018
:104268000040eb00aefe07003e41900021c1b300c4
:104278000040eb00aafe07002e41900031c1b300b8
:104288000040eb00a6fe07000002eb0004007800e7
:104298000080fa00000006000200fa00000f780013
:1042a8001e027800e00f520009003a0002c8b3006d
:1042b80041c0b30010c0b30099fe070022c0b3008c
:1042c80061c0b30010c0b30095fe070001003700bd
:1042d800000000000080fa00000006000600fa0056
:1042e8001007980021079800c1c6b3000040eb00f2
:1042f8009bfe070000427800044f78001e029000e1
:10430800e00f52000300320004c8b3001e4f7200d1
:10431800010037001e74a1002e029000e00f520029
:104328000300320004c4b3001e4f720002003700bd
:10433800f4cbb3001e4f62001e417800c1c6b30023
:104348000040eb0076fe07000080fa00000006003f
:104358000600fa00100798002107980084c9b300e6
:10436800044f78001e029000e00f520001003a004e
:104378001e24a0002e029000e00f52000a003a000e
:104388001e04a0000041eb0081c4b30020c0b300ac
:1043980063fe07000041eb0091c4b30020c0b300e6
:1043a8005ffe07000800370082c0b30081c4b30075
:1043b80020c0b3005afe0700c2c0b30091c4b300c6
:1043c80020c0b30056fe07001e41780041c0b3006c
:1043d80020c0b30052fe07000080fa00000006006b
:1043e8000400fa00004f780011479800224798000f
:1043f8001e41780031c2b3000040eb0048fe0700c0
:104408001e41900041c2b3000040eb0044fe07008b
:104418002e41900051c2b3000040eb0040fe07005f
:104428000080fa00000006000400fa00008fbe00b9
:104438001e02be00482ade000442780004417800cb
:1044480021c1b30020c0b30035fe07001e02be0024
:10445800402ade00044278000441780031c1b300ec
:1044680020c0b3002efe07001e02be00482bdd0050
:104478004822de0004027300c82ade0004427800e5
:104488000441780041c1b30020c0b30024fe0700f6
:104498001e027800044278000441780051c1b3003c
:1044a80020c0b3001efe07000080fa0000000600ce
:1044b8000200fa00004f78001e427800044178009c
:1044c800e1c9b30010c0b30015fe07000080fa0070
:1044d800000006000200fa00004f7800e110070013
:1044e8001e4278000441780031c0b300c0cdb3004b
:1044f80014110700df1007000080fa000000060012
:104508000400fa00004f78001147980022479800ed
:104518001e407800efff0700d2100700ae4290005f
:104528001e4290000541780084407800c0cdb30059
:1045380004110700cf1007000080fa0000000600f1
:104548000400fa0020479800314798002e40900058
:10455800e0ff0700c31007003e4290008440780047
:10456800c0cdb300c710070000427800044f7800a0
:10457800c01007001e427800044078000080fa004e
:10458800000006000200fa00004f78001e41780083
:1045980011c9b3000040eb00d9ff07000080fa0002
:1045a800000006000200fa00004f78001e41780063
:1045b80081c6b30010c0b300d1ff07000080fa0025
:1045c800000006000200fa00004f78009e427800c2
:1045d8000582fb0005042000850f520016003200fa
:1045e80005082000850f5200230032000502200034
:1045f800850f520030003a0010c0b300e9ff0700f1
:104608001e41780001c8b30010c0b300bcff07000a
:104618001e41780011c8b30010c0b300b8ff0700ee
:1046280012c0b30021c8b30010c0b300b4ff070024
:104638000002eb002100370030c0b300d9ff0700ab
:104648001e41780001c8b30010c0b300acff0700da
:104658001e41780011c8b30010c0b300a8ff0700be
:1046680012c0b30021c8b30010c0b300a4ff0700f4
:104678000002eb001100370070c0b300c9ff07004b
:104688001e41780001c8b30010c0b3009cff0700aa
:104698001e41780011c8b30010c0b30098ff07008e
:1046a80012c0b30021c8b30010c0b30094ff0700c4
:1046b8000002eb00010037000082eb0004007800e4
:1046c8000080fa00000006000200fa00004f78009f
:1046d8009e4278000582fb0005042000850f5200e9
:1046e8001600320005082000850f52002300320012
:1046f80005022000850f520030003a000040eb0010
:10470800a8ff07001e41780001c8b30010c0b3001d
:104718007bff07001e41780011c8b30010c0b3002a
:1047280077ff070012c0b30021c8b30010c0b30060
:1047380073ff07000002eb002100370010c0b30030
:1047480098ff07001e41780001c8b30010c0b300ed
:104758006bff07001e41780011c8b30010c0b300fa
:1047680067ff070012c0b30021c8b30010c0b30030
:1047780063ff07000002eb001100370030c0b300f0
:1047880088ff07001e41780001c8b30010c0b300bd
:104798005bff07001e41780011c8b30010c0b300ca
:1047a80057ff070012c0b30021c8b30010c0b30000
:1047b80053ff07000002eb00010037000082eb0006
:1047c800040078000080fa00000006000200fa00e9
:1047d800004f7800114798009e4278000582fb0040
:1047e800e10f52000c003200e20f520012003200ba
:1047f800e00f520018003a00d2c0b30081c3b300e2
:1048080010c0b3003eff07001e4090006dff070078
:10481800000278001100370082c0b30081c3b300e2
:1048280010c0b30036ff07001e409000a6ff070027
:10483800000278000900370022c0b30081c3b3002a
:1048480010c0b3002eff07001e4090009eff070017
:1048580000027800010037000082eb0004007800b5
:104868000080fa00000006000800fa0020079800ff
:1048780031079800ae0290003e029000848f5200eb
:10488800020039000082eb001c003700be029000d5
:10489800f4312000848f5200020036000082eb00c1
:1048a800160037002e0290000402e9002407980041
:1048b8002e029000044f78002e0290004822de005d
:1048c800144798003e029000244798003e0290004a
:1048d8004822de00344798001e41780011c5b30015
:1048e80010c0b30006ff07001e41900001c5b300c9
:1048f80010c0b30002ff07000002eb0004007800bc
:104908000080fa00000006000400fa00000f78009a
:10491800110798000002eb00040078000080fa00fc
:10492800000006000800fa002007980031079800e8
:10493800ae0290003e029000848f520002003900bf
:104948000082eb0021003700be029000341f2000d7
:10495800848f5200020036000082eb001b003700f3
:104968002e029000044f78002e0290004822de00ac
:10497800144798003e029000244798003e02900099
:104988004822de00344798001e41900001c6b3005b
:1049980010c0b300dafe07001e41780011c6b3004c
:1049a80010c0b300d6fe07003e41900021c6b300f8
:1049b80010c0b300d2fe07002e41900031c6b300ec
:1049c80010c0b300cefe07000002eb000400780020
:1049d8000080fa00000006000200fa00000f7800cc
:1049e80012c0b300a1c5b30020c0b300c4fe0700c5
:1049f80012c4b30021c3b30010c0b300c0fe070047
:104a08001e027800e00f520011003a0000c1eb00ce
:104a180081c8b30010c0b300b9fe070000c1eb00a5
:104a280091c8b30010c0b300b5fe070082c0b30040
:104a3800a1c8b30010c0b300b1fe070000c1eb006d
:104a4800b1c8b30010c0b300adfe070010003700b6
:104a580002c2b30081c8b30010c0b300a8fe0700ab
:104a680002c8b30091c8b30010c0b300a4fe070089
:104a780082c0b300a1c8b30010c0b300a0fe0700f5
:104a880000c1eb00b1c8b30010c0b3009cfe070022
:104a98000080fa00000006000600fa0010079800df
:104aa8002107980001c9b3000040eb00a4fe0700ed
:104ab80000427800044f78001e029000e00f520078
:104ac8000300320004c8b3001e4f72000100370013
:104ad8001e74a1002e029000e00f52000300320065
:104ae80004c4b3001e4f720002003700f4cbb300b9
:104af8001e4f62001e41780001c9b3000040eb0060
:104b08007ffe07000080fa00000006000600fa0099
:104b1800100798002107980084c9b300044f780053
:104b28001e029000e00f520001003a001e24a0006f
:104b38002e029000e00f52000a003a001e04a00066
:104b48000041eb0051c5b30020c0b3006cfe070064
:104b58000041eb0061c5b30020c0b30068fe070048
:104b68000800370082c0b30051c5b30020c0b300ad
:104b780063fe0700c2c0b30061c5b30020c0b30024
:104b88005ffe07001e41780041c0b30020c0b3009b
:104b98005bfe07000080fa00000006000400fa002f
:104ba800004f780011479800224798001e4178006e
:104bb80041cab30020c0b30051fe07001e41900057
:104bc80051cab30020c0b3004dfe07002e4190002b
:104bd80061cab30020c0b30049fe07000080fa0094
:104be800000006000400fa00008fbe001e02be008e
:104bf800482ade000442780004417800c1c2b300ac
:104c080020c0b3003efe07001e02be00402ade00a0
:104c18000442780004417800d1c2b30020c0b30038
:104c280037fe07001e02be00482bdd004822de00ca
:104c380004027300c82ade000442780004417800a8
:104c4800e1c2b30020c0b3002dfe07001e027800a9
:104c58000442780004417800f1c2b30020c0b300d8
:104c680027fe07000080fa00000006000a00fa008c
:104c7800200798003107980042079800730f070033
:104c88002e009000670107000002780014079800c2
:104c98001e029000e00f520002003a000042eb00b2
:104ca800130037001e02900094029000050f780050
:104cb8000a0037001e02780014027800ce01900026
:104cc8003e019000ae0090000400780071f30700e8
:104cd8001e02780094029000050f78001e027800ea
:104ce800e00f5200f3ff3a005e0f070014c0b30054
:104cf800044078000080fa00000006000800fa006e
:104d080030079800645a8000040f7800655a8000c4
:104d1800150798000002eb00240798000c003700e4
:104d28001e027800940278003e029000848f5200a0
:104d380002003a000042eb00250037001e029000f6
:104d4800040f78001e027800a4029000150798004e
:104d58001e029000e00f5200f1ff3a0060002000b0
:104d6800c90f070000027800240798002e0290005f
:104d7800e00f520002003a000042eb001400370036
:104d88002e029000be029000050a78002e029000c4
:104d98008002eb00150298002e0290008002eb00c2
:104da80025029800645a8000e00f520004003a007f
:104db8002e029000645a880014c0b3000400370023
:104dc8001e027800ae0290002502980014c0b300bd
:104dd800044078000080fa00000006000e00fa0087
:104de8003007980041079800520798006307980019
:104df800645a8000040f7800450037001e027800ce
:104e0800940278003e029000848f52003d003a00e0
:104e1800ee0190005e019000be0090004e009000f0
:104e2800bbf20700004278000404a200e04f5200e1
:104e3800020032000042eb00390037001e02780001
:104e480094029000150798000a0037001e0290008f
:104e5800940278004e029000848f520002003a00bb
:104e680014c0b3002e0037001e0290009402900078
:104e7800150798001e029000e00f5200040032004f
:104e88001e02900014029000e00f5200efff3a005b
:104e9800400020007c0f07000002780024079800db
:104ea8002e029000e00f520002003a000042eb0090
:104eb8001b0037002e029000ce029000050a7800f1
:104ec8002e0290008002eb00150298001e02780066
:104ed80014029000e00f520005003a001e0278000c
:104ee800ae0290001502980014c0b3000c00370001
:104ef8001e029000ae0290001502980014c0b30084
:104f0800070037001e027800a4029000050f780001
:104f18001e027800e00f5200b8ff3a000042eb0092
:104f2800044078000080fa00000006000e00fa0035
:104f380060079800645a8000040f7800655a800062
:104f480015079800645a8000e00f52003b003200b9
:104f58001e027800940278006e029000848f52003e
:104f680032003a001e02780024029000645a880039
:104f78001e02780094029000250798000700370069
:104f88002e029000440798002e0290009402900090
:104f9800250798004e009000490f07002e02900048
:104fa800e00f5200f6ff3a006e009000aff30700e2
:104fb800230037001e029000940278006e029000d1
:104fc800848f520014003a001e0278009402900068
:104fd80035079800070037003e02900054079800f4
:104fe8003e02900094029000350798005e00900001
:104ff800330f07003e029000e00f5200f6ff3a0020
:105008006e00900099f307001e029000a402900021
:10501800050f78000a0037001e029000040f780080
:105028001e029000a4029000150798001e0290002e
:10503800e00f5200dfff3a000100370000000000d7
:105048000080fa00000006000a00fa003007980005
:10505800410798003e0090007200070000027800a7
:10506800240798002e02900094029000050f780003
:105078002e02900014029000940278004e029000d4
:10508800848f52000c003a002e0290001402900007
:10509800940290002e029000150298001e007800dd
:1050a800070f07000001eb00be0090004e009000c3
:1050b80081f307001d0037002e02900014029000b3
:1050c8009402900015079800150037001e02900002
:1050d800940278004e029000848f52000b003a0030
:1050e8001e029000940290001e027800150298009b
:1050f8001e009000f20e07000001eb00be009000b9
:105108004e0090006cf30700080037001e02900064
:10511800040f78001e029000940290001507980072
:105128001e029000e00f5200e8ff3a000080fa00eb
:10513800000006000c00fa003007980041079800ac
:10514800520798003e0090003600070000027800e1
:10515800240798002e02900094029000050f780012
:105168002e02900014029000940278005e029000d3
:10517800848f52000c003a002e0290001402900016
:10518800940290002e029000150298001e007800ec
:10519800cb0e07004e019000be0090005e0090000c
:1051a80045f307001d0037002e02900014029000fe
:1051b8009402900015079800150037001e02900011
:1051c800940278005e029000848f52000b003a002f
:1051d8001e029000940290001e02780015029800aa
:1051e8001e009000b60e07004e019000be00900011
:1051f8005e00900030f30700080037001e029000a0
:10520800040f78001e029000940290001507980081
:105218001e029000e00f5200e8ff3a000080fa00fa
:10522800000006000400fa0010079800645a800085
:10523800040f78000a0037001e02780094027800f4
:105248001e029000848f520002003a001e0278006d
:10525800070037001e027800a4029000050f7800ae
:105268001e027800e00f5200f3ff3a000002eb0044
:10527800040078000080fa00000006000400fa002c
:1052880010079800645a8000040f78000a0037005d
:105298001e027800940278001e029000848f52004b
:1052a80002003a0014c0b300070037001e0278005d
:1052b800a4029000050f78001e027800e00f52004b
:1052c800f3ff3a000042eb00044078000080fa0047
:1052d800000006000800fa0030079800645a8000b1
:1052e80024079800350037002e02900094029000a1
:1052f800050f78002e0290001402900094027800a6
:105308003e029000848f52000e003a002e02900058
:1053180014029000940290002e029000150298004a
:105328001e007800660e07002e0290001402780016
:105338000001eb00840078003e009000def20700d8
:105348001e0037001e02780094029000150798008e
:10535800170037001e029000940278003e02900069
:10536800848f52000d003a001e02900094029000b3
:105378001e027800150298001e009000500e0700cb
:105388002e029000140278000001eb0084007800df
:105398003e009000c8f20700080037001e02900087
:1053a800040f78001e0290009402900015079800e0
:1053b8001e029000e00f5200e6ff3a002e02900015
:1053c800e00f5200c8ff3a000080fa000000060013
:1053d8000000fa0000000000341080006102620042
:1053e800e00f5200fcff3a003410800064026200b3
:1053f800e00f5200f8ff3a003410800068026200a3
:10540800e00f5200f4ff3a0034108000700262008e
:10541800e00f5200f0ff3a0045108000040024001d
:1054280004826200e00f5200ebff3a000080fa00ad
:10543800000006000400fa00640920002410880017
:1054480007e2a90007e2a80085c0a90085a0a90075
:10545800d40480000480a0000490a10004a0a0004f
:10546800d40488008da0a900047122000500200042
:10547800048fbe00040037000082eb008082eb003e
:105488001e0f42005e974a001e02be00e00f520047
:10549800e08f5a00f8ff3a0014c0b30004407800c7
:1054a8000080fa00000006000000fa0007e2a900e8
:1054b80085c0a90085a0a9008dc0a9008da0a9005c
:1054c80014c0b300044078000080fa000000060011
:1054d8000400fa006022b800048fbe0007e2a900a9
:1054e80085c0a90085a0a9008da0a9000002eb0035
:1054f800441088000471220005002000048fbe00bb
:10550800040037000082eb008082eb001e0f42008f
:105518005e974a001e02be00e00f5200e08f5a005c
:10552800f8ff3a00c3ff07001000070004712200cb
:1055380005002000048fbe00040037000082eb0045
:105548008082eb001e0f42005e974a001e02be00da
:10555800e00f5200e08f5a00f8ff3a0014c0b30081
:10556800044078000080fa00000006000000fa00fd
:1055780085c0a9008dc0a80014c0b30004407800fd
:105588000080fa00000006000000fa0085c0a900ab
:105598008dc0a90014c0b300044078000080fa0050
:1055a800000006000400fa0014c0b30004437800a9
:1055b80065b32000864a78004410800070026200bb
:1055c800e00f5200150032000602a8000471220004
:1055d80005002000048fbe000a00370064b32000d5
:1055e80014427800e04f520002003a0014c0b300a1
:1055f8000b0037000082eb008082eb001e0f420098
:105608005e974a001e02be00e00f5200e08f5a006b
:10561800f2ff3a000042eb00010037000042eb00c5
:10562800044078000080fa00000006000400fa0038
:1056380064c0b3000443780065b32000864a78004c
:105648004410800068026200e00f5200150032002a
:105658000622a8000471220005002000048fbe0065
:105668000a00370064b3200014427800e04f52006b
:1056780002003a0014c0b3000b0037000082eb00b0
:105688008082eb001e0f42005e974a001e02be0099
:10569800e00f5200e08f5a00f2ff3a000042eb00a0
:1056a800010037000042eb00044078000080fa0057
:1056b800000006000400fa0054c0b3000443780058
:1056c80065b32000864a78000642a80004712200cb
:1056d80005002000048fbe000a00370064b32000d4
:1056e80014427800e04f520002003a0014c0b300a0
:1056f800090037000082eb008082eb001e0f420099
:105708005e974a001e02be00e00f5200e08f5a006a
:10571800f2ff3a000042eb00044078000080fa00f3
:10572800000006000400fa0034c0b3000443780007
:1057380065b32000864a7800341080006102620058
:10574800e00f520010003a0034108000640262003a
:10575800e00f52000c003a0034108000680262002a
:10576800e00f520008003a00341080007002620016
:10577800e00f520004003a00341080006202620018
:10578800e00f5200020032000042eb001500370023
:1057980006a2a9000682a8000471220005002000c4
:1057a800048fbe000a00370064b32000144278005a
:1057b800e04f520002003a0014c0b300090037005d
:1057c8000082eb008082eb001e0f42005e974a00c9
:1057d8001e02be00e00f5200e08f5a00f2ff3a00ae
:1057e8000042eb00044078000080fa000000060048
:1057f8000400fa0034c0b3000443780065b3200005
:10580800864a78003410800061026200e00f52007e
:1058180010003a003410800064026200e00f520069
:105828000c003a003410800068026200e00f520059
:1058380008003a003410800070026200e00f520045
:1058480004003a003410800062026200e00f520047
:10585800020032000042eb001500370006a2a80043
:105868000682a8000471220005002000048fbe00f3
:105878000a00370064b3200014427800e04f520059
:1058880002003a0014c0b300090037000082eb00a0
:105898008082eb001e0f42005e974a001e02be0087
:1058a800e00f5200e08f5a00f2ff3a000042eb008e
:1058b800044078000080fa00000006000800fa00a2
:1058c800300798000471220005002000048fbe00f4
:1058d8000042eb004447980044c0b30004437800fa
:1058e80065b32000864a7800047122000500200074
:1058f800048fbe001c003700341080006102620073
:10590800e00f520014003a00341080006402620074
:10591800e00f520010003a00341080006802620064
:10592800e00f52000c003a00341080007002620050
:10593800e00f520008003a004510800004002400df
:1059480004826200e00f520003003a0014c0b30062
:1059580044479800080037000082eb008082eb0083
:105968001e0f42005e974a001e02be00e00f520062
:10597800e08f5a00e0ff3a004e429000e04f52009c
:1059880002003a000042eb00180037000662a80047
:10599800046a280015002000048fbe000e0037009e
:1059a80064b3200014427800e04f520006003a0029
:1059b80004108000844278003e029000054a780076
:1059c80014c0b300090037000082eb008082eb00ae
:1059d8001e0f42005e974a001e02be00e00f5200f2
:1059e800e08f5a00eeff3a000042eb0004407800d6
:1059f8000080fa00000006000600fa004047980000
:105a080024c0b3000443780065b32000864a7800b8
:105a18004e4290000402fb0014108800047122001a
:105a280005002000048fbe000a00370064b3200080
:105a380014427800e04f520002003a0014c0b3004c
:105a4800090037000082eb008082eb001e0f420045
:105a58005e974a001e02be00e00f5200e08f5a0017
:105a6800f2ff3a000042eb00044078000080fa00a0
:105a780000000600849fbe00861f78003400f800ee
:105a880004002000a40188000000fa0085c0a900d5
:105a98000042eb000443780065b32000864a780092
:105aa8000080fa003400f9004f0378004f02be006e
:105ab800004006000000fa0007e2a90085c0a9001e
