:020000040000fa
:080000000001040000000000f3
:020000040000fa
:100008008a020000ba010000d4010000ee010000dd
:10001800080200008a0200008a0200008a0200002a
:10002800f43c00008a0200008a0200008a020000f4
:100038008a0200008a0200000a410000a03b00007a
:100048008a020000441a0000901a00008a02000088
:100058008a0200008a020000c22a00008a02000008
:100068008a0200008a0200008a0200008a02000058
:100078008a02000040430000a20200008a02000039
:10008800dc1a0000281b00008a0200008a02000017
:100098008a0200008a0200008a0200008a02000028
:1000a8008a0200008a0200008a0200008a02000018
:1000b8008a0200008a0200008a0200008a02000008
:1000c8008a0200008a0200008a0200008a020000f8
:1000d8008a0200008a0200008a0200008a020000e8
:1000e8008a0200008a0200008a0200008a020000d8
:0800f8008a0200008a020000e8
:020000040000fa
:100108008a020000220200003c02000056020000a1
:10011800700200008a0200008a0200008a020000c1
:10012800f43c00008a0200008a0200008a020000f3
:100138008a0200008a02000026410000be3b00003f
:100148008a0200006a1a0000b61a00008a0200003b
:100158008a0200008a020000c22a00008a02000007
:100168008a0200008a0200008a0200008a02000057
:100178008a02000040430000a20200008a02000038
:10018800021b00004e1b00008a0200008a020000c9
:100198008a0200008a0200008a0200008a02000027
:1001a8008a0200008a0200008a0200008a02000017
:1001b8008a0200008a0200008a0200008a02000007
:1001c8008a0200008a0200008a0200008a020000f7
:1001d8008a0200008a0200008a0200008a020000e7
:1001e8008a0200008a0200008a0200008a020000d7
:0801f8008a0200008a020000e7
:020000040000fa
:100200000f3621000e7f22000e0188000000000042
:10021000000020000000e000020032000001200089
:10022000200288000c000700a0f623000100200037
:1002300011000700000020000000e0000200320072
:100240000000020000000000343e02000000000038
:100250000040da000000fe004440a9000000200039
:100260000000e0000300320000002000a001880030
:100270004440a8000000060091018800800078003a
:100280000000eb0015003700e280400032a0b4000f
:100290009101ba00e280400032a0b4009102ba009d
:1002a000e280400032a0b4000002eb00472bde00e9
:1002b000f507b200602ce10004003a000059eb00a1
:1002c0008301e900fdff3e00040037006128e100e2
:1002d000010032000082eb00040007001101ba00a7
:1002e0000200e000e8ff3a00000006003159ba00c1
:1002f0008301e9000c0032002159ba008301e900b2
:10030000080032000400e00003003a00e2804000f0
:1003100032a0b400f5ff370011d9ba008301e9001b
:10032000faff3a008100e800e180400032a0b4000a
:10033000000006009c43040000000000540b040071
:1003400000000000663a04000000000010330400c2
:1003500000000000b033040000000000523404002c
:10036000000000006634040000000000123d04009c
:10037000000000000000fa00d022a800d042a8002f
:10038000c4c2a800c4e2a900c522a900c582a90070
:10039000c542a900c5a2a900c5c2a900c5e2a9001d
:1003a0008020a900ffff37000000fa00d022a8003b
:1003b000d042a800c4c2a800c4e2a800c522a90077
:1003c000c582a900c542a900c5a2a900c5c2a9004d
:1003d000c5e2a9008060a900ffff37000000fa0015
:1003e000d022a800d042a800c4c2a800c4e2a8003d
:1003f000c522a800c582a900c542a900c5a2a900be
:10040000c5c2a900c5e2a9008040a900ffff3700ce
:100410000000fa00d022a800d042a800c4c2a80060
:10042000c4e2a800c522a800c582a800c542a90050
:10043000c5a2a900c5c2a900c5e2a9008080a90083
:10044000ffff37000000fa00d022a800d042a80029
:10045000c4c2a800c4e2a800c522a800c582a800a2
:10046000c542a800c5a2a900c5c2a900c5e2a9004d
:100470008020a900ffff37000000fa00d022a8006a
:10048000d042a800c4c2a800c4e2a800c522a800a7
:10049000c582a800c542a800c5a2a800c5c2a9007f
:1004a000c5e2a9008060a900ffff37000000fa0044
:1004b000d022a800d042a800c4c2a800c4e2a8006c
:1004c000c522a800c582a800c542a800c5a2a800f0
:1004d000c5c2a800c5e2a9008040a900ffff3700ff
:1004e0000000fa00d022a800d042a800c4c2a80090
:1004f000c4e2a800c522a800c582a800c542a80081
:10050000c5a2a800c5c2a800c5e2a8008080a900b5
:10051000ffff37000000fa00d022a800d042a80058
:10052000c4c2a900c4e2a800c522a900c582a800cf
:10053000c542a900c5a2a800c5c2a900c5e2a8007d
:10054000ffff37003400f800881f78000800200003
:10055000a80188004f0478000000fa0086c0a900b6
:100560001fe1a80021e1a9000080fa003400f90091
:10057000004006000000fa0020002000000988006a
:100580001821ef0010002000e008880086c0a900b4
:100590008ec0a80021e1a8000080fa00000006003b
:1005a0000000fa0020002000f00888007041800060
:1005b000a0088800704180000000e800d008880092
:1005c00086a0a9001fe1a9008ea0a8000080fa0063
:1005d000000006000200fa00000f78003028ef004b
:1005e0009e007800514188002c28ef00ecff0700a6
:1005f000e0ff07000080fa00000006001000fa008b
:100600003007980041079800520798006307980048
:10061000740798000000eb0010079800ce009000cf
:100620005e0090000088b900800078006e009000a5
:100630000000e8000088b900000078000000e80031
:1006400080007800a0142000808f50000200360047
:100650000080eb00390037000000eb00000f78004d
:10066000280037000000eb00200798000b0037003f
:10067000018620001e0090000080400011c0b300e1
:10068000014878001e0090000000e8001007980064
:100690002e0090000000e80020079800ae009000b7
:1006a0005e009000808f5000f1ff35000000eb00ed
:1006b000200798000b003700018620001e009000e4
:1006c000008040008040eb00014878001e00900050
:1006d0000000e800100798002e0090000000e800dd
:1006e00020079800ee0090005e0090000088b9009e
:1006f000800078002e009000808f5000eeff3c00bc
:100700001e0fe8004e0090009e007800808f500081
:10071000d4ff3500018620001e00900000804000bc
:1007200021c0b30001487800fe00900071418800ac
:10073000be009000914188000000eb000080fa00ac
:10074000000006000000fa00604180000080fa000e
:1007500000000600889fbe0080047800f05a8000e8
:100760000000e00004003a000e0007000084eb00e7
:100770000000e00008003500f85a80000900e000a1
:100780000500320009004400060007000000e000f8
:1007900001003d000084eb00080078004f04be001b
:1007a00000000600800078000100e00003003a002d
:1007b00000b62000f05a8800000005000080eb0021
:1007c00002362100828f500002003e00f15a88005c
:1007d0000000eb0000000600839f68000100e000bd
:1007e00002003d0060001000e08018000300e000ff
:1007f00002003d0060011100e081190005000700c2
:100800004f00e00002003b0060001000e080180094
:10081000000006006022b800060220000000d000a0
:100820008180d2000482d2008582d2000000a00024
:100830000202520083825a00030031000202420089
:1008400083824a000000a1000603e900f3ff3a009a
:10085000000006000000e0002f003200c001780018
:10086000e38f51002c0036000308a3002a003a0051
:10087000d15a80000100e00002003200810f5000d8
:100880000400310011009800d05a8800160037008b
:1008900082007800110190000200e00002003200a6
:1008a000800f5100faff3900110278008482400065
:1008b000850f500018003900808f520003003a0065
:1008c0008308420001007800070037000200e000c2
:1008d0000300320083014000830f51000e003900f5
:1008e0001200980090009800900090000100e00035
:1008f0000900320010014000828f500006003a00cb
:1009000082b520000009eb001001780011084100b9
:10091000910090001100980000000600889fbe0022
:1009200000047800c15a80000100e000020032009b
:10093000010078000d003700d15a8000a0b52000da
:1009400004003700910f5400250036000180e800b4
:10095000910090000100e000faff3a00100037001b
:10096000920f54001e0036000280e800100178004b
:100970000200e000faff3a0011017800d15a80002d
:10098000a0b5200004003700910f54001400360079
:100990000180e80091009000828f5000faff3a0039
:1009a000e95a8000888f54000100310088047800e3
:1009b00009007800360007000000e00004003a005b
:1009c000888f5400050032008904d100f5ff3700fc
:1009d000091878009fff0700d2ff37000000eb00e6
:1009e0004f04be0000000600881f7800630440002a
:1009f0000800a1008000eb00800f540021003600a9
:100a0000e30f540001003e00480020000800780079
:100a1000c2ff07008000eb000000e0001900320078
:100a2000900078009101780064815100880f510096
:100a30000300310011019000020878000700370020
:100a4000088140000208780091019000130198008d
:100a5000100178001109140088087800100178004e
:100a60000000eb000200e000040032009201900060
:100a70000300e000010032000280e800c05a880054
:100a80008180e800010078004f0478000000060033
:100a9000800078000000eb000100e0000500340059
:100aa000010078002bff0700e10f400001003a0031
:080ab0000000eb00000006004d
:020000040000fa
:100ab8000200fa0007003700a1418000010f78000a
:100ac800a041800010089000a04188001e00780016
:100ad8002d010700a04180000000e000f6ff3a0069
:100ae80007003700c1418000010f7800c041800035
:100af80010089000c04188001e00780022010700fd
:100b0800c04180000000e000f6ff3a003628ef0000
:100b180040012000871e0700a0418800a0418000f6
:100b28000000e00021003200a04180006800400081
:100b3800061f0700a04180008000eb0071009800ac
:100b4800a2418000a1418000a04180008e0278006f
:100b58000f02780003018000250198009400980096
:100b680033009800a04180008080eb00510098007d
:100b7800a04180008000eb0001089800a04180009f
:100b88008000eb0011089800a04180008000eb0075
:100b980001087800a04180008000eb006100980007
:100ba800a0418000b041880001003700000000002b
:100bb8000080fa00000006000400fa000000eb00c4
:100bc800000f7800a1418000110798000400370049
:100bd8001e0fe8001e009000900890001107980072
:100be8001e0090000000e000f9ff3a00c1418000bb
:100bf80011079800040037001e0fe8001e0090003f
:100c080090089000110798001e0090000000e00076
:100c1800f9ff3a001e0078000080fa000000060084
:100c28000400fa00000f780011079800b042800015
:100c38009e007800800878000000e800b042880034
:100c48001e0090000000e00002003a00800c200026
:100c5800100798009e00780068804000bb1e0700bf
:100c68001e009000331e0700800078001e007800e8
:100c7800710098001e007800700090000000e000ed
:100c880002003a000040eb00130037001e00780015
:100c980070009000800078001e0078001100980015
:100ca8001e007800900090001e0078002100980037
:100cb8001e007800900090001e0090008080400088
:100cc8001e007800310098001e0078008000eb00bc
:100cd8006100980010c0b3000080fa000000060010
:100ce8000400fa001007980040012000111e0700b8
:100cf800000f78001e0078000000e00002003a00b3
:100d08000040eb00390037001e0078008000eb003f
:100d1800c3ff07000004a2000004e0000400320042
:100d28001e0078000f1e07000040eb002f00370060
:100d38001e007800f10f2000510098001e00780076
:100d4800e1ab2b00410098001e0078008000eb000a
:100d5800010898001e0078008000eb001108980038
:100d68001e007800a00090001e007800100190007e
:100d78001e007800b00190001e009000881f7800c7
:100d8800891f78008a1f78000e0478008f04780085
:100d98000a018000010778008207780003018800b3
:100da800801f780000002000801f78000e01780066
:100db8008f00780008077800890778000a01880002
:100dc8004f057800cf0478004f0478001e007800a3
:100dd800220098001e00780011009800418320002e
:100de8001e0078007801070010c0b3000080fa00e8
:100df800000006000400fa00100798001e0090008a
:100e08000000e00022003200b0418000900078002d
:100e18001e009000808f500002003a001f0007005b
:100e28001c003700418320001e0090001b010700b2
:100e3800000f78001e0078000000e0000600320075
:100e48001e007800d1ea2d00410098001e007800ad
:100e58004d0007000f003700818320001e0090001e
:100e68000e010700000f78001e0078000000e00067
:100e7800080032001e007800d1ea2d0041009800d9
:100e88001e00780040000700000000000100370045
:100e9800000000000080fa00000006000400fa00cc
:100ea800b0418000100078000000e000230032000c
:100eb800b0418000d1ea2d0041009800b041800087
:100ec80010007800e70f0700b0418000000890008c
:100ed8000000e0000a003a00b1418000010f7800ec
:100ee800030037001e00780090089000010f78007a
:100ef8001e0078000000e000faff3a000300370007
:100f0800b041800080089000010f7800b041800057
:100f18001000780041832000e000070010079800c7
:100f2800a18320001e009000270107009e00780082
:100f3800b1418800da1c07000100370000000000fa
:100f48000080fa00000006000400fa00d141800089
:100f5800010f7800070037009e00780011079800fd
:100f68001e00780090089000010f78001e00900085
:100f7800050007001e0078000000e000f6ff3a00b8
:100f88000080fa00000006000200fa00000f780056
:100f9800940107001e007800cb0307001e007800ac
:100fa800700090006f1d07001e0078008000eb00a5
:100fb800710098001e0078006a1d07008d01070067
:100fc8000080fa00000006000000fa00b04180002e
:100fd8000000e00029003200821d07004200f800ee
:100fe800801f7800811f7800821f7800831f780097
:100ff800841f7800851f7800861f7800871f780077
:10100800881f7800891f78008a1f78008b1f780056
:101018008c1f78008d1f78002200f8002800f80047
:101028003200f8003400f8003600f8003800f80004
:101038003c00f8003a00f8004000f8003e00f800d4
:101048004400f8000080fe004200f800801f78008d
:10105800811f7800821f7800831f7800b1418000cb
:10106800b04180008e0178000f017800a30098003d
:10107800120098006d1d07000100370000000000f5
:101088000080fa00000006000600fa00000f780051
:101098001107980022079800521d07008018780051
:1010a800010078000080fa00be1878000f70e10097
:1010b800fdff3500000778008107780002018800ed
:1010c8008e1f78000f077800801f7800811f780036
:1010d800821f7800551d07000080fa0000000600f6
:1010e8000200fa00000f7800b04180009e007800ee
:1010f800808f500044003200b3ff07001e007800c4
:10110800300190001e007800900090001e007800ca
:1011180020009000dcff0700b041800051552500f9
:10112800410098001e007800c0009000e0ab2b0042
:10113800808f500008003a001d1c07001e00780030
:101148008080eb00410098009e007800b141880043
:101158000080fa00004006001e0078008080eb0046
:10116800410098009e007800b14188001d1d0700cd
:101178000080fa00cf0178004f017800cf00780096
:101188004f0078004200f90000a0fe004400f9007a
:101198003e00f9004000f9003a00f9003c00f9006f
:1011a8003800f9003600f9003400f9003200f9007f
:1011b8002800f9002200f900cf0678004f067800d1
:1011c800cf0578004f057800cf0478004f047800e9
:1011d800cf0378004f037800cf0278004f027800e1
:1011e800cf0178004f017800cf0078004f007800d9
:1011f8004200f9000d1d07000080fa000080fa0087
:101208000000060001003700000000000080fa001e
:10121800000006000400fa0010079800a1418000b1
:10122800010f78000b0037001e007800900078004e
:101238001e009000808f500003003a001e007800c6
:10124800a7ff0700060037001e00780090089000ee
:10125800010f78001e0078000000e000f2ff3a005d
:101268000080fa00000006000000fa00b04180008b
:10127800100890000000e00003003a00a041800040
:1012880097ff070003003700b04180001008900066
:1012980093ff07000080fa00000006000800fa002b
:1012a80020079800310798003e0090001000780051
:1012b8000000e00002003a000000eb0040003700a8
:1012c8003e00900010007800900078002e009000fa
:1012d800808f500015003a00c20007003e009000c1
:1012e80090007800110798001e0090009008900068
:1012f8003e009000010878003e0090001000780041
:101308008000eb00010898001e0090008000eb00b0
:10131800010898001e0090008000eb00110898005a
:10132800b40007001e009000250037003e00900022
:101338001000780090089000010f78001c0037001a
:101348001e007800900078002e009000808f5000da
:1013580014003a00a30007001e007800000890005f
:101368009e00780091089000110898001e007800ef
:10137800100890009e0078008108900001089800ed
:101388001e0078008000eb00010898001e0078001d
:101398008000eb0011089800960007001e007800f6
:1013a800070037001e00780090089000010f7800b1
:1013b8001e0078000000e000e1ff3a000000eb00aa
:1013c8000080fa00000006000600fa0010079800e6
:1013d800210798001e0090000000e000590032002c
:1013e8001e0090008000eb00010898001e0090008d
:1013f8008000eb00110898002e0090001000780083
:101408000000e00004003a002e0090009e009000ca
:10141800010878004c0037002e009000100078007a
:10142800900078001e00900010007800808f500017
:10143800110036006b0007002e0090009000780025
:101448001e009000110898001e0090008000eb001c
:10145800010898002e009000100078009e0090006f
:10146800010898002e0090009e0090000108780066
:1014780060000700340037002e009000100f78003d
:101488001f0037001e0078001008900090007800b8
:101498001e00900010007800808f50001500360064
:1014a800500007001e007800900890001e00900071
:1014b800110898001e009000100890000000e0003d
:1014c800040032001e009000100890009e0090005a
:1014d800010898001e0090009e00780001089800fe
:1014e8001e0078009e009000110898004100070037
:1014f800150037001e00780090089000010f780052
:101508001e007800100890000000e000ddff3a009f
:10151800340007001e0090008000eb0011089800be
:101528001e0078009e009000110898001e00900090
:101538009e007800010898002e00070000000000b7
:1015480001003700000000000080fa0000000600db
:101558000400fa0010079800a1418000010f7800ec
:101568000a0037001e007800900078001e009000e6
:10157800808f500002003a001e00780017003700e4
:101588001e00780090089000010f78001e00780077
:101598000000e000f3ff3a00c1418000010f78002d
:1015a8000a0037001e007800900078001e009000a6
:1015b800808f500002003a001e00780007003700b4
:1015c8001e00780090089000010f78001e00780037
:1015d8000000e000f3ff3a000000eb000080fa0092
:1015e800000006000000fa00241b07000080fa0033
:1015f800000006000000fa00251b07000080fa0022
:10160800000006000800fa0010079800210798005b
:1016180032079800a04180000000e0001b00320063
:10162800a0418000100890000000e000190032007e
:10163800ecff0700418320001e00900017ff070001
:10164800000f7800818320001e0078005eff0700ed
:101658002e009000960c0700be01900042b52000b5
:101668009e0090002e009000c70c0700b04180003b
:10167800900078001e009000808f500001003a0012
:10168800071b0700dbff070003003700000000000e
:1016980001003700000000000080fa00000006008a
:1016a8000c00fa003007980041079800520798008c
:1016b800c04180000000e00002003a0010c0b30002
:1016c8002a003700c7ff0700818320003e009000f2
:1016d800f2fe070020079800418320002e009000aa
:1016e80039ff0700c3ff07002e0090006c00400080
:1016f8000001780041b520004e00900086010700e7
:101708000040eb00004f78002e009000e0009000b1
:10171800110798000a0037001e009000900078001a
:101728004e009000808f500002003a0010c0b300b5
:10173800004f78001e009000c0009000110798002c
:101748001e0090000000e000f3ff3a001e40780001
:101758000004a2000004e00003003200be00900074
:101768004e009000200d070010c0b3000080fa0062
:10177800000006000e00fa003007980041079800a4
:1017880052079800630798005e0090000000e00090
:1017980002003a0010c0b3003b0037003e00900042
:1017a8006bff0700100798001e0090000000e00083
:1017b80002003a000040eb0033003700a000200090
:1017c8005c1b0700200798002e0090000000e00036
:1017d80002003a000040eb002b0037002e0090007a
:1017e800ce009000010878002e009000de009000e6
:1017f800110098002e009000ee0090002100980043
:101808002e0090008000eb00410098002e00900010
:101818008000eb00310098001e00900060009000ee
:101828000000e000140032001e009000e00090006c
:10183800010f7800070037001e0078004000900074
:101848000000e000070032001e007800c000900091
:10185800010f78001e0078000000e000f6ff3a0053
:1018680001003700000000001e007800ae00900064
:1018780041009800030037001e009000ae00900061
:101888006100980010c0b3000080fa000000060054
:101898000600fa0010079800210798009e009000a3
:1018a800010f78000a0037001e00780090007800c9
:1018b8002e009000808f500002003a001e00780031
:1018c800070037001e007800c0009000010f780064
:1018d8001e0090000000e000f3ff3a000000eb005b
:1018e8000080fa00000006001400fa006007980063
:1018f80071079800020f9800130f98006e0090006f
:1019080013ff0700400798004e0090000000e00019
:101918008b003200e04180000000e0000c003a003b
:1019280030ff070040002000021b0700e04188004c
:10193800e04180000000e00083003200e0418000c8
:10194800fe009000010878002aff070022003700f7
:10195800e1418000010f78001e00780090007800b7
:101968007e009000808f50001a0032001e00780020
:10197800100090000000e0000f003a0019ff070077
:1019880040002000eb1a0700800078001e00780055
:10199800110098001e007800100090000000e00080
:1019a8006b0032001e00780010009000fe009000ce
:1019b80001087800080037001e00780090009000a9
:1019c800010f78001e0078000000e000e2ff3a00f6
:1019d80001003700000000004e009000e000900079
:1019e800110798004e0037000040eb004047980070
:1019f8001e009000200090000000e0000600320069
:101a08001e009000a00090000e0890000100010048
:101a1800404798000200370010c0b30040479800c4
:101a28004e4090000004e0003d00320060002000bd
:101a3800c01a0700500798005e0090000000e00000
:101a4800450032001e0890000000e000120032003d
:101a58001e089000b71a0700de0090008008780082
:101a68005e009000100078000000e00003003a00db
:101a78005e009000bb1a0700380037005e00900037
:101a880010007800800078000e0890001e09900071
:101a9800bc1a0700030037005e0090008000eb00ce
:101aa800010878005e0090009e08900011009800e0
:101ab8005e0090008000eb00210098001e0090005e
:101ac800300090000000e00004003a001e00900082
:101ad800de009000310098000e0037001e009000d4
:101ae800b000900031079800030037003e009000d6
:101af800a0009000310798003e0090002000900060
:101b08000000e000f9ff3a003e009000de0090007f
:101b1800210098001e009000c00090001107980056
:101b2800fe0090001e00900059ff07001007980063
:101b38001e0090000000e000abff3a0007003700ed
:101b48000000000005003700000000000300370017
:101b58000000000001003700000000000080fa00cb
:101b6800000006000800fa002007980031079800d6
:101b7800be009000010f78001f0037001e0078009b
:101b8800e000900011079800150037001e00900033
:101b9800900078002e009000808f50000d003a00d1
:101ba8001e009000100090000000e00009003200c4
:101bb8001e009000900190001e009000b000900060
:101bc8001e0078001000780001017800ae00900037
:101bd800030001001e009000c0009000110798004b
:101be8001e0090000000e000e8ff3a001e007800a8
:101bf80090089000010f78001e0078000000e000b7
:101c0800deff3a000080fa00000006000400fa0037
:101c1800e1418000010f78003c28ef000f003700f9
:101c2800a14180001e00780010007800cdff070059
:101c3800c14180001e00780010007800c9ff07002d
:101c48009e007800110798001e0078009000900010
:101c5800010f78001e009000421a07001e0078004d
:101c68000000e000eeff3a000080fa0000000600e5
:101c78000000fa00e5ff0700531907000080fa008a
:101c8800000006000400fa0010079800a141800037
:101c9800010f7800090037009e0078006c80400032
:101ca80000017800e1ff2f001e0090001a000700d5
:101cb8001e00780090089000010f78001e00780040
:101cc8000000e000f4ff3a000080fa00000006007f
:101cd8000800fa00100798002107980032079800ba
:101ce8001e0090001afe0700000f78001e00780002
:101cf8000000e000060032009e0078006c80400082
:101d080000017800be0090002e009000020007003d
:101d18000080fa00000006000e00fa004007980054
:101d280051079800620798006e0090000000e000dc
:101d3800040032006e009000100078000000e000ff
:101d480002003a000000eb00460037006e009000e9
:101d580090007800210798002e00900090007800ed
:101d68004e009000808f500016003a005e009000f0
:101d7800e20f4000050032002e0090009000900015
:101d88005e009000808f50000e003a002e009000f8
:101d9800c0009000310798002e009000c00090000d
:101da8006e009000010878002e0090006600400048
:101db8002e0007002e009000ea1907003e00900050
:101dc80028003700ae009000010f78002e00900028
:101dd800c0009000110798001e0090009000780045
:101de8004e009000808f500015003a005e00900071
:101df800e20f4000050032002e0090009000900095
:101e08005e009000808f50000d003a001e00900088
:101e1800c00090001e007800410098001e0090004d
:101e280066004000110007001e009000cd19070051
:101e38001e007800c00090001107980005003700c8
:101e48009e009000010f78001e009000c0009000d6
:101e5800110798001e0090000000e000deff32002d
:101e68002e0090000080fa00000006000600fa002c
:101e7800200798002e009000100f78002e00900088
:101e88008000eb00010878000a0037009e00780007
:101e9800110798001e00900010007800b119070083
:101ea8001e009000af1907001e007800a0009000e7
:101eb800010f78001e0078000000e000f3ff3a00f0
:101ec8000080fa00000006000600fa0020079800cb
:101ed8002e009000e0009000010f78002e00900086
:101ee80010007800df0b07000a0037009e0078001a
:101ef800110798001e007800c0009000010f7800bc
:101f08001e00900066004000d8ff07001e009000e9
:101f1800941907001e0078000000e000f3ff3a0063
:101f28002e0090008000eb00610098000080fa000d
:101f3800000006000a00fa003007980041079800e0
:101f4800b0418000100078004e019000be00900063
:101f5800acfd0700b0418000e0009000010f780060
:101f68009e00780011079800250037001e007800b1
:101f7800900078003e009000808f50001b003a00cf
:101f88001e007800a00090004e009000808f500046
:101f980016003a001e007800b00090002107980053
:101fa8001e0090009e0f500005003a00b0418000ce
:101fb8009e007800c100900061009800040037007e
:101fc8001e007800c00090001e009000410098009c
:101fd8001e0078008000eb00410098001e00780089
:101fe800601907002e009000090037009e00780055
:101ff800110798001e007800c0009000010f7800bb
:102008001e0078000000e000d8ff3a000000eb0056
:102018000080fa00000006000200fa00000f7800b5
:102028008000eb001e007800c2ff07000080fa0065
:10203800000006000200fa00a51807000000eb00e7
:10204800000f78000c0037001e00e800a19a20005d
:102058006140780080407800a09a20001e0040006f
:10206800104078000141780080407800c0cdb3006e
:10207800c61807001e8fe8009e007800700d20002b
:10208800808f5000f0ff3600951807000080fa0096
:10209800000006000200fa00881f78008c1807006c
:1020a8000000eb00000f78000b0037001e04e8006a
:1020b800a09a20001e004000104078008040780060
:1020c800c0cdb3008a18070080407800a09a20008d
:1020d80001707c001e8fe8009e007800700d2000c3
:1020e800808f5000f1ff36007d1807004f047800fc
:1020f8000080fa00000006000200fa00000f7800d5
:102108001e007800e10f500008003200e20f500076
:102118000a0032000000e0000c003a00d09e2000c7
:10212800c1c0b300014878000a003700d09e2000e3
:1021380081c0b3000148780006003700d09e200017
:1021480021c0b30001487800020037000080eb008e
:10215800010037000000eb000080fa0000000600d4
:102168000200fa00000f7800400420009e0078006a
:10217800808f5000070032001e007800f10f5000d9
:1021880004003200300320009e007800808f500049
:1021980006003a001e00780080407800d09d20009c
:1021a800014878000000eb00010037000080eb00d8
:1021b8000080fa00000006000200fa00000f780014
:1021c8001e0078000000e0001b0032000002200022
:1021d8009e007800808f5000170032000003200016
:1021e8009e007800808f5000130032000004200009
:1021f8009e007800808f50000f00320000052000fc
:102208009e007800808f50000b00320000062000ee
:102218009e007800808f50000700320000062000e2
:102228009e007800808f5000030032001e00780066
:10223800f00f500006003a001e0078008040780039
:10224800709d2000014878000000eb000100370075
:102258000080eb000080fa00000006000800fa0089
:102268002007980031079800ae0090003e009000cb
:10227800808f5000020039000080eb001f003700fb
:10228800be00900030382000808f500002003600d9
:102298000080eb00190037002e0090000000e900d4
:1022a800200798002e009000004f78002e00900024
:1022b8004800de00104798003e0090002047980034
:1022c8003e0090004800de0030479800309b200018
:1022d8009e40900001487800509b20001e487800de
:1022e800b09b2000be40900001487800d09b2000a1
:1022f800ae409000014878000000eb000080fa0032
:10230800000006000800fa0020079800310798002e
:10231800ae0090003e009000808f5000020039000f
:102328000080eb001c003700be009000301f20002a
:10233800808f5000020036000080eb001600370046
:102348002e009000004f78002e0090004800de001c
:10235800104798003e009000204798003e009000eb
:102368004800de0030479800709b20009e40900097
:1023780001487800909b20001e487800f09b2000c0
:10238800be40900001487800109c2000ae409000ac
:10239800014878000000eb000080fa000000060009
:1023a8000c00fa003007980041079800520798007f
:1023b800be0090004e009000808f5000020039004f
:1023c8000080eb002d003700ce009000301f200069
:1023d800808f5000020036000080eb002700370095
:1023e800de00900030382000808f50000200360058
:1023f8000080eb00210037003e009000004f78007d
:102408003e0090004800de00104798004e00900003
:10241800204798004e0090004800de0030479800a2
:102428005e009000404798005e0090004800de0083
:1024380050479800b0a320009e40900001487800c3
:10244800d0a320001e487800f0a32000be409000d2
:102458000148780010a42000ae40900001487800a0
:1024680030a42000de4090000148780050a42000ed
:10247800ce409000014878000000eb000080fa0090
:10248800000006000600fa001007980021079800cf
:102498001e0090000000e000060032002e009000b0
:1024a8000000e00003003200a0ccb300004f780029
:1024b8000e0037001e0090000000e000030032000c
:1024c800a0c4b300004f7800080037002e00900029
:1024d8000000e00003003200a0c8b300004f7800fd
:1024e80002003700a0c0b300004f78009e4078007b
:1024f800909d2000014878000080fa000000060046
:102508000400fa0020479800314798000000eb00cb
:10251800000f78000d003700a09a20001e00400030
:10252800904078002e40900080cf500006003a007e
:102538001e00e800a19a20003e41900082707800b9
:102548000000eb00060037001e8fe8009e007800b0
:10255800700d2000808f5000efff36000080eb00e8
:102568000080fa00000006000600fa0020479800e4
:10257800210798000000eb00000f78000e003700dc
:10258800a09a20001e004000904078002e40900045
:1025980080cf500007003a001e00e800a19a2000f2
:1025a800e14078002e009000014878000000eb0020
:1025b800060037001e8fe8009e007800700d20008e
:1025c800808f5000eeff36000080eb000080fa009c
:1025d800000006000200fa00004f7800114798003a
:1025e800309c20009e40900001487800509c2000bc
:1025f8001e4878000080fa00000006000600fa0075
:10260800004f7800114798002247980033479800f8
:1026180044479800f0c4b3009e40780080cf500033
:10262800020036000080eb000f003700709c20008d
:102638001e487800909c20009e4090000148780039
:10264800b09c2000ae40900001487800d09c20004b
:10265800ce40900001487800f09c2000be409000d9
:10266800014878000000eb000080fa000000060036
:102678000400fa00008fbe001e00be004a09dd00fb
:102688004600de0000007100c608de0080407800c9
:10269800309d2000014878001e00be004209dd0080
:1026a8004e00de0000007100ce08de008040780099
:1026b800109d200001487800509d20008040eb00cc
:1026c800014878000080fa00000006000200fa00c5
:1026d800004f7800f09d20001e4878000080fa0026
:1026e800000006000200fa00000f78001e007800c3
:1026f8000000e00007003200f09e200090407800c3
:1027080000c8b30080c07000f09e20000148780027
:1027180006003700f09e20001040780080407800c6
:102728000174a100f09e2000014878000080fa00a2
:10273800000006000400fa00004f780011479800d6
:1027480022479800309f20001e487800509f2000a4
:102758009e40900001487800709f2000ae40900095
:10276800014878000080fa00000006000200fa0024
:10277800004f7800114798009e4078007fc06000a5
:1027880002c5b30082404000909f200001487800b5
:10279800b09f20009e409000014878000080fa0019
:1027a800000006000600fa0010079800414798004c
:1027b8004e409000e3406000500020008008dd009b
:1027c80000c8b30080c0400010a82000014878006d
:1027d8000000eb00000f78000a0037001e007800a8
:1027e800000040003005b0009e0078001e019000f7
:1027f8008100410011417800a19a20008270780080
:102808001e0fe8001e007800e10f5000f3ff3600ad
:102818000080fa00000006000000fa00ac1607006d
:1028280010a82000104078008040780000a8200000
:10283800104078000141780080407800c0cdb30096
:10284800d2160700a616070020a1200090407800a5
:10285800c09f200010407800020007000080fa00a6
:10286800000006000600fa0040479800514798000b
:102878000000eb0010079800951607000000eb0019
:10288800000f78001b003700a09a20001e004000af
:10289800904078004e40900080cf500014003900de
:1028a800a09a20001e004000904078005e409000f2
:1028b80080cf50000e003e001e00e800a19a2000c4
:1028c8006140780080407800a09a20001e004000f7
:1028d800104078000141780080407800c0cdb300f6
:1028e800aa1607001e0090000000e80010079800d4
:1028f8001e8fe8009e007800700d2000808f500029
:10290800e1ff3600761607001e0090000080fa00ee
:10291800000006000400fa00100798000000eb0011
:10292800000f78000a0037001e0078000000400001
:10293800b006b0009e0078001e01900081004100a2
:1029480011417800a19a2000827078001e0fe800db
:102958001e007800e10f5000f3ff36000080fa00f7
:10296800000006000200fa00004f780011479800a6
:1029780070a220001e48780090a220009e4090007f
:10298800014878000080fa00000006000200fa0002
:10299800004f780011479800b0a220001e48780028
:1029a800d0a220009e409000014878000080fa00e4
:1029b800000006000200fa00004f78001147980056
:1029c800f0a220001e48780010a320009e4090002e
:1029d800014878000080fa00000006000200fa00b2
:1029e800004f78009e407800400020000008dd007d
:1029f800ef40400070a42000014878000080fa00f1
:102a0800000006000200fa00004f78001147980005
:102a18009e407800400020008008dd001e409000a5
:102a28006f40600080c0400090a4200001487800fa
:102a38000080fa00000006000200fa00004f78004b
:102a4800114798009e409000400020008008dd005b
:102a58001e4178006f40610080c04000b0a4200093
:102a6800014878000080fa00000006000400fa001f
:102a7800008fbe001e00be004088de00cf80de0052
:102a880080407800d0a42000014878001e00be00d5
:102a98004809dd004800de0000007100c888de003b
:102aa80080407800f0a42000014878001e007800db
:102ab8008040780010a52000014878000080fa00c6
:102ac800000006000200fa00004f780030a5200040
:102ad8001e4878000080fa00000006000400fa0092
:102ae800000f7800110798001e0078004800de00eb
:102af8008040780090a52000014878001e007800ea
:102b080080407800b0a52000014878001e009000a1
:102b18004800de0080407800d0a5200001487800f9
:102b28001e00900080407800f0a520000148780041
:102b38000080fa00000006000600fa00004f780046
:102b48001147980022479800334798004447980057
:102b58005547980010a62000ae4090000148780024
:102b680030a62000be4090000148780050a6200002
:102b78001e48780070a620009e409000014878000a
:102b880090a62000ce40900001487800b0a6200012
:102b9800de409000014878000080fa00000006003e
:102ba8000800fa00000f7800110798002207980023
:102bb80033079800210d20001e8f40001e00900052
:102bc800200db000100798002e009000670040000c
:102bd800200798003e0090006700400030079800ea
:102be8009e00900020352000808f500002003600a3
:102bf8000080eb0047003700be009000701e2000e8
:102c0800808f5000020036000080eb004100370042
:102c18001e0090009e007800808f50000400310054
:102c2800ae0090003e009000808f500002003900f6
:102c38000080eb0037003700501a20009e00780013
:102c4800808f50000c0036009e00900090272000d6
:102c5800808f500008003e00ae009000700a2000ef
:102c6800808f500004003600be00900060142000e1
:102c7800808f5000020036000080eb0025003700ee
:102c88001e0078004800de0080407800d0a62000b2
:102c9800014878001e00780080407800f0a62000e7
:102ca800014878001e0090004800de00804078004f
:102cb80010a72000014878001e009000804078008e
:102cc80030a72000014878002e0090004800de0060
:102cd8008040780050a72000014878002e0090001e
:102ce8008040780070a72000014878003e009000de
:102cf8004800de008040780090a720000148780056
:102d08003e00900080407800b0a72000014878007d
:102d18000000eb000080fa00000006000600fa0040
:102d280010079800210798001e0090000000e0009e
:102d3800060032002e0090000000e0000300320080
:102d4800c0c3b300004f78000e0037001e0090008b
:102d58000000e00003003200c0c2b300004f78005a
:102d6800080037002e0090000000e0000300320049
:102d7800c0c1b300004f780002003700c0c0b300e4
:102d8800004f78009e407800d0a7200001487800c6
:102d98000080fa00000006000200fa00000f780028
:102da8001e0078000000e00007003200109e20009e
:102db80010407800804078000174a100109e200027
:102dc8000148780006003700109e200090407800e7
:102dd80000c8b30080c07000109e20000148780031
:102de8000080fa00000006000400fa00000f7800d6
:102df800110798001e0078000000e000070032006c
:102e0800109e200090407800f0cbb30080c0600096
:102e1800109e20000148780006003700109e200010
:102e28009040780000c4b30080c07000109e20005d
:102e3800014878001e0090000000e0000700320002
:102e4800109e200090407800f0cdb30080c0600054
:102e5800109e20000148780006003700109e2000d0
:102e68009040780000c2b30080c07000109e20001f
:102e7800014878000080fa00000006000400fa000b
:102e8800709d2000104078000080fb0001032000a6
:102e9800810f50002800320001032000810f5000ec
:102ea80008003c00f00f50001b0032000102200017
:102eb800810f50001c0032000000e00012003200b8
:102ec8003100370001052000810f50002200320038
:102ed80001052000810f500004003c00010420007f
:102ee800810f50001800320027003700010620002b
:102ef800810f50001c00320001072000810f500094
:102f08001d003200200037000000280001072000c3
:102f1800008fbe001e00370000002000610920005d
:102f2800008fbe001a003700000024008103200033
:102f3800008fbe001600370000002200c1012000eb
:102f4800008fbe001200370000002100e1002000c1
:102f5800008fbe000e0037000080200071002000a6
:102f6800008fbe000a003700004028003100200012
:102f7800008fbe000600370000202c001100200042
:102f8800008fbe00020037006000b800090037005b
:102f9800d09e200010407800ec4f500004003a000a
:102fa8001e00be000000400081804800008fbe0067
:102fb8001e00be000080fa00000006000e00fa00a5
:102fc8002007980031079800420798005307980097
:102fd800640798005e0090000000e00003003500e0
:102fe8005e009000e30f5000020034000080eb0008
:102ff800590037006e0090000000e0000300350023
:103008006e009000e30f5000020034000080eb00d7
:103018005100370099ff0700626a20000289b90051
:10302800020178006002b9008401780003014100c0
:10303800636a20000300b8000101410082007800a3
:103048002e019000cf91de00e1f50700000f780017
:103058008aff0700626a20000289b900020178002d
:103068006002b9008401780003014100636a20000e
:103078000300b80001014100820078003e01900081
:10308800cf91de00d2f50700100798001e007800e7
:103098004800de0080407800509e200001487800fb
:1030a8001e00780080407800709e2000014878005b
:1030b8001e0090004800de0080407800909e2000ae
:1030c800014878001e00900080407800b09e2000e3
:1030d800014878004e0090000000e0000700320030
:1030e800109e200010407800804078000144a00025
:1030f800109e20000148780006003700109e20002e
:1031080090407800f0ceb30080c06000109e200090
:10311800014878006e00900000407800e3406000ad
:103128005e009000004078006341600020002000ad
:103138000010dd0080c04000109e20001041780083
:1031480000cfb3000040610080c04000109e200006
:10315800014878000000eb000080fa00000006003b
:103168000000fa00de42a800de62a900c004800068
:103178000040a1000050a1000060a000c004880029
:10318800c00480000080a1000090a10000a0a00061
:10319800c00488008520a9008d20a8008540a900ca
:1031a8008d40a8000c22ef000e22ef0070002000d6
:1031b800a01088000de2a8000f42a8000080fa00c5
:1031c800000006000000fa00de82a800dea2a900c6
:1031d80070002000f0108800b01080000010a100de
:1031e8000020a100b01088001602a90018a2a900aa
:1031f800000580000000a1000010a1000020a00030
:1032080000058800000580000040a1000050a100d2
:103218000060a0000005880019e2a8001942a80073
:10322800c01080000060a1000070a100c0108800dc
:103238000080fa00000006000000fa000fe2a90072
:103248000f42a800701080000060a1000070a1006b
:10325800701088000de2a8000080fa000000060047
:103268000000fa0019e2a9001942a800c010800065
:103278000060a1000070a100c010880017e2a8003b
:103288000080fa00000006000200fa00000f780033
:103298009e007800f14088000080fa0000000600d7
:1032a8000200fa00000f78009e00780001418800b3
:1032b8000080fa00000006000800fa0020079800c5
:1032c80031079800600020009a1407001007980042
:1032d8001e0090000000e0002d0032003e0090002b
:1032e80094140700800078001e0090000108780000
:1032f8001e009000100078000000e00003003a0073
:103308001e00900097140700220037001e0090004e
:10331800100078003e019000800078002e00900098
:10332800981407001e009000be009000110098003d
:103338001e0090008000eb002100980010418000e2
:103348000000e00004003a009e009000114188004f
:10335800fa0007000f00370011418000010f7800c4
:10336800030037001e007800a0009000010f7800cd
:103378001e007800200090000000e000f9ff3a00ed
:103388001e0078009e009000210098000100370080
:10339800000000000080fa00000006000800fa00a3
:1033a800200798003107980060002000611407008a
:1033b800100798001e0090000000e0002d00320069
:1033c8003e0090005b140700800078001e0090000b
:1033d800010878001e009000100078000000e0004e
:1033e80003003a001e0090005e1407002200370018
:1033f8001e009000100078003e01900080007800c8
:103408002e0090005f1407001e009000be00900080
:10341800110098001e0090008000eb002100980029
:10342800204180000000e00004003a009e00900067
:1034380021418800180107000f0037002141800052
:10344800010f7800030037001e007800a0009000ec
:10345800010f78001e007800200090000000e000b6
:10346800f9ff3a001e0078009e00900021009800a5
:1034780001003700000000000080fa00000006008c
:103488003600f800809fbe00829fbe00849fbe0069
:10349800869fbe003400f80000002000a0018800cc
:1034a8000000fa008e0007008520a9000080fa00bd
:1034b8003400f9004f03be004f02be004f01be00aa
:1034c8004f00be003600f900004006003600f80044
:1034d800809fbe00829fbe00849fbe00869fbe0064
:1034e8003400f80000002000a00188000000fa0065
:1034f8007b0007008520a9000080fa003400f9004d
:103508004f03be004f02be004f01be004f00be0079
:103518003600f900004006003600f800809fbe0023
:10352800829fbe00849fbe00869fbe003400f800c4
:1035380000002000a00188000000fa007f000700ba
:103548008540a9000080fa003400f9004f03be004e
:103558004f02be004f01be004f00be003600f9000a
:10356800004006003600f800809fbe00829fbe0023
:10357800849fbe00869fbe003400f8000000200033
:10358800a00188000000fa006c0007008540a9002f
:103598000080fa003400f9004f03be004f02be005d
:1035a8004f01be004f00be003600f9000040060083
:1035b8003600f800809fbe00829fbe00849fbe0038
:1035c800869fbe003400f80000002000a00188009b
:1035d8000000fa008d0007008700a9000080fa00ab
:1035e8003400f9004f03be004f02be004f01be0079
:1035f8004f00be003600f900004006003600f80013
:10360800809fbe00829fbe00849fbe00869fbe0032
:103618003400f80000002000a00188000000fa0033
:103628007a0007008700a9000080fa003400f9003a
:103638004f03be004f02be004f01be004f00be0048
:103648003600f900004006003600f800809fbe00f2
:10365800829fbe00849fbe00869fbe003400f80093
:1036680000002000a00188000000fa008a0007007e
:103678008720a9000080fa003400f9004f03be003b
:103688004f02be004f01be004f00be003600f900d9
:10369800004006003600f800809fbe00829fbe00f2
:1036a800849fbe00869fbe003400f8000000200002
:1036b800a00188000000fa00770007008720a90011
:1036c8000080fa003400f9004f03be004f02be002c
:1036d8004f01be004f00be003600f9000040060052
:1036e8000200fa0070108000620060000000e00034
:1036f8000b0032000e22a9000a003700901080004b
:10370800004f7800f04080000000e0000500320023
:10371800f14080001e4078000100010001003700e0
:103728000000000070108000610060000000e000f0
:10373800f2ff3a000080fa00000006000200fa00da
:10374800104180000000e00026003a002628ef0023
:103758002c0037001041800090009000304180001c
:10376800808f50000b0036001041800090007800d8
:103778003041800000804000104078000080fb004d
:1037880080108800304180000000e8003041880047
:1037980015003700931307002628ef001141800019
:1037a800010f78001041800020009000104188002f
:1037b8001e0078008000eb00210098001e007800b1
:1037c80010007800671307001e00780065130700d3
:1037d80096130700104180000000e0000800320046
:1037e8000100370000000000711080000020200058
:1037f800008060000000e000d6ff320001003700c2
:10380800000000000080fa00000006000200fa0034
:10381800201680004f00de000040780000c0ea005b
:10382800614060000080fb004f00dd002216800030
:10383800f1ff270081006100010070002016880058
:10384800c0108000620060000000e0000b00320041
:103858001822a9000a003700e0108000004f780005
:10386800004180000000e0000500320001418000b6
:103878001e40780001000100010037000000000030
:10388800c0108000610060000000e000f2ff3a0014
:103898000080fa00000006000200fa002500370048
:1038a800204180000000e00002003a002828ef00d4
:1038b80025003700204180009000900040418000a2
:1038c800808f50000b003600204180009000780067
:1038d8004041800000804000104078000080fb00dc
:1038e80080108800404180000000e80040418800c6
:1038f800100037003b1307002828ef002141800003
:10390800010f7800204180002000900020418800ad
:103918001e0078008000eb00210098001e0078004f
:10392800100078000f1307001e0078000d13070021
:103938003e130700c11080000020200000806000b6
:103948000000e000d6ff32000080fa000000060008
:103958000200fa00004f78005d1207001e40780050
:103968000041780031c0b300c0cdb3008712070012
:103978005b1207000080fa00000006000400fa004d
:10398800004f780011479800224798001e407800a1
:10399800efff07004e120700ae4090001e40900057
:1039a8000141780080407800c0cdb300771207004d
:1039b8004b1207000080fa00000006000400fa001d
:1039c80020479800314798002e409000e0ff0700fc
:1039d8003f1207003e40900080407800c0cdb30001
:1039e80043120700004f78003d1207001e40780080
:1039f8000080fa00000006000400fa002047980042
:103a08002e409000d2ff07003112070031c0b300ea
:103a1800c0cdb30036120700004f780030120700ff
:103a28001e80fb000080fa00000006000200fa0079
:103a38000040eb00c6ff070025120700b1c5b30020
:103a4800c0cdb3002a120700004f78009e407800ce
:103a580011479800221207001e4090000074a10030
:103a6800104798009e409000f0cbb30000c0600063
:103a7800104798009e40900070cfb30000c06000cf
:103a880010479800121207001e409000004178006d
:103a9800b1c5b300c0cdb3003c1207001012070037
:103aa8001e80fb000080fa00000006000200fa00f9
:103ab8000040eb00004f7800dcff0700004f780063
:103ac80080c2b300790107001e80fb000080fa0065
:103ad800000006000200fa00004f78001e4178003e
:103ae800a1c6b3000040eb00a4ff07000080fa0065
:103af800000006000200fa00004f78001e4178001e
:103b080071cbb30010c0b3009cff07000080fa001f
:103b1800000006000200fa00004f78001e80fb003b
:103b280001042000810f500012003200010820001b
:103b3800810f50001b00320001022000810f50004d
:103b480024003a0010c0b300eaff07001e417800c5
:103b580031c9b30010c0b30088ff07001e417800c8
:103b680041c9b30010c0b30084ff07000000eb0098
:103b78001900370030c0b300deff07001e4178008f
:103b880031c9b30010c0b3007cff07001e417800a4
:103b980041c9b30010c0b30078ff07000000eb0074
:103ba8000d00370070c0b300d2ff07001e41780037
:103bb80031c9b30010c0b30070ff07001e41780080
:103bc80041c9b30010c0b3006cff07000000eb0050
:103bd800010037000080eb000080fa0000000600ba
:103be8000200fa00004f78001e80fb00010420004c
:103bf800810f50001200320001082000810f500090
:103c08001b00320001022000810f500024003a00fe
:103c18000040eb00b7ff07001e41780031c9b30030
:103c280010c0b30055ff07001e41780041c9b3001a
:103c380010c0b30051ff07000000eb001900370067
:103c480010c0b300abff07001e41780031c9b300b4
:103c580010c0b30049ff07001e41780041c9b300f6
:103c680010c0b30045ff07000000eb000d0037004f
:103c780030c0b3009fff07001e41780031c9b30070
:103c880010c0b3003dff07001e41780041c9b300d2
:103c980010c0b30039ff07000000eb000100370037
:103ca8000080eb000080fa00000006000200fa0025
:103cb800004f7800114798001e80fb00e10f50006c
:103cc8000b003200e20f5000100032000000e0004c
:103cd80015003a0032c4b300e1c4b30010c0b30009
:103ce80026ff07001e4090008aff07000f003700dc
:103cf80002c3b300e1c4b30010c0b3001fff070044
:103d08001e409000b6ff07000800370022c0b3002d
:103d1800e1c4b30010c0b30018ff07001e409000b4
:103d2800afff0700010037000080eb000080fa00b9
:103d3800000006000800fa002007980031079800e4
:103d4800ae0090003e009000808f500002003900c5
:103d58000080eb001c003700be009000703020008f
:103d6800808f5000020036000080eb0016003700fc
:103d78002e0090000000e900200798002e00900017
:103d8800004f78002e0090004800de001047980091
:103d98003e009000204798003e0090004800de005a
:103da800304798001e41780091c0b3000040eb00f6
:103db800f2fe07001e41900081c0b3000040eb00f6
:103dc800eefe07000000eb000080fa00000006008d
:103dd8000400fa00000f7800110798000000eb00bb
:103de8000080fa00000006000800fa00200798008a
:103df80031079800ae0090003e009000808f500080
:103e0800020039000080eb0021003700be0090005e
:103e180030202000808f5000020036000080eb0028
:103e28001b0037002e009000004f78002e009000f5
:103e38004800de00104798003e0090002047980098
:103e48003e0090004800de00304798001e41900078
:103e580001c1b3000040eb00c8fe07001e41780016
:103e680011c1b3000040eb00c4fe07003e419000c2
:103e780021c1b3000040eb00c0fe07002e419000b6
:103e880031c1b3000040eb00bcfe07000000eb00ae
:103e98000080fa00000006000200fa00000f780017
:103ea8001e0078000000e00009003a0002c8b300d4
:103eb80041c0b30010c0b300b0fe070022c0b30079
:103ec80061c0b30010c0b300acfe070001003700aa
:103ed800000000000080fa00000006000600fa005a
:103ee8001007980021079800c1c6b3000040eb00f6
:103ef800b2fe0700004f78001e0090000000e000ae
:103f08000300320000c8b3001e4f700001003700e4
:103f18001e74a1002e0090000000e0000300320093
:103f280000c4b3001e4f700002003700f0cbb3008e
:103f38001e4f60001e417800c1c6b3000040eb0070
:103f48008efe07000080fa00000006000600fa0056
:103f5800100798002107980080c9b300004f780027
:103f68001e0090000000e00001003a001e24a0009e
:103f78002e0090000000e0000a003a001e04a00095
:103f88000041eb0081c4b30020c0b3007bfe0700f2
:103f98000041eb0091c4b30020c0b30077fe0700d6
:103fa8000800370082c0b30081c4b30020c0b3004a
:103fb80072fe0700c2c0b30091c4b30020c0b300b2
:103fc8006efe07001e41780041c0b30020c0b30058
:103fd8006afe07000080fa00000006000400fa00ec
:103fe800004f780011479800224798001e4178003a
:103ff80031c2b3000040eb0060fe07001e41900094
:1040080041c2b3000040eb005cfe07002e41900067
:1040180051c2b3000040eb0058fe07000080fa00d0
:10402800000006000400fa00008fbe001e00be005b
:104038004808de00004078000041780021c1b30044
:1040480020c0b3004dfe07001e00be004008de0081
:10405800004078000041780031c1b30020c0b300af
:1040680046fe07001e00be004809dd004800de00cd
:1040780000007100c808de000040780000417800a8
:1040880041c1b30020c0b3003cfe07001e00780009
:10409800004078000041780051c1b30020c0b3004f
:1040a80036fe07000080fa00000006000200fa0051
:1040b800004f78001e40780000417800e1c9b30045
:1040c80010c0b3002dfe07000080fa0000000600b3
:1040d8000200fa00004f78007d1007001e407800ab
:1040e8000041780031c0b300c0cdb300a71007006d
:1040f8007b1007000080fa00000006000400fa00a8
:10410800004f780011479800224798001e40780019
:10411800efff07006e100700ae4090001e409000b1
:104128000141780080407800c0cdb30097100700a7
:104138006b1007000080fa00000006000400fa0077
:1041480020479800314798002e409000e0ff070074
:104158005f1007003e40900080407800c0cdb3005b
:1041680063100700004f78005d1007001e407800bc
:104178000080fa00000006000200fa00004f7800f4
:104188001e41780011c9b3000040eb00dbff0700b7
:104198000080fa00000006000200fa00004f7800d4
:1041a8001e41780081c6b30010c0b300d3ff0700da
:1041b8000080fa00000006000200fa00004f7800b4
:1041c8001e80fb0001042000810f50001600320001
:1041d80001082000810f5000230032000102200056
:1041e800810f500030003a0010c0b300eaff07000a
:1041f8001e41780001c8b30010c0b300bfff07001c
:104208001e41780011c8b30010c0b300bbff0700ff
:1042180012c0b30021c8b30010c0b300b7ff070035
:104228000000eb002100370030c0b300daff0700c0
:104238001e41780001c8b30010c0b300afff0700eb
:104248001e41780011c8b30010c0b300abff0700cf
:1042580012c0b30021c8b30010c0b300a7ff070005
:104268000000eb001100370070c0b300caff070060
:104278001e41780001c8b30010c0b3009fff0700bb
:104288001e41780011c8b30010c0b3009bff07009f
:1042980012c0b30021c8b30010c0b30097ff0700d5
:1042a8000000eb00010037000080eb000080fa00fe
:1042b800000006000200fa00004f78001e80fb0094
:1042c80001042000810f5000160032000108200070
:1042d800810f50002300320001022000810f50009e
:1042e80030003a000040eb00abff07001e417800a9
:1042f80001c8b30010c0b30080ff07001e4178005a
:1043080011c8b30010c0b3007cff070012c0b3008f
:1043180021c8b30010c0b30078ff07000000eb000d
:104328002100370010c0b3009bff07001e41780032
:1043380001c8b30010c0b30070ff07001e41780029
:1043480011c8b30010c0b3006cff070012c0b3005f
:1043580021c8b30010c0b30068ff07000000eb00dd
:104368001100370030c0b3008bff07001e417800f2
:1043780001c8b30010c0b30060ff07001e417800f9
:1043880011c8b30010c0b3005cff070012c0b3002f
:1043980021c8b30010c0b30058ff07000000eb00ad
:1043a800010037000080eb000080fa0000000600e2
:1043b8000200fa00004f7800114798001e80fb00a9
:1043c800e10f50000b003200e20f500010003200e5
:1043d8000000e00015003a00d2c0b30081c3b3006a
:1043e80010c0b30045ff07001e40900072ff070091
:1043f8000f00370082c0b30081c3b30010c0b30000
:104408003eff07001e409000aaff07000800370083
:1044180022c0b30081c3b30010c0b30037ff070048
:104428001e409000a3ff0700010037000080eb004a
:104438000080fa00000006000800fa002007980033
:1044480031079800ae0090003e009000808f500029
:10445800020039000080eb001c003700be0090000d
:10446800f0312000808f5000020036000080eb0001
:10447800160037002e0090000000e9002007980081
:104488002e009000004f78002e0090004800de00bb
:10449800104798003e009000204798003e0090008a
:1044a8004800de00304798001e41780011c5b3006f
:1044b80010c0b30011ff07001e41900001c5b300f2
:1044c80010c0b3000dff07000000eb000080fa00e9
:1044d800000006000400fa00000f78001107980099
:1044e8000000eb000080fa00000006000800fa0057
:1044f8002007980031079800ae0090003e00900019
:10450800808f5000020039000080eb002100370046
:10451800be009000301f2000808f5000020036003f
:104528000080eb001b0037002e009000004f780041
:104538002e0090004800de00104798003e009000d2
:10454800204798003e0090004800de003047980061
:104558001e41900001c6b30010c0b300e7fe07007b
:104568001e41780011c6b30010c0b300e3fe070077
:104578003e41900021c6b30010c0b300dffe070023
:104588002e41900031c6b30010c0b300dbfe070017
:104598000000eb000080fa00000006000200fa00ac
:1045a800000f780012c0b300a1c5b30020c0b3004b
:1045b800d2fe070012c4b30021c3b30010c0b30079
:1045c800cefe07001e0078000000e00011003a004f
:1045d80000c1eb0081c8b30010c0b300c7fe0700dc
:1045e80000c1eb0091c8b30010c0b300c3fe0700c0
:1045f80082c0b300a1c8b30010c0b300bffe07005b
:1046080000c1eb00b1c8b30010c0b300bbfe070087
:104618001000370002c2b30081c8b30010c0b30055
:10462800b6fe070002c8b30091c8b30010c0b300bb
:10463800b2fe070082c0b300a1c8b30010c0b30027
:10464800aefe070000c1eb00b1c8b30010c0b30054
:10465800aafe07000080fa00000006000600fa0023
:10466800100798002107980001c9b3000040eb002b
:10467800b2fe0700004f78001e0090000000e00026
:104688000300320000c8b3001e4f7000010037005d
:104698001e74a1002e0090000000e000030032000c
:1046a80000c4b3001e4f700002003700f0cbb30007
:1046b8001e4f60001e41780001c9b3000040eb00a6
:1046c8008efe07000080fa00000006000600fa00cf
:1046d800100798002107980080c9b300004f7800a0
:1046e8001e0090000000e00001003a001e24a00017
:1046f8002e0090000000e0000a003a001e04a0000e
:104708000041eb0051c5b30020c0b3007bfe070099
:104718000041eb0061c5b30020c0b30077fe07007d
:104728000800370082c0b30051c5b30020c0b300f1
:1047380072fe0700c2c0b30061c5b30020c0b30059
:104748006efe07001e41780041c0b30020c0b300d0
:104758006afe07000080fa00000006000400fa0064
:10476800004f780011479800224798001e417800b2
:1047780041cab30020c0b30060fe07001e4190008c
:1047880051cab30020c0b3005cfe07002e41900060
:1047980061cab30020c0b30058fe07000080fa00c9
:1047a800000006000400fa00008fbe001e00be00d4
:1047b8004808de000040780000417800c1c2b3001c
:1047c80020c0b3004dfe07001e00be004008de00fa
:1047d8000040780000417800d1c2b30020c0b30087
:1047e80046fe07001e00be004809dd004800de0046
:1047f80000007100c808de00004078000041780021
:10480800e1c2b30020c0b3003cfe07001e007800e0
:104818000040780000417800f1c2b30020c0b30026
:1048280036fe07000080fa00000006000a00fa00c1
:10483800200798003107980042079800560e070095
:104848002e0090005d010700100798001e009000e0
:104858000000e00002003a000040eb0012003700c0
:104868001e00900090009000010f780009003700aa
:104878001e00780010007800ce0190003e019000e4
:10488800ae00900018f407001e0078009000900019
:10489800010f78001e0078000000e000f4ff3a00e5
:1048a800430e070010c0b3000080fa0000000600a5
:1048b8000800fa003007980061428000010f780074
:1048c80061428000110798000000eb002007980063
:1048d8000c0037001e007800900078003e00900021
:1048e800808f500002003a000040eb00240037009f
:1048f8009e009000010f78001e007800a000900034
:10490800110798001e0090000000e000f1ff3a0037
:1049180060002000070f0700200798002e00900075
:104928000000e00002003a000040eb0014003700ed
:104938002e009000be009000010878002e00900024
:104948008000eb00110098002e0090008000eb0022
:1049580021009800604280000000e00004003a0056
:10496800ae0090006142880010c0b3000400370018
:104978001e007800ae0090002100980010c0b3001f
:104988000080fa00000006000e00fa0030079800c8
:104998004107980052079800630798006142800019
:1049a800010f7800430037001e007800900078005f
:1049b8003e009000808f50003b003a00ee019000ce
:1049c8005e019000be0090004e00900069f3070061
:1049d8000004a2000004e000020032000040eb00e6
:1049e800380037001e0078009000900011079800ea
:1049f8000a0037001e009000900078004e009000da
:104a0800808f500002003a0010c0b3002d0037001c
:104a18001e00900090009000110798001e00900062
:104a28000000e000040032001e009000100090001a
:104a38000000e000efff3a0040002000bd0e070034
:104a4800200798002e0090000000e00002003a00c5
:104a58000040eb001b0037002e009000ce009000b5
:104a6800010878002e0090008000eb0011009800eb
:104a78001e007800100090000000e00005003a00d9
:104a88001e007800ae0090001100980010c0b3001e
:104a98000c0037001e009000ae0090001100980036
:104aa80010c0b300070037001e007800a000900077
:104ab800010f78001e0078000000e000baff3a00fd
:104ac8000040eb000080fa00000006000e00fa002b
:104ad8006007980061428000010f78006142800001
:104ae80011079800604280000000e0003b0032009f
:104af8001e007800900078006e009000808f5000b3
:104b080032003a001e0078002000900060428800c1
:104b18001e007800900090002107980007003700d9
:104b2800ae009000410798002e0090009000900081
:104b3800210798004e0090008a0e07002e00900072
:104b48000000e000f6ff3a006e0090004df4070008
:104b5800230037001e009000900078006e0090003f
:104b6800808f500014003a001e00780090009000da
:104b78003107980007003700be00900051079800e1
:104b88003e00900090009000310798005e00900071
:104b9800740e07003e0090000000e000f6ff3a00a7
:104ba8006e00900037f407001e009000a0009000ef
:104bb800010f78000a0037009e009000010f78006e
:104bc8001e009000a0009000110798001e009000a1
:104bd8000000e000dfff3a0001003700000000009d
:104be8000080fa00000006000a00fa00300798006a
:104bf800410798003e0090007000070020079800c9
:104c08002e00900090009000010f78002e00900078
:104c180010009000900078004e009000808f5000a7
:104c28000c003a002e0090001000900090009000b8
:104c38002e009000110098001e007800490e070011
:104c48000001eb00be0090004e00900020f4070029
:104c58001d0037002e00900010009000900090007a
:104c680011079800150037001e009000900078008a
:104c78004e009000808f50000b003a001e009000fc
:104c8800900090001e007800110098001e0090000f
:104c9800340e07000001eb00be0090004e009000ab
:104ca8000bf40700080037009e009000010f780001
:104cb8001e00900090009000110798001e009000c0
:104cc8000000e000e8ff3a000080fa00000006005b
:104cd8000c00fa0030079800410798005207980026
:104ce8003e00900035000700200798002e00900035
:104cf80090009000010f78002e00900010009000a6
:104d0800900078005e009000808f50000c003a0000
:104d18002e00900010009000900090002e0090004f
:104d2800110098001e0078000e0e07004e0190003a
:104d3800be0090005e009000e5f307001d003700fc
:104d48002e0090001000900090009000110798002d
:104d5800150037001e009000900078005e0090005b
:104d6800808f50000b003a001e00900090009000c9
:104d78001e007800110098001e009000f90d070031
:104d88004e019000be0090005e009000d0f3070036
:104d9800080037009e009000010f78001e00900068
:104da80090009000110798001e0090000000e0009d
:104db800e8ff3a000080fa00000006000400fa004c
:104dc8001007980061428000010f78000a00370040
:104dd8001e007800900078001e009000808f500020
:104de80002003a001e007800070037001e00780015
:104df800a0009000010f78001e0078000000e0007d
:104e0800f3ff3a000000eb000080fa000000060003
:104e18000400fa001007980061428000010f780032
:104e28000a0037001e007800900078001e009000ed
:104e3800808f500002003a0010c0b300070037000e
:104e48001e007800a0009000010f78001e00780076
:104e58000000e000f3ff3a000040eb000080fa0099
:104e6800000006000800fa00300798006142800040
:104e780021079800350037002e0090009000900020
:104e8800010f78002e00900010009000900078002c
:104e98003e009000808f50000e003a002e009000d7
:104ea80010009000900090002e00900011009800d3
:104eb8001e007800ab0d07002e009000100078004f
:104ec8000001eb00800078003e00900080f30700ae
:104ed8001e0037001e00780090009000110798000f
:104ee800170037001e009000900078003e009000e8
:104ef800808f50000d003a001e0090009000900036
:104f08001e007800110098001e009000950d070003
:104f18002e009000100078000001eb00800078005f
:104f28003e0090006af30700080037009e009000da
:104f3800010f78001e009000900090001107980063
:104f48001e0090000000e000e6ff3a002e009000ee
:104f58000000e000c8ff3a000080fa0000000600e8
:104f68000000fa00000000003010800061006000be
:104f78000000e000fcff3a00301080006400600090
:104f88000000e000f8ff3a00301080006800600080
:104f98000000e000f4ff3a0030108000700060006c
:104fa8000000e000f0ff3a004110800000002400fb
:104fb800008060000000e000ebff3a000080fa008b
:104fc800000006000400fa00600920002010880094
:104fd80007e2a90007e2a80085c0a90085a0a900ea
:104fe800d00480000080a0000090a10000a0a000d4
:104ff800d00488008da0a9000071220001002000c3
:10500800008fbe00040037000081eb008081eb00b8
:105018001e0f41005e9749001e00be00e00f5000c1
:10502800e08f5800f8ff3a0010c0b3000080fa0083
:10503800000006000000fa0007e2a90085c0a900e8
:1050480085a0a9008dc0a9008da0a90010c0b3003b
:105058000080fa00000006000400fa006000b800b2
:10506800008fbe0007e2a90085c0a90085a0a9009d
:105078008da0a9000822ef00007122000100200085
:10508800008fbe00040037000081eb008081eb0038
:105098001e0f41005e9749001e00be00e00f500041
:1050a800e08f5800f8ff3a00c6ff07000f0007001e
:1050b8000071220001002000008fbe0004003700ac
:1050c8000081eb008081eb001e0f41005e974900d4
:1050d8001e00be00e00f5000e08f5800f8ff3a00b5
:1050e80010c0b3000080fa00000006000000fa00bb
:1050f80085c0a9008dc0a80010c0b3000080fa00c8
:10510800000006000000fa0085c0a9008dc0a900b3
:1051180010c0b3000080fa00000006000400fa0086
:1051280010c0b30054e8b700401080007000600061
:105138000000e000140032000602a80000712200fe
:1051480001002000008fbe000900370054c8bf00ce
:105158000004e00002003a0010c0b3000b00370062
:105168000081eb008081eb001e0f41005e97490033
:105178001e00be00e00f5000e08f5800f3ff3a0019
:105188000040eb00010037000040eb000080fa000f
:10519800000006000400fa0060c0b30054e8b7003d
:1051a80040108000680060000000e0001400320039
:1051b8000622a8000071220001002000008fbe0016
:1051c8000900370054c8bf000004e00002003a009c
:1051d80010c0b3000b0037000081eb008081eb00aa
:1051e8001e0f41005e9749001e00be00e00f5000f0
:1051f800e08f5800f3ff3a000040eb000100370051
:105208000040eb000080fa00000006000400fa00ed
:1052180050c0b30054e8b7000642a800007122004d
:1052280001002000008fbe000900370054c8bf00ed
:105238000004e00002003a0010c0b3000900370083
:105248000081eb008081eb001e0f41005e97490052
:105258001e00be00e00f5000e08f5800f3ff3a0038
:105268000040eb000080fa00000006000400fa008d
:1052780030c0b30054e8b70030108000610060000f
:105288000000e00010003a00301080006400600068
:105298000000e0000c003a00301080006800600058
:1052a8000000e00008003a00301080007000600044
:1052b8000000e00004003a00301080006200600046
:1052c8000000e000020032000040eb00140037004c
:1052d80006a2a9000682a800007122000100200091
:1052e800008fbe000900370054c8bf000004e0006a
:1052f80002003a0010c0b300090037000081eb003b
:105308008081eb001e0f41005e9749001e00be0021
:10531800e00f5000e08f5800f3ff3a000040eb0028
:105328000080fa00000006000400fa0030c0b30054
:1053380054e8b70030108000610060000000e00011
:1053480010003a0030108000640060000000e000a7
:105358000c003a0030108000680060000000e00097
:1053680008003a0030108000700060000000e00083
:1053780004003a0030108000620060000000e00085
:10538800020032000040eb001400370006a2a8001b
:105398000682a8000071220001002000008fbe00d4
:1053a8000900370054c8bf000004e00002003a00ba
:1053b80010c0b300090037000081eb008081eb00ca
:1053c8001e0f41005e9749001e00be00e00f50000e
:1053d800e08f5800f3ff3a000040eb000080fa002d
:1053e800000006000800fa0030079800007122004b
:1053f80001002000008fbe000040eb0040479800ed
:1054080040c0b30054e8b70000712200010020003a
:10541800008fbe001c003700301080006100600063
:105428000000e00014003a003010800064006000c2
:105438000000e00010003a003010800068006000b2
:105448000000e0000c003a0030108000700060009e
:105458000000e00008003a0041108000000024002d
:10546800008060000000e00003003a0010c0b300b4
:1054780040479800080037000081eb008081eb006e
:105488001e0f41005e9749001e00be00e00f50004d
:10549800e08f5800e0ff3a004e4090000004e00022
:1054a80002003a000040eb00170037000662a8002f
:1054b800006a280011002000008fbe000d00370090
:1054c80054c8bf000004e00006003a000010800045
:1054d800804078003e0090000148780010c0b3007a
:1054e800090037000081eb008081eb001e0f4100ae
:1054f8005e9749001e00be00e00f5000e08f580084
:10550800efff3a000040eb000080fa0000000600c0
:105518000600fa004047980020c0b30054e8b700de
:105528004e4090000000fb0010108800007122001f
:1055380001002000008fbe000900370054c8bf00da
:105548000004e00002003a0010c0b3000900370070
:105558000081eb008081eb001e0f41005e9749003f
:105568001e00be00e00f5000e08f5800f3ff3a0025
:105578000040eb000080fa00000006003400f8004c
:10558800881f780008002000a80188004f047800d0
:105598000000fa0085c0a9005468ef000080fa00f6
:1055a8003400f900004006000000fa0007e2a900f4
:1055b80085c0a90085a0a9008dc0a9008da0a9005b
:1055c8006009200020108800d00480000080a0001e
:1055d8000090a10000a0a000d004880007e2a80065
:1055e8000080fa00000006000000fa0085c0a9004b
:1055f8008dc0a80007e2a8000080fa00000006009d
:105608000000fa008dc0a9000080fa000000060022
:105618000000fa008dc0a8000080fa000000060013
:105628000000fa0085c0a9008dc0a90007e2a90002
:105638000080fa00000006000000fa004010800018
:10564800700060000000e000010032000602a800bf
:105658000080fa00000006000000fa0040108000f8
:10566800680060000000e000010032000622a80087
:105678000080fa00000006000000fa000642a800b8
:105688000080fa00000006000000fa0030108000d8
:10569800610060000000e00013003a003010800054
:1056a800640060000000e00011003a003010800043
:1056b800680060000000e0000f003a003010800031
:1056c800700060000000e0000d003a00301080001b
:1056d800620060000000e0000b003a0006a2a9008a
:1056e8000682a80009003700000000000700370004
:1056f800000000000500370000000000030037002c
:105708000000000001003700000000000080fa00df
:10571800000006000000fa00301080006100600000
:105728000000e00013003a003010800064006000c0
:105738000000e00011003a003010800068006000ae
:105748000000e0000f003a00301080007000600098
:105758000000e0000d003a00301080006200600098
:105768000000e0000b003a0006a2a8000682a8008c
:1057780009003700000000000700370000000000a3
:10578800050037000000000003003700000000009b
:1057980001003700000000000080fa000000060049
:1057a8000000fa0030108000610060000000e00096
:1057b80013003a0030108000640060000000e00030
:1057c80011003a0030108000680060000000e0001e
:1057d8000f003a0030108000700060000000e00008
:1057e8000d003a0041108000000024000080600095
:1057f8000000e0000a003a000662a800090037002d
:105808000000000007003700000000000500370016
:10581800000000000300370000000000010037000e
:10582800000000000080fa00000006000000fa00f6
:1058380000108000004078000080fa000000060098
:105848000200fa00004f78001e80fb00101088004c
:105858000080fa00000006000400fa001007980013
:105868001e009000100f78001e00900010007800b5
:10587800d00090001e009000010878001e007800fb
:105888008000eb00510098001e007800020007001d
:105898000080fa00000006000400fa0010079800d3
:1058a8000000eb00000f78000e0037009e0090000b
:1058b800010f78001e009000d0009000110798009a
:1058c8001e007800100090000000e0000300320085
:1058d8001e00780010009000220b07001e007800c0
:1058e800200b07001e0090000000e000efff3a00c8
:1058f8000080fa00000006000400fa001007980073
:10590800104280000000e00003003a009e00900072
:10591800114288000d00370011428000010f780005
:10592800030037001e007800d0009000010f7800b7
:105938001e007800500090000000e000f9ff3a00d7
:105948001e0078009e009000510098000080fa0028
:10595800000006000800fa00204798002107980078
:1059680032079800c0002000f20a0700000f7800f4
:105978001e0078000000e000150032001e007800cc
:10598800ae409000014878001e007800ae009000fc
:10599800110098001e007800be00900021009800b9
:1059a8001e0078008000eb00410098001e0078007f
:1059b80011c0b300614098001e0078008000eb0021
:1059c800510098001e007800cbff07000100370047
:1059d800000000000080fa00000006000c00fa0039
:1059e80040479800310798004207980053079800ed
:1059f800c0002000cf0a0700000f78001e007800c2
:105a08000000e00003003a003e009000d50a0700bd
:105a1800310037001e007800ce4090000148780021
:105a28001e007800be009000110098001e0078004b
:105a3800ce009000210098001e0078008000eb0046
:105a4800410098001e00780011c0b3006140980022
:105a5800c0002000b70a0700100798001e00900039
:105a68000000e00005003a003e009000bd0a070073
:105a78001e007800bb0a0700170037001e007800d8
:105a88009e009000510098001e009000ce409000ab
:105a9800014878001e0090008000eb00110098007b
:105aa8001e0090008000eb00210098001e0090006e
:105ab800de009000410098001e0090008040eb003e
