:020000040000fa
:080000000001040000000000f3
:020000040000fa
:10000800ea010000ba010000c0010000c6010000ba
:10001800cc010000ea010000ea010000ea0100004a
:10002800ea010000ea010000ea010000a81b000044
:10003800ea010000ea010000ea010000141a0000c9
:10004800ea010000ea010000ea010000ea010000fc
:10005800ea010000ea010000560f0000ea01000072
:10006800ea010000ea010000ea010000ea010000dc
:10007800ea010000ea010000ea010000ea010000cc
:10008800ea010000ea010000ea010000ea010000bc
:10009800ea010000ea010000ea010000ea010000ac
:1000a800ea010000ea010000ea010000ea0100009c
:1000b800ea010000ea010000ea010000ea0100008c
:1000c800ea010000ea010000ea010000ea0100007c
:1000d800ea010000ea010000ea010000ea0100006c
:1000e800ea010000ea010000ea010000ea0100005c
:0800f800ea010000ea0100002a
:020000040000fa
:10010800ea010000d2010000d8010000de01000071
:10011800e4010000ea010000ea010000ea01000031
:10012800ea010000ea010000ea010000c41b000027
:10013800ea010000ea010000ea010000301a0000ac
:10014800ea010000ea010000ea010000ea010000fb
:10015800ea010000ea010000560f0000ea01000071
:10016800ea010000ea010000ea010000ea010000db
:10017800ea010000ea010000ea010000ea010000cb
:10018800ea010000ea010000ea010000ea010000bb
:10019800ea010000ea010000ea010000ea010000ab
:1001a800ea010000ea010000ea010000ea0100009b
:1001b800ea010000ea010000ea010000ea0100008b
:1001c800ea010000ea010000ea010000ea0100007b
:1001d800ea010000ea010000ea010000ea0100006b
:1001e800ea010000ea010000ea010000ea0100005b
:0801f800ea010000ea01000029
:020000040000fa
:10020000afc320000e7f22000e0188000000000016
:10021000000020000000e000020032000001200089
:10022000200288000c00070040d2210001002000bd
:1002300011000700000020000000e0000200320072
:100240000000020000000000fa1b02000000000095
:100250000040da000000fe004440a9000000200039
:100260000000e0000300320000002000a001880030
:100270004440a8000000060091018800800078003a
:100280000000eb0015003700e280400032a0b4000f
:100290009101ba00e280400032a0b4009102ba009d
:1002a000e280400032a0b4000002eb00472bde00e9
:1002b000f507b200602ce10004003a000059eb00a1
:1002c0008301e900fdff3e00040037006128e100e2
:1002d000010032000082eb00040007001101ba00a7
:1002e0000200e000e8ff3a00000006003159ba00c1
:1002f0008301e9000c0032002159ba008301e900b2
:10030000080032000400e00003003a00e2804000f0
:1003100032a0b400f5ff370011d9ba008301e9001b
:10032000faff3a008100e800e180400032a0b4000a
:1003300000000600060a040000000000761d04000c
:1003400000000000301c040000000000541c0400e9
:10035000000000001618040000000000bc18040093
:100360000000000062190400000000008019040071
:10037000000000000000fa008020a900ffff370005
:100380000000fa008060a900ffff37000000fa00bb
:100390008040a900ffff37000000fa008080a9001c
:1003a000ffff37000000fa008020a900ffff3700a0
:1003b0000000fa008060a900ffff37000000fa008b
:1003c0008040a900ffff37000000fa008080a900ec
:1003d000ffff37000000fa00ffff3700889fbe00d4
:1003e00080047800c0418000e00f500004003a0013
:1003f0000e0007000084eb00e00f500008003500fd
:10040000c8418000e08f540005003200090044001c
:1004100006000700e00f500001003d000084eb00e3
:10042000080078004f04be0000000600e00f5000f6
:1004300004003a00a4832000c44188000002780030
:10044000060037000082eb00a5c32000850f500096
:1004500002003e00c04188000002eb00040078006a
:100460000000060084822000e487470045418000a8
:10047000889fbe008a9fbe008c9fbe008e1f7800a2
:10048000e08f52000b003a0024029800e402420080
:10049000a441880045418800b5418800a4429000ed
:1004a0000504a00025429800e44290000504a00045
:1004b0006542980067044000a483200025002000c6
:1004c0004244de00a9c320004244dd00848454007d
:1004d00005074400110009008504d800dcc3200092
:1004e000a24180000406560080bf9f000e0747000f
:1004f0000003eb00e4054400080646000200370054
:10050000160020000d017800224290006102620076
:10051000020032000a0037001509780092027800c4
:100520002542900061026200fbff32000802410098
:10053000848f520002003900e00f54003f003d005c
:10054000920678000d00a100828f5600edff3e005c
:10055000e10f5300eaff3a000fba9700840f5400ee
:1005600002003600890f540010003900614ab900ba
:10057000b0ff2f00010020006143b80004025000ca
:1005800085825800840f5300858f5b000200350080
:100590000b05780006003700110009000986d80015
:1005a0000982b90004057800010037000e057800c3
:1005b0000a00780089ff0700e10f400005003a00bb
:1005c0000b0578000b00780084ff0700e10f400066
:1005d0002b003200b4418000000a7800b441800052
:1005e00064034200a4429000860f500002003200d3
:1005f0000504a000010037000504a1002542980071
:1006000064055500848220000a0540000a0878002d
:10061000ba418800040d7800b54180000003eb006a
:10062000254290000404a000a442980020429000bb
:100630000404a10024409800b2ff3700a4418800c0
:10064000848f5200070036001403be008042eb0086
:100650008641880097418800120a7800a4418000f2
:100660002542980022429000a74180000404a00087
:100670000709780024419800640041000100370018
:100680000000eb004f0778004f06be004f05be008c
:100690004f04be004f00b10000000600e00f500004
:1006a0000800320064005000a4418000840f500014
:1006b00001003100a0418800204290000404a10004
:1006c0002440980000000600889fbe0000047800c7
:1006d0008a9fbe0081047800e08f540005003a0034
:1006e000e00f54003200320008007800ebff0700f2
:1006f00030003700e00f540004003a000900780091
:1007000058ff0700800478002a0037006402540074
:100710009405780068fa97006102620002003200d6
:1007200008007800ddff0700090078004dff070092
:1007300080047800e08f54001e003200888f54003f
:100740001b00320069bd97008885550009055500da
:10075000c2ddde0042d5de000a0178008b0f5500b5
:10076000010036000b0178004211dd00880078009e
:100770000900780013000700888f54000d00310035
:100780004255dd000a854400880f550009003600f7
:1007900008045500844180009541800042c4de0079
:1007a0004244dd0008844400048cbe000100370090
:1007b00088047800090078004f05be004f04be0091
:1007c000000006000002780002003700315a78006d
:1007d0000201e900e00f5100fcff3a0000000600b2
:020000040000fa
:1007e0000200fa000700370064408000040f780020
:1007f00064408000140a9000644088001e00780065
:100800003d01070064408000e00f5200f6ff3a000f
:100810000700370084408000040f78008440800087
:10082000140a9000844088001e00780032010700fe
:1008300084408000e00f5200f6ff3a000002eb0017
:10084000744088004001200006ff07000002780085
:100850006440880064408000e00f520022003200b3
:10086000644080006802420004007800a60c070083
:10087000644080008002eb007502980066408000b2
:1008800065408000644080008e0078000f00780092
:100890000701800021039800900298003702980019
:1008a000644080008082eb00550298006440800024
:1008b0008002eb00050a9800644080008002eb0093
:1008c000150a9800644080008002eb00050a780059
:1008d000644080008002eb00650298006440800064
:1008e0007440880001003700000000000080fa001a
:1008f000000006000400fa000002eb00040f78007c
:100900006440800014079800040037001e0fe800c0
:100910001e029000940a9000150798001e02900095
:10092000e00f5200f9ff3a0084408000140798005d
:10093000040037001e0fe8001e029000940a900089
:10094000150798001e029000e00f5200f9ff3a00d0
:100950001e027800040078000080fa000000060003
:100960000400fa00000f780011079800144180007d
:100970009e027800840a78000402e800144188008e
:100980001e029000e00f520002003a00840c20008a
:10099000140798009e0278006882420004007800e4
:1009a000590c07001e009000aefe07000002780000
:1009b000840278001e027800750298001e027800fa
:1009c00074029000e00f520002003a000042eb0077
:1009d000130037001e027800740290008402780031
:1009e0001e027800150298001e0278009402900002
:1009f0001e027800250298001e02780094029000e2
:100a00001e029000848242001e0278003502980087
:100a10001e0278008002eb006502980014c0b3004b
:100a2000044078000080fa00000006000400fa008c
:100a300010079800400120008afe0700000278009d
:100a4000040f78001e027800e00f520002003a0006
:100a50000042eb003b0037001e0278008000eb00f4
:100a600004007800beff0700004278000404a200e2
:100a7000e04f5200040032001e00780007ff07001c
:100a80000042eb002f0037001e027800f50f200017
:100a9000550298001e027800e5ab2b004502980035
:100aa0001e0278008002eb00050a98001e02780002
:100ab0008002eb00150a98001e027800a402900044
:100ac0001e027800140390001e027800b403900008
:100ad0001e029000881f7800891f78008a1f780006
:100ae0000e0478008f0478000a0180000507780062
:100af0008607780007018800841f78000000200026
:100b0000801f78000e0378008f02780008077800b5
:100b1000890778000a0188004f057800cf04780023
:100b20004f0478001e027800260298001e0278000a
:100b300015029800c18020001e0078007b0107008c
:100b400014c0b300044078000080fa0000000600e2
:100b50000400fa00100798001e029000e00f5200f7
:100b60002400320074408000940278001e0290003d
:100b7000848f520002003a00210007001e00370057
:100b8000c18020001e0090001c01070000027800b8
:100b9000040f78001e027800e00f520006003200b9
:100ba0001e027800d5ea2d00450298001e0078004c
:100bb0005100070010003700018120001e00900046
:100bc0000e01070000027800040f78001e02780072
:100bd000e00f5200080032001e027800d5ea2d0016
:100be000450298001e007800430007000000000046
:100bf00001003700000000000080fa00000006003d
:100c00000400fa007440800014027800e00f5200e3
:100c10002600320074408000d5ea2d00450298007d
:100c20007440800014027800040078005e08070019
:100c300074408000040a9000e00f52000a003a005d
:100c400074408000040f7800030037001e02780013
:100c5000940a9000050f78001e027800e00f520001
:100c6000faff3a000300370074408000840a9000c5
:100c7000050f78007440800014027800c1802000c5
:100c800004007800dd0007000002780014079800d7
:100c9000218120001e009000240107001e02780020
:100ca00074408800cf0a07000100370000000000f0
:100cb0000080fa00000006000400fa009440800062
:100cc000040f7800070037009e027800150798008f
:100cd0001e027800940a9000050f78001e00900014
:100ce000050007001e027800e00f5200f6ff3a00f0
:100cf0000080fa00000006000200fa00000f7800f1
:100d0000920107001e007800e30307001e0278002e
:100d1000740290000400780060fe07001e02780054
:100d20008002eb00750298001e0078005bfe070051
:100d30008a0107000080fa00000006000000fa00a7
:100d400074408000e00f5200280032004200f8009a
:100d5000801f7800811f7800821f7800831f780031
:100d6000841f7800851f7800861f7800871f780011
:100d7000881f7800891f78008a1f78008b1f7800f1
:100d80008c1f78008d1f78008e1f78002200f800dd
:100d90002800f8003200f8003400f8003600f800af
:100da0003800f8003c00f8003a00f8004000f80075
:100db0003e00f8004400f8000080fe004200f80009
:100dc000801f7800811f7800821f7800831f7800c1
:100dd00075408000744080008e0378000f03780017
:100de000a7029800160298000100370000000000da
:100df0000080fa00000006000600fa00000f7800ec
:100e000011079800220798008018780001007800e8
:100e10000080fa00be1878000f70e100fdff350079
:100e20000007780081077800020188008e1f780093
:100e30000f077800801f7800811f7800821f7800dc
:100e40000080fa00000006000200fa00000f78009f
:100e5000baff07001e027800340390001e027800db
:100e6000940290001e02780024029000060178008f
:100e70008500780004007800dfff070074408000e0
:100e800055552500450298001e027800c4029000c6
:100e9000e4ab2b00848f520008003a00140a0700cc
:100ea0001e0278008082eb00450298001e02780046
:100eb000744088000080fa00004006001e0278009e
:100ec0008082eb00450298001e0278007440880082
:100ed0000080fa00cf0178004f017800cf00780041
:100ee0004f0078004200f90000a0fe004400f90025
:100ef0003e00f9004000f9003a00f9003c00f9001a
:100f00003800f9003600f9003400f9003200f90029
:100f10002800f9002200f9004f077800cf0678007a
:100f20004f067800cf0578004f057800cf04780091
:100f30004f047800cf0378004f037800cf02780089
:100f40004f027800cf0178004f017800cf00780081
:100f50004f0078004200f9000080fa000080fa009b
:100f6000000006000080fa00000006000400fa00fd
:100f70001007980064408000040f78000b003700d1
:100f80001e027800940278001e029000848f5200a6
:100f900003003a001e007800abff07000600370090
:100fa0001e027800940a9000050f78001e02780057
:100fb000e00f5200f2ff3a000080fa000000060045
:100fc0000000fa0074408000140a9000e00f520004
:100fd00004003a0064408000040078009aff070093
:100fe0000400370074408000140a90000400780068
:100ff00095ff07000080fa00000006000800fa00d4
:1010000020079800310798003e02900014027800f3
:10101000e00f520002003a000002eb0040003700ef
:101020003e02900014027800940278002e02900094
:10103000848f520015003a00c40007003e02900061
:1010400094027800150798001e029000940a900000
:101050003e029000050a78003e02900014027800db
:101060008002eb00050a98001e0290008002eb004f
:10107000050a98001e0290008002eb00150a9800f5
:10108000b60007001e029000250037003e029000c7
:1010900014027800940a9000050f78001c003700b5
:1010a0001e027800940278002e029000848f520075
:1010b00014003a00a50007001e027800040a900000
:1010c0009e027800950a9000150a98001e0278008a
:1010d000140a90009e027800850a9000050a980084
:1010e0001e0278008002eb00050a98001e027800bc
:1010f0008002eb00150a9800980007001e02780095
:10110000070037001e027800940a9000050f78004f
:101110001e027800e00f5200e1ff3a000002eb00ef
:10112000040078000080fa00000006000600fa00c3
:1011300010079800210798001e029000e00f52004f
:10114000590032001e0290008002eb00050a980050
:101150001e0290008002eb00150a98002e029000fb
:1011600014027800e00f520004003a002e029000b2
:101170009e029000050a78004c0037002e02900075
:1011800014027800940278001e0290001402780085
:10119000848f5200110036006c0007002e02900070
:1011a000940278001e029000150a98001e0290001a
:1011b0008002eb00050a98002e02900014027800cd
:1011c0009e029000050a98002e0290009e02900058
:1011d000050a780061000700340037002e029000f5
:1011e000140f78001f0037001e027800140a9000c8
:1011f000940278001e02900014027800848f52003e
:1012000015003600510007001e027800940a900075
:101210001e029000150a98001e029000140a900009
:10122000e00f5200040032001e029000140a9000e9
:101230009e029000050a98001e0290009e0278000f
:10124000050a98001e0278009e029000150a980078
:1012500042000700150037001e027800940a900033
:10126000050f78001e027800140a9000e00f52006b
:10127000ddff3a00350007001e0290008002eb00ff
:10128000150a98001e0278009e029000150a980028
:101290001e0290009e027800050a98002f000700a9
:1012a0000000000001003700000000000080fa008c
:1012b000000006000400fa00100798006440800057
:1012c000040f78000a0037001e02780094027800ac
:1012d0001e029000848f520002003a001e02780025
:1012e000170037001e027800940a9000050f78005e
:1012f0001e027800e00f5200f3ff3a0084408000a5
:10130000040f78000a0037001e027800940278006b
:101310001e029000848f520002003a001e027800e4
:10132000070037001e027800940a9000050f78002d
:101330001e027800e00f5200f3ff3a000002eb00bb
:10134000040078000080fa00000006000000fa00a7
:101350001b0907000080fa00000006000000fa00e8
:101360001c0907000080fa00000006000800fa00cf
:101370001007980021079800320798006440800009
:10138000e00f52001c00320064408000140a9000fc
:10139000e00f52001a003200ecff0700c18020006d
:1013a0001e00900015ff070000027800040f78006f
:1013b000018120001e0078005cff07002e009000d5
:1013c00003050700be01900062a020009e0090006f
:1013d0002e009000360507007440800094027800cb
:1013e0001e029000848f520001003a00fd080700a1
:1013f000daff07000300370000000000010037009b
:10140000000000000080fa00000006000c00fa0056
:1014100030079800410798005207980084408000e8
:10142000e00f520002003a0014c0b3002b00370056
:10143000c6ff0700018120003e009000effe07007c
:101440000002780024079800c18020002e00900040
:1014500036ff0700c1ff07002e0290006c02420019
:101460000401780061a020004e0090009a0107005e
:101470000042eb00044f78002e029000e40290003e
:10148000150798000a0037001e02900094027800a9
:101490004e029000848f520002003a0014c0b30044
:1014a000044f78001e029000c402900015079800b7
:1014b0001e029000e00f5200f3ff3a001e42780037
:1014c0000404a200e04f520003003200be0090006e
:1014d0004e0090009105070014c0b300044078004e
:1014e0000080fa00000006000e00fa0030079800a5
:1014f0004107980052079800630798005e02900029
:10150000e00f520002003a0014c0b3003d00370063
:101510003e00900067ff0700000278001407980063
:101520001e029000e00f520002003a000042eb0061
:1015300034003700a0002000cafb0700000278003a
:10154000240798002e029000e00f520002003a009b
:101550000042eb002b0037002e029000ce029000dc
:10156000050a78002e029000de0290001502980015
:101570002e029000ee029000250298002e029000ac
:101580008002eb00450298002e0290008002eb00e2
:10159000350298001e02900064029000e00f520095
:1015a000140032001e029000e4029000050f780043
:1015b000070037001e02780044029000e00f52003e
:1015c000070032001e027800c4029000050f780068
:1015d0001e027800e00f5200f6ff3a0001003700cb
:1015e000000000001e027800ae0290004502980044
:1015f000030037001e029000ae02900065029800c2
:1016000014c0b300044078000080fa000000060017
:101610000600fa0010079800210798001e029000ab
:10162000040f78000a0037001e0278009402780048
:101630002e029000848f520002003a001e027800b1
:10164000070037001e027800c4029000050f7800e2
:101650001e029000e00f5200f3ff3a000002eb0080
:10166000040078000080fa00000006001400fa0070
:101670006007980071079800020f9800130f9800f8
:101680006e0090000bff07000002780044079800ee
:101690004e029000e00f520092003200a440800001
:1016a000e00f52000d003a0028ff07004000200024
:1016b0006cfb070000027800a4408800a440800072
:1016c000e00f520089003200a4408000fe0290002a
:1016d000050a780021ff070023003700a44080009e
:1016e000040f78001e027800940278007e029000b9
:1016f000848f52001b0032001e02780014029000fa
:10170000e00f520010003a0010ff070040002000d8
:1017100054fb070000027800840278001e02780063
:10172000150298001e02780014029000e00f52008b
:10173000700032001e02780014029000fe02900039
:10174000050a7800080037001e0278009402900015
:10175000050f78001e027800e00f5200e1ff3a000a
:1017600001003700000000004e029000e4029000eb
:1017700015079800520037000042eb0044479800dc
:101780001e02900024029000e00f52000700320079
:101790001e029000240290000e0890000400010038
:1017a00000427800444798000200370014c0b3009c
:1017b000444798004e429000e04f520040003200f3
:1017c0006000200027fb0700000278005407980003
:1017d0005e029000e00f5200480032001e0a9000a6
:1017e000e00f5200140032001e0890001dfb07009d
:1017f00000027800840278005e029000050a7800fa
:101800005e02900014027800e00f520003003a00dc
:101810005e009000a1fb0700390037005e029000d7
:10182000140278001e0990008e08900004007800d1
:10183000e4fb0700030037005e0290008002eb002b
:10184000050a78005e0290009e0a9000150298003a
:101850005e0290008002eb00250298001e029000bc
:1018600034029000e00f520004003a001e02900083
:10187000de029000350298000e0037001e02900034
:10188000b402900035079800030037003e02900034
:10189000a4029000350798003e02900024029000b8
:1018a000e00f5200f9ff3a003e029000de02900085
:1018b000250298001e029000c402900015079800af
:1018c000fe0090001e00900051ff0700000278000b
:1018d000140798001e029000e00f5200a6ff3a0085
:1018e000070037000000000005003700000000007e
:1018f0000300370000000000010037000000000076
:101900000080fa00000006000800fa002007980096
:10191000310798003e029000040f78002000370045
:101920001e027800e40290001507980016003700a8
:101930001e029000940278002e029000848f5200c4
:101940000e003a001e02900014029000e00f5200b8
:101950000a0032001e029000140390001e02900044
:10196000b40290001e02780014027800050178008d
:10197000ae00900004007800060001001e029000f6
:10198000c4029000150798001e029000e00f52005c
:10199000e7ff3a001e027800940a9000050f7800d5
:1019a0001e027800e00f5200ddff3a000080fa00ce
:1019b000000006000400fa00a4408000040f780034
:1019c0000002eb00a440880013003700654080004f
:1019d0001e02780014027800850078000400780068
:1019e000c9ff0700854080001e02780014027800bd
:1019f0008500780004007800c3ff07009e0278008d
:101a0000150798001e02780094029000050f7800d8
:101a10001e00900021fb07001e027800e00f52001c
:101a2000eaff3a000080fa00000006000000fa0019
:101a3000e0ff0700340707000080fa0000000600fe
:101a40000400fa001007980064408000040f78003a
:101a5000090037009e0278006c8242000401780081
:101a6000e1ff2f001e0090001b0007001e027800ff
:101a7000940a9000050f78001e027800e00f5200d3
:101a8000f4ff3a000080fa00000006000800fa00a7
:101a90001007980021079800320798001e00900058
:101aa00004fe070000027800040f78001e02780090
:101ab000e00f5200060032009e0278006c82420065
:101ac00004017800be0090002e0090000200070084
:101ad0000080fa00000006000e00fa00400798009f
:101ae00051079800620798006e029000e00f5200c4
:101af000040032006e02900014027800e00f5200e1
:101b000002003a000002eb00480037006e0290002d
:101b100094027800250798002e0290009402780025
:101b20004e029000848f520017003a005e0290002f
:101b3000e20f4200050032002e0290009402900055
:101b40005e029000848f52000f003a002e02900037
:101b5000c4029000350798002e029000c402900045
:101b60006e029000050a78002e0290006602420084
:101b700004007800300007002e009000c7fa07002c
:101b80003e029000290037002e029000040f7800da
:101b90002e029000c4029000150798001e029000cb
:101ba000940278004e029000848f520016003a0092
:101bb0005e029000e20f4200050032002e0290000b
:101bc000940290005e029000848f52000e003a0052
:101bd0001e029000c40290001e0278004502980088
:101be0001e02900066024200040078001200070006
:101bf0001e009000a9fa07001e027800c40290009f
:101c000015079800050037001e029000040f7800a9
:101c10001e029000c4029000150798001e0290005a
:101c2000e00f5200ddff32002e0290000400780029
:101c30000080fa00000006000600fa002007980065
:101c40002e029000140f78002e0290008002eb000c
:101c5000050a78000b0037001e0278001407980070
:101c60001e02900014027800040078008bfa07002e
:101c70001e00900089fa07001e027800a40290005e
:101c8000050f78001e027800e00f5200f2ff3a00c4
:101c90000080fa00000006000600fa002007980005
:101ca0002e029000e4029000050f78002e029000b2
:101cb00014027800040078003b0407000b00370092
:101cc0001e027800140798001e027800c4029000db
:101cd000050f78001e0290006602420004007800a2
:101ce000d5ff07001e0090006cfa07001e02780066
:101cf000e00f5200f2ff3a002e0290008002eb004b
:101d0000650298000080fa00000006000a00fa0050
:101d10003007980041079800744080001402780052
:101d20004e019000be009000040078008ffd070077
:101d300074408000e4029000050f78001e027800d5
:101d400014079800250037001e02780094027800de
:101d50003e029000848f52001b003a001e02780061
:101d6000a40290004e029000848f520016003a00a8
:101d70001e027800b4029000250798001e02900011
:101d80009e0f520005003a00744080009e027800c9
:101d9000c502900065029800040037001e0278001a
:101da000c40290001e029000450298001e027800b6
:101db0008002eb00450298001e00780037fa070009
:101dc0002e029000090037001e02780014079800c8
:101dd0001e027800c4029000050f78001e027800f1
:101de000e00f5200d8ff3a000002eb000400780038
:101df0000080fa00000006000200fa00000f7800e0
:101e00008000eb001e007800c0ff07000002780091
:101e1000040078000080fa00000006000000fa00cc
:101e200007e2a90085c0a90085a0a9008dc0a9006e
:101e30008da0a9006409200024108800d40480002b
:101e40000480a1000490a00004a0a000d404880095
:101e500007e2a8000080fa00000006000000fa0077
:101e600085c0a9008dc0a80007e2a8000080fa0084
:101e7000000006000000fa008dc0a9000080fa00f2
:101e8000000006000000fa008dc0a8000080fa00e3
:101e9000000006000000fa0085c0a9008dc0a9005e
:101ea00007e2a9000080fa00000006003600f800f2
:101eb000809fbe00829fbe00849fbe00869fbe00a2
:101ec0003400f80000002000a00188000200fa00a1
:101ed00085c0a900c4408000050020003600200015
:101ee00007002000860f5200878f5a00ac003e008a
:101ef0000460010003003700140037004000370081
:101f00006e003700d4408000e00f520009003a0014
:101f10004410800070026200e00f520003003200a3
:101f20000002eb00b4408800cd003700e400070059
:101f3000cb00370014002000b440880014002000bb
:101f4000c4408800ce000700c50037004410800060
:101f500068026200e00f52001e00320024002000e0
:101f6000b4408800d4408000e00f520004003a00e2
:101f700074002000b4408800d1000700b80037008a
:101f8000d44080001442780004424200044f78009c
:101f9000d440800064429000e04f520005003200bf
:101fa000e4cfb3001e4f620034002000c44088001c
:101fb000030037001e04a00024002000c440880055
:101fc00044002000b44088001e4078002f01070024
:101fd000a30037004410800070026200e00f52003e
:101fe000030032000002eb00b44088009c00370080
:101ff00074002000b4408800b1000700980037004a
:10200000b4408000e40f520009003a0045108000ff
:102010000400280004826200e00f52000400320035
:1020200034002000b4408800ef0007008c00370027
:10203000b4408000e30f520010003a0044108000ca
:1020400062026200e00f52000c00320064002000c7
:10205000b440880007010700004278001447980048
:10206000d4408000440290001e4090000400010013
:10207000a08120000c010700b8000700b4408000d8
:10208000e60f52004c003a00d4408000e00f5200ae
:1020900004003a0074002000b44088008800070063
:1020a0006f00370014002000c44088001400200096
:1020b000b44088007a00070069003700b44080000f
:1020c000e40f52003e003a00451080000400280052
:1020d00004826200e00f52003b003a0054002000ee
:1020e000b4408800d4408000e00f520004003a0061
:1020f00074002000b44088007100070058003700c9
:10210000d440800014029000e00f520004003a0016
:1021100074002000b44088006900070050003700b8
:10212000d4408000a4029000e4408000848f5200dc
:102130000f003a00a0812000db000700d44080009f
:10214000e00f520004003a0074002000b440880000
:102150005b0007004200370014002000c4408800e4
:1021600014002000b44088004d0007003c003700f8
:1021700044002000b4408800d440800094029000c5
:10218000e440800084824200954278000402e80026
:10219000e440880005407800bc00070030003700ac
:1021a00074002000b440880044002000c44088002f
:1021b000430007000500370000000000030037005f
:1021c000000000000100370000000000b440800063
:1021d000e70f520009003a004410800070026200cc
:1021e000e00f5200050032000002eb00b44088000e
:1021f0000002eb00c4408800190037004510800041
:102200000440200004826200e00f52000a003a00fd
:10221000451080000404200004826200e00f520098
:1022200005003a0045108000040820000482620086
:10223000e00f52000600320074002000b440880015
:1022400044002000c44088001d000700040037003f
:1022500074002000b440880019000700000000004e
:102260000080fa003400f9004f03be004f02be00a8
:102270004f01be004f00be003600f90000400600ce
:102280000000fa004410800070026200e00f52006b
:10229000010032000602a8000080fa0000000600db
:1022a0000000fa004410800068026200e00f520053
:1022b000010032000622a8000080fa00000006009b
:1022c0000000fa000642a8000080fa0000000600a4
:1022d0000000fa003410800061026200e00f52003a
:1022e00013003a003410800064026200e00f5200d4
:1022f00011003a003410800068026200e00f5200c2
:102300000f003a003410800070026200e00f5200ab
:102310000d003a003410800062026200e00f5200ab
:102320000b003a0006a2a9000682a80009003700a7
:102330000000000007003700000000000500370023
:10234000000000000300370000000000010037001b
:10235000000000000080fa00000006000000fa0003
:102360003410800061026200e00f520013003a0056
:102370003410800064026200e00f520011003a0045
:102380003410800068026200e00f52000f003a0033
:102390003410800070026200e00f52000d003a001d
:1023a0003410800062026200e00f52000b003a001d
:1023b00006a2a8000682a80009003700000000005d
:1023c0000700370000000000050037000000000093
:1023d000030037000000000001003700000000008b
:1023e0000080fa00000006000000fa0034108000af
:1023f00061026200e00f520013003a0034108000c6
:1024000064026200e00f520011003a0034108000b4
:1024100068026200e00f52000f003a0034108000a2
:1024200070026200e00f52000d003a00451080007b
:102430000400240004826200e00f52000a003a0007
:102440000662a800090037000000000007003700fe
:102450000000000005003700000000000300370006
:102460000000000001003700000000000080fa00ba
:10247000000006000000fa0004108000044278000a
:10248000044078000080fa00000006000200fa0014
:10249000004f78009e4278000582fb0014108800ef
:1024a0000080fa00000006000400fa0010079800ff
:1024b0001e029000140f78001e0290001402780093
:1024c000d40290001e029000050a78001e027800d7
:1024d0008002eb00550298001e0078000200070001
:1024e0000080fa00000006000400fa0010079800bf
:1024f0000002eb00040f78000f0037001e0290006e
:10250000040f78001e029000d40290001507980076
:102510001e02780014029000e00f52000400320006
:102520001e02780014029000040078005bf8070097
:102530001e00780059f807001e029000e00f5200bc
:10254000eeff3a000080fa00000006000400fa00e6
:1025500010079800d4408000e00f520003003a00ba
:102560001e029000d44088000d003700d540800046
:10257000050f7800030037001e027800d402900097
:10258000050f78001e02780054029000e00f520000
:10259000f9ff3a001e0278009e0290005502980052
:1025a0000080fa00000006000800fa0020479800aa
:1025b0002107980032079800c0002000a9f7070003
:1025c00000027800040f78001e027800e00f52002d
:1025d000150032001e027800ae429000054a7800d5
:1025e0001e027800ae029000150298001e027800cc
:1025f000be029000250298001e0278008002eb00c7
:10260000450298001e02780015c0b300654298008c
:102610001e0278008002eb00550298001e00780030
:10262000caff070001003700000000000080fa0028
:10263000000006000c00fa0040479800310798009f
:102640004207980053079800c000200085f7070054
:1026500000027800040f78001e027800e00f52009c
:1026600003003a003e0090000cf8070032003700eb
:102670001e027800ce429000054a78001e027800c3
:10268000be029000150298001e027800ce02900053
:10269000250298001e0278008002eb004502980097
:1026a0001e02780015c0b30065429800c0002000eb
:1026b0006cf7070000027800140798001e029000d3
:1026c000e00f520005003a003e009000f3f70700cb
:1026d0001e007800f1f70700170037001e0278008f
:1026e0009e029000550298001e029000ce4290007b
:1026f000054a78001e0290008002eb001502980047
:102700001e0290008002eb00250298001e0290003d
:10271000de029000450298001e0290008042eb000d
:10272000654298001e0290008002eb00550298005e
:102730001e00780085ff07000080fa0000000600f8
:102740000a00fa0020079800310798004207980015
:10275000e10307002e0090006701070000027800e7
:10276000140798001e029000e00f520002003a0089
:102770000042eb00130037001e029000940290000c
:10278000050f78000a0037001e0278001402780056
:10279000ce0190003e019000ae0090000400780051
:1027a000b2fb07001e02780094029000050f78002b
:1027b0001e027800e00f5200f3ff3a00cc0307003e
:1027c00014c0b300044078000080fa000000060046
:1027d0000800fa003007980024418000040f7800b8
:1027e00025418000150798000002eb00240798009f
:1027f0000c0037001e027800940278003e02900020
:10280000848f520002003a000042eb00250037009e
:102810001e029000040f78001e027800a4029000af
:10282000150798001e029000e00f5200f1ff3a00d9
:10283000600020000bf707000002780024079800d2
:102840002e029000e00f520002003a000042eb001e
:10285000140037002e029000be029000050a780096
:102860002e0290008002eb00150298002e029000cc
:102870008002eb002502980024418000e00f520006
:1028800004003a002e0290002441880014c0b300d6
:10289000040037001e027800ae0290002502980066
:1028a00014c0b300044078000080fa000000060065
:1028b0000e00fa0030079800410798005207980070
:1028c0006307980024418000040f7800450037001a
:1028d0001e027800940278003e029000848f52001d
:1028e0003d003a00ee0190005e019000be009000b5
:1028f0004e009000fcfa0700004278000404a20099
:10290000e04f5200020032000042eb003900370075
:102910001e02780094029000150798000a00370004
:102920001e029000940278004e029000848f5200a4
:1029300002003a0014c0b3002e0037001e029000bf
:1029400094029000150798001e029000e00f5200bc
:10295000040032001e02900014029000e00f5200aa
:10296000efff3a0040002000bef6070000027800aa
:10297000240798002e029000e00f520002003a0057
:102980000042eb001b0037002e029000ce029000a8
:10299000050a78002e0290008002eb0015029800d4
:1029a0001e02780014029000e00f520005003a0069
:1029b0001e027800ae0290001502980014c0b30009
:1029c0000c0037001e029000ae0290001502980025
:1029d00014c0b300070037001e027800a402900064
:1029e000050f78001e027800e00f5200b8ff3a0091
:1029f0000042eb00044078000080fa00000006006e
:102a00000e00fa006007980024418000040f78004f
:102a1000254180001507980024418000e00f5200f6
:102a20003b0032001e027800940278006e02900093
:102a3000848f520032003a001e0278002402900077
:102a4000244188001e027800940290002507980017
:102a5000070037002e029000440798002e029000d5
:102a600094029000250798004e0090000bf7070095
:102a70002e029000e00f5200f6ff3a006e00900028
:102a8000effb0700230037001e029000940278003d
:102a90006e029000848f520014003a001e027800eb
:102aa0009402900035079800070037003e0290001e
:102ab000540798003e029000940290003507980059
:102ac0005e009000f5f607003e029000e00f520015
:102ad000f6ff3a006e009000d9fb07001e0290003e
:102ae000a4029000050f78000a0037001e02900033
:102af000040f78001e029000a402900015079800b1
:102b00001e029000e00f5200dfff3a000100370084
:102b1000000000000080fa00000006000a00fa0031
:102b200030079800410798003e00900072000700af
:102b300000027800240798002e0290009402900072
:102b4000050f78002e029000140290009402780085
:102b50004e029000848f52000c003a002e0290002a
:102b600014029000940290002e029000150298002a
:102b70001e007800c9f607000001eb00be009000bf
:102b80004e009000c1fb07001d0037002e02900090
:102b90001402900094029000150798001500370069
:102ba0001e029000940278004e029000848f520022
:102bb0000b003a001e029000940290001e02780062
:102bc000150298001e009000b4f607000001eb000b
:102bd000be0090004e009000acfb070008003700dc
:102be0001e029000040f78001e02900094029000d4
:102bf000150798001e029000e00f5200e8ff3a000f
:102c00000080fa00000006000c00fa00300798006f
:102c100041079800520798003e00900036000700d8
:102c200000027800240798002e0290009402900081
:102c3000050f78002e029000140290009402780094
:102c40005e029000848f52000c003a002e02900029
:102c500014029000940290002e0290001502980039
:102c60001e0078008df607004e019000be00900017
:102c70005e00900085fb07001d0037002e029000cb
:102c80001402900094029000150798001500370078
:102c90001e029000940278005e029000848f520021
:102ca0000b003a001e029000940290001e02780071
:102cb000150298001e00900078f607004e01900063
:102cc000be0090005e00900070fb07000800370017
:102cd0001e029000040f78001e02900094029000e3
:102ce000150798001e029000e00f5200e8ff3a001e
:102cf0000080fa00000006000400fa0010079800a7
:102d000024418000040f78000a0037001e0278007a
:102d1000940278001e029000848f520002003a0054
:102d20001e027800070037001e027800a4029000ff
:102d3000050f78001e027800e00f5200f3ff3a0002
:102d40000002eb00040078000080fa00000006009a
:102d50000400fa001007980024418000040f780056
:102d60000a0037001e027800940278001e029000cc
:102d7000848f520002003a0014c0b30007003700ed
:102d80001e027800a4029000050f78001e02780051
:102d9000e00f5200f3ff3a000042eb0004407800dd
:102da0000080fa00000006000800fa0030079800d2
:102db0002441800024079800350037002e0290003f
:102dc00094029000050f78002e02900014029000eb
:102dd000940278003e029000848f52000e003a0068
:102de0002e02900014029000940290002e02900097
:102df000150298001e00780028f607002e029000a9
:102e0000140278000001eb00840078003e0090007e
:102e10001efb07001e0037001e027800940290007f
:102e200015079800170037001e02900094027800e2
:102e30003e029000848f52000d003a001e02900066
:102e4000940290001e027800150298001e00900067
:102e500012f607002e029000140278000001eb0029
:102e6000840078003e00900008fb0700080037004f
:102e70001e029000040f78001e0290009402900041
:102e8000150798001e029000e00f5200e6ff3a007e
:102e90002e029000e00f5200c8ff3a000080fa00b6
:102ea000000006000200fa000042eb00044f780028
:102eb000220107000002eb00044088000002eb0042
:102ec0001440880064812100040078009b01070001
:102ed000004278000404a200e04f520002003200d9
:102ee00014c0b300044f78001e427800e04f520037
:102ef00007003a00c48b2100040078008f0107000e
:102f0000004278000404a200e04f520002003200a8
:102f100014c0b300044f7800200020002cfe0700ee
:102f2000004278000404a200e04f52000200320088
:102f300014c0b300044f78001e427800e04f5200e6
:102f400006003a003000200021fe07000042780011
:102f50000404a200e04f52000200320014c0b3008b
:102f6000044f78001e427800e04f520009003a00fa
:102f70008001eb00229621008000eb002000200061
:102f80004bfe0700004278000404a200e04f52000c
:102f90000200320014c0b300044f78001e427800d3
:102fa000e04f520009003a008001eb000298210036
:102fb0008000eb00300020003dfe0700004278005a
:102fc0000404a200e04f52000200320014c0b3001b
:102fd000044f78001e427800e04f5200110032008a
:102fe000648121000400780082010700c48b210065
:102ff000040078007f0107002000200080fe070009
:10300000300020007efe07008000eb002000200042
:10301000c2fe07008000eb0030002000bffe07006a
:10302000000000000080fa00000006000000fa0026
:1030300004408000e00f520013003d004440800037
:103040000402e9004440880044408000e00f520040
:1030500025003a00a4802000144278000442e900d0
:1030600084407800a080200001487800044080005f
:1030700085502000110009008402d8000002780069
:103080004440880018003700444080000402e900f2
:103090004440880044408000e00f520012003a0093
:1030a000a4802000144278000442e8000443780021
:1030b000a5802000864a7800a48020001442780071
:1030c0006342620084407800a080200001487800bc
:1030d0000440800085502000110009008402d800bf
:1030e0000002780044408800a48020001442780048
:1030f0000482fb00cfa2de00360020000700200083
:10310000860f5200878f5a0019003e0004600100ac
:1031100003003700070037000b0037000f003700af
:10312000d602a900d622a800d642a800d662a900dd
:103130000f003700d602a800d622a900d642a80068
:10314000d662a9000a003700d602a800d622a9003c
:10315000d642a900d662a80005003700d602a90011
:10316000d622a800d642a900d662a800000000001e
:103170000080fa00000006000000fa001440800001
:10318000e00f520013003d00244080000402e900db
:103190002440880024408000e00f520025003a00bf
:1031a00064802000144278000442e90084407800e2
:1031b0006080200001487800044080008550200095
:1031c000110009008402d800000278002440880021
:1031d00018003700244080000402e90024408800e1
:1031e00024408000e00f520012003a00648020006a
:1031f000144278000442e80004437800658020000f
:10320000864a78006480200014427800634262009d
:1032100084407800608020000148780004408000ed
:1032200085502000110009008402d80000027800b7
:103230002440880064802000144278000482fb004f
:10324000cfa2de003600200007002000860f5200cb
:10325000878f5a0019003e00046001000300370008
:10326000070037000b0037000f003700d682a90097
:10327000d6a2a800d6c2a800d6e2a9000f00370047
:10328000d682a800d6a2a900d6c2a800d6e2a9007c
:103290000a003700d682a800d6a2a900d6c2a9008b
:1032a000d6e2a80005003700d682a900d6a2a80061
:1032b000d6c2a900d6e2a800000000000080fa00f3
:1032c000000006000800fa00100798002107980087
:1032d000320798003e029000040f78001e0278002a
:1032e000140278006922b9000402780004408800c2
:1032f00014c0b300044078000080fa00000006000b
:103300000800fa001007980021079800320798007b
:103310003e029000040f78001e027800140278002c
:103320006922b900040278001440880014c0b30078
:10333000044078000080fa00000006000000fa0057
:10334000060007000080fa00000006000000fa00f6
:103350000f0007000080fa00000006000000fa00dd
:103360000002eb0054088800949923007408880038
:103370000002eb0094088800940880000440a0003c
:103380000450a100940888000080fa0000000600a4
:103390000000fa00b5048000040026000502720057
:1033a000b404880013e1a8000080fa0000000600c1
:1033b0000000fa0084e0a9008ce0a90013e1a90054
:1033c0000080fa00000006000000fa00f8ff070085
:1033d0000080fa00000006000000fa0084e0a90066
:1033e0008ce0a80013e1a8000080fa0000000600ad
:1033f0000000fa00f8ff07000080fa000000060055
:103400000000fa0084e0a9000002eb0054088800e4
:103410000080fa00000006000000fa00f8ff070034
:103420000080fa00000006003600f800809fbe0011
:10343000829fbe00849fbe00869fbe000000fa00ef
:103440002e0007000080fa004f03be004f02be00ae
:103450004f01be004f00be003600f90000400600dc
:103460003600f800809fbe00829fbe00849fbe0091
:10347000869fbe000000fa00200007000080fa00ce
:103480004f03be004f02be004f01be004f00be0002
:103490003600f900004006000000fa0084e0a900b0
:1034a0008ce0a9000080fa00000006000000fa008d
:1034b000f9ff07000080fa00000006000000fa0093
:1034c0008ce0a8000080fa00000006000000fa006e
:1034d000faff07000080fa00000006000000fa0072
:1034e00084e0a8000080fa00000006000000fa0056
:1034f000faff07000080fa00000006000200fa0050
:1035000034418000040f7800060037001e02780066
:1035100014027800040001001e027800940290005a
:10352000050f78001e027800e00f5200f7ff3a0006
:10353000b3ff07000080fa00000006000600fa0052
:103540002007980040002000c6f307000002780022
:10355000140798001e029000e00f520002003a008b
:103560000042eb00200037001e029000ae029000e7
:10357000050a78001e0290008002eb0015029800f8
:1035800034418000e00f520004003a001e02900017
:103590003441880014c0b300130037003541800067
:1035a000050f78000c0037001e027800140290000e
:1035b000e00f520005003a001e0278009e029000c3
:1035c0001502980014c0b300070037001e027800ef
:1035d00094029000050f78001e027800e00f520060
:1035e000f1ff3a000042eb00044078000080fa004e
:1035f000000006000600fa00200798003441800011
:10360000040f78003541800015079800140037003a
:103610001e027800940278002e029000848f5200df
:103620000a003a001e027800940290001e029000e8
:10363000150298001e0278008002eb001502980027
:103640001e00780015f40700080037001e027800fd
:10365000140798001e02780094029000050f78006d
:103660001e027800e00f5200e9ff3a000080fa00e5
:10367000000006000200fa00000f78001e02780029
:10368000f44088000002eb000408880004b4200025
:10369000140888000002eb00240888002408800039
:1036a0000440a0000450a000240888000080fa0014
:1036b000000006000000fa00a504800004002500b8
:1036c00005027200a40488000900070005e1a800b3
:1036d0000080fa00000006000000fa008460a900e3
:1036e0008c60a90005e1a9000080fa000000060036
:1036f0000000fa008460a9008c60a80005e1a80021
:103700000080fa00000006000000fa000002eb0052
:10371000040888000080fa00000006000000fa009b
:10372000edff070064f50700f4408000e00f520051
:1037300002003200f4408000040001009df8070000
:10374000f1ff0700eaff07000080fa000000060012
:103750003600f800809fbe00829fbe00849fbe009e
:10376000869fbe000000fa00ecff07000080fa0010
:103770004f03be004f02be004f01be004f00be000f
:103780003600f900004006003600f800809fbe00b9
:10379000829fbe00849fbe00869fbe000000fa008c
:1037a000deff07000080fa004f03be004f02be009c
:1037b0004f01be004f00be003600f9000040060079
:1037c0000000fa008460a9008c60a9000080fa0063
:1037d000000006000000fa008c60a8000080fa00db
:1037e000000006000000fa008460a8000080fa00d3
:1037f000000006000400fa00cd00070004c3210009
:103800000400780089f4070044c521000400780012
:1038100086f40700d2000700d50007001000200042
:1038200075f9070000027800140798000e82e8007e
:103830000400780000f907000002eb00040f780094
:103840001e0fe8009e0278004406200011000900c7
:103850008402d80001027800040f7800f8ff3700d6
:103860000400fa000042eb00044f78000042eb0035
:10387000244798000042eb00144798001e4fe900cf
:103880001e4290000442e800144798001e4278004f
:103890009e4290008582fb0004aab90004027800d1
:1038a00024479800f5ff37000400fa000042eb00bf
:1038b000044f78000042eb00244798000042eb00e0
:1038c000144798000042eb0034479800010037008d
:1038d000000000001e4fe9001e4290000442e80074
:1038e000144798001e4278001e4378008682fb0031
:1038f00004aab90004027800244798002e429000e0
:103900001e4378008682fb0004aab90004027800f6
:10391000144798003e429000e04f5200ecff320006
:103920000001eb008000eb001000200084fb07008a
:10393000e8ff37000000fa00c4c2a800c4e2a900f2
:10394000c522a900c582a900c542a900c5a2a90037
:10395000c5c2a900c5e2a900c0c2a900c0e2a90071
:10396000c122a900c182a900c142a900c1a2a90027
:10397000c1c2a900c1e2a900d022a900cc22a9009d
:10398000d042a900cc42a900e2e2a900e302a900ca
:10399000e802a900e822a900dee2a900df02a900ee
:1039a000e402a900e422a900e202a900de02a900c3
:1039b000d602a900d622a900d642a900d662a90043
:1039c000d682a900d6a2a900d6c2a900d6e2a90033
:1039d000d202a900d222a900d242a900d262a90033
:1039e000d282a900d2a2a900d2c2a900d2e2a90023
:1039f000d1a2a900cda2a900e842a900e862a900cd
:103a0000e442a900e462a900de22a800dec2a80008
:103a1000e4c2a800e4e2a800e502a800e522a800ac
:103a2000d302a800d322a800d342a800d362a800e2
:103a3000d382a800d3a2a800d3c2a800d3e2a800d2
:083a40000080fa0000000600fe
:020000040000fa
:103a48001e0800000200000000000000200800001e
:103a580002000000000000000c0800000a0000003e
:103a68000000000022080000020000000200000020
:103a7800010000002408000002000000000000000f
:103a880026080000020000000000000000080000f6
:103a98000c000000000000001608000008000000ec
:103aa80000000000280800000800000000000000d6
:103ab8003408000002000000000000003608000082
:103ac80002000000000000003008000004000000b0
:103ad800000000003808000002000000000000009c
:043ae80000000000da
:020000040000fa
:103aec000000fa00044180000402e8000441880050
:103afc0030f507000080fa00000006000200fa0012
:103b0c00000f78001e0278001500200015029800a6
:103b1c001e02780055552500050a78000080fa0031
:103b2c00000006000000fa007fff070060d72100ac
:103b3c00cdfe070027f307001000200021fb070033
:103b4c000080fa00000006000000fa000080fa0075
:103b5c00000006000000fa00d3fe07000080fa0007
:103b6c00000006000000fa000080fa0000000600c9
:020000040000fa
:0200000401f009
:04000000e6bf000057
:020000040000fa
:0200000401f009
:04000400ff7f00007a
:020000040000fa
:0200000401f009
:040008007fff000076
:020000040000fa
:0200000401f009
:04001400ffff0000ea
:00000001FF
