:020000040000fa
:080000000001040000000000f3
:020000040000fa
:100008008a020000ba010000d4010000ee010000dd
:10001800080200008a0200008a0200008a0200002a
:100028008a0200008a0200008a02000042130000cf
:100038008a0200008a020000102b0000be27000080
:100048008a02000060180000ac1800008a02000054
:100058008a0200008a020000d82100008a020000fb
:100068008a0200008a0200008a0200008a02000058
:100078008a02000096130000ea1300008a020000ba
:10008800f8180000441900008a0200008a020000e3
:100098008a0200008a0200008a0200008a02000028
:1000a8008a0200008a0200008a0200008a02000018
:1000b8008a0200008a0200008a0200008a02000008
:1000c8008a0200008a0200008a0200008a020000f8
:1000d8008a0200008a0200008a0200008a020000e8
:1000e8008a0200008a0200008a0200008a020000d8
:0800f8008a0200008a020000e8
:020000040000fa
:100108008a020000220200003c02000056020000a1
:10011800700200008a0200008a0200008a020000c1
:100128008a0200008a0200008a0200006c130000a4
:100138008a0200008a0200002c2b0000dc27000045
:100148008a02000086180000d21800008a02000007
:100158008a0200008a020000d82100008a020000fa
:100168008a0200008a0200008a0200008a02000057
:100178008a020000c0130000141400008a02000064
:100188001e1900006a1900008a0200008a02000095
:100198008a0200008a0200008a0200008a02000027
:1001a8008a0200008a0200008a0200008a02000017
:1001b8008a0200008a0200008a0200008a02000007
:1001c8008a0200008a0200008a0200008a020000f7
:1001d8008a0200008a0200008a0200008a020000e7
:1001e8008a0200008a0200008a0200008a020000d7
:0801f8008a0200008a020000e7
:020000040000fa
:10020000ef0521000e7f22000e0188000000000093
:10021000000020000000e000020032000001200089
:10022000200288000c000700c0be22000100200050
:1002300011000700000020000000e0000200320072
:100240000000020000000000ec2802000000000096
:100250000040da000000fe004440a9000000200039
:100260000000e0000300320000002000a001880030
:100270004440a8000000060091018800800078003a
:100280000000eb0015003700e280400032a0b4000f
:100290009101ba00e280400032a0b4009102ba009d
:1002a000e280400032a0b4000002eb00472bde00e9
:1002b000f507b200602ce10004003a000059eb00a1
:1002c0008301e900fdff3e00040037006128e100e2
:1002d000010032000082eb00040007001101ba00a7
:1002e0000200e000e8ff3a00000006003159ba00c1
:1002f0008301e9000c0032002159ba008301e900b2
:10030000080032000400e00003003a00e2804000f0
:1003100032a0b400f5ff370011d9ba008301e9001b
:10032000faff3a008100e800e180400032a0b4000a
:1003300000000600c20a0400000000001e2d040098
:100340000000000034290400000000005c250400c7
:10035000000000001026040000000000c426040075
:1003600000000000dc26040000000000d01504009e
:10037000000000000000fa00d022a800d042a8002f
:10038000c4c2a800c4e2a900c522a900c582a90070
:10039000c542a900c5a2a900c5c2a900c5e2a9001d
:1003a0008020a900ffff37000000fa00d022a8003b
:1003b000d042a800c4c2a800c4e2a800c522a90077
:1003c000c582a900c542a900c5a2a900c5c2a9004d
:1003d000c5e2a9008060a900ffff37000000fa0015
:1003e000d022a800d042a800c4c2a800c4e2a8003d
:1003f000c522a800c582a900c542a900c5a2a900be
:10040000c5c2a900c5e2a9008040a900ffff3700ce
:100410000000fa00d022a800d042a800c4c2a80060
:10042000c4e2a800c522a800c582a800c542a90050
:10043000c5a2a900c5c2a900c5e2a9008080a90083
:10044000ffff37000000fa00d022a800d042a80029
:10045000c4c2a800c4e2a800c522a800c582a800a2
:10046000c542a800c5a2a900c5c2a900c5e2a9004d
:100470008020a900ffff37000000fa00d022a8006a
:10048000d042a800c4c2a800c4e2a800c522a800a7
:10049000c582a800c542a800c5a2a800c5c2a9007f
:1004a000c5e2a9008060a900ffff37000000fa0044
:1004b000d022a800d042a800c4c2a800c4e2a8006c
:1004c000c522a800c582a800c542a800c5a2a800f0
:1004d000c5c2a800c5e2a9008040a900ffff3700ff
:1004e0000000fa00d022a800d042a800c4c2a80090
:1004f000c4e2a800c522a800c582a800c542a80081
:10050000c5a2a800c5c2a800c5e2a8008080a900b5
:10051000ffff37000000fa00d022a800d042a80058
:10052000c4c2a900c4e2a800c522a900c582a800cf
:10053000c542a900c5a2a800c5c2a900c5e2a8007d
:10054000ffff3700889fbe0080047800e0428000f3
:10055000e00f500004003a000e0007000084eb009a
:10056000e00f500008003500e8428000e08f5400a2
:10057000050032000900440006000700e00f5000ab
:1005800001003d000084eb00080078004f04be002d
:1005900000000600e00f500004003a00e48520004f
:1005a000e442880000027800060037000082eb0079
:1005b000e5052100850f500002003e00e042880062
:1005c0000002eb000400780000000600c484200054
:1005d000e487470065428000889fbe008a9fbe0076
:1005e0008c9fbe008e1f7800e08f52000b003a00f7
:1005f00024029800e4024200c44288006542880058
:10060000d5428800a44290000504a000254298002d
:10061000e44290000504a000654298006704400091
:10062000e4852000250020004244de00e905210089
:100630004244dd0084845400050744001100090091
:100640008504d8001c062100c24280000406560022
:1006500080bf9f000e0747000003eb00e405440045
:100660000806460002003700160020000d01780041
:100670002242900061026200020032000a0037004c
:10068000150978009202780025429000610262000c
:10069000fbff320008024100848f52000200390043
:1006a000e00f54003f003d00920678000d00a100cd
:1006b000828f5600edff3e00e10f5300eaff3a0043
:1006c0000fba9700840f540002003600890f5400bf
:1006d00010003900614ab900b0ff2f00010020006e
:1006e0006143b8000402500085825800840f530013
:1006f000858f5b00020035000b057800060037008f
:10070000110009000986d8000982b90004057800a3
:10071000010037000e0578000a00780089ff070005
:10072000e10f400005003a000b0578000b0078004f
:1007300084ff0700e10f40002b003200d44280000c
:10074000000a7800d442800064034200a442900072
:10075000860f5000020032000504a000010037009f
:100760000504a1002542980064055500c4842000ba
:100770000a0540000a087800da428800040d780073
:10078000d54280000003eb00254290000404a00045
:10079000a4429800204290000404a1002440980044
:1007a000b2ff3700c4428800848f52000700360031
:1007b0001403be008042eb00a6428800b7428800c6
:1007c000120a7800c442800025429800224290001c
:1007d000c74280000404a000070978002441980063
:1007e00064004100010037000000eb004f07780073
:1007f0004f06be004f05be004f04be004f00b100c3
:1008000000000600e00f50000800320064005000b5
:10081000c4428000840f500001003100c0428800b3
:10082000204290000404a10024409800000006002b
:10083000889fbe00000478008a9fbe008104780073
:10084000e08f540005003a00e00f540032003200ff
:1008500008007800ebff070030003700e00f54007d
:1008600004003a000900780058ff0700800478006f
:100870002a003700640254009405780068fa970053
:10088000610262000200320008007800ddff07000c
:10089000090078004dff070080047800e08f5400c5
:1008a0001e003200888f54001b00320069bd970083
:1008b0008885550009055500c2ddde0042d5de0001
:1008c0000a0178008b0f5500010036000b017800fb
:1008d0004211dd008800780009007800130007004d
:1008e000888f54000d0031004255dd000a85440018
:1008f000880f55000900360008045500a442800006
:10090000b542800042c4de004244dd000884440059
:10091000048cbe00010037008804780009007800cc
:100920004f05be004f04be00000006000002780024
:1009300002003700315a78000201e900e00f51004f
:08094000fcff3a000000060074
:020000040000fa
:100948000200fa000700370034418000040f7800e5
:1009580034418000140a9000344188001e00780059
:100968003d01070034418000e00f5200f6ff3a00d5
:100978000700370054418000040f7800544180007c
:10098800140a9000544188001e00780032010700c4
:1009980054418000e00f5200f6ff3a000002eb00dd
:1009a8004441880040012000c2130700000278007b
:1009b8003441880034418000e00f520022003200a8
:1009c80034418000680242000400780020140700c7
:1009d800344180008002eb007502980036418000a7
:1009e80035418000344180008e0078000f00780087
:1009f80007018000210398009002980037029800b0
:100a0800344180008082eb00550298003441800018
:100a18008002eb00050a9800344180008002eb0058
:100a2800150a9800344180008002eb00050a78001e
:100a3800344180008002eb00650298003441800058
:100a48004441880001003700000000000080fa00df
:100a5800000006000400fa000002eb00040f780012
:100a68003441800014079800040037001e0fe80086
:100a78001e029000940a9000150798001e0290002c
:100a8800e00f5200f9ff3a00544180001407980023
:100a9800040037001e0fe8001e029000940a900020
:100aa800150798001e029000e00f5200f9ff3a0067
:100ab8001e027800040078000080fa00000006009a
:100ac8000400fa00000f7800110798001442800013
:100ad8009e027800840a78000402e8001442880024
:100ae8001e029000e00f520002003a00840c200021
:100af800140798009e02780068824200040078007b
:100b0800d31307001e0090006a1307000002780044
:100b1800840278001e027800750298001e02780090
:100b280074029000e00f520002003a000042eb000d
:100b3800130037001e0278007402900084027800c7
:100b48001e027800150298001e0278009402900098
:100b58001e027800250298001e0278009402900078
:100b68001e029000848242001e027800350298001e
:100b78001e0278008002eb006502980014c0b300e2
:100b8800044078000080fa00000006000400fa0023
:100b98001007980040012000461307000002780063
:100ba800040f78001e027800e00f520002003a009d
:100bb8000042eb003b0037001e0278008000eb008b
:100bc80004007800beff0700004278000404a20079
:100bd800e04f5200040032001e0078004313070063
:100be8000042eb002f0037001e027800f50f2000ae
:100bf800550298001e027800e5ab2b0045029800cc
:100c08001e0278008002eb00050a98001e02780098
:100c18008002eb00150a98001e027800a4029000da
:100c28001e027800140390001e027800b40390009e
:100c38001e029000881f7800891f78008a1f78009c
:100c48000e0478008f0478000a01800005077800f8
:100c58008607780007018800841f780000002000bc
:100c6800801f78000e0378008f027800080778004c
:100c7800890778000a0188004f057800cf047800ba
:100c88004f0478001e027800260298001e027800a1
:100c980015029800618220001e0078007f0107007d
:100ca80014c0b300044078000080fa000000060079
:100cb8000400fa00100798001e029000e00f52008e
:100cc8002400320044418000940278001e02900003
:100cd800848f520002003a00210007001e003700ee
:100ce800618220001e0090002001070000027800a9
:100cf800040f78001e027800e00f52000600320050
:100d08001e027800d5ea2d00450298001e007800e2
:100d18005100070010003700a18220001e0090003b
:100d28001201070000027800040f78001e02780004
:100d3800e00f5200080032001e027800d5ea2d00ac
:100d4800450298001e0078004300070000000000dc
:100d580001003700000000000080fa0000000600d3
:100d68000400fa004441800014027800e00f5200a9
:100d78002600320044418000d5ea2d004502980043
:100d88004441800014027800040078009e0b07009c
:100d980044418000040a9000e00f52000a003a0023
:100da80044418000040f7800030037001e027800d9
:100db800940a9000050f78001e027800e00f520098
:100dc800faff3a000300370044418000840a90008b
:100dd800050f7800444180001402780061822000e9
:100de80004007800e100070000027800140798006a
:100df800c18220001e009000280107001e02780012
:100e08004441880029120700010037000000000053
:100e18000080fa00000006000400fa006441800027
:100e2800040f7800070037009e0278001507980025
:100e38001e027800940a9000050f78001e009000aa
:100e4800050007001e027800e00f5200f6ff3a0086
:100e58000080fa00000006000200fa00000f780087
:100e6800960107001e007800e80307001e027800bc
:100e780074029000040078009c1207001e0278009b
:100e88008002eb00750298001e0078009712070098
:100e98008e0107000080fa00000006000000fa003a
:100ea80044418000e00f520029003200af120700d1
:100eb8004200f800801f7800811f7800821f7800a8
:100ec800831f7800841f7800851f7800861f7800ac
:100ed800871f7800881f7800891f78008a1f78008c
:100ee8008b1f78008c1f78008d1f78002200f80077
:100ef8002800f8003200f8003400f8003600f80046
:100f08003800f8003c00f8003a00f8004000f8000b
:100f18003e00f8004400f8000080fe004200f8009f
:100f2800801f7800811f7800821f7800831f780057
:100f380045418000444180008e0378000f0378000b
:100f4800a7029800160298009612070001003700c1
:100f5800000000000080fa00000006000600fa0009
:100f6800000f780011079800220798007f120700e9
:100f780080187800010078000080fa00be18780018
:100f88000f70e100fdff3500000778008107780049
:100f9800020188008e1f78000f077800801f7800f4
:100fa800811f7800821f78007e1207000080fa00f7
:100fb800000006000200fa00000f7800b7ff0700e3
:100fc8001e027800340390001e02780094029000fc
:100fd8001e0278002402900006017800850078003f
:100fe80004007800ddff07004441800055552500c6
:100ff800450298001e027800c4029000e4ab2b0062
:10100800848f520008003a006b1107001e02780016
:101018008082eb00450298001e0278004441880057
:101028000080fa00004006001e0278008082eb0073
:10103800450298001e027800444188004b120700c0
:101048000080fa00cf0178004f017800cf007800c7
:101058004f0078004200f90000a0fe004400f900ab
:101068003e00f9004000f9003a00f9003c00f900a0
:101078003800f9003600f9003400f9003200f900b0
:101088002800f9002200f900cf0678004f06780002
:10109800cf0578004f057800cf0478004f0478001a
:1010a800cf0378004f037800cf0278004f02780012
:1010b800cf0178004f017800cf0078004f0078000a
:1010c8004200f900371207000080fa000080fa0099
:1010d800000006000080fa00000006000400fa0084
:1010e8001007980034418000040f78000b00370087
:1010f8001e027800940278001e029000848f52002d
:1011080003003a001e007800aaff07000600370017
:101118001e027800940a9000050f78001e027800dd
:10112800e00f5200f2ff3a000080fa0000000600cb
:101138000000fa0044418000140a9000e00f5200b9
:1011480004003a00344180000400780099ff070049
:101158000400370044418000140a9000040078001d
:1011680094ff07000080fa00000006000800fa005b
:1011780020079800310798003e029000140278007a
:10118800e00f520002003a000002eb004000370076
:101198003e02900014027800940278002e0290001b
:1011a800848f520015003a00c40007003e029000e8
:1011b80094027800150798001e029000940a900087
:1011c8003e029000050a78003e0290001402780062
:1011d8008002eb00050a98001e0290008002eb00d6
:1011e800050a98001e0290008002eb00150a98007c
:1011f800b60007001e029000250037003e0290004e
:1012080014027800940a9000050f78001c0037003b
:101218001e027800940278002e029000848f5200fb
:1012280014003a00a50007001e027800040a900086
:101238009e027800950a9000150a98001e02780010
:10124800140a90009e027800850a9000050a98000a
:101258001e0278008002eb00050a98001e02780042
:101268008002eb00150a9800980007001e0278001b
:10127800070037001e027800940a9000050f7800d6
:101288001e027800e00f5200e1ff3a000002eb0076
:10129800040078000080fa00000006000600fa004a
:1012a80010079800210798001e029000e00f5200d6
:1012b800590032001e0290008002eb00050a9800d7
:1012c8001e0290008002eb00150a98002e02900082
:1012d80014027800e00f520004003a002e02900039
:1012e8009e029000050a78004c0037002e029000fc
:1012f80014027800940278001e029000140278000c
:10130800848f5200110036006c0007002e029000f6
:10131800940278001e029000150a98001e029000a0
:101328008002eb00050a98002e0290001402780053
:101338009e029000050a98002e0290009e029000de
:10134800050a780061000700340037002e0290007b
:10135800140f78001f0037001e027800140a90004e
:10136800940278001e02900014027800848f5200c4
:1013780015003600510007001e027800940a9000fc
:101388001e029000150a98001e029000140a900090
:10139800e00f5200040032001e029000140a900070
:1013a8009e029000050a98001e0290009e02780096
:1013b800050a98001e0278009e029000150a9800ff
:1013c80042000700150037001e027800940a9000ba
:1013d800050f78001e027800140a9000e00f5200f2
:1013e800ddff3a00350007001e0290008002eb0086
:1013f800150a98001e0278009e029000150a9800af
:101408001e0290009e027800050a98002f0007002f
:101418000000000001003700000000000080fa0012
:10142800000006000400fa0010079800344180000c
:10143800040f78000a0037001e0278009402780032
:101448001e029000848f520002003a001e027800ab
:10145800170037001e027800940a9000050f7800e4
:101468001e027800e00f5200f3ff3a00544180005a
:10147800040f78000a0037001e02780094027800f2
:101488001e029000848f520002003a001e0278006b
:10149800070037001e027800940a9000050f7800b4
:1014a8001e027800e00f5200f3ff3a000002eb0042
:1014b800040078000080fa00000006000000fa002e
:1014c800711007000080fa00000006000000fa0012
:1014d800721007000080fa00000006000800fa00f9
:1014e80010079800210798003207980034418000bf
:1014f800e00f52001c00320034418000140a9000b2
:10150800e00f52001a003200ecff07006182200051
:101518001e00900015ff070000027800040f7800f5
:10152800a18220001e0078005cff07002e009000ba
:101538003f080700be01900022ac20009e009000ea
:101548002e00900072080700444180009402780041
:101558001e029000848f520001003a0053100700c9
:10156800daff070003003700000000000100370021
:10157800000000000080fa00000006000c00fa00dd
:10158800300798004107980052079800544180009e
:10159800e00f520002003a0014c0b3002b003700dd
:1015a800c6ff0700a18220003e009000effe070062
:1015b8000002780024079800618220002e00900025
:1015c80036ff0700c1ff07002e0290006c024200a0
:1015d8000401780021ac20004e0090009b01070018
:1015e8000042eb00044f78002e029000e4029000c5
:1015f800150798000a0037001e0290009402780030
:101608004e029000848f520002003a0014c0b300ca
:10161800044f78001e029000c4029000150798003d
:101628001e029000e00f5200f3ff3a001e427800bd
:101638000404a200e04f520003003200be009000f4
:101648004e009000cd08070014c0b3000440780095
:101658000080fa00000006000e00fa00300798002b
:101668004107980052079800630798005e029000af
:10167800e00f520002003a0014c0b3003d003700ea
:101688003e00900067ff07000002780014079800ea
:101698001e029000e00f520002003a000042eb00e8
:1016a80034003700a00020008210070000027800f4
:1016b800240798002e029000e00f520002003a0022
:1016c8000042eb002b0037002e029000ce02900063
:1016d800050a78002e029000de029000150298009c
:1016e8002e029000ee029000250298002e02900033
:1016f8008002eb00450298002e0290008002eb0069
:10170800350298001e02900064029000e00f52001b
:10171800140032001e029000e4029000050f7800c9
:10172800070037001e02780044029000e00f5200c4
:10173800070032001e027800c4029000050f7800ee
:101748001e027800e00f5200f6ff3a000100370051
:10175800000000001e027800ae02900045029800ca
:10176800030037001e029000ae0290006502980048
:1017780014c0b300044078000080fa00000006009e
:101788000600fa0010079800210798001e02900032
:10179800040f78000a0037001e02780094027800cf
:1017a8002e029000848f520002003a001e02780038
:1017b800070037001e027800c4029000050f780069
:1017c8001e029000e00f5200f3ff3a000002eb0007
:1017d800040078000080fa00000006001400fa00f7
:1017e8006007980071079800020f9800130f98007f
:1017f8006e0090000bff0700000278004407980075
:101808004e029000e00f52009300320074418000b5
:10181800e00f52000d003a0028ff070040002000aa
:101828002410070000027800744188007441800089
:10183800e00f52008a00320074418000fe029000de
:10184800050a780021ff0700230037007441800053
:10185800040f78001e027800940278007e0290003f
:10186800848f52001b0032001e0278001402900080
:10187800e00f520010003a0010ff0700400020005f
:101888000c10070000027800840278001e0278001d
:10189800150298001e02780014029000e00f520012
:1018a800710032001e02780014029000fe029000bf
:1018b800050a7800080037001e027800940290009c
:1018c800050f78001e027800e00f5200e1ff3a0091
:1018d80001003700000000004e029000e402900072
:1018e80015079800530037000042eb004447980062
:1018f8001e02900024029000e00f52000700320000
:101908001e029000240290000e08900004000100be
:1019180000427800444798000200370014c0b30022
:10192800444798004e429000e04f52004100320078
:1019380060002000df0f07000002780054079800bd
:101948005e029000e00f5200490032001e0a90002b
:10195800e00f5200150032001e089000d50f070056
:1019680000027800de029000840a78005e0290008f
:1019780014027800e00f520003003a005e00900065
:10198800da0f07003b0037005e029000140278006f
:10199800840278000e0a90001e09900085007800e5
:1019a80004007800d90f0700030037005e0290009a
:1019b8008002eb00050a78005e0290009e0a900003
:1019c800150298005e0290008002eb002502980044
:1019d8001e02900034029000e00f520004003a000a
:1019e8001e029000de029000350298000e003700bb
:1019f8001e029000b40290003507980003003700db
:101a08003e029000a4029000350798003e02900024
:101a180024029000e00f5200f9ff3a003e029000c5
:101a2800de029000250298001e029000c402900079
:101a380015079800fe0090001e00900050ff070058
:101a480000027800140798001e029000e00f520070
:101a5800a5ff3a0007003700000000000500370026
:101a680000000000030037000000000001003700fc
:101a7800000000000080fa00000006000800fa00dc
:101a880020079800310798003e029000040f780064
:101a9800200037001e027800e40290001507980025
:101aa800160037001e029000940278002e02900063
:101ab800848f52000e003a001e029000140290001b
:101ac800e00f52000a0032001e029000140390003a
:101ad8001e029000b40290001e02780014027800e2
:101ae80005017800ae0090000400780006000100af
:101af8001e029000c4029000150798001e02900074
:101b0800e00f5200e7ff3a001e027800940a9000a6
:101b1800050f78001e027800e00f5200ddff3a0042
:101b28000080fa00000006000400fa0074418000fa
:101b3800040f78000002eb0074418800130037009e
:101b4800354180001e027800140278008500780074
:101b580004007800c9ff0700554180001e02780084
:101b6800140278008500780004007800c3ff07009d
:101b78009e027800150798001e02780094029000d3
:101b8800050f78001e009000580f07001e0278000d
:101b9800e00f5200eaff3a000080fa000000060059
:101ba8000000fa00e0ff0700890e07000080fa0035
:101bb800000006000400fa00100798003441800075
:101bc800040f7800090037009e0278006c824200fa
:101bd80004017800e1ff2f001e0090001b000700a1
:101be8001e027800940a9000050f78001e02780003
:101bf800e00f5200f4ff3a000080fa0000000600ef
:101c08000800fa001007980021079800320798008a
:101c18001e00900003fe070000027800040f780001
:101c28001e027800e00f5200060032009e02780083
:101c38006c82420004017800be0090002e009000e3
:101c4800020007000080fa00000006000e00fa00fb
:101c58004007980051079800620798006e029000ac
:101c6800e00f5200040032006e0290001402780067
:101c7800e00f520002003a000002eb004800370073
:101c88006e02900094027800250798002e029000ba
:101c9800940278004e029000848f520017003a0098
:101ca8005e029000e20f4200050032002e02900012
:101cb800940290005e029000848f52000f003a0058
:101cc8002e029000c4029000350798002e02900062
:101cd800c40290006e029000050a78002e0290005f
:101ce8006602420004007800300007002e009000d1
:101cf800fe0e07003e029000290037002e029000d9
:101d0800040f78002e029000c40290001507980076
:101d18001e029000940278004e029000848f5200b8
:101d280016003a005e029000e20f42000500320001
:101d38002e029000940290005e029000848f520060
:101d48000e003a001e029000c40290001e027800a5
:101d5800450298001e0290006602420004007800c6
:101d6800120007001e009000e00e07001e02780017
:101d7800c402900015079800050037001e02900065
:101d8800040f78001e029000c40290001507980006
:101d98001e029000e00f5200ddff32002e0290007c
:101da800040078000080fa00000006000600fa002f
:101db800200798002e029000140f78002e02900041
:101dc8008002eb00050a78000b0037001e0278003d
:101dd800140798001e02900014027800040078008e
:101de800c20e07001e009000c00e07001e027800f9
:101df800a4029000050f78001e027800e00f520040
:101e0800f2ff3a000080fa00000006000600fa001f
:101e1800200798002e029000e4029000050f780039
:101e28002e0290001402780004007800760707005c
:101e38000b0037001e027800140798001e02780075
:101e4800c4029000050f78001e029000660242004e
:101e580004007800d5ff07001e009000a30e0700bd
:101e68001e027800e00f5200f2ff3a002e029000a6
:101e78008002eb00650298000080fa00000006006e
:101e88000a00fa0030079800410798004441800092
:101e9800140278004e019000be0090000400780003
:101ea8008efd070044418000e4029000050f780091
:101eb8001e02780014079800250037001e027800db
:101ec800940278003e029000848f52001b003a0072
:101ed8001e027800a40290004e029000848f5200e7
:101ee80016003a001e027800b402900025079800f8
:101ef8001e0290009e0f520005003a0044418000e7
:101f08009e027800c5029000650298000400370020
:101f18001e027800c40290001e029000450298003c
:101f28001e0278008002eb00450298001e0078002f
:101f38006e0e07002e029000090037001e0278007e
:101f4800140798001e027800c4029000050f78005c
:101f58001e027800e00f5200d8ff3a000002eb00a2
:101f6800040078000080fa00000006000200fa0071
:101f7800000f78008000eb001e007800c0ff07000b
:101f880000027800040078000080fa0000000600d3
:101f98000800fa00204798002107980032079800a7
:101fa8003e0290000402e80004007800410e070099
:101fb80000027800040f78001e027800ae429000fc
:101fc800054a78001e02e8003e019000840078006f
:101fd8002e0090004d0e07000080fa000000060059
:101fe8000800fa00881f7800a50b070040002000b1
:101ff8008f050700004278000404a200e04f520059
:1020080085013a00005d2100210c0700004278009c
:102018000404a200e04f520081013a00d042a80017
:10202800dd0c0700d1a2a9000042eb00044f7800a4
:1020380014408000e00f5200120032000042eb0012
:10204800044f780009003700154080001e437800cf
:102058000682fb0004024200048242001402780057
:1020680004007800210e07001e4fe8001e42780089
:10207800e94f5200f4ff3600144080000400780055
:102088001a0e0700400120000a0e0700000278001f
:102098001440880014408000e00f520062013200b2
:1020a8000042eb00044f78002900370015408000fb
:1020b8001e4378000682fb000402420004844200aa
:1020c800e0012000fb0d070000027800040c7800f6
:1020d800154080001e4378000682fb00040242007f
:1020e8000482420014027800e00f520017003a0000
:1020f8000042eb00144798000042eb001447980098
:102108000b003700154080001e4290000482fb003f
:10211800040242000482420014027800040078009d
:10212800f20d07001e4290000442e8001447980090
:102138001e4290009e4f5200f2ff3900144080006a
:1021480004007800e90d07003a0137001e4fe80047
:102158001e427800e94f5200d4ff36001440800038
:102168003440880024408000e00f52001200320002
:102178000042eb00044f780009003700254080003a
:102188001e4378000682fb000402420004824200db
:102198001402780004007800d40d07001e4fe800f0
:1021a8001e427800e94f5200f4ff360024408000b8
:1021b80004007800cd0d070040012000bd0d070088
:1021c800000278002440880024408000e00f52007c
:1021d800170132000042eb00044f78002900370055
:1021e800254080001e4378000682fb00040242005e
:1021f80004844200e0012000ae0d070000027800d0
:10220800040c7800254080001e4378000682fb00fd
:10221800040242000482420014027800e00f5200d7
:1022280017003a000042eb00244798000042eb00f8
:10223800244798000b003700254080002e4290006c
:102248000482fb0004024200048242001402780067
:1022580004007800a50d07002e4290000442e80013
:10226800244798002e4290009e4f5200f2ff3900fa
:1022780024408000040078009c0d0700ed00370022
:102288001e4fe8001e427800e94f5200d4ff360086
:10229800d1a2a8000002eb00240798000002eb007e
:1022a800340798000002eb00240798004e0037001e
:1022b8000002eb0034079800450037001540800005
:1022c8003e02900004024200048242001403780097
:1022d8002e0290006322b900040278000402430031
:1022e8008042eb00054a7800154080003e029000cd
:1022f8000402420004824200140378002e02900077
:102308006322b90004027800040243008042eb0013
:1023180015429800154080003e02900004024200d9
:1023280004824200140378002e0290006322b90050
:1023380004027800040243008042eb002542980022
:10234800254080003e0290000402420004824200c0
:10235800140378002e0290006322b900040278006a
:10236800040243008042eb00054a780025408000c3
:102378003e029000040242000482420014037800e6
:102388002e0290006322b900040278000402430080
:102398008042eb0015429800254080003e029000e4
:1023a8000402420004824200140378002e029000c6
:1023b8006322b90004027800040243008042eb0063
:1023c800254298003e0290000402e8003407980075
:1023d8003e029000e90f5200b8ff36002e0290002e
:1023e8000402e800240798002e029000e90f52002a
:1023f800afff3600f00b070012c0b30031c0b300c6
:10240800c0cdb300240c07000041eb0001c5b300a8
:10241800c0cdb300200c0700e2c4b30011c5b3005f
:10242800c0cdb3001c0c07000041eb0021c5b30070
:10243800c0cdb300180c070092c3b30031c5b30078
:10244800c0cdb300140c07000041eb0041c5b30038
:10245800c0cdb300100c070082c5b30051c5b3004e
:10246800c0cdb3000c0c07000041eb0061c5b30000
:10247800c0cdb300080c070032c4b30071c5b30067
:10248800c0cdb300040c07000041eb0001c6b30047
:10249800c0cdb300000c070042ceb30011c6b30094
:1024a800c0cdb300fc0b070012c0b30021c6b300b7
:1024b800c0cdb300f80b0700c2c0b30031c6b300eb
:1024c800c0cdb300f40b07000041eb0031c0b300ee
:1024d800c0cdb300f00b070002c5b30011c9b300ab
:1024e800c0cdb300ec0b070012c0b30031c0b3007d
:1024f800c0cdb300e80b070082c0b30081c3b300ae
:10250800c0cdb300e40b070002c8b30001c8b30094
:10251800c0cdb300e00b070002c8b30011c8b30078
:10252800c0cdb300dc0b070012c0b30021c8b30054
:10253800c0cdb300d80b07008c60a9008ea0a900fd
:102548008ec0a9008460a90086a0a90086c0a90041
:10255800a404800004c0a00004d0a10004e0a000ee
:10256800a4048800f40480000440a1000450a000e2
:102578000460a000f4048800f40480000480a00033
:102588000490a00004a0a000f40488000002eb005e
:10259800040888001400200014088800240880001b
:1025a8000440a1000450a1002408880004c1a90027
:1025b8000421a8000441a80005e1a9000002eb00dd
:1025c800a408880014002000d4088800f4088000bb
:1025d8000440a1000450a100f40888001ec1a9000d
:1025e8001e21a8001fe1a9000002eb00c408880012
:1025f80014002000e4088800040980000440a100b9
:102608000450a1000409880020c1a9002021a800c5
:1026180021e1a8000700370000000000050037008e
:102628000000000003003700000000000100370030
:10263800000000004f0478000080fa000000060047
:102648000000fa008460a90086a0a90086c0a9003d
:102658008c60a8008ea0a8008ec0a8000080fa0098
:10266800000006000200fa00000f78001e02780041
:10267800044088000080fa00000006003600f800d8
:10268800809fbe00829fbe00849fbe00869fbe00c2
:102698003400f80000002000a00188000000fa00c3
:1026a8008a0007000002eb00040888008460a90083
:1026b8000080fa003400f9004f03be004f02be004c
:1026c8004f01be004f00be003600f9000040060072
:1026d8003600f800809fbe00829fbe00849fbe0027
:1026e800869fbe003400f80000002000a00188008a
:1026f8000000fa00750007000002eb0004088800db
:102708008460a9000080fa003400f9004f03be007d
:102718004f02be004f01be004f00be003600f90058
:10272800004006003600f800809fbe00829fbe0071
:10273800849fbe00869fbe003400f8000000200081
:10274800a00188000000fa00f00007000002eb007a
:10275800a408880086a0a9000080fa003400f900c7
:102768004f03be004f02be004f01be004f00be0027
:102778003600f900004006003600f800809fbe00d1
:10278800829fbe00849fbe00869fbe003400f80072
:1027980000002000a00188000000fa00db0007000c
:1027a8000002eb00a408880086a0a9000080fa00b7
:1027b8003400f9004f03be004f02be004f01be00b7
:1027c8004f00be003600f900004006003600f80051
:1027d800809fbe00829fbe00849fbe00869fbe0071
:1027e8003400f80000002000a00188000000fa0072
:1027f800d00007000002eb00c408880086c0a900ca
:102808000080fa003400f9004f03be004f02be00fa
:102818004f01be004f00be003600f9000040060020
:102828003600f800809fbe00829fbe00849fbe00d5
:10283800869fbe003400f80000002000a001880038
:102848000000fa00bb0007000002eb00c408880083
:1028580086c0a9000080fa003400f9004f03be00ca
:102868004f02be004f01be004f00be003600f90007
:10287800004006000000fa001fe1a90005e1a900d8
:102888003540800014408000848f520003003a00d5
:102898002440800034408800020037001440800043
:1028a800344088000002eb00444088000002eb003e
:1028b8005440880014c0b30004437800c580200049
:1028c800864a78000080fa00000006000000fa003e
:1028d8007416800070026200e00f520002003a0095
:1028e800e4ff070087003700741680006802620062
:1028f800e00f520007003a0005e1a90044408000bb
:102908000402e800444088000002eb0054408800bc
:102918007c00370054408000e90f52000e0036005a
:1029280044408000e90f520003003600d1ff070041
:10293800c5e2a8007300370005e1a9004440800003
:102948000402e800444088000002eb00544088007c
:10295800c5c2a8006b003700d4802000144278005c
:10296800e04f520032003a00a4168000044278007a
:1029780004437800d5802000864a780035408000de
:10298800444080000402420004824200140378009c
:10299800544080006322b900040278000402430016
:1029a800d5802000954278008582fb00c32ade008e
:1029b80085427800054a7800354080004440800010
:1029c800040242000482420014037800544080004c
:1029d8006322b9000402780004024300d580200075
:1029e800954278008582fb00c32add008542780085
:1029f8008543b2001542980035408000444080006d
:102a0800040242000482420014037800544080000b
:102a18006322b900040278000402430014427800db
:102a2800e04f520036003200c5a2a800350037003a
:102a3800a41680000442780004437800d580200062
:102a4800864a7800354080004440800004024200f5
:102a58000482420014037800544080006322b900c5
:102a6800040278000403430035408000444080009d
:102a7800040242000482420094037800544080001b
:102a88006322b90004027800048243009442900053
:102a9800d4802000144278000482fb004522de0026
:102aa8000442780004c27200144398003540800044
:102ab800444080000402420004824200140378006b
:102ac800544080006322b9000402780004024300e5
:102ad800d580200095427800ffc262002542980008
:102ae8000042eb0004437800d5802000864a780035
:102af800544080000402e800544088000100370078
:102b0800000000000080fa00000006000000fa0043
:102b18007416800070026200e00f520002003a0052
:102b280054ff07000100370005e1a8000080fa0003
:102b3800000006000000fa001fe1a8000080fa006b
:102b4800000006000000fa000042eb000443780091
:102b5800c5802000864a78003540800014408000f7
:102b6800848f5200020032002440800001003700a8
:102b780014408000040078000080fa00000006007d
:102b88000000fa00c4802000144278000440780055
:102b98000080fa00000006000e00fa00f8ff0700a7
:102ba800004278000404a200e04f520071003a008d
:102bb8000002eb00040f78000002eb0014079800f5
:102bc800e0ff070000027800540798000002eb00bd
:102bd800240798000002eb00340798000002eb007d
:102be800440798000002eb001407980038003700eb
:102bf8000002eb00040f78002f0037001e02780057
:102c080004024200de0290000482420014037800ad
:102c18001e0290006322b9000402780004024300f7
:102c280014427800e34f5200030036002e02900051
:102c38000402e800240798001e02780004024200fb
:102c4800de02900004824200140378001e02900005
:102c58006322b90004027800040243009442900001
:102c6800f4c3b30084cf5200030036003e02900044
:102c78000402e800340798001e02780004024200ab
:102c8800de02900004824200140378001e029000c5
:102c98006322b90004027800040243002442900031
:102ca800f34f5200030036004e0290000402e80081
:102cb800440798001e0fe8001e027800e90f520032
:102cc800ceff36001e0290000402e80014079800a8
:102cd8001e029000e90f5200c5ff36000042eb00cb
:102ce800444f9800ae02900024032000848f5200c5
:102cf800050036004e4a90000424a000444f980076
:102d0800c4e2a80001003700c4e2a900be02900096
:102d180024032000848f5200050036004e4a90009c
:102d28000414a000444f9800c522a80001003700f1
:102d3800c522a900ce02900024032000848f5200ef
:102d4800050036004e4a90000404a000444f980045
:102d5800c582a80001003700c582a9006c0247009f
:102d68001200200084007800400020000c020700b8
:102d780001003700000000000080fa000000060093
:102d88000000fa00de42a800de62a900c404800048
:102d98000440a1000450a1000460a000c4048800fd
:102da800c40480000480a1000490a10004a0a00035
:102db800c40488008520a9008d20a8008540a900aa
:102dc8008d40a8000002eb00641088000002eb00b0
:102dd8007410880074002000a41088000de2a80078
:102de8000f42a8000080fa00000006000000fa0068
:102df800de82a800dea2a90074002000f41088007a
:102e0800b41080000410a1000420a100b4108800b0
:102e18001602a90018a2a900040580000400a10058
:102e28000410a1000420a000040588000405800007
:102e38000440a1000450a1000460a000040588001b
:102e480019e2a8001942a800c41080000460a1007b
:102e58000470a100c41088000080fa000000060079
:102e68000000fa000fe2a9000f42a80074108000c9
:102e78000460a1000470a100741088000de2a8008d
:102e88000080fa00000006000000fa0019e2a9001c
:102e98001942a800c41080000460a1000470a100b9
:102ea800c410880017e2a8000080fa00000006009d
:102eb8000200fa00000f78001e027800d440880053
:102ec8000080fa00000006000200fa00000f7800f7
:102ed8001e027800e44088000080fa000000060026
:102ee8000800fa00200798003107980060002000c9
:102ef800700a070000027800140798001e0290006c
:102f0800e00f52002e0032003e009000690a0700d0
:102f180000027800840278001e029000050a7800fa
:102f28001e02900014027800e00f520003003a00dd
:102f38001e0090006d0a0700220037001e02900054
:102f4800140278003e019000840078002e00900062
:102f58006e0a07001e029000be029000150298003b
:102f68001e0290008002eb0025029800f4408000c9
:102f7800e00f520004003a001e029000f44088005e
:102f8800fc0007000f003700f5408000050f7800af
:102f9800030037001e027800a4029000050f780095
:102fa8001e02780024029000e00f5200f9ff3a0058
:102fb8001e0278009e02900025029800010037004a
:102fc800000000000080fa00000006000800fa0077
:102fd800200798003107980060002000350a070094
:102fe80000027800140798001e029000e00f5200bb
:102ff8002e0032003e0090002e0a070000027800e2
:10300800840278001e029000050a78001e029000d3
:1030180014027800e00f520003003a001e009000ee
:10302800320a0700220037001e02900014027800be
:103038003e019000840078002e009000330a0700bb
:103048001e029000be029000150298001e02900019
:103058008002eb002502980004418000e00f520036
:1030680004003a001e029000044188001b0107007a
:103078000f00370005418000050f78000300370076
:103088001e027800a4029000050f78001e02780046
:1030980024029000e00f5200f9ff3a001e02780067
:1030a8009e029000250298000100370000000000f1
:1030b8000080fa00000006003600f800809fbe007d
:1030c800829fbe00849fbe00869fbe003400f80029
:1030d80000002000a00188000000fa008e00070010
:1030e8008520a9000080fa003400f9004f03be00d3
:1030f8004f02be004f01be004f00be003600f9006f
:10310800004006003600f800809fbe00829fbe0087
:10311800849fbe00869fbe003400f8000000200097
:10312800a00188000000fa007b0007008520a900a4
:103138000080fa003400f9004f03be004f02be00c1
:103148004f01be004f00be003600f90000400600e7
:103158003600f800809fbe00829fbe00849fbe009c
:10316800869fbe003400f80000002000a0018800ff
:103178000000fa007f0007008540a9000080fa00df
:103188003400f9004f03be004f02be004f01be00dd
:103198004f00be003600f900004006003600f80077
:1031a800809fbe00829fbe00849fbe00869fbe0097
:1031b8003400f80000002000a00188000000fa0098
:1031c8006c0007008540a9000080fa003400f9006f
:1031d8004f03be004f02be004f01be004f00be00ad
:1031e8003600f900004006003600f800809fbe0057
:1031f800829fbe00849fbe00869fbe003400f800f8
:1032080000002000a00188000000fa0090000700dc
:103218008700a9000080fa003400f9004f03be00bf
:103228004f02be004f01be004f00be003600f9003d
:10323800004006003600f800809fbe00829fbe0056
:10324800849fbe00869fbe003400f8000000200066
:10325800a00188000000fa007d0007008700a9008f
:103268000080fa003400f9004f03be004f02be0090
:103278004f01be004f00be003600f90000400600b6
:103288003600f800809fbe00829fbe00849fbe006b
:10329800869fbe003400f80000002000a0018800ce
:1032a8000000fa008d0007008720a9000080fa00be
:1032b8003400f9004f03be004f02be004f01be00ac
:1032c8004f00be003600f900004006003600f80046
:1032d800809fbe00829fbe00849fbe00869fbe0066
:1032e8003400f80000002000a00188000000fa0067
:1032f8007a0007008720a9000080fa003400f9004e
:103308004f03be004f02be004f01be004f00be007b
:103318003600f900004006000200fa007410800030
:1033280062026200e00f52000b0032000e22a90078
:103338000a00370094108000044f7800d4408000c1
:10334800e00f520005003200d44080001e40780093
:103358000400010001003700000000007410800024
:1033680061026200e00f5200f2ff3a000080fa00aa
:10337800000006000200fa00f4408000e00f52004e
:1033880029003a000002eb00144188002e003700a3
:10339800f44080009402900014418000848f520011
:1033a8000b003600f440800094027800144180003d
:1033b80004824200144278000482fb0084108800d2
:1033c800144180000402e800144188001700370007
:1033d800660907000002eb0014418800f4408000f1
:1033e800040f7800f440800024029000f440880024
:1033f8001e0278008002eb00250298001e02780069
:103408001402780004007800380907001e007800cc
:103418003609070063090700f4408000e00f5200f6
:10342800080032000100370000000000751080001d
:103438000420200004826200e00f5200d4ff320012
:1034480001003700000000000080fa0000000600bc
:103458000200fa00241680004f22de0004427800a1
:1034680004c2ea00614262000482fb004f22dd00d0
:1034780026168000f5ff270085026300050272000a
:1034880024168800c410800062026200e00f520017
:103498000b0032001822a9000a003700e41080004f
:1034a800044f7800e4408000e00f5200050032002d
:1034b800e44080001e40780004000100010037004d
:1034c80000000000c410800061026200e00f52009a
:1034d800f2ff3a000080fa00000006000200fa003d
:1034e8002800370004418000e00f520003003a0032
:1034f8000002eb00244188002700370004418000c7
:103508009402900024418000848f52000b00360002
:103518000441800094027800244180000482420023
:10352800144278000482fb00841088002441800043
:103538000402e80024418800120037000b09070044
:103548000002eb002441880004418000040f780049
:103558000441800024029000044188001e02780083
:103568008002eb00250298001e0278001402780001
:1035780004007800dd0807001e007800db0807005b
:1035880008090700c510800004202000048262009a
:10359800e00f5200d3ff32000080fa00000006005e
:1035a8000a00fa002007980031079800420798009f
:1035b800fb0707002e009000670107000002780053
:1035c800140798001e029000e00f520002003a0013
:1035d8000042eb00130037001e0290009402900096
:1035e800050f78000a0037001e02780014027800e0
:1035f800ce0190003e019000ae00900004007800db
:1036080076f807001e02780094029000050f7800f3
:103618001e027800e00f5200f3ff3a00e6070700a9
:1036280014c0b300044078000080fa0000000600cf
:103638000800fa003007980034428000040f780030
:1036480035428000150798000002eb002407980017
:103658000c0037001e027800940278003e029000a9
:10366800848f520002003a000042eb002500370028
:103678001e029000040f78001e027800a402900039
:10368800150798001e029000e00f5200f1ff3a0063
:1036980060002000870807000002780024079800cf
:1036a8002e029000e00f520002003a000042eb00a8
:1036b800140037002e029000be029000050a780020
:1036c8002e0290008002eb00150298002e02900056
:1036d8008002eb002502980034428000e00f52007f
:1036e80004003a002e0290003442880014c0b3004f
:1036f800040037001e027800ae02900025029800f0
:1037080014c0b300044078000080fa0000000600ee
:103718000e00fa00300798004107980052079800f9
:103728006307980034428000040f78004500370092
:103738001e027800940278003e029000848f5200a6
:103748003d003a00ee0190005e019000be0090003e
:103758004e009000c0f70700004278000404a20061
:10376800e04f5200020032000042eb0039003700ff
:103778001e02780094029000150798000a0037008e
:103788001e029000940278004e029000848f52002e
:1037980002003a0014c0b3002e0037001e02900049
:1037a80094029000150798001e029000e00f520046
:1037b800040032001e02900014029000e00f520034
:1037c800efff3a00400020003a08070000027800a6
:1037d800240798002e029000e00f520002003a00e1
:1037e8000042eb001b0037002e029000ce02900032
:1037f800050a78002e0290008002eb00150298005e
:103808001e02780014029000e00f520005003a00f2
:103818001e027800ae0290001502980014c0b30092
:103828000c0037001e029000ae02900015029800ae
:1038380014c0b300070037001e027800a4029000ed
:10384800050f78001e027800e00f5200b8ff3a001a
:103858000042eb00044078000080fa0000000600f7
:103868000e00fa006007980034428000040f7800c8
:10387800354280001507980034428000e00f52005e
:103888003b0032001e027800940278006e0290001d
:10389800848f520032003a001e0278002402900001
:1038a800344288001e027800940290002507980090
:1038b800070037002e029000440798002e0290005f
:1038c80094029000250798004e0090000708070012
:1038d8002e029000e00f5200f6ff3a006e009000b2
:1038e800b4f80700230037001e0290009402780005
:1038f8006e029000848f520014003a001e02780075
:103908009402900035079800070037003e029000a7
:10391800540798003e0290009402900035079800e2
:103928005e009000f10707003e029000e00f520091
:10393800f6ff3a006e0090009ef807001e02900005
:10394800a4029000050f78000a0037001e029000bc
:10395800040f78001e029000a4029000150798003a
:103968001e029000e00f5200dfff3a00010037000e
:10397800000000000080fa00000006000a00fa00bb
:1039880030079800410798003e0090007200070039
:1039980000027800240798002e02900094029000fc
:1039a800050f78002e02900014029000940278000f
:1039b8004e029000848f52000c003a002e029000b4
:1039c80014029000940290002e02900015029800b4
:1039d8001e007800c50707000001eb00be0090003c
:1039e8004e00900086f807001d0037002e02900058
:1039f80014029000940290001507980015003700f3
:103a08001e029000940278004e029000848f5200ab
:103a18000b003a001e029000940290001e027800eb
:103a2800150298001e009000b00707000001eb0087
:103a3800be0090004e00900071f8070008003700a3
:103a48001e029000040f78001e029000940290005d
:103a5800150798001e029000e00f5200e8ff3a0098
:103a68000080fa00000006000c00fa0030079800f9
:103a780041079800520798003e0090003600070062
:103a880000027800240798002e029000940290000b
:103a9800050f78002e02900014029000940278001e
:103aa8005e029000848f52000c003a002e029000b3
:103ab80014029000940290002e02900015029800c3
:103ac8001e007800890707004e019000be00900094
:103ad8005e0090004af807001d0037002e02900093
:103ae8001402900094029000150798001500370002
:103af8001e029000940278005e029000848f5200ab
:103b08000b003a001e029000940290001e027800fa
:103b1800150298001e009000740707004e019000df
:103b2800be0090005e00900035f8070008003700de
:103b38001e029000040f78001e029000940290006c
:103b4800150798001e029000e00f5200e8ff3a00a7
:103b58000080fa00000006000400fa001007980030
:103b680034428000040f78000a0037001e027800f3
:103b7800940278001e029000848f520002003a00de
:103b88001e027800070037001e027800a402900089
:103b9800050f78001e027800e00f5200f3ff3a008c
:103ba8000002eb00040078000080fa000000060024
:103bb8000400fa001007980034428000040f7800cf
:103bc8000a0037001e027800940278001e02900056
:103bd800848f520002003a0014c0b3000700370077
:103be8001e027800a4029000050f78001e027800db
:103bf800e00f5200f3ff3a000042eb000440780067
:103c08000080fa00000006000800fa00300798005b
:103c18003442800024079800350037002e029000b7
:103c280094029000050f78002e0290001402900074
:103c3800940278003e029000848f52000e003a00f1
:103c48002e02900014029000940290002e02900020
:103c5800150298001e007800240707002e02900025
:103c6800140278000001eb00840078003e00900008
:103c7800e3f707001e0037001e0278009402900048
:103c880015079800170037001e029000940278006c
:103c98003e029000848f52000d003a001e029000f0
:103ca800940290001e027800150298001e009000f1
:103cb8000e0707002e029000140278000001eb00a6
:103cc800840078003e009000cdf707000800370018
:103cd8001e029000040f78001e02900094029000cb
:103ce800150798001e029000e00f5200e6ff3a0008
:103cf8002e029000e00f5200c8ff3a000080fa0040
:103d0800000006000000fa000000000034108000e7
:103d180061026200e00f5200fcff3a00341080009c
:103d280064026200e00f5200f8ff3a00341080008d
:103d380068026200e00f5200f4ff3a00341080007d
:103d480070026200e00f5200f0ff3a004510800058
:103d58000400240004826200e00f5200ebff3a00e6
:103d68000080fa00000006000400fa006409200040
:103d78002410880007e2a90007e2a80085c0a9006e
:103d880085a0a900d40480000480a0000490a100ac
:103d980004a0a000d40488008da0a900047122000a
:103da80005002000048fbe00040037000082eb00ed
:103db8008082eb001e0f42005e974a001e02be0082
:103dc800e00f5200e08f5a00f8ff3a0014c0b30029
:103dd800044078000080fa00000006000000fa00a5
:103de80007e2a90085c0a90085a0a9008dc0a90087
:103df8008da0a90014c0b300044078000080fa0028
:103e0800000006000400fa006022b800048fbe001b
:103e180007e2a90085c0a90085a0a9008da0a90076
:103e28000002eb0044108800047122000500200005
:103e3800048fbe00040037000082eb008082eb0094
:103e48001e0f42005e974a001e02be00e00f52009d
:103e5800e08f5a00f8ff3a00c3ff07001000070080
:103e68000471220005002000048fbe000400370002
:103e78000082eb008082eb001e0f42005e974a0032
:103e88001e02be00e00f5200e08f5a00f8ff3a0011
:103e980014c0b300044078000080fa000000060057
:103ea8000000fa0085c0a9008dc0a80014c0b300a6
:103eb800044078000080fa00000006000000fa00c4
:103ec80085c0a9008dc0a90014c0b30004407800c3
:103ed8000080fa00000006000400fa0014c0b300d5
:103ee8000443780005832000864a78004410800047
:103ef80070026200e00f5200150032000602a800ae
:103f08000471220005002000048fbe000a0037005b
:103f18000483200014427800e04f520002003a0067
:103f280014c0b3000b0037000082eb008082eb0066
:103f38001e0f42005e974a001e02be00e00f5200ac
:103f4800e08f5a00f2ff3a000042eb000100370010
:103f58000042eb00044078000080fa0000000600f0
:103f68000400fa0064c0b30004437800058320000d
:103f7800864a78004410800068026200e00f520010
:103f8800150032000622a800047122000500200056
:103f9800048fbe000a003700048320001442780012
:103fa800e04f520002003a0014c0b3000b00370083
:103fb8000082eb008082eb001e0f42005e974a00f1
:103fc8001e02be00e00f5200e08f5a00f2ff3a00d6
:103fd8000042eb00010037000042eb00044078008b
:103fe8000080fa00000006000400fa0054c0b30084
:103ff8000443780005832000864a78000642a8001a
:104008000471220005002000048fbe000a0037005a
:104018000483200014427800e04f520002003a0066
:1040280014c0b300090037000082eb008082eb0067
:104038001e0f42005e974a001e02be00e00f5200ab
:10404800e08f5a00f2ff3a000042eb00044078008b
:104058000080fa00000006000400fa0034c0b30033
:104068000443780005832000864a780034108000d5
:1040780061026200e00f520010003a003410800024
:1040880064026200e00f52000c003a003410800015
:1040980068026200e00f520008003a003410800005
:1040a80070026200e00f520004003a0034108000f1
:1040b80062026200e00f5200020032000042eb0090
:1040c8001500370006a2a9000682a8000471220084
:1040d80005002000048fbe000a003700048320007a
:1040e80014427800e04f520002003a0014c0b300b6
:1040f800090037000082eb008082eb001e0f4200af
:104108005e974a001e02be00e00f5200e08f5a0080
:10411800f2ff3a000042eb00044078000080fa0009
:10412800000006000400fa0034c0b300044378001d
:1041380005832000864a78003410800061026200fe
:10414800e00f520010003a00341080006402620050
:10415800e00f52000c003a00341080006802620040
:10416800e00f520008003a0034108000700262002c
:10417800e00f520004003a0034108000620262002e
:10418800e00f5200020032000042eb001500370039
:1041980006a2a8000682a8000471220005002000db
:1041a800048fbe000a003700048320001442780000
:1041b800e04f520002003a0014c0b3000900370073
:1041c8000082eb008082eb001e0f42005e974a00df
:1041d8001e02be00e00f5200e08f5a00f2ff3a00c4
:1041e8000042eb00044078000080fa00000006005e
:1041f8000800fa003007980004712200050020002a
:10420800048fbe000042eb004447980044c0b3004e
:104218000443780005832000864a78000471220050
:1042280005002000048fbe001c00370034108000f9
:1042380061026200e00f520014003a00341080005e
:1042480064026200e00f520010003a00341080004f
:1042580068026200e00f52000c003a00341080003f
:1042680070026200e00f520008003a00451080001a
:104278000400240004826200e00f520003003a00a8
:1042880014c0b30044479800080037000082eb00d0
:104298008082eb001e0f42005e974a001e02be009d
:1042a800e00f5200e08f5a00e0ff3a004e429000c3
:1042b800e04f520002003a000042eb0018003700bd
:1042c8000662a800046a280015002000048fbe00ba
:1042d8000e0037000483200014427800e04f52009b
:1042e80006003a0004108000844278003e029000e4
:1042f800054a780014c0b300090037000082eb00bb
:104308008082eb001e0f42005e974a001e02be002c
:10431800e00f5200e08f5a00eeff3a000042eb0037
:10432800044078000080fa00000006000600fa0049
:104338004047980024c0b300044378000583200058
:10434800864a78004e4290000402fb001410880050
:104358000471220005002000048fbe000a00370007
:104368000483200014427800e04f520002003a0013
:1043780014c0b300090037000082eb008082eb0014
:104388001e0f42005e974a001e02be00e00f520058
:10439800e08f5a00f2ff3a000042eb000440780038
:1043a8000080fa0000000600849fbe00861f780087
:1043b8003400f80004002000a40188000000fa007e
:1043c80085c0a9000042eb00044378000583200063
:1043d800864a78000080fa003400f9004f0378001c
:1043e8004f02be00004006000000fa0007e2a900e4
:1043f80085c0a90085a0a9008dc0a9008da0a9002d
:104408006409200024108800d40480000480a000df
:104418000490a10004a0a000d404880007e2a8002a
:104428000080fa00000006000000fa0085c0a9001c
:104438008dc0a80007e2a8000080fa00000006006e
:104448000000fa008dc0a9000080fa0000000600f4
:104458000000fa008dc0a8000080fa0000000600e5
:104468000000fa0085c0a9008dc0a90007e2a900d4
:104478000080fa00000006000000fa0044108000e6
:1044880070026200e00f5200010032000602a8002c
:104498000080fa00000006000000fa0044108000c6
:1044a80068026200e00f5200010032000622a800f4
:1044b8000080fa00000006000000fa000642a8008a
:1044c8000080fa00000006000000fa0034108000a6
:1044d80061026200e00f520013003a0034108000bd
:1044e80064026200e00f520011003a0034108000ac
:1044f80068026200e00f52000f003a00341080009a
:1045080070026200e00f52000d003a003410800083
:1045180062026200e00f52000b003a0006a2a900f6
:104528000682a800090037000000000007003700d5
:1045380000000000050037000000000003003700fd
:104548000000000001003700000000000080fa00b1
:10455800000006000000fa003410800061026200ca
:10456800e00f520013003a00341080006402620029
:10457800e00f520011003a00341080006802620017
:10458800e00f52000f003a00341080007002620001
:10459800e00f52000d003a00341080006202620001
:1045a800e00f52000b003a0006a2a8000682a800fd
:1045b8000900370000000000070037000000000075
:1045c800050037000000000003003700000000006d
:1045d80001003700000000000080fa00000006001b
:1045e8000000fa003410800061026200e00f5200ff
:1045f80013003a003410800064026200e00f520099
:1046080011003a003410800068026200e00f520086
:104618000f003a003410800070026200e00f520070
:104628000d003a0045108000040024000482620056
:10463800e00f52000a003a000662a800090037009d
:1046480000000000070037000000000005003700e8
:1046580000000000030037000000000001003700e0
:10466800000000000080fa00000006000000fa00c8
:104678000410800004427800044078000080fa00aa
:10468800000006000200fa00004f78009e42780001
:104698000582fb00141088000080fa000000060064
:1046a8000400fa00100798001e029000140f78000a
:1046b8001e02900014027800d40290001e0290009e
:1046c800050a78001e0278008002eb005502980067
:1046d8001e007800020007000080fa0000000600b3
:1046e8000400fa00100798000002eb00040f78009d
:1046f8000f0037001e029000040f78001e02900081
:10470800d4029000150798001e0278001402900049
:10471800e00f5200040032001e02780014029000dc
:1047280004007800710407001e0078006f04070079
:104738001e029000e00f5200eeff3a000080fa00df
:10474800000006000400fa0010079800e441800009
:10475800e00f520003003a001e029000e441880076
:104768000d003700e5418000050f78000300370091
:104778001e027800d4029000050f78001e0278000f
:1047880054029000e00f5200f9ff3a001e02780030
:104798009e029000550298000080fa000000060072
:1047a8000800fa002047980021079800320798006f
:1047b800c00020003f04070000027800040f7800c2
:1047c8001e027800e00f5200150032001e02780029
:1047d800ae429000054a78001e027800ae029000b2
:1047e800150298001e027800be029000250298006b
:1047f8001e0278008002eb00450298001e02780035
:1048080015c0b300654298001e0278008002eb00d4
:10481800550298001e007800caff07000100370003
:10482800000000000080fa00000006000c00fa00fa
:1048380040479800310798004207980053079800ae
:10484800c00020001b04070000027800040f780055
:104858001e027800e00f520003003a003e0090006c
:1048680022040700320037001e027800ce42900072
:10487800054a78001e027800be02900015029800d2
:104888001e027800ce029000250298001e027800d1
:104898008002eb00450298001e02780015c0b300a4
:1048a80065429800c000200002040700000278005a
:1048b800140798001e029000e00f520005003a000d
:1048c8003e009000090407001e0078000704070056
:1048d800170037001e0278009e02900055029800cb
:1048e8001e029000ce429000054a78001e029000f9
:1048f8008002eb00150298001e0290008002eb0077
:10490800250298001e029000de02900045029800e1
:104918001e0290008042eb00654298001e02900043
:104928008002eb00550298001e00780085ff070002
:104938000080fa00000006000200fa000042eb00c6
:10494800044f78004e0107000002eb007440880015
:104958000002eb0084408800c0552200cc0107000b
:10496800004278000404a200e04f52000200320026
:1049780014c0b300044f78001e427800e04f520084
:1049880006003a0000612200c101070000427800d9
:104998000404a200e04f52000200320014c0b30029
:1049a800044f78002000200021fb07000042780017
:1049b8000404a200e04f52000200320014c0b30009
:1049c800044f78001e427800e04f520006003a007b
:1049d8003000200016fb0700004278000404a20003
:1049e800e04f52000200320014c0b300044f7800b8
:1049f8001e427800e04f520009003a008001eb00a7
:104a0800426c22008000eb002000200040fb0700e1
:104a1800004278000404a200e04f52000200320075
:104a280014c0b300044f78001e427800e04f5200d3
:104a380009003a008001eb00c26d22008000eb0003
:104a48003000200032fb0700004278000404a20076
:104a5800e04f52000200320014c0b300044f780047
:104a68001e427800e04f52000f003200c05522006d
:104a7800b701070000612200b501070020002000ef
:104a880077fb07003000200075fb07008000eb0073
:104a980020002000b9fb07008000eb003000200058
:104aa800b6fb0700000000000080fa0000000600c6
:104ab8000000fa0074408000e00f520053003200fa
:104ac80074408000e00f520015003d00b4408000a3
:104ad8000402e900b4408800b4408000e00f5200ae
:104ae80021003a0084812000144278000442e90041
:104af800844078008081200001487800744080005c
:104b080004f0a7000402ea00055020001100090083
:104b18008402d80000027800b440880012003700f0
:104b2800b44080000402e900b4408800b44080002a
:104b3800e00f52000c003a008481200014427800f3
:104b48000442e8000443780085812000864a780002
:104b58007440800005502000110009008402d8002c
:104b680000027800b4408800848120001442780054
:104b7800634262000443780085812000864a7800f9
:104b880084812000144278000482fb00cfa2de005a
:104b98003600200007002000860f5200878f5a0039
:104ba8001b003e0004600100120037000c003700b3
:104bb8000600370000003700d602a900d622a80058
:104bc800d642a800d662a90011003700d602a80074
:104bd800d622a900d642a800d662a9000c00370048
:104be800d602a800d622a900d642a900d662a800fb
:104bf80007003700d602a900d622a800d642a9008d
:104c0800d662a80000000000010037000000000084
:104c18000080fa00000006000000fa0084408000ce
:104c2800e00f52005300320084408000e00f520031
:104c380015003d00944080000402e900944088007b
:104c480094408000e00f520021003a004481200087
:104c5800144278000442e900844078004081200032
:104c6800014878008440800004f0a7000402ea00ac
:104c780005502000110009008402d80000027800c5
:104c88009440880012003700944080000402e90034
:104c98009440880094408000e00f52000c003a00d5
:104ca80044812000144278000442e800044378005c
:104cb80045812000864a7800844080000550200005
:104cc800110009008402d80000027800944088008e
:104cd8004481200014427800634262000443780053
:104ce80045812000864a78004481200014427800db
:104cf8000482fb00cfa2de0036002000070020005f
:104d0800860f5200878f5a001b003e000460010086
:104d180003003700070037000b0037000f0037008b
:104d2800d682a900d6a2a800d6c2a800d6e2a900b9
:104d380011003700d682a800d6a2a900d6c2a800c2
:104d4800d6e2a9000c003700d682a800d6a2a90096
:104d5800d6c2a900d6e2a80007003700d682a9006b
:104d6800d6a2a800d6c2a900d6e2a800000000007a
:104d780001003700000000000080fa000000060073
:104d88000800fa00100798002107980032079800d9
:104d98003e029000040f78000002eb007440880087
:104da80014c0b300044078000080fa000000060038
:104db8000800fa00100798002107980032079800a9
:104dc8003e029000040f78000002eb008440880047
:104dd80014c0b300044078000080fa000000060008
:104de8000200fa00000f7800040820009e027800f4
:104df800848f5200030034000408200074408800a7
:104e08000900370004f82f009e027800848f5200b2
:104e180003003d0004f82f007440880002003700aa
:104e28001e027800744088000080fa000000060026
:104e38000200fa00000f7800040820009e027800a3
:104e4800848f520003003400040820008440880046
:104e58000900370004f82f009e027800848f520062
:104e680003003d0004f82f0084408800020037004a
:104e78001e027800844088000080fa0000000600c6
:104e88000000fa00060007000080fa000000060093
:104e98000000fa00100007000080fa000000060079
:104ea8000000fa001b0007000002eb00540888000d
:104eb800840b2000740888000002eb009408880026
:104ec800940880000440a0000450a10094088800c1
:104ed8000080fa00000006000000fa00b404800018
:104ee80004c0a00004d0a00004e0a100b40488001d
:104ef800120007000080fa00000006000000fa0017
:104f080084e0a9008ce0a90013e1a9000080fa0060
:104f1800000006000000fa00f8ff07000080fa0011
:104f2800000006000000fa0084e0a9008ce0a80058
:104f380013e1a8000080fa00000006000000fa0053
:104f4800f8ff07000080fa00000006000000fa00e1
:104f580084e0a9000002eb00540888000080fa00f1
:104f6800000006000000fa00f8ff07000080fa00c1
:104f7800000006003600f800809fbe00829fbe0039
:104f8800849fbe00869fbe000000fa003000070024
:104f980084e0a9000080fa004f03be004f02be0063
:104fa8004f01be004f00be003600f9000040060069
:104fb8003600f800809fbe00829fbe00849fbe001e
:104fc800869fbe000000fa002100070084e0a900c7
:104fd8000080fa004f03be004f02be004f01be0022
:104fe8004f00be003600f900004006000000fa003d
:104ff80084e0a9008ce0a9000080fa000000060007
:105008000000fa00f9ff07000080fa00000006001f
:105018000000fa008ce0a8000080fa0000000600fa
:105028000000fa00faff07000080fa0000000600fe
:105038000000fa0084e0a8000080fa0000000600e2
:105048000000fa00faff07000080fa0000000600de
:105058000200fa0044428000040f7800060037007e
:105068001e02780014027800040001001e02780075
:1050780094029000050f78001e027800e00f52009d
:10508800f7ff3a00b1ff07000080fa0000000600b1
:105098000600fa00200798004000200005020700db
:1050a80000027800140798001e029000e00f5200da
:1050b80002003a000042eb00220037001e02900076
:1050c800ae029000050a78001e0290008002eb00f4
:1050d8001502980044428000e00f520005003a0093
:1050e800c4e2a8001e0290004442880014c0b30025
:1050f8001400370045428000050f78000d00370086
:105108001e02780014029000e00f520006003a00d8
:10511800c522a8001e0278009e0290001502980081
:1051280014c0b300070037001e02780094029000f4
:10513800050f78001e027800e00f5200f0ff3a00d9
:105148000042eb00044078000080fa0000000600ee
:105158000600fa002007980044428000040f7800f7
:105168004542800015079800140037001e02780099
:10517800940278002e029000848f52000a003a00b0
:105188001e027800940290001e02900015029800fa
:105198001e0278008002eb00150298001e007800bd
:1051a800d2010700080037001e0278001407980093
:1051b8001e02780094029000050f78001e02780005
:1051c800e00f5200e9ff3a000080fa0000000600f4
:1051d8000200fa000102070044932200040078004c
:1051e8006aee07000d020700c4c2a900c4e2a900c4
:1051f800c522a900c582a900c542a900c5a2a90067
:10520800c5c2a900c5e2a9000002eb00040f78009e
:105218001e027800e20f42000f003a000002eb0085
:10522800040f7800241680004622de0061426200e6
:1052380004c2ea00614262000482fb00610262006b
:105248004622dd0026168000f5fb2f00850263004c
:1052580005027200241688001e0fe800ecff3700d4
:105268000400fa000002eb00040f78000002eb00d3
:105278001407980001003700000000001e0fe80026
:105288001e027800e20f420012003a000002eb0012
:10529800040f7800241680004a22de006142620072
:1052a80004c2ea00614262000482fb0061026200fb
:1052b8004a22dd0026168000f5bf2f008502630014
:1052c80005027200241688001e0290000402e800fd
:1052d800140798001e029000f40f5200e6ff3a00ef
:1052e8000002eb0014079800e4ff37000000fa0002
:1052f8002542800004712200848f520010003a0079
:10530800841680000402d1006142620004c2ea00ef
:10531800614262000482fb006102620004024200f2
:1053280086168000d5ff2f008502630005027200f3
:10533800841688000002eb0024428800030037002e
:10534800244280000402e800244288000080fa0019
:10535800000006000200fa00004f78008416800062
:105368004222de006142620004c2ea006142620039
:105378000482fb00610262004222dd008616800082
:10538800b5ff2f00850263000502720084168800ad
:105398000080fa00000006000000fa0072fa070018
:1053a8000080fa00000006000000fa008bfa0700ef
:1053b8000080fa00000006000000fa00b8fa0700b2
:1053c8000080fa00000006000000fa00bbfa07009f
:1053d8000080fa00000006000400fa002047980048
:1053e800314798000042eb00044f78002100370055
:1053f80014c0b300044f7800b7fa070000427800e1
:105408001e4f62002e409000c8fb07000042780043
:105418001e4f62003e409000c4fb07000042780027
:105428001e4f6200cefa0700004278001e4f62004d
:105438002e4290000442e80004407800bbfb0700bd
:10544800004278001e4f62000e02e8000400780057
:1054580067fb0700004278001e4f620031fb07001f
:10546800e1fa07001e427800e04f520005003a00ba
:1054780064fa07001e427800e04f5200dcff320059
:1054880001003700000000001e4290000440780030
:105498000080fa00000006000600fa002047980085
:1054a80031479800424798000042eb00044f7800cb
:1054b8001800370014c0b300044f780086fa0700bc
:1054c800004278001e4f62002e40900097fb0700b4
:1054d800004278001e4f62003e40900093fb070098
:1054e800004278001e4f62004e4090008ffb07007c
:1054f800004278001e4f6200bbfa070000427800a5
:105508001e4f62001e427800e04f520005003a002c
:105518003cfa07001e427800e04f5200e5ff3200d7
:1055280001003700000000001e42780004407800a7
:105538000080fa00000006000200fa00000f780060
:105548001e027800f44188000002eb00340888004d
:1055580004242000640888000002eb008408880006
:10556800840880000440a0000450a000840888003b
:105578000080fa00000006000000fa00b404800071
:105588000480a1000490a00004a0a100b404880035
:105598000900070011e1a8000080fa0000000600d9
:1055a8000000fa0084c0a9008cc0a90011e1a9007c
:1055b8000080fa00000006000000fa0084c0a9007c
:1055c8008cc0a80011e1a8000080fa0000000600c5
:1055d8000000fa000002eb00340888000080fa009e
:1055e800000006000000fa00edff07000aee0700c1
:1055f800f4418000e00f520002003200f4418000c4
:105608000400010048f10700f1ff0700eaff070066
:105618000080fa00000006003600f800809fbe00f7
:10562800829fbe00849fbe00869fbe000000fa00d5
:10563800ecff07000080fa004f03be004f02be00d7
:105648004f01be004f00be003600f90000400600c2
:105658003600f800809fbe00829fbe00849fbe0077
:10566800869fbe000000fa00deff07000080fa00f7
:105678004f03be004f02be004f01be004f00be00e8
:105688003600f900004006000000fa0084c0a900b6
:105698008cc0a9000080fa00000006000000fa0093
:1056a8008cc0a8000080fa00000006000000fa0084
:1056b80084c0a8000080fa00000006000000fa007c
:1056c800c4c2a800c4e2a900c522a900c582a900d5
:1056d800c542a900c5a2a900c5c2a900c5e2a90082
:1056e800c0c2a900c0e2a900c122a900c182a900c4
:1056f800c142a900c1a2a900c1c2a900c1e2a90072
:10570800d022a900cc22a900d042a900cc42a900ed
:10571800e2e2a900e302a900e802a900e822a90040
:10572800dee2a900df02a900e402a900e422a90040
:10573800e202a900de02a900d602a900d622a90029
:10574800d642a900d662a900d682a900d6a2a9008d
:10575800d6c2a900d6e2a900d202a900d222a90085
:10576800d242a900d262a900d282a900d2a2a9007d
:10577800d2c2a900d2e2a900d1a2a900cda2a90053
:10578800e842a900e862a900e442a900e462a9008d
:10579800de22a800dec2a800e4c2a800e4e2a80055
:1057a800e502a800e522a800d302a800d322a80099
:1057b800d342a800d362a800d382a800d3a2a8002d
:1057c800d3c2a800d3e2a8000080fa0000000600b7
:020000040000fa
:1057d8003e08000002000000000000004008000031
:1057e8000200000000000000260800000a00000077
:1057f8000000000042080000020000000200000053
:105808000100000044080000020000000000000041
:1058180046080000020000000000000048080000e0
:1058280002000000000000000e0800000c0000004c
:10583800000000003808000006000000000000001a
:105848001a0800000c00000000000000000800001a
:105858000e000000000000004a08000002000000de
:1058680002000000020000003008000008000000ec
:10587800000000004c0800000800000000000000c4
:105888005808000002000000000000005a0800004c
:10589800020000000000000054080000040000009e
:1058a800000000005c08000002000000000000008a
:0458b80000000000ec
:020000040000fa
:1058bc000400fa00100798000002eb00040f7800b7
:1058cc00290007001e0090003deb07000002780045
:1058dc00040f7800320007001e02780004007800e4
:1058ec000080fa00000006000200fa00000f7800a9
:1058fc001d0007001e007800bfeb07002800070002
:10590c000080fa00000006000800fa00100798005a
:10591c002107980032079800130007000002eb00e3
:10592c00040f78000002eb00040f7800070037002a
:10593c002e0290001e0242009e0290009e824200a7
:10594c0095427800054a78001e0fe8003e02900050
:10595c009e027800848f5200f5ff3900100007007a
:10596c000080fa00000006000000fa00140280001b
:10597c004522de006742620004437800a5842000c3
:10598c00864a7800140280000450a0000460a00035
:10599c000470a000140288000080fa0000000600c9
:1059ac000000fa00a48420001442780067426200d0
:1059bc000482fb00670262004522dd0016028000b3
:1059cc00f5f12f00850263000502720014028800b5
:1059dc000080fa00000006000000fa0036ff070005
:1059ec00e0d12200d3fe0700d4eb0700100020000a
:1059fc000ef7070021fd0700cefb0700dff40700c0
:105a0c0076f107000080fa00000006000000fa00a2
:105a1c000080fa00000006000000fa00d5fe070026
:105a2c001afd070005f307000080fa0000000600cd
:105a3c000000fa00044280000402e80004428800de
:105a4c00baed07000080fa00000006000200fa0020
:105a5c00000f78001e027800150020001502980037
:105a6c001e02780055552500050a78000080fa00c2
:105a7c00000006000000fa000080fa00000006009a
:020000040000fa
:0200000401f009
:04000000e6bf000057
:020000040000fa
:0200000401f009
:04000400ff7f00007a
:020000040000fa
