:020000040000fa
:080000000001040000000000f3
:020000040000fa
:100008003c040000e0020000fa020000280300009f
:10001800560300003c0400003c0400003c040000bf
:10002800e45500003c0400003c0400003c040000cf
:100038003c0400003c04000080580000e25200002c
:100048003c040000082b0000542b00003c04000076
:100058003c0400003c040000403c00003c0400005c
:100068003c0400003c0400003c0400003c04000088
:100078003c0400006c5a0000ce0100003c04000063
:10008800a02b0000ec2b00003c0400003c04000006
:100098003c0400003c0400003c0400003c04000058
:1000a8003c0400003c0400003c0400003c04000048
:1000b8003c0400003c0400003c0400003c04000038
:1000c8003c0400003c0400003c0400003c04000028
:1000d8003c0400003c0400003c0400003c04000018
:1000e8003c0400003c0400003c0400003c04000008
:0800f8003c0400003c04000080
:020000040000fa
:100108003c04000084030000b2030000e003000088
:100118000e0400003c0400003c0400003c04000005
:10012800e45500003c0400003c0400003c040000ce
:100138003c0400003c0400009c58000000530000f0
:100148003c0400002e2b00007a2b00003c04000029
:100158003c0400003c040000403c00003c0400005b
:100168003c0400003c0400003c0400003c04000087
:100178003c0400006c5a0000ce0100003c04000062
:10018800c62b0000122c00003c0400003c040000b8
:100198003c0400003c0400003c0400003c04000057
:1001a8003c0400003c0400003c0400003c04000047
:1001b8003c0400003c0400003c0400003c04000037
:1001c8003c0400003c0400003c0400003c04000027
:1001d8003c0400003c0400003c0400003c04000017
:1001e8003c0400003c0400003c0400003c04000007
:0801f8003c0400003c0400007f
:020000040000fa
:10020000afac21000e7f22000e018800000000002c
:10021000000020000000e000020032000001200089
:10022000200288000c00070020e9240001002000c3
:1002300011000700000020000000e0000200320072
:100240000000020000000000a050020000000000ba
:100250000040da000000fe004440a900a009200090
:100260000000e0000300320000002000a001880030
:100270004440a8000000060091018800800078003a
:100280000000eb0015003700e280400032a0b4000f
:100290009101ba00e280400032a0b4009102ba009d
:1002a000e280400032a0b4000002eb00472bde00e9
:1002b000f507b200602ce10004003a000059eb00a1
:1002c0008301e900fdff3e00040037006128e100e2
:1002d000010032000082eb00040007001101ba00a7
:1002e0000200e000e8ff3a00000006003159ba00c1
:1002f0008301e9000c0032002159ba008301e900b2
:10030000080032000400e00003003a00e2804000f0
:1003100032a0b400f5ff370011d9ba008301e9001b
:10032000faff3a008100e800e180400032a0b4000a
:1003300000000600d45a040000000000241b040042
:100340000000000028550400000000001c3d0400cf
:1003500000000000d03d040000000000843e0400c6
:1003600000000000ac3e0400000000000e56040037
:1003700000000000305a040000000000fc5104009e
:1003800000000000fe50040000000000e4510400e2
:10039000000000003c520400000000003400f8009f
:1003a000881f780008002000a80188004f0478000a
:1003b0000000fa0086c0a9001fe1a80021e1a90001
:1003c0000080fa003400f900004006000000fa0046
:1003d00024002000040988000002eb00c408880003
:1003e00014002000e408880086c0a9008ec0a80080
:1003f00021e1a8000080fa00000006000000fa00d9
:1004000024002000f408880074598000a4088800a3
:10041000745980000402e800d408880086a0a9006e
:100420001fe1a9008ea0a8000080fa0000000600cd
:100430000200fa00000f78000002eb0084598800e7
:100440001e027800545988000002eb0064598800ad
:10045000eaff0700ddff07000080fa000000060049
:100460001000fa00300798004107980052079800e2
:1004700063079800740798000002eb0014079800c7
:10048000ce0290005e02900004aab90084027800b7
:100490006e0290000402e80004aab9000402780089
:1004a0000402e80084027800a4142000848f520023
:1004b000020036000082eb00390037000002eb003a
:1004c000040f7800280037000002eb002407980092
:1004d0000b0037009e02900044b3200004824200cb
:1004e00015c0b300054a78001e0290000402e8001f
:1004f000140798002e0290000402e80024079800d8
:10050000ae0290005e029000848f5200f1ff350031
:100510000002eb00240798000b0037009e029000b9
:1005200044b32000048242008042eb00054a780078
:100530001e0290000402e800140798002e029000aa
:100540000402e80024079800ee0290005e0290008a
:1005500004aab900840278002e029000848f520011
:10056000eeff3c001e0fe8004e0290009e02780055
:10057000848f5200d4ff35009e02900044b32000c7
:100580000482420025c0b300054a78007e02900034
:10059000745988003e029000945988000002eb00d4
:1005a000040078000080fa00000006000000fa0055
:1005b00064598000040078000080fa000000060002
:1005c0000000fa00d022a800d042a800c4c2a800af
:1005d000c4e2a900c522a900c582a900c542a9009c
:1005e000c5a2a900c5c2a900c5e2a9008020a90032
:1005f000ffff37000000fa00d022a800d042a80078
:10060000c4c2a800c4e2a800c522a900c582a900ee
:10061000c542a900c5a2a900c5c2a900c5e2a9009a
:100620008060a900d022a800d042a800c4c2a800bf
:10063000c4e2a800c522a900c582a900c542a9003c
:10064000c5a2a900c5c2a900c5e2a900f5ff3700ef
:100650000000fa00d022a800d042a800c4c2a8001e
:10066000c4e2a800c522a800c582a900c542a9000d
:10067000c5a2a900c5c2a900c5e2a9008040a90081
:10068000d022a800d042a800c4c2a800c4e2a8009a
:10069000c522a800c582a900c542a900c5a2a9001b
:1006a000c5c2a900c5e2a900f5ff37000000fa00a5
:1006b000d022a800d042a800c4c2a800c4e2a8006a
:1006c000c522a800c582a800c542a900c5a2a900ec
:1006d000c5c2a900c5e2a9008080a900d022a80057
:1006e000d042a800c4c2a800c4e2a800c522a80045
:1006f000c582a800c542a900c5a2a900c5c2a9001b
:10070000c5e2a900f5ff37000000fa00d022a800da
:10071000d042a800c4c2a800c4e2a800c522a80014
:10072000c582a800c542a800c5a2a900c5c2a900eb
:10073000c5e2a9008020a900d022a800d042a800cc
:10074000c4c2a800c4e2a800c522a800c582a800af
:10075000c542a800c5a2a900c5c2a900c5e2a9005a
:10076000f5ff37000000fa00d022a800d042a80010
:10077000c4c2a800c4e2a800c522a800c582a8007f
:10078000c542a800c5a2a800c5c2a900c5e2a9002b
:100790008060a900d022a800d042a800c4c2a8004e
:1007a000c4e2a800c522a800c582a800c542a800ce
:1007b000c5a2a800c5c2a900c5e2a900f5ff37007f
:1007c0000000fa00d022a800d042a800c4c2a800ad
:1007d000c4e2a800c522a800c582a800c542a8009e
:1007e000c5a2a800c5c2a800c5e2a9008040a90012
:1007f000d022a800d042a800c4c2a800c4e2a80029
:10080000c522a800c582a800c542a800c5a2a800ac
:10081000c5c2a800c5e2a900f5ff37000000fa0034
:10082000d022a800d042a800c4c2a800c4e2a800f8
:10083000c522a800c582a800c542a800c5a2a8007c
:10084000c5c2a800c5e2a8008080a900d022a800e7
:10085000d042a800c4c2a800c4e2a800c522a800d3
:10086000c582a800c542a800c5a2a800c5c2a800ac
:10087000c5e2a800f5ff37000000fa00d022a8006a
:10088000d042a800c4c2a900c4e2a800c522a900a1
:10089000c582a800c542a900c5a2a800c5c2a9007a
:1008a000c5e2a800ffff37000a00fa00e20f50007f
:1008b00022003e0034768000e10f52000600320034
:1008c000e7212000a62120008421200065212000ae
:1008d000e08f530004003a00472120000621200049
:1008e000e4202000c5202000000028001500600042
:1008f00003003a00800b780007002800958a7300f7
:10090000054020009482620001003a0014a0a0007b
:100910008202780006003700940378000710b200c6
:10092000fdff3200b103fb00070b78008502e900f0
:10093000e08f5200f8ff3a00080037003400200032
:10094000c0bf9f00e2bf9f00b4bf9f00d1bf9f0008
:100950006a8057006b0607006fb9970002007800a5
:100960000080fa0000000600889fbe008004780026
:1009700040768000e00f500004003a000e000700af
:100980000084eb00e00f500008003500487680003e
:10099000e08f540005003200090044000600070003
:1009a000e00f500001003d000084eb0008007800db
:1009b0004f04be0000000600e00f500004003a00a3
:1009c000a4ec20004476880000027800060037007e
:1009d0000082eb00a5ac2100850f500002003e0014
:1009e000407688000002eb0004007800000006005a
:1009f00003f0a200889fbe008a9fbe008c1f780073
:100a0000c7000700ce0033006450e1004f00320001
:100a10006420e1005200320003826c0007003b00ba
:100a20000905d0000306d000820f54000c065d00bb
:100a300002003900020032008901780003067800c4
:100a40008582550004003d000003fd008103fd0088
:100a50008502ea008b854200840f720002003b0091
:100a600060001000e08018006011b8000005eb0085
:100a70007a28e1000a00390006007800c75ddd0031
:100a8000f707b200878075002d0037008281710062
:100a90000a017800610560008180d1000080d300e8
:100aa0008502e900f9ff3b00060440008784480006
:100ab00002003b0060041400e0841c000988a300cd
:100ac000070032008a817100828171006101640037
:100ad0008904d1000884d3008b05e8001700370093
:100ae0000978a30013003a000b00e0001300340063
:100af0008b05e9000804440089844c000a44740012
:100b00000978a3000d003a000b00e0000700340054
:100b10008b05e9000804440089844c0001003a0078
:100b20000b0020000978a300f7ff32000001eb0062
:100b300002003700828171000a0178003d00070041
:100b40000cf0a70001f0a000860037006420e1004f
:100b500002003a00838f6c00860033000801be005b
:100b60000200be007f003700839f68000100e000a4
:100b700002003d0060001000e08018000300e0006b
:100b800002003d0060011100e08119007c000700b7
:100b90004f00e00002003b0060001000e080180001
:100ba000000006000001be00480007000470a70016
:100bb00003f0a1006509b100160032000d003500f8
:100bc0006828e10006003500f0ff2f00f1ff270044
:100bd0000300e00013003b000100280000000500b6
:100be00000004000818048008502e900fcff3a00d7
:100bf00008003700f88f420002003c008000eb0044
:100c0000000005008100d1000080d3008502e800cb
:100c1000fcff3a000300e00002003b00600010000f
:100c2000e0801800000006004f89de008201780095
:100c30006300370081002000618055000b003d00fb
:100c40000b00200061fe2f000100e1001d003400b8
:100c500082817100610164008904d1000884d3009d
:100c60000000e800faff3a00710020006100640013
:100c700003007000020060000900320061044400bb
:100c8000e0844c000988a500050032008b05e800cf
:100c90006808e10002003a008904d1000884d3000a
:100ca000f20f20000258e10005003d00c75ddd00a5
:100cb000f907b2008980750008007800000006007e
:100cc0000bf827008b00780000000500c70ade0043
:100cd000f107b200f50fb20008003200e1cf420088
:100ce000020032000170a00024000500810f700096
:100cf000010032000408050044000500810f700067
:100d000002003a00140005008502e90000004000de
:100d100081c04800fcff3b000170a00024000500da
:100d20000004be00e9ff07000003be000405be008a
:100d30000200be00e5ff0700844f750000000600ba
:100d40000200be006450e100050036006420e100ae
:100d5000020036000968a30001003a000800be0046
:100d60000160a0004f0678004f05be004f04be0092
:100d700000000600f0ff2f00f1ff2700f9ff370009
:100d80006022b800060220000000d0008180d2005e
:100d90000482d2008582d2000000a000020252002c
:100da00083825a00030031000202420083824a001b
:100db0000000a1000603e900f3ff3a00000006006e
:100dc000881f7800030478000300e00007003d005e
:100dd00060001000e080180060011900e081190037
:100de00002003b0001f02d00030037000400070063
:100df00008f0a70001f0a0004f04780000000600f2
:100e0000889fbe008a9fbe000082700004027100ad
:100e100004827100260032000004be000200be0001
:100e20006011b8006b092000950220000182cf00fc
:100e30000a0039000541b1000082cf0007003900e7
:100e40000541b1000982cf00040039000541b1001d
:100e50000882cf00010039000541b100054252006f
:100e6000120032000a003b008281710061016400bf
:100e70008100d1000080d3008984d3000884d3008e
:100e80008b05e8000442e800f7ff3a00070037004e
:100e90000804440089844c00000048008180480018
:100ea0008b05e9000442e900f9ff3a0061ff070001
:100eb0004f05be004f04be000000060084ea20007b
:100ec000e487470045758000889fbe008a9fbe006a
:100ed0008c9fbe008e1f7800e08f52000b003a00fe
:100ee00024029800e4024200c47588004575880019
:100ef000d5758800a44290000504a0002542980002
:100f0000e44290000504a000654298006704400098
:100f1000a4ec2000250020004244de00a9ac210002
:100f20004244dd0084845400050744001100090098
:100f30008504d800dcac2100c27580000406560090
:100f400080bf9f000e0747000003eb00e40544004c
:100f50000806460002003700160020000d01780048
:100f60002242900061026200020032000a00370053
:100f70001509780092027800254290006102620013
:100f8000fbff320008024100848f5200020039004a
:100f9000e00f54003f003d00920678000d00a100d4
:100fa000828f5600edff3e00e10f5300eaff3a004a
:100fb0000fba9700840f540002003600890f5400c6
:100fc00010003900614ab900b0ff2f000100200075
:100fd0006143b8000402500085825800840f53001a
:100fe000858f5b00020035000b0578000600370096
:100ff000110009000986d8000982b90004057800ab
:10100000010037000e0578000a00780056fe070040
:10101000e10f400005003a000b0578000b00780056
:1010200051fe0700e10f40002b003200d475800014
:10103000000a7800d475800064034200a442900046
:10104000860f5000020032000504a00001003700a6
:101050000504a100254298006405550084ea20009b
:101060000a0540000a087800da758800040d780047
:10107000d57580000003eb00254290000404a00019
:10108000a4429800204290000404a100244098004b
:10109000b2ff3700c4758800848f52000700360005
:1010a0001403be008042eb008675880097758800a7
:1010b000120a7800c47580002542980022429000f0
:1010c000c77580000404a000070978002441980037
:1010d00064004100010037000000eb004f0778007a
:1010e0004f06be004f05be004f04be004f00b100ca
:1010f00000000600e00f50000800320064005000bd
:10110000c4758000840f500001003100c075880054
:10111000204290000404a100244098000000060032
:10112000889fbe00000478008a9fbe00810478007a
:10113000e08f540005003a00e00f54003200320006
:1011400008007800ebff070030003700e00f540084
:1011500004003a000900780058ff07008004780076
:101160002a003700640254009405780068fa97005a
:10117000610262000200320008007800ddff070013
:10118000090078004dff070080047800e08f5400cc
:101190001e003200888f54001b00320069bd97008a
:1011a0008885550009055500c2ddde0042d5de0008
:1011b0000a0178008b0f5500010036000b01780002
:1011c0004211dd0088007800090078001300070054
:1011d000888f54000d0031004255dd000a8544001f
:1011e000880f5500090036000804550084758000fa
:1011f0009575800042c4de004244dd00088444004e
:10120000048cbe00010037008804780009007800d3
:101210004f05be004f04be0000000600000278002b
:1012200002003700315a78000201e900e00f510056
:10123000fcff3a000000060015c0b30001002000ca
:10124000c4eb2000a0758800b1758800054a7800bd
:1012500000000600c4eb20008042eb0094cf120097
:1012600002003a0010002000f3ff0700a075800084
:10127000b1758000d2e62400631c2400230407001b
:1012800094032300050020000002420081824a00ee
:10129000a4758800b57588000500780000f0a100ed
:1012a000000006000c00fa00889fbe00f4ff270033
:1012b00000047800d4bf9f008004eb0088bf9f002b
:1012c00099bf9f00a8bf9f00240c20007881570081
:1012d000b4bf9f00cfb09700708057000700070091
:1012e0000fba9700094a78000fba97000800520019
:1012f0004f04be000080fa0000000600ef03b000bb
:10130000889fbe008a9fbe008c9fbe00800678002a
:101310008e1f78000007eb00d1af9f00a2b79f009f
:1013200066033700dfa8970054c2b3008100e800cd
:10133000d1af9f00844f500006003a0001027800b0
:101340000006eb0001c3b30000c2b300b7c2b30094
:101350000e0037003d0290000404b2000400320089
:101360001d027800004a7800840ee800050037006e
:101370000000fb008d0078005c030700e10f4000d7
:101380004e0332000e07e8004c0337008402780059
:10139000d2c2b30034437800824f530009003200b8
:1013a00005003c00804f530008003200874f530077
:1013b0000c003a0007003700814f530009003a0043
:1013c000060037000c30a000f0ff37000c00a00032
:1013d000eeff37000c10a000ecff37000c20a0003f
:1013e000eaff370062026600010032000c00a10033
:1013f00068026600010032000c20a1000602fb001a
:101400000403b100e90f52000c003e000503780010
:101410000002eb00b603fb006a22b9000703b1002b
:1014200086027800048243009603fb000703b100a4
:10143000e98f5300f7ff3600080037000002eb0089
:10144000a7c2b300874f530004003a00afb1970022
:101450008502e80043027800a3b79f000003eb0079
:1014600096b79f00e6c2b300954f13000c003a00f8
:101470000ce0a00064435300d54f1300030032007a
:10148000050378000000eb0009003700afb39700b8
:101490008502e80047047800a7b79f0098b79f002f
:1014a00005037800090037006a00b9000080430096
:1014b00086027800b603fb000703b100e98f5300f2
:1014c000f9ff360090b79f00f5ff3700b64278006d
:1014d000cac6b300d6af9f008acf520025003200a3
:1014e0000f003c0036c6b30086cf52009e0032008b
:1014f00004003c00e0cf5200f50232006b43530081
:101500000f00370046c6b30086cf520017003200e6
:101510006543430086cf5200b2003a001300370003
:1015200036c7b30086cf52001f00320007003c00d0
:101530006443530086cf5200140032000643e80093
:1015400086cf5200a7003a001300370056c7b300f9
:1015500086cf5200aa0032006343430086cf520078
:10156000a0003a00e5779f000d003700e5779f0067
:10157000a5003700f00366000501200001003200dd
:10158000050028000c867200d0ff3700e5779f0029
:101590000c60a0009c003700e5779f000c50a00075
:1015a0000c70a00098003700afb59700e5779f005a
:1015b000cb027800abb79f00b5b79f00e08f520019
:1015c00002003a00c1e72000b1b79f003fb3970087
:1015d0008002eb00010037008502e800e6c37a00d4
:1015e000e0cf5300fcff3a00c5b79f001fb1970042
:1015f000e00f510005003200cfb19700830f51007a
:101600000200310082027800c5b79f00cfb2970078
:101610000004eb00850f5200010036000504520063
:101620006806660009c2b3000f00320029003700c7
:101630003d0290000404b200040032001d02780054
:10164000094a7800840ee800050037008d00780014
:1016500000022000a5020700e10f40000100320057
:101660000e07e8000804e900e00f5400f0ff3a001c
:101670000084eb0017003700bd0290000504b200a3
:1016800009003200880278009d0378003543780015
:10169000864b780005047800870ee800e04f530081
:1016a0000a003a0011003700880278008d007800a7
:1016b0003500fb0084bf9f00050478008b02070003
:1016c0000fba9700e10f4000080032000e07e80053
:1016d000060037000c027800080678003fb4970037
:1016e000cfb497005fb59700efb5970089027800f7
:1016f0008504e900e08f5200dfff3a00b8b79f0091
:10170000c9b79f00dab79f00ebb79f000c047800c1
:1017100009c2b30004067800e00f56000f003a003b
:10172000660237003d0290000404b200040032005b
:101730001d027800094a7800840ee8000500370091
:101740008d0078000002200068020700e10f4000d1
:10175000010032000e07e8000804e900e00f540021
:10176000f0ff3a0055023700afb0970070036600f3
:1017700041047800a1b79f00cfc4de0009057800be
:101780008a0578000800be000a01be004800de009d
:10179000c80add0000807200e0779f00e00f530070
:1017a00009003200e04f500007003200e14f4000d6
:1017b0000500320026002000f0779f00887f9f0000
:1017c000c6b79f000300370017002000c7b79f006f
:1017d000f8779f0078fb2f0008844700b8b79f0078
:1017e00082ff370069fb2f001a0020008984470020
:1017f000e5779f00b9b79f00cab79f007bff37000e
:10180000e5779f000c0cb3008c027800050cb20049
:101810003b003a00e00f560005003d00afb29700d4
:101820004501be004500be00a5b79f000f00370070
:10183000f0026600120032002fb497004803be0089
:10184000f69f9f0087a79f00a8b79f00980290006f
:10185000cfaade0095a79f00a5a79f007f989700bd
:101860008fa097001fa19700afa19700b0b79f006e
:10187000c1b79f00d2b79f00e3b79f000b003700ae
:10188000afb09700c102780005047800cfc4de0035
:10189000090578008a057800a1b79f00b8b79f00b6
:1018a000c9b79f00dab79f00ebb79f003fb0970022
:1018b000cfb097005fb19700efb19700e00f5000f5
:1018c000e08f5800e00f5900e08f590032003d00d2
:1018d0006000b8006011b8003fb49700cfb4970023
:1018e0005fb59700efb597003c00b30008045000c7
:1018f000898458000a0559008b8559002200370059
:10190000e00f560005003d00afb297004501be0054
:101910004500be00a5b79f000f003700f00266002b
:10192000120032002fb497008004eb004803be0081
:101930000005eb0096af9f00a7af9f00b9af9f00d7
:10194000caaf9f001fa89700afa897003fa99700b4
:10195000cfa99700a8b79f00b0b79f00c1b79f005d
:10196000d2b79f00e3b79f000b003700afb09700de
:10197000c1027800a1b79f0005047800090020008b
:101980000a0020000b002000b8b79f00c9b79f00d5
:10199000dab79f00ebb79f009fb49700e08f540029
:1019a0000d003a001a0020003fb09700cfb097001a
:1019b0005fb19700efb197009ab79f00e00f50001a
:1019c000e08f5800e00f5900e08f5900020032000c
:1019d0008000eb0091b79f000c0178000504200007
:1019e000020cb20082b79f00850f51003400320014
:1019f00003003c00e00f51000800320048003700af
:101a0000050820008fb19700858f51001400320027
:101a1000050c2000858f510041003a0026dc200093
:101a200015c0b3003600be003601be003fb49700bb
:101a3000cfb497005fb59700efb597000040e10085
:101a400001c8e10002d0e10003d8e1003300390011
:101a50008542e800f4cf5200f2ff3a002f00370031
:101a600015c0b30000012000010020006011b80083
:101a70003fb49700cfb497005fb59700efb59700dc
:101a80000040e10001c8e10002d0e10003d8e1001c
:101a900022003900490020000000d0008180d200df
:101aa0000281d2008381d2008904e900faff3a0062
:101ab0008542e800f0cf5200edff3a0017003700f2
:101ac00015c0b30080002000010020006011b800a4
:101ad0003fb49700cfb497005fb59700efb597007c
:101ae0000040e10001c8e10002d0e10003d8e100bc
:101af0000a003900390020000000d0008180d200a7
:101b00000281d2008381d2008904e900faff3a0001
:101b10008542e800f5cf5200edff3a00e5779f00df
:101b20006f7597009fb597008a02fb008b8f52005c
:101b300002003d00eb779f00040037001fb09700c4
:101b4000850f500001003d0095b79f00e00f520047
:101b500003003200e3026600010032000402e900e3
:101b60000500240085026600060032009fb0970041
:101b7000810f5200020034000102520001003700c0
:101b80000002eb006f7197008001eb008202fb0006
:101b9000f3af9f00850f520002003400850252000f
:101ba000f5af9f00640266003b003200e20266006f
:101bb00061026600e08f520011003200bd02900009
:101bc0000504b200080032009d027800b6c2b300de
:101bd000e00f52000100320006c3e800864a780098
:101be000850ee80015003700b0022000e00f52001b
:101bf000010032000080e8008d0078000c00370002
:101c0000e00f52000e0032003d0290000404b200ca
:101c1000050032001d02780005c2b300054a7800b5
:101c2000840ee800050037008d00780000022000d7
:101c30002e010700e10f4000010032000e07e8000e
:101c40007faa9700e00f52004f00320008c3b30094
:101c5000840478003d0290000404b20004003200c5
:101c60001d027800084a7800840ee800050037005d
:101c70008d007800000320001c010700e10f4000e8
:101c8000010032000e07e8008904e900f1ff3a0084
:101c9000f9af9f003c003700ffaa9700e08f520089
:101ca000140032006802660012003a0008c2b30055
:101cb000850478003d0290000404b2000400320064
:101cc0001d027800084a7800840ee80005003700fd
:101cd0008d0078000002200004010700e10f4000a1
:101ce000010032000e07e8008904e900f1ff3a0024
:101cf000f9af9f00e202660061026600e08f5200c9
:101d000011003200bd0290000504b200080032004c
:101d10009d027800b6c2b300e00f5200010032000d
:101d200006c3e800864a7800850ee80015003700f3
:101d3000b0022000e00f5200010032000080e800f5
:101d40008d0078000c003700e00f52000e003200ca
:101d50003d0290000404b200050032001d0278002c
:101d600005c2b300054a7800840ee800050037007c
:101d70008d00780000022000dc000700e10f400029
:101d8000010032000e07e8001fb39700a5db20001a
:101d90000602e900f0046600c223dd000c057800ad
:101da000c7a79f000a02b2006323b900e99f9f0002
:101db000060478004322dd00b8a79f008502420098
:101dc000da9f9f00e5af9f00a30037009fb5970003
:101dd0000fb097008b05e900010420009bb79f001e
:101de000810f50007300320003003c00e00f5000f0
:101df000080032007e003700040820000fb1970071
:101e0000840f510056003200040c2000840f510052
:101e100077003a00e00f56001f003d00efa9970041
:101e20003304be002305be003fb09700cfb097003b
:101e30005fb19700efb197000802be000a03be0031
:101e4000e30107000802be000a03be00e0779f001e
:101e50000000fb00cf80de000101780082017800e5
:101e6000440207003fb29700cfb297005fb39700dc
:101e7000efb397000002520081825a0002035b0018
:101e800083835b00b4b79f00c5b79f00d6b79f00a0
:101e9000e7b79f002e003700ef9a9700e08f5200bf
:101ea000220032006fab97003fb29700cfb297008d
:101eb0003604be002605be000400be000801be00b8
:101ec00084bf9f00f5b79f000005eb00acfb070047
:101ed0000801be00e0779f000000fb00cf80de001d
:101ee0000a0107000fba9700ffb297008aaf9f0060
:101ef0000004520081845a00d8a79f00e9a79f00e0
:101f00008004eb00f9a79f005fa09700efa0970067
:101f10007fa197008fa99700b0b79f00c1b79f001e
:101f2000d2b79f00e3b79f0009003700efa89700e2
:101f30003fb1970011027800110009000481d80018
:101f4000a4002000110009000480d800e1779f0060
:101f5000ef7197000343b000e3779f002400370040
:101f6000b4e62000df9a9700e08f520001003200b3
:101f7000a4e520003fb09700cfb097005fb1970075
:101f8000efb197004fa397000603e9000500330067
:101f90008301d1000281d3008180d3000080d3006f
:101fa000f9ff37006f00600064407800e0779f0021
:101fb0000f0037003fb29700cfb297005fb3970092
:101fc000efb397003fa497000804e9000500330031
:101fd0008703d1000683d3008582d3000482d30017
:101fe000f9ff3700674262000443b000e4779f00c6
:101ff0003d0290000404b200070032009d02780008
:102000006f729700844a7800850ee800e04f520016
:1020100007003a0007003700ef7497008d00780042
:102020000900fb0031000700e10f40000100320011
:102030000e07e8004fa59700bfa597006fa897006f
:1020400064055500e385550068005000caa79f004d
:10205000bba79f00e0af9f009fb09700e08f5000ac
:102060005aff3a0068066600140032007fa9970004
:10207000e00f51001100340008c2b3008204780060
:102080003d0290000404b200040032001d027800fa
:10209000084a7800840ee800050037008d007800bb
:1020a0000002200011000700e10f40000100320093
:1020b0000e07e8008904e900f1ff3a00dfa9970064
:1020c00013407800e0779f00e04f500095fc3a0005
:1020d0000e0078004f0778004f06be004f05be0087
:1020e0004f04be00ef03b10000000600889fbe0051
:1020f000010478008084eb0038029000e202620064
:102100003b00320004037800980290000620b200e1
:1021100002003a00e08f520035003a000490a0001f
:102120008004780034049800f90fb200e08f520068
:1021300002003a00a8029000050c7800ea8f5400d3
:1021400005003a000408b20003003a008800780055
:10215000d0002000e5ff070018029000d802900090
:10216000850f52000b0032000402e80015c0b300d6
:102170001404980018027800094a7800040ce8005a
:1021800004ec2000054a7800ea8f540018003a0059
:102190000500370009407800880078001700070024
:1021a0008004780012003700380290000410b2005a
:1021b0000f00320018019000a80090004800900025
:1021c000b9f9070018029000840f50000400320093
:1021d000380290000403b300340498008084eb00bc
:1021e0000002eb001404980028029000040c780010
:1021f000090078004f04be00000006000200fa004b
:10220000889fbe0001047800a0ff9f003802900064
:10221000840278000504b200020032000000fb00d6
:1022200035003700e202620005003a000403b30003
:1022300015049800340498000080eb002e0037004d
:10224000d8049000e08f540006003a0012002000ed
:10225000e68057004800900093f9070019049800a1
:1022600023003700a8029000e08f520008003a00d7
:1022700045ec20000430a00025049800050c7800ef
:102280003404980025002000550498001504980097
:1022900018019000a80090004800900082f9070003
:1022a000280290008082eb0015049800affa970096
:1022b000054a7800040ce8002ffa9700ea4f520014
:1022c0000b003a00380290000410b20008003200ff
:1022d00018019000a80090004800900072f90700d3
:1022e0000002eb00a802900014049800050c78008e
:1022f0002ffa97000400fb004f04be000080fa0094
:102300000000060000c0da0000000600020ab90062
:10231000001bb9000200b8008100420081004300a8
:1023200000000600889fbe008a9fbe003004be00e9
:102330002005be000404440085844c0006054d00c1
:1023400087854d000898be000a90be000440e10059
:1023500005c8e10006d0e10007d8e1000200310025
:10236000680040001008e8004f05be004f04be00a2
:10237000000006001000fa00889fbe008a9fbe0081
:10238000110020000605be000404be003002be009d
:102390002003be00c4b79f00d5b79f00e6b79f00db
:1023a000f7b79f000802520089825a000a035b00b7
:1023b0008b835b0084bf9f0095bf9f00a6bf9f00db
:1023c000b7bf9f000498be000698be004fb29700aa
:1023d000dfb297006fb39700ffb397000820e100ca
:1023e00009a8e1000ab0e1000bb8e10001003900e2
:1023f0008000eb004f05be00108810004f04be00a7
:102400000080fa00000006001400fa00889fbe0059
:102410008a9fbe008c9fbe000006eb003e000700b6
:10242000ccb79f00bcb79f00acb79f009cb79f0084
:102430008cb79f000605be000404be000d042000fa
:102440004fb39700bfb29700860343002fb29700a7
:10245000e00f530004003d003d0007000f00400066
:10246000b0ff070003003700390007000f004000ed
:10247000c0ff0700cfb2970095bf9f00e08f5200ca
:10248000090035002b000700140020000500200083
:102490006033b80000007200818072000201730096
:1024a000838173001c0007000c06e8008d0f5600a6
:1024b000e3ff3a001fba9700e00f520005003d000d
:1024c0000802be000a03be0000fe2f000f004000fd
:1024d00094ff07004faa9700e00f520008003a004f
:1024e0000fb497009fb497002fb59700bfb5970022
:1024f000d8b79f00e9b79f00fab79f008bbf9f0036
:102500000c0007004f06be004f05be004f04be0082
:102510000080fa000000060001000700000006002d
:1025200090b79f00a1b79f00b2b79f00c3b79f00ad
:102530000000060001000700000006001fb0970021
:10254000afb097003fb19700cfb1970000000600f1
:102550004f2bde00f9ff070086837300858242005f
:102560004f23de00a7b79f0086827200040242005c
:1025700095b79f00ffaa97004f2bde00858242008f
:102580000602720084b79f006faa97004f23de00f7
:102590000402420086827200f5af9f004f18de00f1
:1025a00000027200e5ff0700e4af9f00000040005a
:1025b0008180480002014900838149000802be0071
:1025c0000a03be00d6ff070000fe2f000000060031
:1025d000881f780018002000881f78008aff0700f5
:1025e0008f87e9004f04780000000600801feb0091
:1025f00085ff07008f87e90000000600889fbe0066
:102600008a9fbe00e00f5000e08f5800e00f590095
:10261000e08f59000c003d006044b8006055b800e0
:102620000000540081805c0002015d0083815d0038
:10263000180020001500070008003d0018000700e2
:102640000004eb00050037000004eb000f0007005a
:1026500002003d001200070018002000dcff070008
:10266000e00f5400060032006022b8006033b8006a
:102670000000520081805a0002015b0083815b00f0
:102680004f05be004f04be0000000600e00f5200e0
:10269000e08f5a00e00f5b00e08f5b000000060057
:1026a0006044b8006055b8000402540085825c00a4
:1026b00006035d0087835d0000000600889fbe0062
:1026c0008a9fbe008c1f7800e00f5000e08f5800fa
:1026d000e00f5900e08f59000d003d006044b80044
:1026e0006055b8001c0020000000540081805c0090
:1026f00002015d0083815d000820e10009a8e1007e
:102700000ab0e1000bb8e1000d003d000800370001
:102710000006eb00e00f5200e08f5a00e00f5b0074
:10272000e08f5b0006003d006044b8006055b800d3
:102730000402540085825c0006035d0087835d000f
:10274000aaff0700e00f5600060032006022b80022
:102750006033b8000000520081805a0002015b0023
:1027600083815b004f0678004f05be004f04be001a
:1027700000000600889fbe008a9fbe008c1f780064
:102780000006eb00e00f5000e08f5800e00f59000a
:10279000e08f590007003d006044b8006055b80064
:1027a0001c0020000000540081805c0002015d00dc
:1027b00083815d00e00f5200e08f5a00e00f5b0064
:1027c000e08f5b0007003d006044b8006055b80032
:1027d0000c00a2000402540085825c0006035d0028
:1027e00087835d000c000700e00f560006003200f2
:1027f0006022b8006033b8000000520081805a00a7
:1028000002015b0083815b004f0678004f05be002c
:102810004f04be0000000600889fbe008a9fbe00d5
:102820008c9fbe000404b8000506b8008904460069
:1028300060854e000606b8000a054600e0854e0099
:102840000706b8008b054600040eb8008904460050
:102850000a854e00e0854d00050eb8000a054600c9
:102860008b854e00060eb8008b0546000416b80096
:102870000a0546008b854e000516b8008b054600fc
:10288000041eb8008b0546000800be000a01be0009
:102890004f06be004f05be004f04be0000000600fc
:020000040000fa
:1028a00000000000006400000050000064630000ad
:1028b00050000000646d00005050000000790000de
:1028c000000000006462000000500000006700008b
:1028d0005000000000720000787800007877000057
:1028e00000000000010000000400000009000000da
:1028f000100000001900000024000000310000005a
:102900004000000051000000640000007900000059
:1029100090000000a9000000c4000000e1000000d9
:1029200000010000210100004401000069010000d5
:1029300090010000b9010000e40100001102000054
:102940004002000071020000a4020000d902000051
:10295000100300004903000084030000c1030000cd
:10296000000400000202000002640000020b0000ec
:102970000d6300000b0200000d6d00000b0b00004a
:1029800002790000020200000d620000020b00004c
:10299000026700000b02000002720000101000002d
:1029a00010770000726300003a250000750d0000ea
:1029b0000a000000257500003a28000025330000b9
:1029c000752c000025330000752900000d0a000059
:0429d0000000000003
:020000040000fa
:1029d4000200fa0007003700446c8000040f7800fe
:1029e400446c8000140a9000446c88001e00780037
:1029f40045010700446c8000e00f5200f6ff3a00e6
:102a040007003700646c8000040f7800646c800059
:102a1400140a9000646c88001e0078003a010700d4
:102a2400646c8000e00f5200f6ff3a000002eb00f5
:102a3400546c880040012000212207000002780025
:102a4400446c8800446c8000e00f52002200320085
:102a5400446c80006802420004007800d822070019
:102a6400446c80008002eb0075029800466c800084
:102a7400456c8000446c80008e0078000f00780064
:102a84000701800021039800900298003702980003
:102a9400446c80008082eb0055029800446c8000f6
:102aa4008002eb00050a9800446c80008002eb0071
:102ab400150a9800446c80008002eb00050a780037
:102ac400446c80008002eb0065029800446c800036
:102ad400546c880001003700000000000080fa00f8
:102ae400000006000400fa000002eb00040f780066
:102af400446c800014079800040037001e0fe8009f
:102b04001e029000940a9000150798001e0290007f
:102b1400e00f5200f9ff3a00646c8000140798003b
:102b2400040037001e0fe8001e029000940a900073
:102b3400150798001e029000e00f5200f9ff3a00ba
:102b44001e027800040078000080fa0000000600ed
:102b54000400fa00000f780011079800746d8000db
:102b64009e027800840a78000402e800746d8800ec
:102b74001e029000e00f520002003a00840c200074
:102b8400140798009e0278006882420004007800ce
:102b94008b2207001e009000c92107000002780064
:102ba400840278001e027800750298001e027800e4
:102bb40074029000e00f520002003a000042eb0061
:102bc400130037001e02780074029000840278001b
:102bd4001e027800150298001e02780094029000ec
:102be4001e027800250298001e02780094029000cc
:102bf4001e029000848242001e0278003502980072
:102c04001e0278008002eb006502980014c0b30035
:102c1400044078000080fa00000006000400fa0076
:102c24001007980040012000a52107000002780049
:102c3400040f78001e027800e00f520002003a00f0
:102c44000042eb003b0037001e0278008000eb00de
:102c540004007800beff0700004278000404a200cc
:102c6400e04f5200040032001e007800a221070049
:102c74000042eb002f0037001e027800f50f200001
:102c8400550298001e027800e5ab2b00450298001f
:102c94001e0278008002eb00050a98001e027800ec
:102ca4008002eb00150a98001e027800a40290002e
:102cb4001e027800140390001e027800b4039000f2
:102cc4001e029000881f7800891f78008a1f7800f0
:102cd4000e0478008f0478000a018000050778004c
:102ce4008607780007018800841f78000000200010
:102cf400801f78000e0378008f02780008077800a0
:102d0400890778000a0188004f057800cf0478000d
:102d14004f0478001e027800260298001e027800f4
:102d24001502980081d820001e0078008d0107004c
:102d340014c0b300044078000080fa0000000600cc
:102d44000200fa00000f78001e007800b3ff0700ad
:102d540000427800044078000080fa000000060079
:102d64000400fa00100798001e029000e00f5200c1
:102d740024003200546c8000940278001e029000fb
:102d8400848f520002003a00210007001e00370021
:102d940081d820001e009000260107000002780060
:102da400040f78001e027800e00f52000600320083
:102db4001e027800d5ea2d00450298001e00780016
:102dc4005100070010003700c1d820001e009000f9
:102dd4001801070000027800040f78001e02780032
:102de400e00f5200080032001e027800d5ea2d00e0
:102df400450298001e007800430007000000000010
:102e040001003700000000000080fa000000060006
:102e14000400fa00546c800014027800e00f5200a1
:102e240026003200546c8000d5ea2d00450298003b
:102e3400546c80001402780004007800c10e07006e
:102e4400546c8000040a9000e00f52000a003a001b
:102e5400546c8000040f7800030037001e027800d1
:102e6400940a9000050f78001e027800e00f5200cb
:102e7400faff3a0003003700546c8000840a900083
:102e8400050f7800546c80001402780081d820006b
:102e940004007800e7000700000278001407980097
:102ea400e1d820001e0090002e0107001e027800c9
:102eb400546c8800b62007000100370000000000b1
:102ec4000080fa00000006000400fa00746c800020
:102ed400040f7800070037009e0278001507980059
:102ee4001e027800940a9000050f78001e009000de
:102ef400050007001e027800e00f5200f6ff3a00ba
:102f04000080fa00000006000200fa00000f7800ba
:102f14001d2107001e007800dc0307001e02780054
:102f24007402900004007800f32007001e02780069
:102f34008002eb00750298001e007800ee20070066
:102f4400252107000080fa00000006000000fa00b6
:102f5400546c8000e00f5200290032000a2107005f
:102f64004200f800801f7800811f7800821f7800db
:102f7400831f7800841f7800851f7800861f7800df
:102f8400871f7800881f7800891f78008a1f7800bf
:102f94008b1f78008c1f78008d1f78002200f800aa
:102fa4002800f8003200f8003400f8003600f80079
:102fb4003800f8003c00f8003a00f8004000f8003f
:102fc4003e00f8004400f8000080fe004200f800d3
:102fd400801f7800811f7800821f7800831f78008b
:102fe400556c8000546c80008e0378000f037800c9
:102ff400a702980016029800f72007000100370086
:10300400000000000080fa00000006000600fa003c
:10301400000f78001107980022079800da200700b3
:1030240080187800010078000080fa00be1878004b
:103034000f70e100fdff350000077800810778007c
:10304400020188008e1f78000f077800801f780027
:10305400811f7800821f7800df2007000080fa00bb
:10306400000006000200fa00000f7800546c800093
:103074009e027800848f520047003200b3ff07009d
:103084001e027800340390001e027800940290001f
:103094001e02780024029000060178008500780062
:1030a40004007800d9ff0700546c800055552500b2
:1030b400450298001e027800c4029000e4ab2b0085
:1030c400848f520008003a00f41f07001e027800a3
:1030d4008082eb00450298001e027800546c880040
:1030e4000080fa00004006001e0278008082eb0097
:1030f400450298001e027800546c8800a220070044
:103104000080fa00cf0178004f017800cf007800ea
:103114004f0078004200f90000a0fe004400f900ce
:103124003e00f9004000f9003a00f9003c00f900c3
:103134003800f9003600f9003400f9003200f900d3
:103144002800f9002200f900cf0678004f06780025
:10315400cf0578004f057800cf0478004f0478003d
:10316400cf0378004f037800cf0278004f02780035
:10317400cf0178004f017800cf0078004f0078002d
:103184004200f900942007000080fa000080fa0051
:103194000000060001003700000000000080fa0073
:1031a400000006000400fa0010079800446c800038
:1031b400040f78000b0037001e0278009402780098
:1031c4001e029000848f520003003a001e00780013
:1031d400a4ff0700060037001e027800940a90003e
:1031e400050f78001e027800e00f5200f2ff3a004b
:1031f4000080fa00000006000000fa00546c800011
:10320400140a9000e00f520004003a00446c80005d
:103214000400780093ff070004003700546c80001a
:10322400140a9000040078008eff07000080fa0062
:10323400000006000800fa002007980031079800f3
:103244003e02900014027800e00f520002003a009f
:103254000002eb00400037003e02900014027800a8
:10326400940278002e029000848f520015003a00d8
:10327400452007003e02900094027800150798004c
:103284001e029000940a90003e029000050a780005
:103294003e029000140278008002eb00050a9800b8
:1032a4001e0290008002eb00050a98001e029000a6
:1032b4008002eb00150a9800472007001e029000c8
:1032c400250037003e02900014027800940a900012
:1032d400050f78001c0037001e0278009402780065
:1032e4002e029000848f520014003a00262007001a
:1032f4001e027800040a90009e027800950a90004d
:10330400150a98001e027800140a90009e027800a4
:10331400850a9000050a98001e0278008002eb00de
:10332400050a98001e0278008002eb00150a980036
:10333400292007001e027800070037001e027800cb
:10334400940a9000050f78001e027800e00f5200e6
:10335400e1ff3a000002eb00040078000080fa006c
:10336400000006000600fa001007980021079800e4
:103374001e029000e00f5200590032001e0290001d
:103384008002eb00050a98001e0290008002eb0008
:10339400150a98002e02900014027800e00f5200e3
:1033a40004003a002e0290009e029000050a780064
:1033b4004c0037002e02900014027800940278002a
:1033c4001e02900014027800848f5200110036000f
:1033d400ed1f07002e029000940278001e02900058
:1033e400150a98001e0290008002eb00050a98005e
:1033f4002e029000140278009e029000050a9800a4
:103404002e0290009e029000050a7800f21f070029
:10341400340037002e029000140f78001f0037008c
:103424001e027800140a9000940278001e02900094
:1034340014027800848f520015003600d21f070052
:103444001e027800940a90001e029000150a98004b
:103454001e029000140a9000e00f52000400320093
:103464001e029000140a90009e029000050a980023
:103474001e0290009e027800050a98001e02780041
:103484009e029000150a9800d31f0700150037000c
:103494001e027800940a9000050f78001e0278003e
:1034a400140a9000e00f5200ddff3a00b61f070037
:1034b4001e0290008002eb00150a98001e0278009c
:1034c4009e029000150a98001e0290009e02780049
:1034d400050a9800c01f0700000000000100370023
:1034e400000000000080fa00000006000400fa005a
:1034f40010079800446c8000040f78000a0037001d
:103504001e027800940278001e029000848f5200fc
:1035140002003a001e027800170037001e027800ed
:10352400940a9000050f78001e027800e00f520004
:10353400f3ff3a00646c8000040f78000a0037003f
:103544001e027800940278001e029000848f5200bc
:1035540002003a001e027800070037001e027800bd
:10356400940a9000050f78001e027800e00f5200c4
:10357400f3ff3a000002eb00040078000080fa0038
:10358400000006000000fa00f81e07000080fa00a0
:10359400000006000000fa00f91e07000080fa008f
:1035a400000006000800fa001007980021079800a0
:1035b40032079800446c8000e00f52001c00320077
:1035c400446c8000140a9000e00f52001a0032008c
:1035d4006d1f070081d820001e00900015ff070012
:1035e40000027800040f7800c1d820001e00780083
:1035f4005cff07002e0090005c0b0700be019000ea
:1036040042b221009e0090002e0090008f0b070014
:10361400546c8000940278001e029000848f520043
:1036240001003a00da1e07006b1f07000300370091
:103634000000000001003700000000000080fa00d4
:10364400000006000c00fa003007980041079800bb
:1036540052079800646c8000e00f520002003a00a8
:1036640014c0b3002b003700471f0700c1d8200047
:103674003e009000effe0700000278002407980047
:1036840081d820002e00900036ff0700521f07004b
:103694002e0290006c0242000401780041b2210025
:1036a4004e009000890107000042eb00044f7800af
:1036b4002e029000e4029000150798000a003700db
:1036c4001e029000940278004e029000848f5200f3
:1036d40002003a0014c0b300044f78001e029000a8
:1036e400d4029000150798001e029000e00f5200cb
:1036f400f3ff3a001e4278000404a200e04f520097
:1037040003003200be0090004e009000ea0b070058
:1037140014c0b300044078000080fa0000000600e2
:103724000e00fa00300798004107980052079800ed
:10373400630798005e029000e00f520002003a0016
:1037440014c0b3003d0037003e00900067ff07003f
:1037540000027800140798001e029000e00f520047
:1037640002003a000042eb0034003700c0002000a1
:10377400d31e070000027800240798002e02900050
:10378400e00f520002003a000042eb002b00370029
:103794002e029000ce029000050a78002e029000be
:1037a400de029000150298002e029000ee029000b6
:1037b400250298002e0290008002eb00550298002a
:1037c4002e0290008002eb00350298001e02900049
:1037d40064029000e00f5200140032001e029000b8
:1037e400e4029000050f7800070037001e027800fd
:1037f40054029000e00f5200070032001e027800cd
:10380400d4029000050f78001e027800e00f5200e9
:10381400f6ff3a0001003700000000001e027800a5
:10382400ae02900055029800030037001e0290007b
:10383400ae0290006502980014c0b3000440780002
:103844000080fa00000006000600fa001007980045
:10385400210798001e029000040f78000a00370028
:103864001e027800940278002e029000848f520089
:1038740002003a001e027800070037001e0278009a
:10388400d4029000050f78001e027800e00f520069
:10389400f3ff3a000002eb00040078000080fa0015
:1038a400000006001400fa006007980071079800f1
:1038b400020f9800130f98006e0090000bff070092
:1038c40000027800440798004e029000e00f520076
:1038d4007e00320004d92000040f78000300370072
:1038e4001e02780014027800048fe8001e0278009b
:1038f40014027800e00f5200f9ff3a00a21e0700fc
:10390400400020006e1e0700000278008402780048
:103914001e027800050a78001e027800140278005e
:10392400e00f520002003a00ab1e07006a003700a5
:103934001e02780014027800fe029000050a780046
:103944001e027800140278008002eb001502980031
:10395400a11e07004e029000e40290001507980093
:10396400510037000042eb00444798001e029000cb
:1039740024029000e00f5200070032001e02900063
:10398400240290000e089000040001000042780018
:10399400444798000200370014c0b300444798001d
:1039a4004e429000e04f52003f0032006000200081
:1039b400431e070000027800540798005e0290003e
:1039c400e00f5200430032001e0a9000e00f520044
:1039d400130032001e089000391e07000002780010
:1039e400de029000840a78005e02900014027800df
:1039f400e00f520003003a005e0090003e1e0700f4
:103a0400350037005e029000140278001e09900011
:103a1400840078000e0890003f1e07000300370062
:103a24005e0290008002eb00050a78005e029000be
:103a34009e0a9000150298005e0290008002eb003e
:103a4400250298001e02900034029000e00f5200fc
:103a540004003a001e029000de0290003502980035
:103a64000e0037001e029000b40290003507980043
:103a7400030037003e029000a4029000350798002e
:103a84003e02900024029000e00f5200f9ff3a0039
:103a94003e029000de029000250298001e02900073
:103aa400d402900015079800fe0090001e009000bc
:103ab40065ff070000027800140798001e029000ba
:103ac400e00f5200a7ff3a00030037000000000097
:103ad40001003700000000000080fa00000006002a
:103ae4000800fa0020079800310798003e02900071
:103af400040f7800270037001e027800e4029000cb
:103b0400150798001d0037001e02900094027800eb
:103b14002e029000848f520015003a001e0290007d
:103b240014029000e00f52000a0032001e029000be
:103b3400140390001e029000b40290001e0278004c
:103b44001402780005017800ae00900004007800ab
:103b5400060001001e029000660242000400780084
:103b6400b20007001e0290008002eb0035029800ac
:103b74001e029000d4029000150798001e029000c7
:103b8400e00f5200e0ff3a001e027800940a900011
:103b9400050f78001e027800e00f5200d6ff3a00ad
:103ba4000080fa00000006000400fa00846c800023
:103bb400040f78000002eb00846c880013003700c7
:103bc400456c80001e02780014027800850078009d
:103bd40004007800c2ff0700656c80001e027800b4
:103be400140278008500780004007800bcff070008
:103bf4009e027800150798001e0278009402900037
:103c0400050f78001e009000bb1d07001e027800ff
:103c1400e00f5200eaff3a000080fa0000000600bc
:103c24000000fa00e0ff0700221d07000080fa00f0
:103c3400000006000400fa0010079800446c80009d
:103c4400040f7800090037009e0278006c8242005d
:103c540004017800e1ff2f001e0090001b00070004
:103c64001e027800940a9000050f78001e02780066
:103c7400e00f5200f4ff3a000080fa000000060052
:103c84000800fa00100798002107980032079800ee
:103c94001e00900015fe070000027800040f780053
:103ca4001e027800e00f5200060032009e027800e7
:103cb4006c82420004017800be0090002e00900047
:103cc400020007000080fa00000006000e00fa005f
:103cd4004007980051079800620798006e02900010
:103ce400e00f5200040032006e02900014027800cb
:103cf400e00f520002003a000002eb0048003700d7
:103d04006e02900094027800250798002e0290001d
:103d1400940278004e029000848f520017003a00fb
:103d24005e029000e20f4200050032002e02900075
:103d3400940290005e029000848f52000f003a00bb
:103d44002e029000d4029000350798002e029000b5
:103d5400d40290006e029000050a78002e029000b2
:103d64006602420004007800300007002e00900034
:103d7400611d07003e029000290037002e029000ca
:103d8400040f78002e029000d402900015079800ca
:103d94001e029000940278004e029000848f52001c
:103da40016003a005e029000e20f42000500320065
:103db4002e029000940290005e029000848f5200c4
:103dc4000e003a001e029000d40290001e027800f9
:103dd400550298001e02900066024200040078001a
:103de400120007001e009000431d07001e02780009
:103df400d402900015079800050037001e029000b9
:103e0400040f78001e029000d40290001507980059
:103e14001e029000e00f5200ddff32002e029000df
:103e2400040078000080fa00000006000600fa0092
:103e3400200798002e029000140f78002e029000a4
:103e44008002eb00050a78000b0037001e027800a0
:103e5400140798001e0290001402780004007800f1
:103e6400251d07001e009000231d07001e02780078
:103e7400a4029000050f78001e027800e00f5200a3
:103e8400f2ff3a000080fa00000006000600fa0083
:103e9400200798002e029000e4029000050f78009d
:103ea4002e0290001402780004007800a50a07008e
:103eb4000b0037001e027800140798001e027800d9
:103ec400d4029000050f78001e02900066024200a2
:103ed40004007800d5ff07001e009000061d0700af
:103ee4001e027800e00f5200f2ff3a002e0290000a
:103ef4008002eb00650298000080fa0000000600d2
:103f04000a00fa003007980041079800546c8000ba
:103f1400140278004e019000be0090000400780066
:103f2400a0fd0700546c8000e4029000050f7800a7
:103f34001e02780014079800250037001e0278003e
:103f4400940278003e029000848f52001b003a00d5
:103f54001e027800a40290004e029000848f52004a
:103f640016003a001e027800b4029000250798005b
:103f74001e0290009e0f520005003a00546c80000f
:103f84009e027800d5029000650298000400370074
:103f94001e027800d40290001e0290005502980080
:103fa4001e0278008002eb00550298001e00780083
:103fb400d11c07002e029000090037001e02780071
:103fc400140798001e027800d4029000050f7800b0
:103fd4001e027800e00f5200d8ff3a000002eb0006
:103fe400040078000080fa00000006000200fa00d5
:103ff400000f78008000eb001e007800c0ff07006f
:1040040000027800040078000080fa000000060036
:104014000000fa00556c8000446c8000848f5200cc
:1040240004003a00446c8000140a9000e00f52002f
:1040340002003200561c0700010037000000000097
:104044000080fa00000006000200fa00931b07003b
:104054000002eb00040f78000d0037009e02e80018
:10406400e4c72000048242001442780084427800ad
:10407400e4c720001e024200144278000541780083
:1040840084407800c0cdb300bc1b07001e8fe8003d
:104094009e027800740d2000848f5200efff3600da
:1040a400821b07000080fa00000006000200fa00ec
:1040b400881f7800791b07000002eb00040f7800ca
:1040c4000d0037001e04e800e4c720001e02420071
:1040d4001442780084407800c0cdb300771b0700f9
:1040e4000042780084427800e4c7200004024400bf
:1040f400054a78001e8fe8009e027800740d2000a7
:10410400848f5200efff3600681b07004f047800cd
:104114000080fa00000006000200fa00000f780098
:104124001e027800e10f520009003200e20f520033
:104134000c003200e00f52000f003a00c4c0b3007c
:104144000443780015cc2000864a78000c00370020
:1041540084c0b3000443780015cc2000864a78005c
:104164000700370024c0b3000443780015cc2000b6
:10417400864a7800020037000082eb000100370015
:104184000002eb00040078000080fa000000060042
:104194000200fa00000f7800440420009e02780018
:1041a400848f5200070032001e027800f10f520083
:1041b40004003200340320009e027800848f5200f1
:1041c40007003a001e027800044278000443780095
:1041d40015cb2000864a78000002eb00010037006e
:1041e4000082eb00040078000080fa000000060062
:1041f4000200fa00000f78001e027800e00f52005f
:104204001b003200040220009e027800848f5200ba
:1042140017003200040320009e027800848f5200ad
:1042240013003200040420009e027800848f5200a0
:104234000f003200040520009e027800848f520093
:104244000b003200040620009e027800848f520086
:1042540007003200040620009e027800848f52007a
:10426400030032001e027800f00f520007003a00eb
:104274001e0278000442780004437800b5ca200086
:10428400864a78000002eb00010037000082eb0050
:10429400040078000080fa00000006000800fa001c
:1042a4002007980031079800ae0290003e0290006b
:1042b400848f5200020039000082eb002000370096
:1042c400be02900034382000848f52000200360071
:1042d4000082eb001a0037002e0290000402e9006d
:1042e400240798002e029000044f78002e029000bc
:1042f4004822de00144798003e02900024479800ac
:104304003e0290004822de00344798009e4290000e
:1043140074c82000054a78009e42780094c82000a2
:10432400054a7800be429000f4c82000054a78008f
:10433400ae42900014c92000054a78000002eb0048
:10434400040078000080fa00000006000800fa006b
:104354002007980031079800ae0290003e029000ba
:10436400848f5200020039000082eb001d003700e8
:10437400be029000341f2000848f520002003600d9
:104384000082eb00170037002e029000044f7800e3
:104394002e0290004822de00144798003e0290004e
:1043a400244798003e0290004822de0034479800db
:1043b4009e429000b4c82000054a78009e427800ce
:1043c400d4c82000054a7800be42900034c92000b9
:1043d400054a7800ae42900054c92000054a78008e
:1043e4000002eb00040078000080fa0000000600e0
:1043f4000c00fa0030079800410798005207980013
:10440400be0290004e029000848f520002003900d8
:104414000082eb002e003700ce029000341f2000f3
:10442400848f5200020036000082eb00280037001f
:10443400de02900034382000848f520002003600df
:104444000082eb00220037003e029000044f780007
:104454003e0290004822de00144798004e0290006d
:10446400244798004e0290004822de00344798000a
:104474005e029000444798005e0290004822de00ed
:10448400544798009e429000f4d02000054a7800da
:104494009e42780014d12000054a7800be42900064
:1044a40034d12000054a7800ae42900054d1200057
:1044b400054a7800de42900074d12000054a780055
:1044c400ce42900094d12000054a78000002eb000f
:1044d400040078000080fa00000006000600fa00dc
:1044e40010079800210798001e029000e00f520068
:1044f400060032002e029000e00f5200030032004a
:10450400a4ccb300044f78000e0037001e029000c4
:10451400e00f520003003200a4c4b300044f78003b
:10452400080037002e029000e00f52000300320012
:10453400a4c8b300044f780002003700a4c0b3003d
:10454400044f78001e42780004437800d5ca200046
:10455400864a78000080fa00000006000400fa0091
:1045640020479800314798000002eb00040f7800c0
:104574000e003700e4c720001e0242009442780077
:104584002e42900084cf520007003a009e02e800b9
:10459400e4c7200004824200be429000054a78002d
:1045a4000002eb00060037001e8fe8009e02780030
:1045b400740d2000848f5200eeff36000082eb0061
:1045c400040078000080fa00000006000600fa00eb
:1045d40020479800210798000002eb00040f7800a0
:1045e4000f003700e4c720001e0242009442780006
:1045f4002e42900084cf520008003a009e02e80048
:10460400e4c7200004824200944278002e02900005
:10461400054a78000002eb00060037001e8fe80010
:104624009e027800740d2000848f5200edff360046
:104634000082eb00040078000080fa00000006000d
:104644000200fa00004f7800114798009e42900043
:1046540074c92000054a78009e42780094c920005d
:10466400054a78000080fa00000006000600fa00ff
:10467400004f78001147980022479800334798006c
:1046840044479800f4c4b3009e42780084cf52009b
:10469400020036000082eb00100037009e427800d2
:1046a400b4c92000054a78009e429000d4c9200075
:1046b400054a7800ae429000f4c92000054a78000b
:1046c400ce42900014ca2000054a7800be429000f1
:1046d40034ca2000054a78000002eb000400780088
:1046e4000080fa00000006000400fa00008fbe00fb
:1046f4001e02be004a2bdd004622de0004027300c7
:10470400c62ade00044278000443780075ca2000fb
:10471400864a78001e02be00422bdd004e22de00d7
:1047240004027300ce2ade000442780004437800b9
:1047340055ca2000864a78000042eb000443780002
:1047440095ca2000864a78000080fa00000006001e
:104754000200fa00004f78009e42780034cb20001b
:10476400054a78000080fa00000006000200fa0002
:10477400000f78001e027800e00f5200080032009b
:1047840035cc20009542780004c8b30004c27200fe
:104794000443780035cc2000864a780006003700b0
:1047a40034cc2000144278000474a100044378003f
:1047b40035cc2000864a78000080fa00000006000c
:1047c4000400fa00004f780011479800224798002f
:1047d4009e42780074cc2000054a78009e429000e6
:1047e40094cc2000054a7800ae429000b4cc20005e
:1047f400054a78000080fa00000006000200fa0072
:10480400004f7800114798009e4278007fc26200f2
:104814000445b00084427800d6cc2000054b7800d3
:104824001e429000f6cc2000044b78000080fa0071
:10483400000006000600fa0010079800414798009f
:104844004e429000e342620054002000842add00be
:1048540004c8b30004c242000443780055d52000c4
:10486400864a78000002eb00040f78000c00370041
:104874001e027800040242003605200004034300af
:104884001e0278009e029000048242009442780046
:10489400e4c7200004024300054a78001e0fe80024
:1048a4001e027800e10f5200f1ff36000080fa008a
:1048b400000006000000fa007819070054d5200013
:1048c400144278008442780044d5200014427800d1
:1048d4000541780084407800c0cdb300a7190700d3
:1048e4007219070065ce20009542780004cd20009f
:1048f40014427800854078000440780002000700e4
:104904000080fa00000006000600fa004047980004
:10491400514798000002eb00140798005f19070044
:104924000002eb00040f78001c003700e4c72000ed
:104934001e024200944278004e42900084cf5200fe
:1049440015003900e4c720001e024200944278009a
:104954005e42900084cf52000f003e009e02e800a9
:10496400e4c72000048242001442780084427800a4
:10497400e4c720001e02420014427800054178007a
:1049840084407800c0cdb3007c1907001e0290005b
:104994000402e800140798001e8fe8009e027800c5
:1049a400740d2000848f5200e0ff36003f19070089
:1049b4001e029000040078000080fa000000060047
:1049c4000400fa00100798000002eb00040f7800be
:1049d4000c0037001e02780004024200b6062000d4
:1049e400040343001e0278009e02900004824200e9
:1049f40094427800e4c7200004024300054a78008a
:104a04001e0fe8001e027800e10f5200f1ff36008d
:104a14000080fa00000006000200fa00004f78004f
:104a2400114798009e427800b4cf2000054a7800d0
:104a34009e429000d4cf2000054a78000080fa00fe
:104a4400000006000200fa00004f780011479800a9
:104a54009e427800f4cf2000054a78009e429000e0
:104a640014d02000054a78000080fa0000000600f7
:104a74000200fa00004f7800114798009e42780027
:104a840034d02000054a78009e42900054d0200083
:104a9400054a78000080fa00000006000200fa00cf
:104aa400004f78009e42780044002000042add0074
:104ab4006f42420004437800b5d12000864a780052
:104ac4000080fa00000006000200fa00004f78009f
:104ad400114798009e42780044002000842add009b
:104ae4001e4290006f42620004c2420004437800f8
:104af400d5d12000864a78000080fa000000060024
:104b04000200fa00004f7800114798009e4290007e
:104b140044002000842add001e4378006f426300b5
:104b240004c2420004437800f5d12000864a78008c
:104b34000080fa00000006000400fa00008fbe00a6
:104b44001e02be0040aade00cfa2de0004427800ae
:104b54000443780015d22000864a78001e02be0065
:104b6400482bdd004822de0004027300c8aade00e0
:104b7400044278000443780035d22000864a780045
:104b84001e027800044278000443780055d22000c5
:104b9400864a78000080fa00000006000200fa004d
:104ba400004f78009e42780074d22000054a7800b5
:104bb4000080fa00000006000400fa00000f7800ec
:104bc400110798001e0278004822de000442780093
:104bd40004437800d5d22000864a78001e0278006b
:104be4000442780004437800f5d22000864a780015
:104bf4001e0290004822de0004427800044378003c
:104c040015d32000864a78001e02900004427800e2
:104c14000443780035d32000864a78000080fa00e7
:104c2400000006000600fa00004f780011479800c3
:104c34002247980033479800444798005547980006
:104c4400ae42900054d32000054a7800be42900042
:104c540074d32000054a78009e42780094d3200043
:104c6400054a78009e429000b4d32000054a78009b
:104c7400ce429000d4d32000054a7800de42900052
:104c8400f4d32000054a78000080fa0000000600f2
:104c94000800fa00000f7800110798002207980016
:104ca40033079800240d20001e0f42001e029000be
:104cb400240db000140798002e02900067024200f1
:104cc400240798003e0290006702420034079800cf
:104cd4009e02900024352000848f5200020036008a
:104ce4000082eb004f003700be029000741e2000cb
:104cf400848f5200020036000082eb004900370026
:104d04001e0290009e027800848f5200040031003d
:104d1400ae0290003e029000848f520002003900df
:104d24000082eb003f003700541a20009e027800f6
:104d3400848f52000c0036009e02900094272000bd
:104d4400848f520008003e00ae029000740a2000d6
:104d5400848f520004003600be02900064142000c8
:104d6400848f5200020036000082eb002d003700d1
:104d74001e0278004822de000442780004437800d2
:104d840015d42000864a78001e0278000442780078
:104d94000443780035d42000864a78001e0290002f
:104da4004822de00044278000443780055d42000f1
:104db400864a78001e02900004427800044378007a
:104dc40075d42000864a78002e0290004822de0026
:104dd400044278000443780095d42000864a780081
:104de4002e0290000442780004437800b5d42000d9
:104df400864a78003e0290004822de000442780091
:104e040004437800d5d42000864a78003e029000fe
:104e14000442780004437800f5d42000864a7800e0
:104e24000002eb00040078000080fa000000060095
:104e34000600fa0010079800210798001e0290004f
:104e4400e00f5200060032002e029000e00f5200e4
:104e540003003200c4c3b300044f78000e003700cf
:104e64001e029000e00f520003003200c4c2b300df
:104e7400044f7800080037002e029000e00f520023
:104e840003003200c4c1b300044f780002003700ad
:104e9400c4c0b300044f78001e4278000443780075
:104ea40015d52000864a78000080fa00000006002c
:104eb4000200fa00000f78001e027800e00f520092
:104ec4000700320054cb2000144278000474a1007f
:104ed4000443780055cb2000864a78000700370049
:104ee40055cb20009542780004c8b30004c2720078
:104ef4000443780055cb2000864a78000080fa00ed
:104f0400000006000400fa00000f78001107980062
:104f14001e027800e00f52000800320055cb20003a
:104f240095427800f4cbb30004c2620004437800d5
:104f340055cb2000864a78000700370055cb200067
:104f44009542780004c4b30004c27200044378009c
:104f540055cb2000864a78001e029000e00f5200d4
:104f64000800320055cb200095427800f4cdb30000
:104f740004c262000443780055cb2000864a7800be
:104f84000700370055cb20009542780004c2b300d7
:104f940004c272000443780055cb2000864a78008e
:104fa4000080fa00000006000400fa00b4ca2000e1
:104fb400144278000482fb0005032000850f520090
:104fc4002800320005032000850f520008003c0031
:104fd400f00f52001b00320005022000850f520022
:104fe4001c003200e00f5200120032003100370082
:104ff40005052000850f520022003200050520001f
:10500400850f520004003c0005042000850f520067
:10501400180032002700370005062000850f5200d3
:105024001c00320005072000850f52001d003200cd
:10503400200037000400280005072000048fbe006c
:105044001e0037000400200065092000048fbe0004
:105054001a0037000400240085032000048fbe00da
:105064001600370004002200c5012000048fbe0092
:105074001200370004002100e5002000048fbe0068
:105084000e0037000480200075002000048fbe004d
:105094000a0037000440280035002000048fbe00b9
:1050a4000600370004202c0015002000048fbe00e9
:1050b400020037006022b8000900370014cc200039
:1050c40014427800ec4f520004003a001e02be0065
:1050d4000402420085824a00048fbe001e02be0004
:1050e4000400be000080fa00000006000e00fa0072
:1050f400200798003107980042079800530798004a
:10510400640798005e029000e00f5200030035002f
:105114005e029000e30f5200020034000082eb00b4
:10512400690037006e029000e00f52000300350062
:105134006e029000e30f5200020034000082eb0084
:105144006100370098ff07000002be00666a200075
:1051540006abb900060378006020b900800378002c
:105164000703430084027800646a2000042ab8001c
:1051740005034300860278002e039000cfb3de00bf
:105184000601be000400be0076ee07000002be0069
:10519400040f780084ff07000002be00666a200046
:1051a40006abb900060378006020b90080037800dc
:1051b4000703430084027800646a2000042ab800cc
:1051c40005034300860278003e039000cfb3de005f
:1051d4000601be000400be0062ee07000002be002d
:1051e400140798001e0278004822de00044278006a
:1051f4000443780095cb2000864a78001e0278008c
:105204000442780004437800b5cb2000864a780035
:105214001e0290004822de00044278000443780015
:10522400d5cb2000864a78001e0290000442780004
:1052340004437800f5cb2000864a78004e029000a3
:10524400e00f52000700320054cb200014427800d3
:105254000444a0000443780055cb2000864a78001b
:105264000700370055cb200095427800f4ceb300f8
:1052740004c262000443780055cb2000864a7800bb
:105284006e02900004427800e34262005e029000e5
:105294000442780063436200240020000432dd00ed
:1052a40084c2420056cb20001643780004cfb300da
:1052b4000442630004c242000443780055cb20003a
:1052c400864a78000002eb00040078000080fa00af
:1052d400000006000000fa00de42a800de62a90019
:1052e400c40480000440a1000450a1000460a00094
:1052f400c4048800c40480000480a1000490a100b8
:1053040004a0a000c40488008520a9008d20a80062
:105314008540a9008d40a8000002eb0064108800bd
:105324000002eb007410880074002000a4108800b0
:105334000de2a8000f42a8000080fa000000060059
:105344000000fa00de82a800dea2a900740020009a
:10535400f4108800b41080000410a1000420a100ff
:10536400b41088001602a90018a2a9000405800040
:105374000400a1000410a1000420a000040588007a
:10538400040580000440a1000450a1000460a000b2
:105394000405880019e2a8001942a800c41080007e
:1053a4000460a1000470a100c41088000080fa0009
:1053b400000006000000fa000fe2a9000f42a80056
:1053c400741080000460a1000470a10074108800af
:1053d4000de2a8000080fa00000006000000fa00b8
:1053e40019e2a9001942a800c41080000460a100b9
:1053f4000470a100c410880017e2a8000080fa001d
:10540400000006000200fa00000f78001e02780077
:10541400e46b88000080fa00000006000200fa0035
:10542400000f78001e027800f46b88000080fa00f8
:10543400000006000800fa002007980031079800d1
:10544400600020009e1707000002780014079800ef
:105454001e029000e00f52002e0032003e00900029
:105464009717070000027800840278001e0290005b
:10547400050a78001e02900014027800e00f520022
:1054840003003a001e0090009b170700220037001b
:105494001e029000140278003e01900084007800ff
:1054a4002e0090009c1707001e029000be02900080
:1054b400150298001e0290008002eb00250298005d
:1054c400046c8000e00f520004003a001e029000b9
:1054d400046c8800fc0007000f003700056c800096
:1054e400050f7800030037001e027800a402900024
:1054f400050f78001e02780024029000e00f52008d
:10550400f9ff3a001e0278009e02900025029800de
:1055140001003700000000000080fa0000000600cf
:105524000800fa0020079800310798006000200066
:105534006317070000027800140798001e02900009
:10554400e00f52002e0032003e0090005c1707006e
:1055540000027800840278001e029000050a780098
:105564001e02900014027800e00f520003003a007b
:105574001e00900060170700220037001e029000f2
:10558400140278003e019000840078002e00900000
:10559400611707001e029000be02900015029800d9
:1055a4001e0290008002eb0025029800146c80001b
:1055b400e00f520004003a001e029000146c8800b0
:1055c4000f0107000f003700156c8000050f7800ed
:1055d400030037001e027800a4029000050f780033
:1055e4001e02780024029000e00f5200f9ff3a00f6
:1055f4001e0278009e0290002502980001003700e8
:10560400000000000080fa00000006003600f800e8
:10561400809fbe00829fbe00849fbe00869fbe0006
:105624003400f80000002000a00188000000fa0007
:105634008e0007008520a9000080fa003400f900dc
:105644004f03be004f02be004f01be004f00be001c
:105654003600f900004006003600f800809fbe00c6
:10566400829fbe00849fbe00869fbe003400f80067
:1056740000002000a00188000000fa007b00070061
:105684008520a9000080fa003400f9004f03be0011
:105694004f02be004f01be004f00be003600f900ad
:1056a400004006003600f800809fbe00829fbe00c6
:1056b400849fbe00869fbe003400f80000002000d6
:1056c400a00188000000fa007f0007008540a900bf
:1056d4000080fa003400f9004f03be004f02be0000
:1056e4004f01be004f00be003600f9000040060026
:1056f4003600f800809fbe00829fbe00849fbe00db
:10570400869fbe003400f80000002000a00188003d
:105714000000fa006c0007008540a9000080fa0030
:105724003400f9004f03be004f02be004f01be001b
:105734004f00be003600f900004006003600f800b5
:10574400809fbe00829fbe00849fbe00869fbe00d5
:105754003400f80000002000a00188000000fa00d6
:10576400900007008700a9000080fa003400f900c7
:105774004f03be004f02be004f01be004f00be00eb
:105784003600f900004006003600f800809fbe0095
:10579400829fbe00849fbe00869fbe003400f80036
:1057a40000002000a00188000000fa007d0007002e
:1057b4008700a9000080fa003400f9004f03be00fe
:1057c4004f02be004f01be004f00be003600f9007c
:1057d400004006003600f800809fbe00829fbe0095
:1057e400849fbe00869fbe003400f80000002000a5
:1057f400a00188000000fa00810007008720a900aa
:105804000080fa003400f9004f03be004f02be00ce
:105814004f01be004f00be003600f90000400600f4
:105824003600f800809fbe00829fbe00849fbe00a9
:10583400869fbe003400f80000002000a00188000c
:105844000000fa006e0007008720a9000080fa001b
:105854003400f9004f03be004f02be004f01be00ea
:105864004f00be003600f900004006000200fa00b6
:105874007410800062026200e00f52000b003200dc
:105884000e22a9000a00370094108000044f78000b
:10589400e46b8000e00f520005003200e46b8000ee
:1058a4001e407800040001000100370000000000e1
:1058b4007410800061026200e00f5200f2ff3a00af
:1058c4000080fa00000006000200fa00046c800068
:1058d400e00f520029003a000002eb00246c88001b
:1058e4002e003700046c800094029000246c800029
:1058f400848f52000b003600046c80009402780000
:10590400246c800004824200144278000482fb006c
:1059140084108800246c80000402e800246c880051
:1059240017003700981607000002eb00246c88006b
:10593400046c8000040f7800046c80002402900042
:10594400046c88001e0278008002eb002502980097
:105954001e0278001402780004007800661607001e
:105964001e007800641607009b160700046c800074
:10597400e00f520008003200010037000000000070
:10598400751080000420200004826200e00f5200a1
:10599400d4ff320001003700000000000080fa004c
:1059a400000006000200fa00c410800062026200d7
:1059b400e00f52000b0032001822a9000a00370041
:1059c400e4108000044f7800f46b8000e00f520074
:1059d40005003200f46b80001e40780004000100d2
:1059e4000100370000000000c41080006102620062
:1059f400e00f5200f2ff3a000080fa0000000600b7
:105a04000200fa0028003700146c8000e00f5200f6
:105a140003003a000002eb00346c880027003700d2
:105a2400146c800094029000346c8000848f5200c7
:105a34000b003600146c800094027800346c8000f3
:105a440004824200144278000482fb00841088001f
:105a5400346c80000402e800346c880012003700c3
:105a6400491607000002eb00346c8800146c8000b7
:105a7400040f7800146c800024029000146c8800d9
:105a84001e0278008002eb00250298001e027800b6
:105a94001402780004007800171607001e0078002e
:105aa400151607004c160700c510800004202000be
:105ab40004826200e00f5200d3ff32000080fa003b
