:020000040000fa
:080000000001040000000000f3
:020000040000fa
:100200000f5b2100807922000001880000000000bf
:10021000050007000c000700142902000000000080
:100220000040da000000fe004440a90000b42000b5
:100230000000e0000300320000002000a001880060
:100240004440a8000000060080c0240001002000f7
:100250001600370062004000e080480091018800ed
:100260009001ba0062004000e080480091018800df
:100270009002ba0062004000e08048000002eb00fb
:100280006028e10005003a008301e900070033001f
:10029000038009000059eb00040037006128e100e9
:1002a000010032000082eb00050007009101880088
:1002b0001001ba000200e000e6ff3a00000005006d
:1002c000910188008002780062004000e0804800d0
:1002d0003559ba008301e900080032002559ba00f7
:1002e0008301e900050032000400e000f4ff320061
:1002f00015d9ba008301e900f1ff3a0000000600b9
:100300008221040000000000a42504000000000079
:100310008826040000000000e40204000000000041
:100320001203040000000000889fbe0080047800d3
:10033000229c80000200e0000200320002007800ef
:100340000c0037006038210003003700918f540003
:10035000240036000180e800900078000100e000f1
:10036000faff3a000f003700918f54001d0036004d
:100370000180e800900078000100e000faff3a00f8
:10038000120178006038210003003700918f54007b
:10039000140036000180e80090007800828f500041
:1003a000faff3a00189c8000890f540001003100c8
:1003b0000904780008007800430107000000e0000d
:1003c00004003a00890f5400050032000804d100ef
:1003d000f5ff37000818780041000700d4ff370008
:1003e0000000eb004f04be0000000600881f7800ec
:1003f000630440000800a100800f54002300360071
:10040000e30f540001003e0048002000080078007f
:10041000c5ff0700800078000000e0001b003200ec
:10042000100178009201780064805100880f50001c
:1004300003003100120090008008780007003700a8
:100440000800410080087800920190001300980095
:100450001100780012081400080978009100780053
:100460000100e00005003200110090000000e000f3
:10047000020032000180e800010037000000eb00bc
:10048000209c88000280e800010037000000eb009b
:100490004f047800000006000004780006003700d2
:1004a00082004100509c8000e10078000200e800da
:1004b000409c880001000100429c8000609c8000fc
:1004c000800f5100f6ff390020282100509c880041
:1004d00020022000609c8800080078009609070030
:1004e0000000e000300032008080e90091027800d6
:1004f000e38f52002c0036000508a3002a003a00c2
:10050000329c80000200e00002003200828f500026
:100510000400310002087800319c88001600370082
:1005200003017800920190000300e0000200320015
:10053000818f5100faff3900120278000400410057
:10054000808f500018003900810f500003003a00de
:100550000509420082007800070037000300e00030
:100560000300320005804000808f51000e003900ea
:100570009300980011019800110190000200e00022
:100580000900320011804000820f500006003a003e
:100590008433ef00110090001101780090084100b1
:1005a0001000900090009800000006008000780085
:1005b000010037000000e8001004e000fdff3a00f1
:1005c0000100500000000600881f78000204780037
:1005d000c4000700080040004f0478000000060037
:1005e0000000fa00881f7800000478003fb99700e7
:1005f000ea81570080007800402e2000c0000700ec
:10060000800078000000e000020035000040eb00b0
:1006100080707c00010078004f0478000080fa00b0
:1006200000000600900178000200e00002003a009d
:100630000308e900050037008080eb001304e000a8
:10064000020032000308e8009300fb00010078007c
:10065000000006000200fa00f0bf9f003fb99700bb
:10066000ea8157008f80e900203120005d010700fa
:100670000080fa0000000600ec874700889fbe005b
:100680008a9fbe008c9fbe008e1f7800f0b79f002f
:1006900081bf9f00820478000004780001003700c9
:1006a0000804e800184778000e00fb001502070058
:1006b0000000e000faff3a00d0c2b300804f5700bc
:1006c0000500320000c0e900804f570002003200f0
:1006d00000477800010037000804e8000900e00046
:1006e00045003500e18f54004300320040022000f5
:1006f000808f540040003c000900e0000e003400f0
:10070000f08f54001a003a0000c3b300984f100055
:1007100016003a009840900080c7b30080cf500088
:100720000300320080c5b30080cf50000f003a00b4
:100730000884e8000e003700a900200000c3b300c1
:10074000984f10000a003a009840900080c7b3000c
:1007500080cf5000040032008900200080c5b30023
:1007600080cf500002003a000884e8000901200010
:1007700008057800010037000a05e80000c3b3004f
:100780009a4f1000fcff32008a0578006066b800be
:100790000e003700b018210000425200c4ef9f0045
:1007a0006149b9000c00be000e0a07004fea97002d
:1007b0000401fb00cf91de008b05e800ccb79f0061
:1007c000ddb79f0000064100818649001b00fb0049
:1007d000d40107008000780009017800b0182100da
:1007e000d7010700000278000000e000e9ff3a00ae
:1007f0008b0f540006003a000fb897000000e0008d
:1008000029003200ffb09700010878002600370069
:100810008a80550060162100694078000000fb00c6
:1008200000805000160033004240a9000f003c0039
:100830004fe997000200fb00cf80de000000560069
:1008400081805e00800f5600818f5e0007003900b6
:100850006149b900e90907004fb19700dfb197007e
:10086000820f5000838f58000500320020022000c4
:10087000a09c88000086eb008086eb000500370016
:10088000d0c2b300804f570002003a006006160045
:10089000e0861e008fb997000300e00003003200dd
:1008a0008b097800010037006066b8000c00be00bc
:1008b0004f0778004f06be004f05be004f04be0034
:1008c000cf00b100000006000000e000030034008b
:1008d000a1080700e10f400001003a000000eb0012
:1008e000000006008001780002003700b15978004e
:1008f0000201e9000200e000fcff3a0000000600ef
:100900006200fa00889fbe008a9fbe000004be00fd
:10091000020578008300780060f92f000f00400086
:100920009801070088979f0099979f000000eb00af
:10093000a09f9f009a4578000b80fb000000ea0012
:10094000cf04de0050c2b30080cf55000200320059
:1009500009047800010037000904e9000800e000fc
:100960000b0034001f909700080178008a0078007f
:100970008f9197000300010090979f000000e00016
:10098000930032002f98970000004400a09f9f0022
:100990000905450050c2b30080cf55000400320065
:1009a0000b04e000e3ff3a002f989700890037001e
:1009b0000000eb00809f9f00f0979f00e0979f0052
:1009c000d0979f00c0979f00b0979f00c09f9f0047
:1009d00009003700a03321000080500000004000d3
:1009e000e1322100e08078004f989700010070000c
:1009f000c09f9f000a05e8001a4478008800fb00a9
:100a0000a033210064010700800078000000e000ae
:100a1000f0ff3a00a0c2b300804f54000e003a002d
:100a2000bf8897000180e900b08f9f001000780018
:100a3000b09f9f000000e00005003d000000ea00bc
:100a4000b09f9f004f9897000020a000c09f9f007c
:100a50000a05e80010003700b19f9f000900370029
:100a6000bf989700f0ff2700808f500004003200ed
:100a70006a08b9000000410003004000b09f9f00d9
:100a80000a05e8001a01fb0003fd2f0003004100e6
:100a9000e90f5000f2ff3600e0c2b3009a4f100099
:100aa000040032000080eb00909f9f008a047800d1
:100ab0001c0037008a04e800a0c2b300994f100060
:100ac00007003a00bf8897000180e900b08f9f00bf
:100ad00010007800909f9f008a84e8001100370082
:100ae0000000eb00909f9f00090037009f9897003f
:100af000f0ff2700808f5000040032006a08b90020
:100b00000000410003004000909f9f008904e8001e
:100b10001901fb0003fd2f0003004100e90f500005
:100b2000f2ff3600194478008800fb00803a21006b
:100b3000190107000000e00002003a0000447800bc
:100b4000010037008904e800a87f9f0080c6b30039
:100b5000804f540004003a00994f14000a003a00f4
:100b60006640500006003700c0c6b300804f5400f6
:100b700005003a00994f140003003a006540400018
:100b8000a07f9f008904e8000905e800cbfb2f0047
:100b90008f8545001901fb0060f92f000f00400010
:100ba0000084e8008b01780080007800080078005d
:100bb000020107000000e00005003a008b00780009
:100bc00008007800410207000000e00059ff3d00e6
:100bd0000080eb004f05be004f04be000080fa000d
:100be000000006001200fa00889fbe008a9fbe0027
:100bf0008c1f780002047800a0b79f00b1b79f0057
:100c00008300780078805700de0007000000eb00ca
:100c1000e0b79f00d8b79f0000067800dfb49700c8
:100c2000194578000a80fb000000ea00cf05de00cd
:100c30000a00fb00b30007000000e0001a003200c9
:100c40006fb097000000e800e0b79f003fb097004a
:100c5000120020008000eb00afb1970003000100fc
:100c600000047800a7000700000178000000e00001
:100c7000f3ff3a006fb09700e10f44000700320025
:100c80000000e900e0b79f003fb0970088007800bf
:100c9000afb1970003000100230037000000e90016
:100ca000e0b79f002000370050c2b300804f5500ce
:100cb000020032000b047800190037000b04e90031
:100cc000170037006fb097000000e800e0b79f0002
:100cd0003fb09700120020008000eb00afb19700fa
:100ce00003000100800078001900fb00808f500095
:100cf0000a003200e18f40007c0032006fb09700a4
:100d00000000e900e0b79f003fb097000001eb0052
:100d1000afb1970003000100740037008904e800b8
:100d20000804e900e7ff3b005fb0970080804500c2
:100d3000d1b79f0050c2b300804f5500030032006e
:100d40000a04e000b5ff3a0068003700a2c2b30011
:100d50000040eb00914f110003003a000100e80051
:100d6000d0b79f0002407800a0f79f000000eb0082
:100d700080bf9f000b0037008fb89700f0ff27005f
:100d8000808f5000040032006a08b9000000410062
:100d90000300400080bf9f005fb097000000e800a4
:100da000d0b79f00dfb49700194478000801fb001a
:100db00003fd2f0003004100e90f5000eeff360055
:100dc00082007800c0392100730007000000e000b5
:100dd00002003a0000447800020037000900e800f1
:100de000d0b79f00b8f79f0080c6b300804f540073
:100df00005003a00dfb09700914f14000c003a0054
:100e00006640500007003700c0c6b300804f540052
:100e100007003a00dfb09700914f140004003a0039
:100e200065404000b0f79f000100e800d0b79f0088
:100e30005fb097009000fb00303a21005600070099
:100e40000000e00019003a006fb097000000e800d1
:100e5000e0b79f003fb09700120020008000eb0039
:100e6000afb19700030001000004780025000700df
:100e7000000178000000e000f3ff3a006fb0970037
:100e8000e10f4400070032000000e900e0b79f00d6
:100e90003fb0970088007800afb1970003000100d1
:100ea000020037000000e900e0b79f007c80570097
:100eb000500207000000e00003003c000c00e000ce
:100ec00009003200090037004ff097000004e000ed
:100ed000010032000c06e8005fb097000000e80057
:100ee000d0b79f004dff3700000678000c00780057
:100ef0004f0678004f05be004f04be000080fa0088
:100f0000000006006900e100040035006d00e1000a
:100f1000030034000002b1000100320000000500af
:100f200010000500800078001104b10003003500b6
:100f30009101b10001003c000050a000000006003b
:100f40000600370090cf100002003a000001780040
:100f5000040037000000e8000201e9000200e000a0
:100f6000f8ff3a000200780000000600909c800024
:100f70000000e000010032000000010040392100c3
:100f8000000006000200fa00f1bf9f00010878008f
:100f90000080fa0000000600040037000204e000b0
:100fa00001003a00000005000000e8001041780050
:100fb000814f5100f9ff3a0000000600889fbe00f3
:100fc0008a1f7800000478000102780082447800cb
:100fd00003057800e0c6b300804f5100d300320013
:100fe00015003c006b405000804f5100240032003f
:100ff0000a003c0070405000804f51001001320048
:1010000065404000804f51007400320050c2b30070
:10101000804f510021013a001d01370040c6b30046
:10102000804f51001b00320065404000804f51004e
:101030001a013a001700370030c7b300804f510043
:10104000ff00320007003c0064405000804f510018
:10105000620032000040e800804f51000f013a006a
:10106000e800370050c7b300804f51005b003200ea
:1010700063404000804f510008013a00570037009c
:101080009180e900010a78007800900011f0790061
:1010900008013700a8609000c0c6b30080cf5000a0
:1010a0000a003a009400780064805000000a78003a
:1010b0001000be004f89de00cf91de000002be00ae
:1010c00002037800820378001300370010c7b300d2
:1010d00080cf500003003200a0c6b30080cf500084
:1010e00006003a009400780068805000000a7800fa
:1010f0003002be002003be00070037001480e90064
:10110000000a78001000780000027800cfa2de000c
:101110000503780086037800049cbe000694be0098
:10112000a860900080c6b30080cf50000e0032004f
:1011300020c6b30080cf500005003a000400fb0039
:10114000cf80de0001017800820178000a003700bc
:1011500040c7b30080cf500003003200664040001b
:1011600080cf500006003a0004007800cf80de00f7
:101170000101780082017800009cbe000294be004c
:101180003800be002801be00e00f5000e08f58007c
:10119000e00f5900e08f590003003d0078009000f7
:1011a000d1c2b3000a003700081090000018a30055
:1011b0000300320078009000b1c2b3000400370091
:1011c0000008a300540032007800900001c2b30070
:1011d00001707d000000e8004e003700a86090001c
:1011e000c0c6b30080cf500007003a0094007800da
:1011f00064805000000a78001002be000003eb007b
:10120000860378001300370010c7b30080cf50006a
:1012100003003200a0c6b30080cf500006003a00a1
:101220009400780068805000000a78003002be0008
:101230002003be00070037001480e900000a780090
:101240001000780000027800050020000600200051
:1012500007002000049cbe000694be00a860900019
:1012600080c6b30080cf50000e00320020c6b3000d
:1012700080cf500005003a000480fb0001002000f0
:1012800002002000030020000a00370040c7b3001e
:1012900080cf5000030032006640400080cf5000f5
:1012a00006003a000400780001002000020020003f
:1012b00003002000009cbe000294be0008109000b5
:1012c0000038a300140032003800be002801be0020
:1012d000e00f5000e08f5800e00f5900e08f5900f8
:1012e0000d00320080c7b30080cf540003003200ed
:1012f00080c5b30080cf540007003a00780090000a
:1013000001c3b30001707d008000e80089707d009a
:101310000080e8007004980078009000000045000c
:10132000600498008940780042003700a86090006f
:10133000c0c6b30080cf5000250032000a003c0038
:101340006440500080cf50002800320000c0e80008
:1013500080cf5000140032006840500080cf500011
:1013600022003a000a00370040c7b30080cf500087
:101370001e0032006640400080cf50001b0032004b
:101380006940500080cf500018003a000600370036
:101390001480e900000a780010007800485c900092
:1013a00008487800450037001480e900000a7800fa
:1013b0001002780068089000cf80de0001017800fc
:1013c00082017800009abe000292be003b00370006
:1013d0001480e900000a7800100178006808900085
:1013e000cf80de000089be00340037001480e900a1
:1013f000000a780010007800680c90000808780057
:101400002e0037001180e900800878001000780075
:10141000cf80de000101780082017800009cbe00d0
:101420000294be007800900000004500600498001f
:1014300081c7b30008007800850107001f0037004e
:101440001480e900000a7800100078006004980019
:10145000580990000200e00002003d0053fc070024
:10146000090037008000eb00b5fe0700800078001f
:101470000000e0000300320068009000008050008f
:101480000100370058089000100c98000b0037003e
:101490007800900002707d00060037007800900010
:1014a000800045000904e00001003a0059c2b30081
:1014b000894878000000e800700498000000eb0004
:1014c0004f0578004f04be00000006000400fa003b
:1014d000889fbe008a9fbe008c1f780000047800a1
:1014e0000106780070089000f8009000010050009c
:1014f00088089000010050009808900001005000fa
:10150000a808900001005000b808900001005000a9
:10151000c80890008105500000022200a0bf9f0073
:101520000003230090bf9f00081090000028a30034
:1015300018003a000b00e000160034008b0478001d
:1015400009057800e28f5400020036002a002000ce
:10155000020037000900e0000b0034005800900042
:10156000c80190000a017800ec80570003000100d8
:10157000500498000000e0009600320068089000d7
:1015800000004500600c98008a8454004240a90085
:10159000ebff3c00780190000200e0000b003400fb
:1015a00058009000c80190008c00780003000100f2
:1015b000500498000000e0008600320068089000a7
:1015c000f800900001004000600c9800880c90002a
:1015d0000900e0001500340009057800e28f54008e
:1015e000020036002a002000020037000900e00057
:1015f0000b00340058009000c80190000a017800e8
:10160000ee80570003000100500498000000e00045
:10161000700032006808900000004500600c9800df
:101620008a8454004240a900ebff3c001809900056
:101630000200e0000b003400e80090005800900029
:10164000c801900003000100500498000000e00071
:101650006000320068089000980890000100400087
:10166000600c9800a80c90000900e0001500340000
:1016700009057800e28f5400020036002a0020009d
:10168000020037000900e0000b0034005800900011
:10169000c80190000a017800ee80570003000100a5
:1016a000500498000000e0004a00320068089000f2
:1016b00000004500600c98008a8454004240a90054
:1016c000ebff3c00380990000200e0000d00340000
:1016d000e8009000180890008080400058009000ba
:1016e000c801900003000100500498000000e000d1
:1016f0003800320068089000b808900001004000ef
:10170000600c9800c80c90000900e000150034003f
:1017100009057800e28f5400020036002a002000fc
:10172000020037000900e0000b0034005800900070
:10173000c80190000a017800ee8057000300010004
:10174000500498000000e000220032006808900079
:1017500000004500600c98008a8454004240a900b3
:10176000ebff3c00081090000028a3001b00320093
:101770000b00e000190034008b04780009057800a4
:10178000e28f5400020036002a00200002003700d9
:101790000900e0000b00340058009000c8019000e0
:1017a0000a017800ec805700030001005004980003
:1017b0000000e000070032006808900000004500cb
:1017c000600c98008a8454004240a9000300340051
:1017d000eaff37000080eb00010037000000eb005b
:1017e0004f0678004f05be004f04be000080fa008f
:1017f00000000600881f7800000478000040eb001d
:1018000000549800380090009040780090c6b300d3
:1018100080cf50002a00320013003c00714050007d
:1018200080cf50002600320005003c0050c2b300bb
:1018300080cf50006400320030c5b3001b00370079
:1018400030c6b30080cf50001b0032000040e800db
:1018500080cf50001a0032006940500080cf500005
:101860006e003a007300370000c7b30080cf50000d
:1018700007003c000040e90080cf500010003d0010
:101880000040e90080cf500064003a000f003700ac
:1018900050c7b30080cf50000900320063404000c1
:1018a00080cf5000060032006540500080cf5000cd
:1018b00043003200590037008000eb005e00370023
:1018c00008007800190107005f00370068489000a1
:1018d0000004e0005b003a00f8489000c0c6b30086
:1018e00080cf5000270032000a003c0064405000c6
:1018f00080cf50002b00320000c0e80080cf5000a5
:10190000150032006840500080cf500025003a009a
:101910000a00370040c7b30080cf500021003200da
:101920006640400080cf50001e00320069405000e9
:1019300080cf50001b003a000700370028009000bd
:101940000080e9002004980010007800084c900006
:10195000084878003b003700280090000080e9002c
:10196000200498001002780048009000cf80de002c
:101970000101780082017800009abe000292be0048
:1019800030003700280090000080e9002004980013
:101990001001780048009000cf80de000089be0072
:1019a00028003700280090000080e90020049800fb
:1019b00010007800480490000808780021003700e3
:1019c000110020001c003700480090000000e800d3
:1019d0004004980018009000980178001200200040
:1019e0008000eb000300010080007800500220001e
:1019f000808f50001300320048009000e18f4000bb
:101a0000080032000000e90040049800180090002f
:101a1000980178000001eb00030001000000eb00da
:101a2000090037000000e900400498000100780038
:101a3000050037008080eb000800780015020700e1
:101a400001003700100020004f047800000006005d
:101a5000ef02b000889fbe008a9fbe008c9fbe0030
:101a60008e1f78008006780000012000b0b79f002c
:101a7000d22f2100c2b79f0080c5b30080cf500095
:101a80000e00320083002000b3b79f00c42e210057
:101a9000c4b79f007740400080cf5000070032005d
:101aa00000012000b0b79f0080c7b30080cf500076
:101ab00002003200a2002000b2b79f003d04be0029
:101ac0002d05be0040c6b30080cf50000300320099
:101ad0006540400080cf50000b003a00e00f5400fa
:101ae000e08f5c00e00f5d00e08f5d0006003d00d0
:101af0006000b8006011b8000804500089845800e4
:101b00000a0559008b855900e00f5400e08f5c00f6
:101b1000e00f5d00e08f5d0004003a005d0890007a
:101b20008e0120000000e0000c003200bfb19700e1
:101b300003027800cfa2de00050378008603780058
:101b40000800be000a01be00c50507004fb297009d
:101b500064407800d0df9f007e0120003fb09700f6
:101b600000027800cfa2de0005037800860378002b
:101b70000800be000a01be00b205070023003700be
:101b8000bfb0970001047800cfc4de0009057800db
:101b90008a0578000802be000a03be007fa89700ed
:101ba0008fb097001fb19700afb19700b005070045
:101bb000d0b79f00e1b79f00f2b79f0083bf9f009f
:101bc0000e07e90062fc2f000f01410002064700ea
:101bd0000802be000a03be005fb09700efb0970096
:101be0007fb197008fb997001d0607007faa970065
:101bf00000005200cfb0970060ce78005fb0970031
:101c0000efb097007fb197008fb99700809ebe001c
:101c10008296be003d00be002d01be00f0af9f00c9
:101c200081b79f0092b79f00a3b79f00e00f5000bd
:101c3000e08f5800e00f5900e08f59000200340097
:101c40000e00e000ceff3c00bfb09700e88f5000d0
:101c500010003a000d1090000038a3000d00320073
:101c6000f70f570006003e0062fc2f000f014100f5
:101c70008200470000c3b300914f100005003200fe
:101c80000e07e90000c3b30063fc2f008e81410002
:101c900080f17f0078011700920e98006d0090008f
:101ca00063fc2f008f8141008e8041000dfb0700f7
:101cb0001d0990005d089000800f510006003d0056
:101cc00002005000800e98000d1090000040a1000e
:101cd000801698000f0037000000e0000d003d0066
:101ce0000d10900074006000f00f500009003a00e1
:101cf0007d089000fd009000010050008d089000cc
:101d000001005000020050004240a90001003400d0
:101d1000800e98004f0778004f06be004f05be00aa
:101d20004f04be00ef02b100000006002f02b00019
:101d3000889fbe008a9fbe008c9fbe008e1f7800c9
:101d400080047800600090000000e00001003c008a
:101d5000f0ff27000000e900d0049800c9009000bf
:101d60000c0033000100e800c00498001900900046
:101d700099017800120020008000eb0003000100b0
:101d800000057800b0022000800f550006003a00e0
:101d90000b0037000100e800c00498002cfd2f0064
:101da0000f0646001b003700d0022000800f5500b0
:101db000030032002cfd2f000f06460016003700ee
:101dc00030fd2f000f044000aad79f00590090005b
:101dd0000000e900d0049800c90090000a00330018
:101de0000100e800c00498001900900099017800f3
:101df000120020008000eb000300010000057800c5
:101e000008067800040037000100e800c0049800cc
:101e1000080678000085eb00d82c210039009000de
:101e20009000fb00080078005bfc070008005000f1
:101e3000612c210060c478008805fb0000032000ad
:101e4000800f550033003a00590090000000e9006f
:101e5000d0049800c90090000c0033000100e80095
:101e6000c004980019009000990178001200200029
:101e70008000eb00030001000005780080072000cf
:101e8000800f550005003a00070037000100e80008
:101e9000c00498000085eb001b003700800520007f
:101ea000800f550018003a000804e00002003200dc
:101eb000f04f54001d003a00590090000000e90066
:101ec000d0049800c9009000090033000100e80028
:101ed000c0049800190090009901780012002000b9
:101ee0008000eb00030001000005780003003700cc
:101ef0000100e800c00498000085eb000047eb00fb
:101f00000b012000110037000804e000b800320087
:101f1000060037000047eb000804e00004003a0028
:101f2000ad002000084778001c0037001ec0b30039
:101f3000ad002000ea4f540018003200e88f550031
:101f400002003a008b067800140037006d01200073
:101f500012003700590090000000e900d0049800fa
:101f6000c9009000090033000100e800c004980097
:101f70001900900099017800120020008000eb0009
:101f80000300010000057800030037000100e800ad
:101f9000c00498000085eb001ec0b30000032000c1
:101fa000800f5500ebff32000e04e00018003200f5
:101fb000005e7800160037006f805700800f5600d3
:101fc000010031000a5e7800590090000000e9002d
:101fd000d0049800c9009000090033000100e80017
:101fe000c0049800190090009901780012002000a8
:101ff0008000eb00030001000005780003003700bb
:102000000100e800c00498000085eb001ec0b3008a
:10201000e10f4500070032000d0178008a007800ca
:10202000502d2100c6fb07000000e000e2ff3a004f
:1020300066003700490090000000e900c0049800e5
:102040000e04e00008003a0020fd2f000f004000c1
:10205000800f56005b003a00e10f450059003a003e
:102060008a00780065003700004eeb006948900058
:10207000110020000004e00060003a0039009000e8
:102080009040780040c6b30080cf5000030032007b
:102090006540400080cf50000a003a000b017800f4
:1020a0008000eb0020fd2f000f00400066010700bc
:1020b0000203be000002be0010c0b30080549800ae
:1020c0000d0037000b0178008000eb0020fd2f0091
:1020d0000f004000b60107000203be000002be0070
:1020e00010c0b30080549800b900900000c7b3003e
:1020f000914f10002c003200f9489000c0c6b30088
:1021000080cf5000220032000a003c0064405000a2
:1021100080cf50002400320000c0e80080cf500083
:10212000140032006840500080cf50001e003a007a
:102130000a00370040c7b30080cf50001a003200b9
:102140006640400080cf50001700320069405000c8
:1021500080cf500014003a0006003700290090009c
:102160000080e900a004980010007800044878007e
:1021700012003700290090000080e900a0049800b8
:10218000100078000498be000690be000b003700d7
:10219000290090000080e900a00498001000780059
:1021a0000488be0005003700290090000080e90087
:1021b000a0049800100078000408780011002000a6
:1021c0000e0037008000eb000c0037004900900043
:1021d0000000e900c00498001900900099017800ff
:1021e0000001eb008a0078000300010094ff370033
:1021f0001ec0b3008b00200052ff370001007800a2
:102200004f0778004f06be004f05be004f04be00ca
:102210002f02b10000000600800178001000370096
:102220000302e800d0c2b300944f100008003a0047
:1022300093cf100003003e002340900080cf500059
:102240001100360063824100630151000300370032
:1022500093cf10000c0032000201e90084017800e5
:10226000e20f5100eeff3e000400370093cf100054
:10227000050032008301e8000201e9000200e000ed
:10228000faff3a0001003700120020000200780037
:1022900000000600f0874700889fbe008a9fbe00ae
:1022a0008c9fbe008e1f78000004780081067800a5
:1022b0000000eb00c0b79f00f8489000c0c6b30014
:1022c00080cf500002003a0011002000c1b79f00eb
:1022d0000d00e00023003d00b80090000100e80080
:1022e00030049800e2c5b3008041eb0083f79f0003
:1022f000904f110003003a000180e800300498007c
:1023000082f79f00b8049000d0c5b300994f100029
:102310000200320009007800010037000900e800df
:10232000d10520001cfb0700d0b79f008000eb0008
:102330000000e000bd00320009065000e20f560028
:10234000080034000c81e9000900e800d1022000f7
:10235000fbfa070011c0b300c1ef9f000000e000ce
:1023600002003a008041eb00c3ef9f00680090003c
:102370000000e00004003c00f0ff27000d00e0003a
:1023800001003a00100020005004980068489000b6
:102390000004e0000d003a0028009000cfb0970044
:1023a0000100e000050032000080e90020049800f0
:1023b00010007800b0b79f00040037000080e900eb
:1023c0002004980010007800f0b79f000045eb0053
:1023d0005e0037000d00e0000300340009007800c3
:1023e000c8fa07001e0037000d00e0001e00320092
:1023f000cfe997000304e0000c003a003800900099
:102400008ff097000104e00004003a000c0178000e
:1024100089007800cafa07000b0037000c01780029
:1024200089007800c6fa07000d00370038009000d8
:102430008ff197000304e00006003a000c017800d9
:102440008900780074ff07000000e00006003a00f1
:102450006d0037000c017800890078006eff0700de
:102460000000e00068003a004fb097000000e00074
:1024700009003a00684890000004e00032003a0089
:10248000ffb0970089587800f1b79f0010c0b300e3
:10249000005498002c003700c9e79f008905fb0015
:1024a0000b007800010032001000200000057800c9
:1024b0001e0020000000e00016003a000904e000c1
:1024c00004003a007c80570038f807000005e80057
:1024d000100037000e07e900fc01570063c07f00c1
:1024e0008000fb0048019000e14f400007003200ef
:1024f0000200e9004004980018009000980178005c
:102500000001eb0003000100020037000200e900b7
:10251000400498008e0f5500eeff3500684890008b
:102520000004e00005003a003fb097000b18780067
:10253000b0b79f0010c0b30000549800680090002e
:102540000000e900600498002ac0b3005800900021
:102550000000e90050049800480190000b0033008f
:102560000200e800400498001800900098017800ec
:10257000120020008000eb000300010080047800be
:10258000e10f400093ff3a00020037000200e8002c
:1025900040049800480090000000e90040049800c2
:1025a0000d00e00002003200e24f5500040032004e
:1025b0000a00fb008080eb001c0032001000370096
:1025c000684890000004e00009003a00cfb097008e
:1025d0000100e00003003200bfb197008009eb006a
:1025e000030037008fe897007fb09700014878001c
:1025f0000d00e00002003d00dfb1970033049800b9
:102600001100200009003700480090000000e90098
:102610004004980018009000980178000001eb0039
:102620008900780003000100ddff37000100780019
:102630004f0778004f06be004f05be004f04be0096
:102640000f01b100000006000200fa00889fbe00e2
:102650008a9fbe008c1f78008005780001057800f5
:10266000020678000100e00001003a006c85570086
:102670000b047800010037000804e8009844780053
:102680000900fb001ffa07000000e000faff3a0013
:10269000d0c2b30080cf54000500320000c0e90072
:1026a00080cf5400020032008044780001003700df
:1026b0000804e8000c0178008a007800080078001f
:1026c0003b0007000203be000002be009a0f540048
:1026d00001003a000b0d78009a8f550005003a0072
:1026e000e00f5200e08f5a00e00f5b00e08f5b00cc
:1026f00014003a00b0c2b30080cf540006003a0084
:10270000e00f5200e08f5a00e00f5b00e08f5b00ab
:1027100020003d000b003700d0c2b30080cf540032
:102720001c003a006000b8000200200003002800ee
:102730000020e10001a8e10002b0e10003b8e100df
:102740000e00360020022000a09c88006b40400054
:1027500080cf540004003a006000b800020020005e
:10276000030028000d003700f0ff2f00f1ff2f00bd
:10277000f2ff2f00f3ff2700080037006000b800c9
:102780006011b80004025000858258000603590009
:10279000878359000400be000601be004f06780082
:1027a0004f05be004f04be000080fa000000060086
:1027b000fc874700889fbe008a9fbe008c9fbe009a
:1027c0008e1f780000077800810678008204780068
:1027d00000047800010037000804e800184678007b
:1027e0000c00fb00c7f907000000e000faff3a0008
:1027f000d0c2b300804f56000500320000c0e9008f
:10280000804f560002003200004678000100370079
:102810000804e8000900e00005003500e18f5400dd
:102820000300320040022000808f54000400340076
:102830000d00e000b00032008e0e7800ae003700d0
:102840000900e0000e003400f08f54001a003a0036
:1028500000c3b300984f100016003a009840900053
:1028600080c7b30080cf50000300320080c5b300a2
:1028700080cf50000f003a000884e8000e003700b7
:10288000a900200000c3b300984f10000a003a00ce
:102890009840900080c7b30080cf50000400320001
:1028a0008900200080c5b30080cf500002003a00ac
:1028b0000884e800090120000805780001003700bd
:1028c0000a05e80000c3b3009a4f1000fcff320075
:1028d0008a0578006022b8006033b800260037000f
:1028e000501d210080c0500081ef9f000902780038
:1028f000cfa2de0005037800860378000fb09700b2
:102900009fb097002fb19700bfb19700d402070086
:10291000d0b79f00e1b79f00f2b79f0083bf9f0031
:102920000fe897000002fb00cfa2de00050378004d
:10293000860378008b05e8000fb097009fb09700e2
:102940002fb19700bfb19700c0af9f00d1af9f00dc
:10295000e2af9f00f3af9f005fb09700efb097002a
:102960007fb197008fb997000002420081824a0030
:1029700002034b0083834b0084b79f0095b79f00f1
:10298000a6b79f00b7b79f001b00fb0065f90700c3
:102990008000780009017800501d210068f90700c7
:1029a000800078000000e000cdff3a008b0f54005b
:1029b0000a003a000d00e0004f0032008e0e780051
:1029c0006022b8006033b80084b79f0095b79f00bd
:1029d000a6b79f00b7b79f004d0037008a8055000b
:1029e000001b2100694078000000fb0000805000bf
:1029f0002c0033004240a90020003c008fea9700e1
:102a00000500fb00cf80de00010178008201780024
:102a10000fb297009fb297002fb39700bfb39700f4
:102a20000000520081805a0002015b0083815b003c
:102a30000020e10001a8e10002b0e10003b8e100dc
:102a40000e00390009027800cfa2de0005037800ed
:102a500086037800fb0107004faa9700dfaa9700c2
:102a60006fab9700ffab97000400e1000588e10021
:102a70000690e1000798e1000a00320020022000e1
:102a8000a09c8800f0ff2f00f1ff2f000001be0086
:102a900080b79f0091b79f00a2b79f00b3b79f0078
:102aa00011003700d0c2b300804f56000e003a002c
:102ab0006000b8006011b8000fb297009fb2970095
:102ac0002fb39700bfb397000402500085825800cf
:102ad000060359008783590084b79f0095b79f006c
:102ae000a6b79f00b7b79f000d00e00008003200b6
:102af0008b0e7800060037006000b8006011b80047
:102b000080b79f0091b79f00a2b79f00b3b79f0007
:102b10000fb097009fb097002fb19700bfb19700fb
:102b20004f0778004f06be004f05be004f04be00a1
:102b3000cf01b100000006000c02e20004003d00dd
:102b40000f42ab00020032000f02ab00feff32006a
:102b50000040da00feff3700889fbe008004780046
:102b60009a13e20004003a000000eb001000070096
:102b70000000e0000a003500d09c80000900e00061
:102b800002003a00000478000600370000047800d4
:102b900009004000060007000000e00001003d00c1
:102ba0000084eb00080078004f04be00000006001f
:102bb000800078000000e00004003a00003b2100a3
:102bc000d09c880001017800060037000081eb00ee
:102bd000005b2100808f500002003e00d19c8800e5
:102be0000001eb000200780000000600889fbe0094
:102bf0008a9fbe00010578000100e0000400350056
:102c000008003c000000e000200032000500370012
:102c100060001000e080180002003b0001f02c0072
:102c20001a0037000004be006011b8006b092000d4
:102c30000982cf00020039000882cf000441b000b1
:102c4000694252000e00320008003b008281710090
:102c5000610164008904d1000884d3008b05e80079
:102c60000442e800f9ff3a00050037000804440078
:102c700089844c008b05e9000442e900fbff3a001f
:102c80006a0007000af0a70001f0a0004f05be008f
:102c90004f04be0000000600889fbe008a9fbe0051
:102ca0008c1f7800870007008e00330003866c00bd
:102cb0006450e1002e0032006420e1003300320055
:102cc0006150e1002f0032006120e100310032004c
:102cd00085855500eb07b00009002000080420009e
:102ce000050037000804440089844c000a003100c4
:102cf0000603430087834b000001530081815b0082
:102d0000f8ff33000203be000800a00008044400de
:102d100089844c00f6ff3900c639dd008301730059
:102d200001003200130020008904d1000884d30080
:102d30000998a300050032000800a7000300a000c6
:102d40008904d1000884d3008b05e8008904d100f0
:102d50000884d3000001eb000281d2003300070099
:102d600001f0a1000cf0a70001f0a0006600370000
:102d70006420e100680032000801be000200be00cd
:102d8000f7ff37006120e100630032006000b80007
:102d9000f3ff37000000200001f82700f0ff3700a4
:102da0000001be005f0007000470a70003f0a1004f
:102db0006509b100160032000d0035006828e100f9
:102dc00006003500f0ff2f00f1ff27000300e000b0
:102dd00013003b0001002800000005000000400037
:102de000818048008502e900fcff3a0008003700b6
:102df000f88f420002003c008000eb00000005005c
:102e00008100d1000080d3008502e800fcff3a0079
:102e10000300e00002003b0060001000e0801800aa
:102e2000000006001400200053003700810020003d
:102e3000618055000b003d000b00200061fe2f005b
:102e40000100e1001d003400828171006101640015
:102e50008904d1000884d3000000e800faff3a009a
:102e60007100200061006400030070000200600037
:102e70000900320061044400e0844c000988a50088
:102e8000050032008b05e8006808e10002003a0006
:102e90008904d1000884d300f20f20000258e10019
:102ea00005003d00c75ddd00f907b20089807500af
:102eb00008007800000006000bf827008b0078005f
:102ec000000005000004be00160007000003be005d
:102ed0000405be000200be0012000700844f75000a
:102ee000000006000200be006450e100050036004c
:102ef0006420e100020036000968a30001003a00e6
:102f00000800be000160a0004f0678004f05be001b
:102f10004f04be0000000600f0ff2f00f1ff270065
:102f2000f9ff3700c70ade00f107b200f50fb20063
:102f300008003200e1cf4200020032000170a00020
:102f400024000500810f7000010032000408050014
:102f500044000500810f700002003a0014000500d3
:102f60008502e9000000400081c04800fcff3b00f2
:102f70000170a00024000500889fbe008a9fbe004b
:102f8000841f7800cfff07004f0078001100330046
:102f9000f0ff2f00838f6c0006003b0004056500e6
:102fa0000a00a7000800370009f0a6001000200062
:102fb00008003700820f5400838f5c000300390043
:102fc0001000200001003e000000200009f0a700d2
:102fd0000000ea004f05be004f04be000000e00004
:102fe00000000600020ab900001bb9000200b80088
:102ff0008100420081004300000006006022b8000a
:10300000060220000000d0008180d2000482d2009d
:103010008582d2000000a0000202520083825a0082
:1030200003003b000202420083824a000000a1002c
:103030000603e900f3ff3a0000000600881f78004d
:10304000000478005001be004000be0004004000b3
:10305000858048000601490087814900009cbe0028
:103060000294be000400e1000588e1000690e10042
:103070000798e10002003100680044001008e800f1
:103080004f047800000006001000fa00889fbe0080
:103090008a9fbe003004be002005be00c8b79f0056
:1030a000d9b79f00eab79f00fbb79f000404540004
:1030b00085845c0006055d0087855d0088bf9f00f4
:1030c00099bf9f00aabf9f00bbbf9f000898be008a
:1030d0000a98be008000eb004fb49700dfb4970061
:1030e0006fb59700ffb597000440e10005c8e10007
:1030f00006d0e10007d8e1000100310011002000f6
:10310000108810004f05be004f04be000080fa007a
:10311000000006001200fa00889fbe008a9fbe00d1
:103120008c1f78000205be000004be00f4b79f00ab
:1031300085bf9f0096bf9f00a7bf9f000000eb00c8
:10314000e0b79f00d0b79f00c0b79f00b0b79f0007
:10315000a0b79f0000067800dfb097006fb097001f
:10316000000140000000e0000a003d008c00070064
:1031700001003d00120020009200070001003d0008
:1031800012002000970007007c805700abff07006b
:10319000090037008200070001003d0012002000f6
:1031a0008800070001003d00120020008d0007008c
:1031b0007c805700b4ff07006fb297000400e00066
:1031c0000700350010002000010020006011b80049
:1031d00008047000898470000a0571008b857100f5
:1031e0000c06e800f0032000800f5600daff3400e0
:1031f0000400e00006003d007fb297008fba970000
:103200001fbb9700afbb97007c8057008bff070068
:103210006fa897000000e00004003a002fb4970068
:10322000bfb497004fb59700dfb59700890007003e
:103230004f0678004f05be004f04be000080fa0024
:1032400000000600881f780018002000881f780002
:10325000b0ff07008f87e9004f04780000000600e8
:10326000801feb00abff07008f87e900000006001e
:10327000889fbe008a9fbe008c1f78006e000700ea
:1032800005003d002f00070007003d003d0007003e
:103290000006eb00040037003f00070002003d007d
:1032a000300007001c0020006a000700e5ff07004f
:1032b0000203be000002be000c00e000010032006c
:1032c000280007000400be000601be004f0678007b
:1032d0004f05be004f04be0000000600889fbe00e0
:1032e0008a9fbe008c1f78005300070003003d003a
:1032f0001400070006003d00040037002600070008
:1033000003003d006000b8006011b8001d00070018
:1033100050000700d2ff07000203be000002be00fb
:103320000c00e000010032000e0007000400be00a7
:103330000601be004f0678004f05be004f04be00d8
:10334000000006006000b8006011b80008045000da
:10335000898458000a0559008b8559001c002000fb
:10336000030037006000b8006011b80005003700a6
:10337000e00f5200e08f5a00e00f5b00e08f5b002f
:103380000000060004025000858258000603590020
:1033900087835900000006000006eb00f4ff3700a9
:1033a0004f08de0000007100c0b79f0001804000a0
:1033b000b0b79f000001eb00afb097000100e00044
:1033c0000000060002007000b0b79f0001804000be
:1033d000a0b79f000001eb009fb097000100e00044
:1033e0000000060002007000a0b79f0001804000ae
:1033f0000fb29700cf20de000100700090b79f0051
:1034000004024200130007004f18de0000027200a1
:1034100084b79f000804440089844c000a054d00cd
:103420008b854d005fb29700efb297007fb3970096
:103430008fbb9700000006000205be000004be001e
:10344000e00f5000e08f5800e00f5900e08f590066
:10345000000006000800be000a01be0000000600d1
:10346000889fbe008a9fbe008c1f78000205be00a8
:103470000004be000006eb00e00f5000e08f580093
:10348000e00f5900e08f590007003d006000b800d0
:103490006011b80008045000898458000a055900da
:1034a0008b8559001c002000e00f5200e08f5a006d
:1034b000e00f5b00e08f5b0002003d000f000700a3
:1034c0000c00a2000800be000a01be0012000700a6
:1034d0000203be000002be000c00e000010032004a
:1034e000060007000400be000601be004f0678007b
:1034f0004f05be004f04be00000006006000b8008b
:103500006011b8000402500085825800060359007b
:103510008783590000000600889fbe008a9fbe0076
:103520008c9fbe000404b8000506b800890446005c
:1035300060854e000606b8000a054600e0854e008c
:103540000706b8008b054600040eb8008904460043
:103550000a854e00e0854d00050eb8000a054600bc
:103560008b854e00060eb8008b0546000416b80089
:103570000a0546008b854e000516b8008b054600ef
:10358000041eb8008b0546000800be000a01be00fc
:103590004f06be004f05be004f04be0000000600ef
:1035a0002800fa00889fbe008a1f78000000eb0008
:1035b000300798000000eb00200798000f0037004c
:1035c0003e009000800040000034210080804000d8
:1035d0000000eb00800878003e009000e800470003
:1035e0004200dd00010140006000b8000089be001b
:1035f0003e0090000000e800300798003e00900078
:10360000e70f5000eeff3400270037000000eb000a
:10361000300798001e0037003e0590003e009000e5
:10362000e80047004200dd00010040001004be0039
:103630003e00900041000700cf80de0008014000fe
:1036400089814800e80047004250dd000100400049
:103650000288be006000b800008fbe000400370082
:1036600010002000010020001e0f40005e9748005f
:10367000703e200001002000be0f1000ae8f180029
:10368000f7ff34003e0090000000e800300798008b
:103690003e009000e70f5000dfff34002e00900046
:1036a0000000e80020079800ae00900030062000df
:1036b000808f5000d5ff34000000eb0030079800e9
:1036c000170037003e0590003e009000e8004700dc
:1036d0004200dd00010040001000be0043fd070075
:1036e0000004be002e009000cf80de003ffd0700ea
:1036f0000001be000800be0067fd0700a8fd07002e
:10370000000178008a00450000342100008040005c
:10371000020878003e0090000000e80030079800a2
:103720003e009000e70f5000e6ff34004f057800a0
:103730004f04be000080fa00000006000400fa00fa
:10374000000f7800700020009e0f1000030036006c
:103750000000eb00100798000c0037001e007800f6
:103760008000400020f82000008040001001780018
:103770001e0078008000400020f9200000804000fa
:103780001000780000015100120798001e00900000
:103790000080fa00000006000600fa0010079800fa
:1037a0001e009000e70f5000030036000000eb0001
:1037b00020079800180037001e009000800040008d
:1037c00020f8200000804000100178001e009000ca
:1037d0008000400020f920000080400010007800a8
:1037e000000151001e0090008000400000342100c4
:1037f0000080400010007800000f51001e00e00023
:10380000030034001e0078002007980002003700f3
:103810000000eb00200798002e0090000080fa00c6
:10382000000006000400fa00000f7800700020007d
:103830009e0f1000030036000000eb0010079800f8
:10384000060037001e0078008000400020f82000ad
:103850000080400010007800100798001e009000c3
:103860000080fa00000006000000fa000000eb00f3
:10387000800888000111200091407800f0ccb3004e
:1038800000c0600010e1b7000000eb0030088800c5
:10389000205c20006008880084c0a9008cc0a800bb
:1038a00011e1a8000080fa00000006000000fa0004
:1038b00011e1a9000080fa00000006000800fa00eb
:1038c0001007980021079800b09c8000000f780036
:1038d0000b0037001e007800b00090001e00900022
:1038e000808f500003003a0011002000310798003b
:1038f0001f0037001e007800c0009000010f780004
:103900001e00e000f3ff3a00a0002000b7f207001d
:10391000000f78001e00e00002003a0010002000b6
:10392000ddf20700ae0090001e007800010878006c
:103930009e0078000000eb00900098009e00780048
:1039400010c0b300c04098001e0078009e00900098
:1039500031009800b19c80001e0078004100980062
:103960001e007800b09c88001100200031079800ec
:103970003e0090000080fa00000006000800fa00f7
:10398000200798000000eb0010079800b09c800012
:10399000000f78001a0037001e007800b000900079
:1039a0002e009000808f500010003a001e00900002
:1039b0000000e000050032001e007800c00090000a
:1039c0001e00900041009800030037001e007800a0
:1039d00040009000b09c88001e007800c0f20700f4
:1039e0001100200031079800090037001e00780000
:1039f000100798001e007800c0009000010f7800aa
:103a00001e00e000e4ff3a0020002000300798008c
:103a10003e0090000080fa00000006000800fa0056
:103a20001007980021079800b09c8000000f7800d4
:103a30000e0037001e007800b00090001e009000bd
:103a4000808f500006003a00ae0090001e00780003
:103a500001087800110020003107980007003700a6
:103a60001e007800c0009000010f78001e00e000ea
:103a7000f0ff3a0020002000300798003e00900040
:103a80000080fa00000006000600fa001007980007
:103a9000b09c8000000f78000e0037001e007800f8
:103aa000b00090001e009000808f500006003a0089
:103ab0009e0078000000eb009000980011002000ac
:103ac00021079800070037001e007800c000900012
:103ad000010f78001e00e000f0ff3a0020002000f7
:103ae000200798002e0090000080fa0000000600d9
:103af0000600fa0010079800b09c8000000f7800c4
:103b00000e0037001e007800b00090001e009000ec
:103b1000808f500006003a009e0078000040eb00c5
:103b2000c0409800110020002107980007003700ce
:103b30001e007800c0009000010f78001e00e00019
:103b4000f0ff3a0020002000200798002e0090008f
:103b50000080fa00000006000600fa001007980036
:103b6000b09c8000000f78000e0037001e00780027
:103b7000b00090001e009000808f500006003a00b8
:103b80009e00780010c0b300c040980011002000d3
:103b900021079800070037001e007800c000900041
:103ba000010f78001e00e000f0ff3a002000200026
:103bb000200798002e0090000080fa000000060008
:103bc0003600f800809fbe00829fbe00849fbe002a
:103bd000869fbe003400f80000c0b300a00188003a
:103be0000200fa00b09c8000000f780084c0a90099
:103bf0001e0037001e00780040409000e14f50004a
:103c000017003a001e007800100078000000e00065
:103c1000130032001e007800100090008000e800c1
:103c20001e007800110098001e007800100090001f
:103c3000800078001e007800100078000000e90085
:103c4000808f5000060036001e0078003000900083
:103c5000000001009e0078000000eb00900098003a
:103c60001e007800c0009000010f78001e00e000e8
:103c7000e0ff3a000080fa003400f9004f03be0074
:103c80004f02be004f01be004f00be003600f900db
:103c9000004006000600fa00000f780011079800a7
:103ca0001e007800200798002e009000e30f5000bf
:103cb000670032002e009000e30f500007003e0026
:103cc0002e009000e10f50002e0032002e009000d8
:103cd000e10f500041003e000d0037002e00900023
:103ce000e50f5000940032002e009000e50f5000c8
:103cf000740039002e009000e60f5000ab00320037
:103d00002e009000e70f5000c5003200da003700a7
:103d10001e009000e10f50000f003600c4c2bf002b
:103d20000080fb004600de00614060000004a2004d
:103d300061406000614060004601dd00412c2000d0
:103d400091407800f0cbb30000c0600002407000ea
:103d5000c4e2b7001e0137001e0090006140600001
:103d6000614060004601dd00412c20009140780058
:103d7000f0cbb30000c0600002407000c4e2b700a6
:103d8000130137001e009000e10f50000b003600b9
:103d9000c4c2bf000080fb004700de000004a20098
:103da00061406000c700dd00c4c2bf000074a10014
:103db00001407000c4e2b700050137001e0090000a
:103dc00061406000c700dd00c4c2bf000074a100f4
:103dd00001407000c4e2b700fd0037001e009000f3
:103de000e10f50000f003600c5c2bf000080fb008d
:103df0000000d100614060000004a200614060004a
:103e00006140600000414000512c2000914078004a
:103e1000d0cfb30000c0600002407000c5e2b70020
:103e2000eb0037001e0090006140600061406000c0
:103e300000414000512c200091407800d0cfb300c9
:103e400000c0600002407000c5e2b700e00037002b
:103e50001e009000e10f50000f003600c5c2bf00e9
:103e60000080fb004400de00614060000004a2000e
:103e700061406000614060004401dd00512c200081
:103e800091407800f0ceb30000c0600002407000a6
:103e9000c5e2b700ce0037001e0090006140600010
:103ea000614060004401dd00512c20009140780009
:103eb000f0ceb30000c0600002407000c5e2b70061
:103ec000c30037001e009000e10f50000f003600c5
:103ed000c5c2bf000080fb004200de006140600000
:103ee0000004a20061406000614060004201dd000a
:103ef000512c200091407800b0cfb30000c060008a
:103f000002407000c5e2b700b10037001e0090000b
:103f100061406000614060004201dd00512c2000e2
:103f200091407800b0cfb30000c060000240700044
:103f3000c5e2b700a60037001e009000e10f500058
:103f40000f003600c5c2bf000080fb004500de0048
:103f5000614060000004a2006140600061406000b8
:103f60004501dd00512c200091407800f0cdb300d8
:103f700000c0600002407000c5e2b7009400370046
:103f80001e00900061406000614060004501dd005e
:103f9000512c200091407800f0cdb30000c06000ab
:103fa00002407000c5e2b700890037001e00900093
:103fb000e10f50000f003600c5c2bf000080fb00bb
:103fc0004600de00614060000004a2006140600025
:103fd000614060004601dd00512c200091407800d6
:103fe000f0cbb30000c0600002407000c5e2b70033
:103ff000770037001e009000614060006140600063
:104000004601dd00512c200091407800f0cbb30038
:1040100000c0600002407000c5e2b7006c003700cd
:104020001e009000e10f50000b003600c5c2bf001b
:104030000080fb004700de000004a2006140600039
:10404000c700dd00c5c2bf000074a10001407000c0
:10405000c5e2b7005e0037001e00900061406000be
:10406000c700dd00c5c2bf000074a10001407000a0
:10407000c5e2b700560037001e00900061406000a6
:10408000c700dd00c5c2bf000074a1000140700080
:10409000c5e2b700c5c2bf000080fb004700de00dc
:1040a000614060004601dd00512c20009140780005
:1040b000f0cbb30000c0600002407000c5e2b70062
:1040c000c5c2bf000080fb004600de00614060000a
:1040d000614060004501dd00512c200091407800d6
:1040e000f0cdb30000c0600002407000c5e2b70030
:1040f000c5c2bf000080fb004500de0061406000db
:10410000614060004201dd00512c200091407800a8
:10411000b0cfb30000c0600002407000c5e2b7003d
:10412000c5c2bf000080fb004200de0061406000ad
:10413000614060004401dd00512c20009140780076
:10414000f0ceb30000c0600002407000c5e2b700ce
:10415000c5c2bf000080fb004400de00614060007b
:104160006140600000414000512c200091407800e7
:10417000d0cfb30000c0600002407000c5e2b700bd
:10418000c5c2bf000080fb000000d100614060009c
:10419000c700dd00c4c2bf000074a1000140700070
:1041a000c4e2b700c4c2bf000080fb004700de00cd
:1041b000614060004601dd00412c20009140780004
:1041c000f0cbb30000c0600002407000c4e2b70052
:1041d0000080fa00000006000000fa00c4c2a90036
:1041e000c4e2a900c522a900c582a900c542a90050
:1041f000c5a2a900c5c2a900c5e2a9000080fa00b5
:10420000000006000200fa00000f780010002000f5
:104210009e0f10000f003600d0c2bf000080fb00d0
:104220004200de00614060000004a20061406000c6
:10423000614060004201dd00012d200091407800c6
:10424000b0cfb30000c0600002407000d0e2b70001
:104250000a0037001e007800614060006140600085
:104260004201dd00012d200091407800b0cfb30065
:1042700000c0600002407000d0e2b7000080fa0089
:10428000000006000200fa00000f78001000200075
:104290009e0f10000f003600d0c2bf000080fb0050
:1042a0000000d100614060000004a2006140600095
:1042b0006140600000414000012d200091407800e5
:1042c000d0cfb30000c0600002407000d0e2b70061
:1042d0000a0037001e007800614060006140600005
:1042e00000414000012d200091407800d0cfb30064
:1042f00000c0600002407000d0e2b7000080fa0009
:10430000000006000000fa00c4c2bf000080fb00ed
:104310004600de006140600000c0ea0061406000cd
:10432000614060004601dd00412c20009140780092
:10433000f0cbb30000c0600002407000c4e2b700e0
:10434000c4c2bf000080fb004700de0000c0ea00de
:1043500061406000c700dd00c4c2bf000074a1005e
:1043600001407000c4e2b700c5c2bf000080fb007e
:104370000000d1006140600000c0ea0061406000c0
:104380006140600000414000512c200091407800c5
:10439000d0cfb30000c0600002407000c5e2b7009b
:1043a000c5c2bf000080fb004400de006140600029
:1043b00000c0ea0061406000614060004401dd002f
:1043c000512c200091407800f0ceb30000c0600076
:1043d00002407000c5e2b700c5c2bf000080fb000c
:1043e0004200de006140600000c0ea006140600001
:1043f000614060004201dd00512c200091407800b6
:10440000b0cfb30000c0600002407000c5e2b7004a
:10441000c5c2bf000080fb004500de0061406000b7
:1044200000c0ea0061406000614060004501dd00bd
:10443000512c200091407800f0cdb30000c0600006
:1044400002407000c5e2b700c5c2bf000080fb009b
:104450004600de006140600000c0ea00614060008c
:10446000614060004601dd00512c20009140780041
:10447000f0cbb30000c0600002407000c5e2b7009e
:10448000c5c2bf000080fb004700de0000c0ea009c
:1044900061406000c700dd00c5c2bf000074a1001c
:1044a00001407000c5e2b7000080fa00000006007d
:1044b0000000fa00c4c2bf000080fb004600de001e
:1044c0006140600000c0ea0061406000614060003f
:1044d0004601dd00412c200091407800f0cbb30074
:1044e00000c0600002407000c4e2b7000080fa0023
:1044f000000006000000fa00c4c2bf000080fb00fc
:104500004700de0000c0ea0061406000c700dd0037
:10451000c4c2bf000074a10001407000c4e2b70033
:104520000080fa00000006000000fa00c5c2bf00cb
:104530000080fb000000d1006140600000c0ea0084
:10454000614060006140600000414000512c20004b
:1045500091407800d0cfb30000c0600002407000ee
:10456000c5e2b7000080fa00000006000000fa0073
:10457000c5c2bf000080fb004400de006140600057
:1045800000c0ea0061406000614060004401dd005d
:10459000512c200091407800f0ceb30000c06000a4
:1045a00002407000c5e2b7000080fa00000006007b
:1045b0000000fa00c5c2bf000080fb004200de0020
:1045c0006140600000c0ea0061406000614060003e
:1045d0004201dd00512c200091407800b0cfb300a3
:1045e00000c0600002407000c5e2b7000080fa0021
:1045f000000006000000fa00c5c2bf000080fb00fa
:104600004500de006140600000c0ea0061406000db
:10461000614060004501dd00512c20009140780090
:10462000f0cdb30000c0600002407000c5e2b700ea
:104630000080fa00000006000000fa00c5c2bf00ba
:104640000080fb004600de006140600000c0ea0020
:1046500061406000614060004601dd00512c200097
:1046600091407800f0cbb30000c0600002407000c1
:10467000c5e2b7000080fa00000006000000fa0062
:10468000c5c2bf000080fb004700de0000c0ea009a
:1046900061406000c700dd00c5c2bf000074a1001a
:1046a00001407000c5e2b7000080fa00000006007b
:1046b0000200fa00000f78009e0078002018220007
:1046c0007efc07000080fa00000006000000fa00ef
:1046d00020182200a9fc07000080fa000000060054
:1046e0000200fa00000f78001e00e0000300350011
:1046f0009e00780020182200c8fc07000080fa0005
:10470000000006000000fa0070d3bf000004e000c3
:104710000b003a008000eb00700020005dfd0700f8
:1047200070d3bf000080fb001100200059fd07007e
:1047300070d3bf000040e80070f3b7001b003700e3
:1047400070d3bf00e74f50000c003a0070d3bf0099
:104750000080fb000000e9008000eb004dfd070039
:1047600070d3bf000080fb001100200049fd07004e
:104770000040eb0070f3b7000c00370070d3bf00af
:104780000080fb000000e9008000eb0041fd070015
:1047900070d3bf000080fb00110020003dfd07002a
:1047a00070d3bf000040e80070f3b7000080fa004b
:1047b000000006000200fa0071d3bf000080fb0079
:1047c000000f78001e007800e20f50001c0032003d
:1047d0001e007800e20f500007003c001e00780029
:1047e0000000e0000b0032001e007800e10f5000d6
:1047f0000c003200230037001e007800e30f500049
:10480000160032001e007800e40f50001a0032003b
:104810001c003700210020000000eb001dfd0700f8
:1048200018003700210020001000200019fd0700ab
:10483000210020007000200016fd07001100370045
:10484000210020002000200012fd07002100200090
:10485000600020000ffd07000a0037002100200043
:10486000300020000bfd0700210020005000200038
:1048700008fd070003003700210020004000200051
:1048800004fd070071d3bf00e34f500004003e0059
:1048900071d3bf000040e80071f3b7000200370099
:1048a0000040eb0071f3b7000080fa000000060042
:1048b0000000fa0072d3bf000004e0000f003a00cd
:1048c00098d3bf000004e0000c00320010c0b30019
:1048d00072f3b7008000eb000000eb00edfc070076
:1048e00072d3bf000080fb0011002000e9fc07002c
:1048f0000040eb0098f3b7002b00370072d3bf00e5
:104900000004e0000f003a0098d3bf000004e0006c
:104910000c003a0070c0b30072f3b7008000eb00e7
:104920000000eb00dbfc070072d3bf000080fb003f
:1049300011002000d7fc070010c0b30098f3b700a7
:104940001900370072d3bf00e74f50000a003a0049
:104950000040eb0072f3b7008000eb007000200015
:10496000ccfc070072d3bf000080fb0011002000c8
:10497000c8fc07000c00370072d3bf00e14f5000a5
:1049800009003a000040eb0072f3b7008000eb0032
:1049900010002000bffc070072d3bf000080fb00a6
:1049a00011002000bbfc07000080fa000000060098
:1049b0000200fa0073d3bf000080fb00000f7800f4
:1049c0001e007800e10f5000150032001e00780034
:1049d000e10f500004003c001e0078000000e000e1
:1049e000080032001a0037001e007800e20f500065
:1049f000120032001e007800e30f50001300320056
:104a000013003700210020000000eb00a1fc07008c
:104a100021002000400020009efc07000c00370011
:104a200021002000100020009afc07002100200037
:104a30003000200097fc070005003700210020000f
:104a40002000200093fc070001003700e2fd070072
:104a500073d3bf00e24f500004003e0073d3bf0089
:104a60000040e80073f3b700020037000040eb009d
:104a700073f3b7000080fa00000006000200fa009d
:104a800074d3bf000080fb00000f78001e00780088
:104a9000e10f5000150032001e007800e10f5000b9
:104aa00004003c001e0078000000e0000800320016
:104ab0001a0037001e007800e20f5000120032008a
:104ac0001e007800e30f500013003200130037007f
:104ad000210020000000eb006efc070021002000f8
:104ae000400020006bfc07000c0037002100200074
:104af0007000200067fc070021002000500020000b
:104b000064fc070005003700210020006000200041
:104b100060fc070001003700affd070074d3bf0041
:104b2000e24f500004003e0074d3bf000040e80094
:104b300074f3b700020037000040eb0074f3b700d5
:104b40000080fa00000006000400fa00e09a8000ed
:104b50000000e0001f003200819a800080da2f0000
:104b6000808f50001b003500819a80008025200036
:104b7000808f500017003c00d602a900d622a90061
:104b8000d642a900d662a9000000eb00e09a880096
:104b9000809a800000017800120798001e019000a2
:104ba0000200e00003003d001e0190000201ea0047
:104bb00012079800007122001e01900011000900e8
:104bc0000200d800ef005000405a220093fb07007b
:104bd0004d003700809a80000000e0000c00340097
:104be000c09a80000000e800c09a8800a09a800067
:104bf0000000e900a09a8800a09a80000000e00070
:104c00000e003d0030002000a09a88000b00370005
:104c1000c09a80000000e900c09a8800a09a800035
:104c20000000e800a09a8800a09a8000e30f5000de
:104c3000020034000000eb00a09a8800a09a8000d7
:104c4000000f78001e017800e10f510013003200c0
:104c50001e007800e10f500004003c001e017800a7
:104c60000200e000080032001a0037001e00780041
:104c7000e20f50000e0032001e017800e30f5100d9
:104c80001000320013003700d602a900d622a80077
:104c9000d642a900d662a8000e003700d602a900ad
:104ca000d622a800d642a800d662a9000900370083
:104cb000d602a800d622a900d642a800d662a90032
:104cc00004003700d602a800d622a900d642a900c7
:104cd000d662a800819a800080da2f00808f500071
:104ce00009003500819a800080252000808f5000c7
:104cf00005003c0010002000e09a8800f100200030
:104d0000405a220045fb07000080fa000000060020
:104d10000400fa00f09a80000000e0001f0032005a
:104d2000919a800080da2f00808f50001b003500a0
:104d3000919a800080252000808f500017003c0051
:104d4000d682a900d6a2a900d6c2a900d6e2a9009f
:104d50000000eb00f09a8800909a80000001780033
:104d6000120798001e0190000200e00003003d00c1
:104d70001e0190000201ea00120798000071220053
:104d80001e019000110009000200d800ef00500041
:104d90008068220021fb07004d003700909a8000b8
:104da0000000e0000c003d00d09a80000000e90007
:104db000d09a8800b09a80000000e900b09a88007c
:104dc000b09a80000000e0000e003d00300020009e
:104dd000b09a88000b003700d09a80000000e800ed
:104de000d09a8800b09a80000000e800b09a88004d
:104df000b09a8000e30f5000020034000000eb0086
:104e0000b09a8800b09a8000000f78001e017800e8
:104e1000e10f5100130032001e007800e10f500036
:104e200004003c001e0178000200e000080032008f
:104e30001a0037001e007800e20f50000e0032000a
:104e40001e017800e30f51001000320013003700fc
:104e5000d682a900d6a2a800d6c2a900d6e2a80090
:104e60000e003700d682a900d6a2a800d6c2a8009c
:104e7000d6e2a90009003700d682a800d6a2a90070
:104e8000d6c2a800d6e2a90004003700d682a80046
:104e9000d6a2a900d6c2a900d6e2a800919a8000a5
:104ea00080da2f00808f500009003500919a800031
:104eb00080252000808f500005003c00100020005d
:104ec000f09a8800f100200080682200d3fa0700e1
:104ed0000080fa00000006000000fa008000eb00ed
:104ee000405a220075fa07008000eb00806822001b
:104ef00072fa07000080fa00000006000200fa00c3
:104f0000000f78001e00e0000a003a000000eb00ed
:104f1000809a88008000eb00405a2200bffa070008
:104f2000d602a900d622a900d642a900d662a900bd
:104f30002d00370080c12f009e0f10000a003d0099
:104f400080c12f00809a8800829a8000008f2d00f7
:104f5000110009000200d80080007800405a2200a9
:104f6000aefa070020003700803e20009e0f1000a0
:104f70000a003400803e2000809a8800829a8000d7
:104f800000712200110009000200d80080007800a2
:104f9000405a2200a1fa0700130037001e007800d3
:104fa000809a88001e00e00008003d00008f2d0060
:104fb0001e017800110009000200d800800078006e
:104fc000405a220095fa07000700370000712200be
:104fd0001e017800110009000200d800800078004e
:104fe000405a22008dfa07000080fa0000000600f7
:104ff0000200fa00000f78001e00e0000a003a00ec
:105000000000eb00909a88008000eb00806822008e
:1050100082fa0700d682a900d6a2a900d6c2a900aa
:10502000d6e2a9002d00370080c12f009e0f10008e
:105030000a003d0080c12f00909a8800929a80005b
:10504000008f2d00110009000200d80080007800b8
:105050008068220071fa070020003700803e20009f
:105060009e0f10000a003400803e2000909a8800b5
:10507000929a800000712200110009000200d800fd
:10508000800078008068220064fa0700130037006f
:105090001e007800909a88001e00e00008003d0085
:1050a000008f2d001e017800110009000200d800b9
:1050b000800078008068220058fa07000700370057
:1050c000007122001e017800110009000200d800c2
:1050d000800078008068220050fa07000080fa0003
:1050e000000006000800fa00000f78001107980081
:1050f0001e007800300798003e0190000200e0009a
:1051000003003d003e0090000000ea0030079800d8
:105110001e019000220798002e0090000000e00081
:1051200003003d002e0190000201ea0022079800d2
:105130003e0090002e01900082004000803e200042
:10514000808f500006003c001e0090001e001000e2
:105150006aff07001e0090001e004000a4ff070029
:105160000080fa00000006000000fa00c09a8000eb
:105170000080fa00000006000200fa00000f78002c
:105180001e007800c09a88000080fa000000060027
:105190000000fa00d09a80000080fa0000000600ab
:1051a0000200fa00000f78001e007800d09a8800f4
:1051b0000080fa00000006000000fa00e6c2bf000e
:1051c0000080fb004600de00614060000081fb00c3
:1051d000e7c2bf000080fb000000d100614060001a
:1051e0000080fb000000400080007800e7c2bf00a4
:1051f000614060000080fb00008040000000400033
:1052000080007800e6c2bf000080fb004700de009f
:105210000080fb00008040000000400000004100d2
:105220000080fa0000000600b000fa00889fbe006f
:105230008a9fbe009b0a0700db0d0700f10d0700e7
:1052400040c7bf00614060000004e000020032007f
:105250004007a9000000fe00d7ff07000000e000a3
:10526000ca033a00ea00470080662c003a000900b1
:10527000b0587800b103b100b003b1006a00470034
:10528000caec0700800078006a004700160e07008d
:10529000a10520008e804000306a2c001b00090010
:1052a000b0587800c101b100c001b100a0052000d4
:1052b0000e004000bdec070080007800a005200033
:1052c0000e004000080e07000000eb0030079800b9
:1052d0000000eb00400798003e009000800078003e
:1052e000c00320000e004000010040001c0e07001b
:1052f0000000e0000a003200be009000c003200061
:105300000e00400000804000104078000000fb00cc
:10531000400798003e0090000000e8003007980029
:105320004e009000ea4f5000030032004e00900003
:10533000ed4f5000e8ff3a00be009000c00320008f
:105340000e004000808040000040eb008048780064
:10535000c00320000e004000104078000000fb0059
:105360006101b900f0fb2f00f1ff2f0002014000a6
:10537000838148006297980073979800700120001d
:10538000010020006e919000fe919000800f51006e
:10539000818f59006b033e006e909000fe9090004c
:1053a0000060010017003700980037001503370030
:1053b000fe02370035033700400237006103370033
:1053c00054013700c20137005e0337008a023700fc
:1053d000e2023700d500370036013700b50037004c
:1053e000a8003700570337003e013700ed003700b3
:1053f00039033700410337005203370051033700a8
:1054000047033700ea004700f06b2c000e0009004c
:10541000b0587800f100b100f000b1006a00470018
:1054200062ec0700800078006a004700ae0d0700bc
:105430006d030700100798000000eb0050979800dc
:10544000660037005e9090006b00b900e5004000f8
:10545000400f210000804000104078000081fb00d8
:105460005e9090006b00b900e4004000400f210006
:1054700000804000104078008081fb005e9090002a
:105480006b00b900e3004000400f210000804000a5
:10549000104078000082fb005e9090006b00b90025
:1054a0008080e800400f210000804000104078001c
:1054b0008082fb005e9090006b00b9008000e800e5
:1054c000400f210000804000104078000083fb0066
:1054d0005e9090006b00b90080007800400f2100c2
:1054e00000804000104078008083fb005e909000b8
:1054f0006b00b900e9004000400f2100008040002f
:10550000104078000084fb005e9090006b00b900b2
:10551000e8004000400f210000804000104078006b
:105520008084fb005e9090006b00b900e7004000b3
:10553000400f210000804000104078000085fb00f3
:105540005e9090006b00b900e6004000400f210023
:1055500000804000104078000080fb00de9090004a
:10556000ab0520008e854500821f7800831f7800e0
:10557000841f7800851f7800861f7800871f7800b9
:10558000881f7800891f78008a1f7800801f7800a4
:10559000811f7800e06c2c00801f78000b007800e1
:1055a0000fec0700f8875700a00520000e00400010
:1055b000feeb070080007800a00520000e004000f0
:1055c000490d0700540d07000000e000fdff3a0000
:1055d0005e9090000000e80050979800de909000e8
:1055e0001e009000808f500096ff3500a10520001e
:1055f0008e80400030712c0012000900b0587800f5
:105600003101b1003001b100d5023700ea00470096
:1056100060722c000f000900b05878000101b10041
:105620000001b1006a004700e0eb0700800078004d
:105630006a0047002c0d0700b80307000004e000d3
:1056400008003a00a10520008e80400060732c0005
:105650000e000900b0587800f100b100f000b10070
:10566000bf023700a10520008e80400050742c003e
:1056700016000900b05878007101b1007001b10046
:10568000b70237006a004700ae040700a1052000fa
:105690008e8040006a004700801f7800c0752c0093
:1056a000801f780001007800cdeb0700e4875700e9
:1056b000ab023700c10320008e8040006a00470023
:1056c000801f7800c0762c00801f780001007800d1
:1056d000e0eb0700e48757006a0047004805070031
:1056e0000004e00008003200a10520008e80400088
:1056f00020772c0014000900b05878005101b10047
:105700005001b10096023700a00520000e004000b5
:10571000ea004700811f7800c1752c00811f7800c6
:10572000afeb0700e48757008d023700c10320006c
:105730008e8040006a004700801f780070782c003f
:10574000801f780001007800c2eb0700e487570053
:105750006a004700970507000004e00008003200d7
:10576000a10520008e804000d0782c001500090093
:10577000b05878006101b1006001b10078023700d3
:10578000a00520000e004000ea004700811f7800bd
:10579000317a2c00811f780091eb0700e4875700d5
:1057a0006f023700c10320008e8040006a0047006e
:1057b000801f7800807b2c00801f7800010078001b
:1057c000a4eb0700e48757006a0047000c050700b8
:1057d0000004e00008003200a10520008e80400097
:1057e00020772c0014000900b05878005101b10056
:1057f0005001b10008003700a00520000e00400055
:10580000ea004700811f7800c1752c00811f7800d5
:1058100073eb0700e4875700a00520000e0040004e
:1058200062eb070080007800a00520000e00400019
:10583000ad0c0700c10320008e8040006a004700c5
:10584000801f7800e07b2c00801f7800010078002a
:1058500063eb0700e4875700c00320000e00400000
:10586000540507000004e00008003200a1052000f4
:105870008e804000d0782c0015000900b0587800c8
:105880006101b1006001b10035023700a0052000c0
:105890000e004000c10320008e804000811f780070
:1058a000317a2c00811f78004deb0700e487570008
:1058b0002b0237006a0047007d040700a105200085
:1058c0008e8040006a004700801f7800307a2c00ec
:1058d000801f78000100780041eb0700e487570043
:1058e0001f0237002403070020079800a1052000ad
:1058f0008e8040002e019000821f7800807c2c005a
:10590000801f78000100780035eb0700e48757001e
:105910001302370021012000107e2c00720c0700ba
:105920007d0c07000000e000fdff3a0001022000ae
:10593000407f2c006c0c0700770c07000000e00093
:10594000fdff3a002103200050812c00660c070067
:10595000710c07000000e000fdff3a00310120005b
:1059600080842c00600c07006b0c07000000e00036
:10597000fdff3a00c1012000c0852c005a0c070031
:10598000650c07000000e000fdff3a00e103200085
:1059900090872c00540c07005f0c07000000e0000b
:1059a000fdff3a00b1012000808b2c004e0c070057
:1059b000590c07000000e000fdff3a00f101200053
:1059c000408d2c00480c0700530c07000000e0003d
:1059d000fdff3a00d1042000408f2c00420c07004c
:1059e0004d0c07000000e000fdff3a0021032000fd
:1059f00020942c003c0c0700470c07000000e0003e
:105a0000fdff3a00a102200050972c00360c070041
:105a1000410c07000000e000fdff3a00b10120004a
:105a2000009a2c00300c07003b0c07000000e0003f
:105a3000fdff3a00d1012000c09b2c002a0c07007a
:105a4000350c07000000e000fdff3a0021022000b5
:105a5000a09d2c00240c07002f0c07000000e00084
:105a6000fdff3a0021032000d09f2c001e0c0700f0
:105a7000290c07000000e000fdff3a00d1012000e2
:105a800000a32c00180c0700230c07000000e00006
:105a9000fdff3a00c1012000e0a42c00120c070019
:105aa0001d0c07000000e000fdff3a00a1052000ea
:105ab0008e804000a0c0b30080487800a10520007f
:105ac0008e8040000040eb0090409800a401370019
:105ad000ea004700b0a62c000f000900b05878007b
:105ae0000101b1000001b1006a004700afea070000
:105af000800078006a004700fb0b070020fd2000b3
:105b00001a050700100798000000eb005097980056
:105b10005e0037005e9090007d00b900e800400014
:105b200020fd200000804000104078000081fb0034
:105b30005e9090007d00b900e700400020fd20004d
:105b400000804000104078008081fb005e90900053
:105b50007d00b900e600400020fd200000804000ec
:105b6000104078000082fb005e9090007d00b9003c
:105b7000e500400020fd200000804000104078003b
:105b80008082fb005e9090007d00b900e400400040
:105b900020fd200000804000104078000083fb00c2
:105ba0005e9090007d00b900e300400020fd2000e1
:105bb00000804000104078008083fb005e909000e1
:105bc0007d00b9008080e80020fd200000804000ba
:105bd000104078000084fb005e9090007d00b900ca
:105be0008000e80020fd2000008040001040780088
:105bf0008084fb005e9090007d00b90080007800fa
:105c000020fd200000804000104078000080fb0054
:105c1000de909000aa0520000e054500821f780046
:105c2000831f7800841f7800851f7800861f780006
:105c3000871f7800881f7800891f7800801f7800f0
:105c4000811f7800b0a72c00801f78000a00780020
:105c500063ea0700f6875700a00520000e00400009
:105c600052ea070080007800a00520000e004000e6
:105c70009d0b0700a80b07000000e000fdff3a00a5
:105c80005e9090000000e80050979800de90900031
:105c90001e009000808f50009eff3500a10520005f
:105ca0008e80400030712c0012000900b05878003e
:105cb0003101b1003001b10029013700c1032000da
:105cc0008e804000a00a20000e004000801f780057
